{"contracts/Voting.sol":{"Voting":{"abi":[{"inputs":[{"internalType":"address","name":"trustedForwarder","type":"address"}],"stateMutability":"nonpayable","type":"constructor"},{"anonymous":false,"inputs":[{"indexed":false,"internalType":"address","name":"oldAdmin","type":"address"},{"indexed":false,"internalType":"address","name":"newAdmin","type":"address"}],"name":"AdminChanged","type":"event"},{"anonymous":false,"inputs":[{"indexed":true,"internalType":"uint256","name":"candidateId","type":"uint256"},{"indexed":false,"internalType":"string","name":"age","type":"string"},{"indexed":false,"internalType":"string","name":"name","type":"string"},{"indexed":false,"internalType":"string","name":"image","type":"string"},{"indexed":false,"internalType":"uint256","name":"voteCount","type":"uint256"},{"indexed":false,"internalType":"address","name":"_address","type":"address"},{"indexed":false,"internalType":"string","name":"ipfs","type":"string"}],"name":"CandidateCreate","type":"event"},{"anonymous":false,"inputs":[{"indexed":false,"internalType":"uint256","name":"candidateId","type":"uint256"},{"indexed":false,"internalType":"string","name":"name","type":"string"}],"name":"CandidateCreated","type":"event"},{"anonymous":false,"inputs":[{"indexed":false,"internalType":"uint256","name":"newVersion","type":"uint256"}],"name":"ElectionReset","type":"event"},{"anonymous":false,"inputs":[{"indexed":false,"internalType":"address","name":"oldRelayer","type":"address"},{"indexed":false,"internalType":"address","name":"newRelayer","type":"address"}],"name":"RelayerChanged","type":"event"},{"anonymous":false,"inputs":[{"indexed":false,"internalType":"address","name":"voter","type":"address"},{"indexed":false,"internalType":"uint256","name":"candidateId","type":"uint256"}],"name":"VoteCast","type":"event"},{"anonymous":false,"inputs":[{"indexed":true,"internalType":"uint256","name":"voter_voterId","type":"uint256"},{"indexed":false,"internalType":"string","name":"voter_name","type":"string"},{"indexed":false,"internalType":"string","name":"voter_image","type":"string"},{"indexed":false,"internalType":"address","name":"voter_address","type":"address"},{"indexed":false,"internalType":"uint256","name":"voter_allowed","type":"uint256"},{"indexed":false,"internalType":"bool","name":"voter_voted","type":"bool"},{"indexed":false,"internalType":"uint256","name":"voter_vote","type":"uint256"},{"indexed":false,"internalType":"string","name":"voter_ipfs","type":"string"}],"name":"VoterCreated","type":"event"},{"anonymous":false,"inputs":[{"indexed":false,"internalType":"address","name":"voter","type":"address"}],"name":"VoterRegistered","type":"event"},{"inputs":[],"name":"_candidateId","outputs":[{"internalType":"uint256","name":"","type":"uint256"}],"stateMutability":"view","type":"function"},{"inputs":[],"name":"_voterId","outputs":[{"internalType":"uint256","name":"","type":"uint256"}],"stateMutability":"view","type":"function"},{"inputs":[{"internalType":"uint256","name":"","type":"uint256"}],"name":"candidateAddress","outputs":[{"internalType":"address","name":"","type":"address"}],"stateMutability":"view","type":"function"},{"inputs":[{"internalType":"address","name":"","type":"address"}],"name":"candidateElectionVersion","outputs":[{"internalType":"uint256","name":"","type":"uint256"}],"stateMutability":"view","type":"function"},{"inputs":[{"internalType":"address","name":"","type":"address"}],"name":"candidates","outputs":[{"internalType":"uint256","name":"candidateId","type":"uint256"},{"internalType":"string","name":"age","type":"string"},{"internalType":"string","name":"name","type":"string"},{"internalType":"string","name":"image","type":"string"},{"internalType":"uint256","name":"voteCount","type":"uint256"},{"internalType":"address","name":"_address","type":"address"},{"internalType":"string","name":"ipfs","type":"string"}],"stateMutability":"view","type":"function"},{"inputs":[{"internalType":"address","name":"newRelayer","type":"address"}],"name":"changeRelayer","outputs":[],"stateMutability":"nonpayable","type":"function"},{"inputs":[],"name":"currentRelayer","outputs":[{"internalType":"address","name":"","type":"address"}],"stateMutability":"view","type":"function"},{"inputs":[],"name":"electionVersion","outputs":[{"internalType":"uint256","name":"","type":"uint256"}],"stateMutability":"view","type":"function"},{"inputs":[],"name":"getCandidate","outputs":[{"internalType":"address[]","name":"","type":"address[]"}],"stateMutability":"view","type":"function"},{"inputs":[{"internalType":"address","name":"_address","type":"address"}],"name":"getCandidateData","outputs":[{"internalType":"string","name":"","type":"string"},{"internalType":"string","name":"","type":"string"},{"internalType":"uint256","name":"","type":"uint256"},{"internalType":"string","name":"","type":"string"},{"internalType":"uint256","name":"","type":"uint256"},{"internalType":"string","name":"","type":"string"},{"internalType":"address","name":"","type":"address"}],"stateMutability":"view","type":"function"},{"inputs":[],"name":"getCandidateLength","outputs":[{"internalType":"uint256","name":"","type":"uint256"}],"stateMutability":"view","type":"function"},{"inputs":[],"name":"getKey","outputs":[{"internalType":"address[]","name":"","type":"address[]"}],"stateMutability":"view","type":"function"},{"inputs":[],"name":"getVotedVoterList","outputs":[{"internalType":"address[]","name":"","type":"address[]"}],"stateMutability":"view","type":"function"},{"inputs":[{"internalType":"address","name":"_address","type":"address"}],"name":"getVoterData","outputs":[{"internalType":"uint256","name":"","type":"uint256"},{"internalType":"string","name":"","type":"string"},{"internalType":"string","name":"","type":"string"},{"internalType":"address","name":"","type":"address"},{"internalType":"string","name":"","type":"string"},{"internalType":"bool","name":"","type":"bool"},{"internalType":"uint256","name":"","type":"uint256"}],"stateMutability":"view","type":"function"},{"inputs":[],"name":"getVoterLength","outputs":[{"internalType":"uint256","name":"","type":"uint256"}],"stateMutability":"view","type":"function"},{"inputs":[],"name":"getVoterList","outputs":[{"internalType":"address[]","name":"","type":"address[]"}],"stateMutability":"view","type":"function"},{"inputs":[{"internalType":"address","name":"_candidateAddress","type":"address"},{"internalType":"uint256","name":"_candidateVoteId","type":"uint256"}],"name":"giveVote","outputs":[],"stateMutability":"nonpayable","type":"function"},{"inputs":[{"internalType":"address","name":"forwarder","type":"address"}],"name":"isTrustedForwarder","outputs":[{"internalType":"bool","name":"","type":"bool"}],"stateMutability":"view","type":"function"},{"inputs":[],"name":"resetElection","outputs":[],"stateMutability":"nonpayable","type":"function"},{"inputs":[{"internalType":"address","name":"_address","type":"address"},{"internalType":"string","name":"_age","type":"string"},{"internalType":"string","name":"_name","type":"string"},{"internalType":"string","name":"_image","type":"string"},{"internalType":"string","name":"_ipfs","type":"string"}],"name":"setCandidate","outputs":[],"stateMutability":"nonpayable","type":"function"},{"inputs":[{"internalType":"address","name":"_address","type":"address"},{"internalType":"string","name":"_name","type":"string"},{"internalType":"string","name":"_image","type":"string"},{"internalType":"string","name":"_ipfs","type":"string"}],"name":"setVoter","outputs":[],"stateMutability":"nonpayable","type":"function"},{"inputs":[{"internalType":"address","name":"newAdmin","type":"address"}],"name":"transferAdmin","outputs":[],"stateMutability":"nonpayable","type":"function"},{"inputs":[],"name":"trustedForwarder","outputs":[{"internalType":"address","name":"","type":"address"}],"stateMutability":"view","type":"function"},{"inputs":[{"internalType":"uint256","name":"","type":"uint256"}],"name":"votedVoters","outputs":[{"internalType":"address","name":"","type":"address"}],"stateMutability":"view","type":"function"},{"inputs":[{"internalType":"address","name":"","type":"address"}],"name":"voterElectionVersion","outputs":[{"internalType":"uint256","name":"","type":"uint256"}],"stateMutability":"view","type":"function"},{"inputs":[{"internalType":"address","name":"","type":"address"}],"name":"voters","outputs":[{"internalType":"uint256","name":"voter_voterId","type":"uint256"},{"internalType":"string","name":"voter_name","type":"string"},{"internalType":"string","name":"voter_image","type":"string"},{"internalType":"address","name":"voter_address","type":"address"},{"internalType":"uint256","name":"voter_allowed","type":"uint256"},{"internalType":"bool","name":"voter_voted","type":"bool"},{"internalType":"uint256","name":"voter_vote","type":"uint256"},{"internalType":"string","name":"voter_ipfs","type":"string"}],"stateMutability":"view","type":"function"},{"inputs":[{"internalType":"uint256","name":"","type":"uint256"}],"name":"votersAddress","outputs":[{"internalType":"address","name":"","type":"address"}],"stateMutability":"view","type":"function"},{"inputs":[],"name":"votingOrganizer","outputs":[{"internalType":"address","name":"","type":"address"}],"stateMutability":"view","type":"function"}],"evm":{"bytecode":{"linkReferences":{},"object":"60a06040523480156200001157600080fd5b5060405162003cb538038062003cb5833981810160405281019062000037919062000273565b808073ffffffffffffffffffffffffffffffffffffffff1660808173ffffffffffffffffffffffffffffffffffffffff1681525050506200007d6200011c60201b60201c565b600360006101000a81548173ffffffffffffffffffffffffffffffffffffffff021916908373ffffffffffffffffffffffffffffffffffffffff160217905550620000cd6200011c60201b60201c565b600460006101000a81548173ffffffffffffffffffffffffffffffffffffffff021916908373ffffffffffffffffffffffffffffffffffffffff1602179055506001600281905550506200039a565b60008060003690509050600062000138620001a760201b60201c565b90508082101580156200015857506200015733620001b060201b60201c565b5b156200018f576000368284039080926200017593929190620002af565b9062000182919062000334565b60601c92505050620001a4565b6200019f620001f760201b60201c565b925050505b90565b60006014905090565b6000620001c2620001ff60201b60201c565b73ffffffffffffffffffffffffffffffffffffffff168273ffffffffffffffffffffffffffffffffffffffff16149050919050565b600033905090565b6000608051905090565b600080fd5b600073ffffffffffffffffffffffffffffffffffffffff82169050919050565b60006200023b826200020e565b9050919050565b6200024d816200022e565b81146200025957600080fd5b50565b6000815190506200026d8162000242565b92915050565b6000602082840312156200028c576200028b62000209565b5b60006200029c848285016200025c565b91505092915050565b600080fd5b600080fd5b60008085851115620002c657620002c5620002a5565b5b83861115620002da57620002d9620002aa565b5b6001850283019150848603905094509492505050565b600082905092915050565b60007fffffffffffffffffffffffffffffffffffffffff00000000000000000000000082169050919050565b600082821b905092915050565b6000620003428383620002f0565b826200034f8135620002fb565b9250601482101562000392576200038d7fffffffffffffffffffffffffffffffffffffffff0000000000000000000000008360140360080262000327565b831692505b505092915050565b6080516138ff620003b66000396000610f4401526138ff6000f3fe608060405234801561001057600080fd5b50600436106101c45760003560e01c80638ab66a90116100f9578063b9be315211610097578063e8f3052311610071578063e8f305231461055e578063f7522a8314610568578063f7d0628f14610586578063fa678ae7146105a4576101c4565b8063b9be3152146104f4578063c91ec71214610512578063d6310e9a1461052e576101c4565b80639af2ae64116100d35780639af2ae6414610451578063a3ec138d14610481578063a7388967146104b8578063b28d92ae146104d6576101c4565b80638ab66a90146103c75780638e945685146103fd5780638fb4cd801461041b576101c4565b80635cc48aa7116101665780637831ffb3116101405780637831ffb31461033f5780637da0a8771461036f57806382678dd61461038d57806382aac8f3146103ab576101c4565b80635cc48aa7146102e757806370218b851461030557806375829def14610323576101c4565b806341cd0420116101a257806341cd04201461024d57806343242daa1461026b57806348d238291461029b578063572b6c05146102b7576101c4565b806305ad45a4146101c95780632a466ac7146101e75780633a88251a1461021d575b600080fd5b6101d16105c0565b6040516101de9190612509565b60405180910390f35b61020160048036038101906101fc9190612596565b6105cd565b6040516102149796959493929190612662565b60405180910390f35b61023760048036038101906102329190612719565b610a14565b6040516102449190612746565b60405180910390f35b610255610a53565b6040516102629190612746565b60405180910390f35b61028560048036038101906102809190612719565b610a79565b6040516102929190612746565b60405180910390f35b6102b560048036038101906102b09190612596565b610ab8565b005b6102d160048036038101906102cc9190612596565b610c63565b6040516102de919061277c565b60405180910390f35b6102ef610ca2565b6040516102fc9190612746565b60405180910390f35b61030d610cc8565b60405161031a9190612855565b60405180910390f35b61033d60048036038101906103389190612596565b610d56565b005b61035960048036038101906103549190612719565b610f01565b6040516103669190612746565b60405180910390f35b610377610f40565b6040516103849190612746565b60405180910390f35b610395610f68565b6040516103a29190612855565b60405180910390f35b6103c560048036038101906103c091906129ac565b610ff6565b005b6103e160048036038101906103dc9190612596565b611369565b6040516103f49796959493929190612a67565b60405180910390f35b6104056115eb565b6040516104129190612855565b60405180910390f35b61043560048036038101906104309190612596565b611679565b6040516104489796959493929190612af2565b60405180910390f35b61046b60048036038101906104669190612596565b611a41565b6040516104789190612509565b60405180910390f35b61049b60048036038101906104969190612596565b611a59565b6040516104af989796959493929190612b76565b60405180910390f35b6104c0611c66565b6040516104cd9190612509565b60405180910390f35b6104de611c6c565b6040516104eb9190612855565b60405180910390f35b6104fc611cfa565b6040516105099190612509565b60405180910390f35b61052c60048036038101906105279190612c09565b611d00565b005b61054860048036038101906105439190612596565b61204b565b6040516105559190612509565b60405180910390f35b610566612063565b005b610570612186565b60405161057d9190612509565b60405180910390f35b61058e612193565b60405161059b9190612509565b60405180910390f35b6105be60048036038101906105b99190612cf4565b612199565b005b6000600a80549050905090565b60608060006060600060606000600860008973ffffffffffffffffffffffffffffffffffffffff1673ffffffffffffffffffffffffffffffffffffffff168152602001908152602001600020600101600860008a73ffffffffffffffffffffffffffffffffffffffff1673ffffffffffffffffffffffffffffffffffffffff168152602001908152602001600020600201600860008b73ffffffffffffffffffffffffffffffffffffffff1673ffffffffffffffffffffffffffffffffffffffff16815260200190815260200160002060000154600860008c73ffffffffffffffffffffffffffffffffffffffff1673ffffffffffffffffffffffffffffffffffffffff168152602001908152602001600020600301600860008d73ffffffffffffffffffffffffffffffffffffffff1673ffffffffffffffffffffffffffffffffffffffff16815260200190815260200160002060040154600860008e73ffffffffffffffffffffffffffffffffffffffff1673ffffffffffffffffffffffffffffffffffffffff168152602001908152602001600020600601600860008f73ffffffffffffffffffffffffffffffffffffffff1673ffffffffffffffffffffffffffffffffffffffff16815260200190815260200160002060050160009054906101000a900473ffffffffffffffffffffffffffffffffffffffff168680546107d790612d63565b80601f016020809104026020016040519081016040528092919081815260200182805461080390612d63565b80156108505780601f1061082557610100808354040283529160200191610850565b820191906000526020600020905b81548152906001019060200180831161083357829003601f168201915b5050505050965085805461086390612d63565b80601f016020809104026020016040519081016040528092919081815260200182805461088f90612d63565b80156108dc5780601f106108b1576101008083540402835291602001916108dc565b820191906000526020600020905b8154815290600101906020018083116108bf57829003601f168201915b505050505095508380546108ef90612d63565b80601f016020809104026020016040519081016040528092919081815260200182805461091b90612d63565b80156109685780601f1061093d57610100808354040283529160200191610968565b820191906000526020600020905b81548152906001019060200180831161094b57829003601f168201915b5050505050935081805461097b90612d63565b80601f01602080910402602001604051908101604052809291908181526020018280546109a790612d63565b80156109f45780601f106109c9576101008083540402835291602001916109f4565b820191906000526020600020905b8154815290600101906020018083116109d757829003601f168201915b505050505091509650965096509650965096509650919395979092949650565b60078181548110610a2457600080fd5b906000526020600020016000915054906101000a900473ffffffffffffffffffffffffffffffffffffffff1681565b600460009054906101000a900473ffffffffffffffffffffffffffffffffffffffff1681565b600a8181548110610a8957600080fd5b906000526020600020016000915054906101000a900473ffffffffffffffffffffffffffffffffffffffff1681565b610ac0612435565b73ffffffffffffffffffffffffffffffffffffffff16600360009054906101000a900473ffffffffffffffffffffffffffffffffffffffff1673ffffffffffffffffffffffffffffffffffffffff1614610b4f576040517f08c379a0000000000000000000000000000000000000000000000000000000008152600401610b4690612e06565b60405180910390fd5b600073ffffffffffffffffffffffffffffffffffffffff168173ffffffffffffffffffffffffffffffffffffffff1603610bbe576040517f08c379a0000000000000000000000000000000000000000000000000000000008152600401610bb590612e72565b60405180910390fd5b6000600460009054906101000a900473ffffffffffffffffffffffffffffffffffffffff16905081600460006101000a81548173ffffffffffffffffffffffffffffffffffffffff021916908373ffffffffffffffffffffffffffffffffffffffff1602179055507f18f08848c5694a025f9966c34ff2367f32a1a8275663b282ee01f4338b0454908183604051610c57929190612e92565b60405180910390a15050565b6000610c6d610f40565b73ffffffffffffffffffffffffffffffffffffffff168273ffffffffffffffffffffffffffffffffffffffff16149050919050565b600360009054906101000a900473ffffffffffffffffffffffffffffffffffffffff1681565b60606007805480602002602001604051908101604052809291908181526020018280548015610d4c57602002820191906000526020600020905b8160009054906101000a900473ffffffffffffffffffffffffffffffffffffffff1673ffffffffffffffffffffffffffffffffffffffff1681526020019060010190808311610d02575b5050505050905090565b610d5e612435565b73ffffffffffffffffffffffffffffffffffffffff16600360009054906101000a900473ffffffffffffffffffffffffffffffffffffffff1673ffffffffffffffffffffffffffffffffffffffff1614610ded576040517f08c379a0000000000000000000000000000000000000000000000000000000008152600401610de490612e06565b60405180910390fd5b600073ffffffffffffffffffffffffffffffffffffffff168173ffffffffffffffffffffffffffffffffffffffff1603610e5c576040517f08c379a0000000000000000000000000000000000000000000000000000000008152600401610e5390612f07565b60405180910390fd5b6000600360009054906101000a900473ffffffffffffffffffffffffffffffffffffffff16905081600360006101000a81548173ffffffffffffffffffffffffffffffffffffffff021916908373ffffffffffffffffffffffffffffffffffffffff1602179055507f7e644d79422f17c01e4894b5f4f588d331ebfa28653d42ae832dc59e38c9798f8183604051610ef5929190612e92565b60405180910390a15050565b60098181548110610f1157600080fd5b906000526020600020016000915054906101000a900473ffffffffffffffffffffffffffffffffffffffff1681565b60007f0000000000000000000000000000000000000000000000000000000000000000905090565b60606007805480602002602001604051908101604052809291908181526020018280548015610fec57602002820191906000526020600020905b8160009054906101000a900473ffffffffffffffffffffffffffffffffffffffff1673ffffffffffffffffffffffffffffffffffffffff1681526020019060010190808311610fa2575b5050505050905090565b610ffe612435565b73ffffffffffffffffffffffffffffffffffffffff16600360009054906101000a900473ffffffffffffffffffffffffffffffffffffffff1673ffffffffffffffffffffffffffffffffffffffff161461108d576040517f08c379a000000000000000000000000000000000000000000000000000000000815260040161108490612f99565b60405180910390fd5b600254600560008673ffffffffffffffffffffffffffffffffffffffff1673ffffffffffffffffffffffffffffffffffffffff1681526020019081526020016000205410611110576040517f08c379a00000000000000000000000000000000000000000000000000000000081526004016111079061302b565b60405180910390fd5b6000808154809291906111229061307a565b91905055506000805490506000600b60008773ffffffffffffffffffffffffffffffffffffffff1673ffffffffffffffffffffffffffffffffffffffff16815260200190815260200160002090508181600001819055508481600101908161118a919061326e565b508381600201908161119c919061326e565b50858160030160006101000a81548173ffffffffffffffffffffffffffffffffffffffff021916908373ffffffffffffffffffffffffffffffffffffffff1602179055506001816004018190555060008160050160006101000a81548160ff0219169083151502179055506103e8816006018190555082816007019081611223919061326e565b50600a869080600181540180825580915050600190039060005260206000200160009091909190916101000a81548173ffffffffffffffffffffffffffffffffffffffff021916908373ffffffffffffffffffffffffffffffffffffffff160217905550600254600560008873ffffffffffffffffffffffffffffffffffffffff1673ffffffffffffffffffffffffffffffffffffffff16815260200190815260200160002081905550817ff5f39971dd62d9929e3a9feaa6bb77fe7c7da0001babff8a65a7e51ad0201c1986868985600401548660050160009054906101000a900460ff1687600601548a6040516113229796959493929190613340565b60405180910390a27fb6be2187d059cc2a55fe29e0e503b566e1e0f8c8780096e185429350acffd3dd866040516113599190612746565b60405180910390a1505050505050565b600860205280600052604060002060009150905080600001549080600101805461139290612d63565b80601f01602080910402602001604051908101604052809291908181526020018280546113be90612d63565b801561140b5780601f106113e05761010080835404028352916020019161140b565b820191906000526020600020905b8154815290600101906020018083116113ee57829003601f168201915b50505050509080600201805461142090612d63565b80601f016020809104026020016040519081016040528092919081815260200182805461144c90612d63565b80156114995780601f1061146e57610100808354040283529160200191611499565b820191906000526020600020905b81548152906001019060200180831161147c57829003601f168201915b5050505050908060030180546114ae90612d63565b80601f01602080910402602001604051908101604052809291908181526020018280546114da90612d63565b80156115275780601f106114fc57610100808354040283529160200191611527565b820191906000526020600020905b81548152906001019060200180831161150a57829003601f168201915b5050505050908060040154908060050160009054906101000a900473ffffffffffffffffffffffffffffffffffffffff169080600601805461156890612d63565b80601f016020809104026020016040519081016040528092919081815260200182805461159490612d63565b80156115e15780601f106115b6576101008083540402835291602001916115e1565b820191906000526020600020905b8154815290600101906020018083116115c457829003601f168201915b5050505050905087565b6060600980548060200260200160405190810160405280929190818152602001828054801561166f57602002820191906000526020600020905b8160009054906101000a900473ffffffffffffffffffffffffffffffffffffffff1673ffffffffffffffffffffffffffffffffffffffff1681526020019060010190808311611625575b5050505050905090565b600060608060006060600080600b60008973ffffffffffffffffffffffffffffffffffffffff1673ffffffffffffffffffffffffffffffffffffffff16815260200190815260200160002060000154600b60008a73ffffffffffffffffffffffffffffffffffffffff1673ffffffffffffffffffffffffffffffffffffffff168152602001908152602001600020600101600b60008b73ffffffffffffffffffffffffffffffffffffffff1673ffffffffffffffffffffffffffffffffffffffff168152602001908152602001600020600201600b60008c73ffffffffffffffffffffffffffffffffffffffff1673ffffffffffffffffffffffffffffffffffffffff16815260200190815260200160002060030160009054906101000a900473ffffffffffffffffffffffffffffffffffffffff16600b60008d73ffffffffffffffffffffffffffffffffffffffff1673ffffffffffffffffffffffffffffffffffffffff168152602001908152602001600020600701600b60008e73ffffffffffffffffffffffffffffffffffffffff1673ffffffffffffffffffffffffffffffffffffffff16815260200190815260200160002060050160009054906101000a900460ff16600b60008f73ffffffffffffffffffffffffffffffffffffffff1673ffffffffffffffffffffffffffffffffffffffff1681526020019081526020016000206004015485805461189090612d63565b80601f01602080910402602001604051908101604052809291908181526020018280546118bc90612d63565b80156119095780601f106118de57610100808354040283529160200191611909565b820191906000526020600020905b8154815290600101906020018083116118ec57829003601f168201915b5050505050955084805461191c90612d63565b80601f016020809104026020016040519081016040528092919081815260200182805461194890612d63565b80156119955780601f1061196a57610100808354040283529160200191611995565b820191906000526020600020905b81548152906001019060200180831161197857829003601f168201915b505050505094508280546119a890612d63565b80601f01602080910402602001604051908101604052809291908181526020018280546119d490612d63565b8015611a215780601f106119f657610100808354040283529160200191611a21565b820191906000526020600020905b815481529060010190602001808311611a0457829003601f168201915b505050505092509650965096509650965096509650919395979092949650565b60066020528060005260406000206000915090505481565b600b602052806000526040600020600091509050806000015490806001018054611a8290612d63565b80601f0160208091040260200160405190810160405280929190818152602001828054611aae90612d63565b8015611afb5780601f10611ad057610100808354040283529160200191611afb565b820191906000526020600020905b815481529060010190602001808311611ade57829003601f168201915b505050505090806002018054611b1090612d63565b80601f0160208091040260200160405190810160405280929190818152602001828054611b3c90612d63565b8015611b895780601f10611b5e57610100808354040283529160200191611b89565b820191906000526020600020905b815481529060010190602001808311611b6c57829003601f168201915b5050505050908060030160009054906101000a900473ffffffffffffffffffffffffffffffffffffffff16908060040154908060050160009054906101000a900460ff1690806006015490806007018054611be390612d63565b80601f0160208091040260200160405190810160405280929190818152602001828054611c0f90612d63565b8015611c5c5780601f10611c3157610100808354040283529160200191611c5c565b820191906000526020600020905b815481529060010190602001808311611c3f57829003601f168201915b5050505050905088565b60015481565b6060600a805480602002602001604051908101604052809291908181526020018280548015611cf057602002820191906000526020600020905b8160009054906101000a900473ffffffffffffffffffffffffffffffffffffffff1673ffffffffffffffffffffffffffffffffffffffff1681526020019060010190808311611ca6575b5050505050905090565b60005481565b611d08612435565b73ffffffffffffffffffffffffffffffffffffffff16600360009054906101000a900473ffffffffffffffffffffffffffffffffffffffff1673ffffffffffffffffffffffffffffffffffffffff1614611d97576040517f08c379a0000000000000000000000000000000000000000000000000000000008152600401611d8e90613436565b60405180910390fd5b600254600660008773ffffffffffffffffffffffffffffffffffffffff1673ffffffffffffffffffffffffffffffffffffffff1681526020019081526020016000205410611e1a576040517f08c379a0000000000000000000000000000000000000000000000000000000008152600401611e11906134c8565b60405180910390fd5b60016000815480929190611e2d9061307a565b9190505550600060015490506000600860008873ffffffffffffffffffffffffffffffffffffffff1673ffffffffffffffffffffffffffffffffffffffff168152602001908152602001600020905081816000018190555085816001019081611e96919061326e565b5084816002019081611ea8919061326e565b5083816003019081611eba919061326e565b5060008160040181905550868160050160006101000a81548173ffffffffffffffffffffffffffffffffffffffff021916908373ffffffffffffffffffffffffffffffffffffffff16021790555082816006019081611f19919061326e565b506007879080600181540180825580915050600190039060005260206000200160009091909190916101000a81548173ffffffffffffffffffffffffffffffffffffffff021916908373ffffffffffffffffffffffffffffffffffffffff160217905550600254600660008973ffffffffffffffffffffffffffffffffffffffff1673ffffffffffffffffffffffffffffffffffffffff16815260200190815260200160002081905550817fd297f12b256bb8485a6013fb5e302017018123e99a0ebb20756c09e1707b4b9087878785600401548c89604051612001969594939291906134e8565b60405180910390a27f78d27a3c512303f604b46bc28acc0ca45abe6420172a017c5a6dc585821eb639828660405161203a929190613565565b60405180910390a150505050505050565b60056020528060005260406000206000915090505481565b61206b612435565b73ffffffffffffffffffffffffffffffffffffffff16600360009054906101000a900473ffffffffffffffffffffffffffffffffffffffff1673ffffffffffffffffffffffffffffffffffffffff16146120fa576040517f08c379a00000000000000000000000000000000000000000000000000000000081526004016120f190613607565b60405180910390fd5b6007600061210891906124b2565b600a600061211691906124b2565b6009600061212491906124b2565b600060018190555060008081905550600260008154809291906121469061307a565b91905055507f2a0e7ca52e830898fc8ddd8f2fc8695795a5fdf74064958562691b5bea4485f560025460405161217c9190612509565b60405180910390a1565b6000600780549050905090565b60025481565b600254600560006121a8612435565b73ffffffffffffffffffffffffffffffffffffffff1673ffffffffffffffffffffffffffffffffffffffff1681526020019081526020016000205414612223576040517f08c379a000000000000000000000000000000000000000000000000000000000815260040161221a90613699565b60405180910390fd5b6000600b6000612231612435565b73ffffffffffffffffffffffffffffffffffffffff1673ffffffffffffffffffffffffffffffffffffffff16815260200190815260200160002090508060050160009054906101000a900460ff16156122bf576040517f08c379a00000000000000000000000000000000000000000000000000000000081526004016122b690613705565b60405180910390fd5b6000816004015403612306576040517f08c379a00000000000000000000000000000000000000000000000000000000081526004016122fd90613771565b60405180910390fd5b60018160050160006101000a81548160ff0219169083151502179055508181600601819055506009612336612435565b9080600181540180825580915050600190039060005260206000200160009091909190916101000a81548173ffffffffffffffffffffffffffffffffffffffff021916908373ffffffffffffffffffffffffffffffffffffffff1602179055506001600860008573ffffffffffffffffffffffffffffffffffffffff1673ffffffffffffffffffffffffffffffffffffffff16815260200190815260200160002060040160008282546123e99190613791565b925050819055507fa36cc2bebb74db33e9f88110a07ef56e1b31b24b4c4f51b54b1664266e29f45b612419612435565b836040516124289291906137c5565b60405180910390a1505050565b6000806000369050905060006124496124a1565b9050808210158015612460575061245f33610c63565b5b156124915760003682840390809261247a939291906137f8565b90612485919061386a565b60601c9250505061249e565b6124996124aa565b925050505b90565b60006014905090565b600033905090565b50805460008255906000526020600020908101906124d091906124d3565b50565b5b808211156124ec5760008160009055506001016124d4565b5090565b6000819050919050565b612503816124f0565b82525050565b600060208201905061251e60008301846124fa565b92915050565b6000604051905090565b600080fd5b600080fd5b600073ffffffffffffffffffffffffffffffffffffffff82169050919050565b600061256382612538565b9050919050565b61257381612558565b811461257e57600080fd5b50565b6000813590506125908161256a565b92915050565b6000602082840312156125ac576125ab61252e565b5b60006125ba84828501612581565b91505092915050565b600081519050919050565b600082825260208201905092915050565b60005b838110156125fd5780820151818401526020810190506125e2565b60008484015250505050565b6000601f19601f8301169050919050565b6000612625826125c3565b61262f81856125ce565b935061263f8185602086016125df565b61264881612609565b840191505092915050565b61265c81612558565b82525050565b600060e082019050818103600083015261267c818a61261a565b90508181036020830152612690818961261a565b905061269f60408301886124fa565b81810360608301526126b1818761261a565b90506126c060808301866124fa565b81810360a08301526126d2818561261a565b90506126e160c0830184612653565b98975050505050505050565b6126f6816124f0565b811461270157600080fd5b50565b600081359050612713816126ed565b92915050565b60006020828403121561272f5761272e61252e565b5b600061273d84828501612704565b91505092915050565b600060208201905061275b6000830184612653565b92915050565b60008115159050919050565b61277681612761565b82525050565b6000602082019050612791600083018461276d565b92915050565b600081519050919050565b600082825260208201905092915050565b6000819050602082019050919050565b6127cc81612558565b82525050565b60006127de83836127c3565b60208301905092915050565b6000602082019050919050565b600061280282612797565b61280c81856127a2565b9350612817836127b3565b8060005b8381101561284857815161282f88826127d2565b975061283a836127ea565b92505060018101905061281b565b5085935050505092915050565b6000602082019050818103600083015261286f81846127f7565b905092915050565b600080fd5b600080fd5b7f4e487b7100000000000000000000000000000000000000000000000000000000600052604160045260246000fd5b6128b982612609565b810181811067ffffffffffffffff821117156128d8576128d7612881565b5b80604052505050565b60006128eb612524565b90506128f782826128b0565b919050565b600067ffffffffffffffff82111561291757612916612881565b5b61292082612609565b9050602081019050919050565b82818337600083830152505050565b600061294f61294a846128fc565b6128e1565b90508281526020810184848401111561296b5761296a61287c565b5b61297684828561292d565b509392505050565b600082601f83011261299357612992612877565b5b81356129a384826020860161293c565b91505092915050565b600080600080608085870312156129c6576129c561252e565b5b60006129d487828801612581565b945050602085013567ffffffffffffffff8111156129f5576129f4612533565b5b612a018782880161297e565b935050604085013567ffffffffffffffff811115612a2257612a21612533565b5b612a2e8782880161297e565b925050606085013567ffffffffffffffff811115612a4f57612a4e612533565b5b612a5b8782880161297e565b91505092959194509250565b600060e082019050612a7c600083018a6124fa565b8181036020830152612a8e818961261a565b90508181036040830152612aa2818861261a565b90508181036060830152612ab6818761261a565b9050612ac560808301866124fa565b612ad260a0830185612653565b81810360c0830152612ae4818461261a565b905098975050505050505050565b600060e082019050612b07600083018a6124fa565b8181036020830152612b19818961261a565b90508181036040830152612b2d818861261a565b9050612b3c6060830187612653565b8181036080830152612b4e818661261a565b9050612b5d60a083018561276d565b612b6a60c08301846124fa565b98975050505050505050565b600061010082019050612b8c600083018b6124fa565b8181036020830152612b9e818a61261a565b90508181036040830152612bb2818961261a565b9050612bc16060830188612653565b612bce60808301876124fa565b612bdb60a083018661276d565b612be860c08301856124fa565b81810360e0830152612bfa818461261a565b90509998505050505050505050565b600080600080600060a08688031215612c2557612c2461252e565b5b6000612c3388828901612581565b955050602086013567ffffffffffffffff811115612c5457612c53612533565b5b612c608882890161297e565b945050604086013567ffffffffffffffff811115612c8157612c80612533565b5b612c8d8882890161297e565b935050606086013567ffffffffffffffff811115612cae57612cad612533565b5b612cba8882890161297e565b925050608086013567ffffffffffffffff811115612cdb57612cda612533565b5b612ce78882890161297e565b9150509295509295909350565b60008060408385031215612d0b57612d0a61252e565b5b6000612d1985828601612581565b9250506020612d2a85828601612704565b9150509250929050565b7f4e487b7100000000000000000000000000000000000000000000000000000000600052602260045260246000fd5b60006002820490506001821680612d7b57607f821691505b602082108103612d8e57612d8d612d34565b5b50919050565b7f4f6e6c792061646d696e2063616e2063616c6c20746869732066756e6374696f60008201527f6e00000000000000000000000000000000000000000000000000000000000000602082015250565b6000612df06021836125ce565b9150612dfb82612d94565b604082019050919050565b60006020820190508181036000830152612e1f81612de3565b9050919050565b7f496e76616c6964206e65772072656c6179657220616464726573730000000000600082015250565b6000612e5c601b836125ce565b9150612e6782612e26565b602082019050919050565b60006020820190508181036000830152612e8b81612e4f565b9050919050565b6000604082019050612ea76000830185612653565b612eb46020830184612653565b9392505050565b7f496e76616c6964206e65772061646d696e206164647265737300000000000000600082015250565b6000612ef16019836125ce565b9150612efc82612ebb565b602082019050919050565b60006020820190508181036000830152612f2081612ee4565b9050919050565b7f4f6e6c79206f7267616e697a65722063616e20637265617465206120766f746560008201527f7200000000000000000000000000000000000000000000000000000000000000602082015250565b6000612f836021836125ce565b9150612f8e82612f27565b604082019050919050565b60006020820190508181036000830152612fb281612f76565b9050919050565b7f566f74657220616c7265616479207265676973746572656420696e206375727260008201527f656e7420656c656374696f6e0000000000000000000000000000000000000000602082015250565b6000613015602c836125ce565b915061302082612fb9565b604082019050919050565b6000602082019050818103600083015261304481613008565b9050919050565b7f4e487b7100000000000000000000000000000000000000000000000000000000600052601160045260246000fd5b6000613085826124f0565b91507fffffffffffffffffffffffffffffffffffffffffffffffffffffffffffffffff82036130b7576130b661304b565b5b600182019050919050565b60008190508160005260206000209050919050565b60006020601f8301049050919050565b600082821b905092915050565b6000600883026131247fffffffffffffffffffffffffffffffffffffffffffffffffffffffffffffffff826130e7565b61312e86836130e7565b95508019841693508086168417925050509392505050565b6000819050919050565b600061316b613166613161846124f0565b613146565b6124f0565b9050919050565b6000819050919050565b61318583613150565b61319961319182613172565b8484546130f4565b825550505050565b600090565b6131ae6131a1565b6131b981848461317c565b505050565b5b818110156131dd576131d26000826131a6565b6001810190506131bf565b5050565b601f821115613222576131f3816130c2565b6131fc846130d7565b8101602085101561320b578190505b61321f613217856130d7565b8301826131be565b50505b505050565b600082821c905092915050565b600061324560001984600802613227565b1980831691505092915050565b600061325e8383613234565b9150826002028217905092915050565b613277826125c3565b67ffffffffffffffff8111156132905761328f612881565b5b61329a8254612d63565b6132a58282856131e1565b600060209050601f8311600181146132d857600084156132c6578287015190505b6132d08582613252565b865550613338565b601f1984166132e6866130c2565b60005b8281101561330e578489015182556001820191506020850194506020810190506132e9565b8683101561332b5784890151613327601f891682613234565b8355505b6001600288020188555050505b505050505050565b600060e082019050818103600083015261335a818a61261a565b9050818103602083015261336e818961261a565b905061337d6040830188612653565b61338a60608301876124fa565b613397608083018661276d565b6133a460a08301856124fa565b81810360c08301526133b6818461261a565b905098975050505050505050565b7f4f6e6c79206f7267616e697a65722063616e2063726561746520612063616e6460008201527f6964617465000000000000000000000000000000000000000000000000000000602082015250565b60006134206025836125ce565b915061342b826133c4565b604082019050919050565b6000602082019050818103600083015261344f81613413565b9050919050565b7f43616e64696461746520616c7265616479207265676973746572656420696e2060008201527f63757272656e7420656c656374696f6e00000000000000000000000000000000602082015250565b60006134b26030836125ce565b91506134bd82613456565b604082019050919050565b600060208201905081810360008301526134e1816134a5565b9050919050565b600060c0820190508181036000830152613502818961261a565b90508181036020830152613516818861261a565b9050818103604083015261352a818761261a565b905061353960608301866124fa565b6135466080830185612653565b81810360a0830152613558818461261a565b9050979650505050505050565b600060408201905061357a60008301856124fa565b818103602083015261358c818461261a565b90509392505050565b7f4f6e6c79206f7267616e697a65722063616e2072657365742074686520656c6560008201527f6374696f6e000000000000000000000000000000000000000000000000000000602082015250565b60006135f16025836125ce565b91506135fc82613595565b604082019050919050565b60006020820190508181036000830152613620816135e4565b9050919050565b7f596f7520617265206e6f74207265676973746572656420666f7220746865206360008201527f757272656e7420656c656374696f6e0000000000000000000000000000000000602082015250565b6000613683602f836125ce565b915061368e82613627565b604082019050919050565b600060208201905081810360008301526136b281613676565b9050919050565b7f596f75206861766520616c726561647920766f74656400000000000000000000600082015250565b60006136ef6016836125ce565b91506136fa826136b9565b602082019050919050565b6000602082019050818103600083015261371e816136e2565b9050919050565b7f596f752068617665206e6f20726967687420746f20766f746500000000000000600082015250565b600061375b6019836125ce565b915061376682613725565b602082019050919050565b6000602082019050818103600083015261378a8161374e565b9050919050565b600061379c826124f0565b91506137a7836124f0565b92508282019050808211156137bf576137be61304b565b5b92915050565b60006040820190506137da6000830185612653565b6137e760208301846124fa565b9392505050565b600080fd5b600080fd5b6000808585111561380c5761380b6137ee565b5b8386111561381d5761381c6137f3565b5b6001850283019150848603905094509492505050565b600082905092915050565b60007fffffffffffffffffffffffffffffffffffffffff00000000000000000000000082169050919050565b60006138768383613833565b82613881813561383e565b925060148210156138c1576138bc7fffffffffffffffffffffffffffffffffffffffff000000000000000000000000836014036008026130e7565b831692505b50509291505056fea264697066735822122011390b4cc15048aee6e7b3959b586763caa7ec2ef9849219f48ba8cbad652d7964736f6c63430008140033","opcodes":"PUSH1 0xA0 PUSH1 0x40 MSTORE CALLVALUE DUP1 ISZERO PUSH3 0x11 JUMPI PUSH1 0x0 DUP1 REVERT JUMPDEST POP PUSH1 0x40 MLOAD PUSH3 0x3CB5 CODESIZE SUB DUP1 PUSH3 0x3CB5 DUP4 CODECOPY DUP2 DUP2 ADD PUSH1 0x40 MSTORE DUP2 ADD SWAP1 PUSH3 0x37 SWAP2 SWAP1 PUSH3 0x273 JUMP JUMPDEST DUP1 DUP1 PUSH20 0xFFFFFFFFFFFFFFFFFFFFFFFFFFFFFFFFFFFFFFFF AND PUSH1 0x80 DUP2 PUSH20 0xFFFFFFFFFFFFFFFFFFFFFFFFFFFFFFFFFFFFFFFF AND DUP2 MSTORE POP POP POP PUSH3 0x7D PUSH3 0x11C PUSH1 0x20 SHL PUSH1 0x20 SHR JUMP JUMPDEST PUSH1 0x3 PUSH1 0x0 PUSH2 0x100 EXP DUP2 SLOAD DUP2 PUSH20 0xFFFFFFFFFFFFFFFFFFFFFFFFFFFFFFFFFFFFFFFF MUL NOT AND SWAP1 DUP4 PUSH20 0xFFFFFFFFFFFFFFFFFFFFFFFFFFFFFFFFFFFFFFFF AND MUL OR SWAP1 SSTORE POP PUSH3 0xCD PUSH3 0x11C PUSH1 0x20 SHL PUSH1 0x20 SHR JUMP JUMPDEST PUSH1 0x4 PUSH1 0x0 PUSH2 0x100 EXP DUP2 SLOAD DUP2 PUSH20 0xFFFFFFFFFFFFFFFFFFFFFFFFFFFFFFFFFFFFFFFF MUL NOT AND SWAP1 DUP4 PUSH20 0xFFFFFFFFFFFFFFFFFFFFFFFFFFFFFFFFFFFFFFFF AND MUL OR SWAP1 SSTORE POP PUSH1 0x1 PUSH1 0x2 DUP2 SWAP1 SSTORE POP POP PUSH3 0x39A JUMP JUMPDEST PUSH1 0x0 DUP1 PUSH1 0x0 CALLDATASIZE SWAP1 POP SWAP1 POP PUSH1 0x0 PUSH3 0x138 PUSH3 0x1A7 PUSH1 0x20 SHL PUSH1 0x20 SHR JUMP JUMPDEST SWAP1 POP DUP1 DUP3 LT ISZERO DUP1 ISZERO PUSH3 0x158 JUMPI POP PUSH3 0x157 CALLER PUSH3 0x1B0 PUSH1 0x20 SHL PUSH1 0x20 SHR JUMP JUMPDEST JUMPDEST ISZERO PUSH3 0x18F JUMPI PUSH1 0x0 CALLDATASIZE DUP3 DUP5 SUB SWAP1 DUP1 SWAP3 PUSH3 0x175 SWAP4 SWAP3 SWAP2 SWAP1 PUSH3 0x2AF JUMP JUMPDEST SWAP1 PUSH3 0x182 SWAP2 SWAP1 PUSH3 0x334 JUMP JUMPDEST PUSH1 0x60 SHR SWAP3 POP POP POP PUSH3 0x1A4 JUMP JUMPDEST PUSH3 0x19F PUSH3 0x1F7 PUSH1 0x20 SHL PUSH1 0x20 SHR JUMP JUMPDEST SWAP3 POP POP POP JUMPDEST SWAP1 JUMP JUMPDEST PUSH1 0x0 PUSH1 0x14 SWAP1 POP SWAP1 JUMP JUMPDEST PUSH1 0x0 PUSH3 0x1C2 PUSH3 0x1FF PUSH1 0x20 SHL PUSH1 0x20 SHR JUMP JUMPDEST PUSH20 0xFFFFFFFFFFFFFFFFFFFFFFFFFFFFFFFFFFFFFFFF AND DUP3 PUSH20 0xFFFFFFFFFFFFFFFFFFFFFFFFFFFFFFFFFFFFFFFF AND EQ SWAP1 POP SWAP2 SWAP1 POP JUMP JUMPDEST PUSH1 0x0 CALLER SWAP1 POP SWAP1 JUMP JUMPDEST PUSH1 0x0 PUSH1 0x80 MLOAD SWAP1 POP SWAP1 JUMP JUMPDEST PUSH1 0x0 DUP1 REVERT JUMPDEST PUSH1 0x0 PUSH20 0xFFFFFFFFFFFFFFFFFFFFFFFFFFFFFFFFFFFFFFFF DUP3 AND SWAP1 POP SWAP2 SWAP1 POP JUMP JUMPDEST PUSH1 0x0 PUSH3 0x23B DUP3 PUSH3 0x20E JUMP JUMPDEST SWAP1 POP SWAP2 SWAP1 POP JUMP JUMPDEST PUSH3 0x24D DUP2 PUSH3 0x22E JUMP JUMPDEST DUP2 EQ PUSH3 0x259 JUMPI PUSH1 0x0 DUP1 REVERT JUMPDEST POP JUMP JUMPDEST PUSH1 0x0 DUP2 MLOAD SWAP1 POP PUSH3 0x26D DUP2 PUSH3 0x242 JUMP JUMPDEST SWAP3 SWAP2 POP POP JUMP JUMPDEST PUSH1 0x0 PUSH1 0x20 DUP3 DUP5 SUB SLT ISZERO PUSH3 0x28C JUMPI PUSH3 0x28B PUSH3 0x209 JUMP JUMPDEST JUMPDEST PUSH1 0x0 PUSH3 0x29C DUP5 DUP3 DUP6 ADD PUSH3 0x25C JUMP JUMPDEST SWAP2 POP POP SWAP3 SWAP2 POP POP JUMP JUMPDEST PUSH1 0x0 DUP1 REVERT JUMPDEST PUSH1 0x0 DUP1 REVERT JUMPDEST PUSH1 0x0 DUP1 DUP6 DUP6 GT ISZERO PUSH3 0x2C6 JUMPI PUSH3 0x2C5 PUSH3 0x2A5 JUMP JUMPDEST JUMPDEST DUP4 DUP7 GT ISZERO PUSH3 0x2DA JUMPI PUSH3 0x2D9 PUSH3 0x2AA JUMP JUMPDEST JUMPDEST PUSH1 0x1 DUP6 MUL DUP4 ADD SWAP2 POP DUP5 DUP7 SUB SWAP1 POP SWAP5 POP SWAP5 SWAP3 POP POP POP JUMP JUMPDEST PUSH1 0x0 DUP3 SWAP1 POP SWAP3 SWAP2 POP POP JUMP JUMPDEST PUSH1 0x0 PUSH32 0xFFFFFFFFFFFFFFFFFFFFFFFFFFFFFFFFFFFFFFFF000000000000000000000000 DUP3 AND SWAP1 POP SWAP2 SWAP1 POP JUMP JUMPDEST PUSH1 0x0 DUP3 DUP3 SHL SWAP1 POP SWAP3 SWAP2 POP POP JUMP JUMPDEST PUSH1 0x0 PUSH3 0x342 DUP4 DUP4 PUSH3 0x2F0 JUMP JUMPDEST DUP3 PUSH3 0x34F DUP2 CALLDATALOAD PUSH3 0x2FB JUMP JUMPDEST SWAP3 POP PUSH1 0x14 DUP3 LT ISZERO PUSH3 0x392 JUMPI PUSH3 0x38D PUSH32 0xFFFFFFFFFFFFFFFFFFFFFFFFFFFFFFFFFFFFFFFF000000000000000000000000 DUP4 PUSH1 0x14 SUB PUSH1 0x8 MUL PUSH3 0x327 JUMP JUMPDEST DUP4 AND SWAP3 POP JUMPDEST POP POP SWAP3 SWAP2 POP POP JUMP JUMPDEST PUSH1 0x80 MLOAD PUSH2 0x38FF PUSH3 0x3B6 PUSH1 0x0 CODECOPY PUSH1 0x0 PUSH2 0xF44 ADD MSTORE PUSH2 0x38FF PUSH1 0x0 RETURN INVALID PUSH1 0x80 PUSH1 0x40 MSTORE CALLVALUE DUP1 ISZERO PUSH2 0x10 JUMPI PUSH1 0x0 DUP1 REVERT JUMPDEST POP PUSH1 0x4 CALLDATASIZE LT PUSH2 0x1C4 JUMPI PUSH1 0x0 CALLDATALOAD PUSH1 0xE0 SHR DUP1 PUSH4 0x8AB66A90 GT PUSH2 0xF9 JUMPI DUP1 PUSH4 0xB9BE3152 GT PUSH2 0x97 JUMPI DUP1 PUSH4 0xE8F30523 GT PUSH2 0x71 JUMPI DUP1 PUSH4 0xE8F30523 EQ PUSH2 0x55E JUMPI DUP1 PUSH4 0xF7522A83 EQ PUSH2 0x568 JUMPI DUP1 PUSH4 0xF7D0628F EQ PUSH2 0x586 JUMPI DUP1 PUSH4 0xFA678AE7 EQ PUSH2 0x5A4 JUMPI PUSH2 0x1C4 JUMP JUMPDEST DUP1 PUSH4 0xB9BE3152 EQ PUSH2 0x4F4 JUMPI DUP1 PUSH4 0xC91EC712 EQ PUSH2 0x512 JUMPI DUP1 PUSH4 0xD6310E9A EQ PUSH2 0x52E JUMPI PUSH2 0x1C4 JUMP JUMPDEST DUP1 PUSH4 0x9AF2AE64 GT PUSH2 0xD3 JUMPI DUP1 PUSH4 0x9AF2AE64 EQ PUSH2 0x451 JUMPI DUP1 PUSH4 0xA3EC138D EQ PUSH2 0x481 JUMPI DUP1 PUSH4 0xA7388967 EQ PUSH2 0x4B8 JUMPI DUP1 PUSH4 0xB28D92AE EQ PUSH2 0x4D6 JUMPI PUSH2 0x1C4 JUMP JUMPDEST DUP1 PUSH4 0x8AB66A90 EQ PUSH2 0x3C7 JUMPI DUP1 PUSH4 0x8E945685 EQ PUSH2 0x3FD JUMPI DUP1 PUSH4 0x8FB4CD80 EQ PUSH2 0x41B JUMPI PUSH2 0x1C4 JUMP JUMPDEST DUP1 PUSH4 0x5CC48AA7 GT PUSH2 0x166 JUMPI DUP1 PUSH4 0x7831FFB3 GT PUSH2 0x140 JUMPI DUP1 PUSH4 0x7831FFB3 EQ PUSH2 0x33F JUMPI DUP1 PUSH4 0x7DA0A877 EQ PUSH2 0x36F JUMPI DUP1 PUSH4 0x82678DD6 EQ PUSH2 0x38D JUMPI DUP1 PUSH4 0x82AAC8F3 EQ PUSH2 0x3AB JUMPI PUSH2 0x1C4 JUMP JUMPDEST DUP1 PUSH4 0x5CC48AA7 EQ PUSH2 0x2E7 JUMPI DUP1 PUSH4 0x70218B85 EQ PUSH2 0x305 JUMPI DUP1 PUSH4 0x75829DEF EQ PUSH2 0x323 JUMPI PUSH2 0x1C4 JUMP JUMPDEST DUP1 PUSH4 0x41CD0420 GT PUSH2 0x1A2 JUMPI DUP1 PUSH4 0x41CD0420 EQ PUSH2 0x24D JUMPI DUP1 PUSH4 0x43242DAA EQ PUSH2 0x26B JUMPI DUP1 PUSH4 0x48D23829 EQ PUSH2 0x29B JUMPI DUP1 PUSH4 0x572B6C05 EQ PUSH2 0x2B7 JUMPI PUSH2 0x1C4 JUMP JUMPDEST DUP1 PUSH4 0x5AD45A4 EQ PUSH2 0x1C9 JUMPI DUP1 PUSH4 0x2A466AC7 EQ PUSH2 0x1E7 JUMPI DUP1 PUSH4 0x3A88251A EQ PUSH2 0x21D JUMPI JUMPDEST PUSH1 0x0 DUP1 REVERT JUMPDEST PUSH2 0x1D1 PUSH2 0x5C0 JUMP JUMPDEST PUSH1 0x40 MLOAD PUSH2 0x1DE SWAP2 SWAP1 PUSH2 0x2509 JUMP JUMPDEST PUSH1 0x40 MLOAD DUP1 SWAP2 SUB SWAP1 RETURN JUMPDEST PUSH2 0x201 PUSH1 0x4 DUP1 CALLDATASIZE SUB DUP2 ADD SWAP1 PUSH2 0x1FC SWAP2 SWAP1 PUSH2 0x2596 JUMP JUMPDEST PUSH2 0x5CD JUMP JUMPDEST PUSH1 0x40 MLOAD PUSH2 0x214 SWAP8 SWAP7 SWAP6 SWAP5 SWAP4 SWAP3 SWAP2 SWAP1 PUSH2 0x2662 JUMP JUMPDEST PUSH1 0x40 MLOAD DUP1 SWAP2 SUB SWAP1 RETURN JUMPDEST PUSH2 0x237 PUSH1 0x4 DUP1 CALLDATASIZE SUB DUP2 ADD SWAP1 PUSH2 0x232 SWAP2 SWAP1 PUSH2 0x2719 JUMP JUMPDEST PUSH2 0xA14 JUMP JUMPDEST PUSH1 0x40 MLOAD PUSH2 0x244 SWAP2 SWAP1 PUSH2 0x2746 JUMP JUMPDEST PUSH1 0x40 MLOAD DUP1 SWAP2 SUB SWAP1 RETURN JUMPDEST PUSH2 0x255 PUSH2 0xA53 JUMP JUMPDEST PUSH1 0x40 MLOAD PUSH2 0x262 SWAP2 SWAP1 PUSH2 0x2746 JUMP JUMPDEST PUSH1 0x40 MLOAD DUP1 SWAP2 SUB SWAP1 RETURN JUMPDEST PUSH2 0x285 PUSH1 0x4 DUP1 CALLDATASIZE SUB DUP2 ADD SWAP1 PUSH2 0x280 SWAP2 SWAP1 PUSH2 0x2719 JUMP JUMPDEST PUSH2 0xA79 JUMP JUMPDEST PUSH1 0x40 MLOAD PUSH2 0x292 SWAP2 SWAP1 PUSH2 0x2746 JUMP JUMPDEST PUSH1 0x40 MLOAD DUP1 SWAP2 SUB SWAP1 RETURN JUMPDEST PUSH2 0x2B5 PUSH1 0x4 DUP1 CALLDATASIZE SUB DUP2 ADD SWAP1 PUSH2 0x2B0 SWAP2 SWAP1 PUSH2 0x2596 JUMP JUMPDEST PUSH2 0xAB8 JUMP JUMPDEST STOP JUMPDEST PUSH2 0x2D1 PUSH1 0x4 DUP1 CALLDATASIZE SUB DUP2 ADD SWAP1 PUSH2 0x2CC SWAP2 SWAP1 PUSH2 0x2596 JUMP JUMPDEST PUSH2 0xC63 JUMP JUMPDEST PUSH1 0x40 MLOAD PUSH2 0x2DE SWAP2 SWAP1 PUSH2 0x277C JUMP JUMPDEST PUSH1 0x40 MLOAD DUP1 SWAP2 SUB SWAP1 RETURN JUMPDEST PUSH2 0x2EF PUSH2 0xCA2 JUMP JUMPDEST PUSH1 0x40 MLOAD PUSH2 0x2FC SWAP2 SWAP1 PUSH2 0x2746 JUMP JUMPDEST PUSH1 0x40 MLOAD DUP1 SWAP2 SUB SWAP1 RETURN JUMPDEST PUSH2 0x30D PUSH2 0xCC8 JUMP JUMPDEST PUSH1 0x40 MLOAD PUSH2 0x31A SWAP2 SWAP1 PUSH2 0x2855 JUMP JUMPDEST PUSH1 0x40 MLOAD DUP1 SWAP2 SUB SWAP1 RETURN JUMPDEST PUSH2 0x33D PUSH1 0x4 DUP1 CALLDATASIZE SUB DUP2 ADD SWAP1 PUSH2 0x338 SWAP2 SWAP1 PUSH2 0x2596 JUMP JUMPDEST PUSH2 0xD56 JUMP JUMPDEST STOP JUMPDEST PUSH2 0x359 PUSH1 0x4 DUP1 CALLDATASIZE SUB DUP2 ADD SWAP1 PUSH2 0x354 SWAP2 SWAP1 PUSH2 0x2719 JUMP JUMPDEST PUSH2 0xF01 JUMP JUMPDEST PUSH1 0x40 MLOAD PUSH2 0x366 SWAP2 SWAP1 PUSH2 0x2746 JUMP JUMPDEST PUSH1 0x40 MLOAD DUP1 SWAP2 SUB SWAP1 RETURN JUMPDEST PUSH2 0x377 PUSH2 0xF40 JUMP JUMPDEST PUSH1 0x40 MLOAD PUSH2 0x384 SWAP2 SWAP1 PUSH2 0x2746 JUMP JUMPDEST PUSH1 0x40 MLOAD DUP1 SWAP2 SUB SWAP1 RETURN JUMPDEST PUSH2 0x395 PUSH2 0xF68 JUMP JUMPDEST PUSH1 0x40 MLOAD PUSH2 0x3A2 SWAP2 SWAP1 PUSH2 0x2855 JUMP JUMPDEST PUSH1 0x40 MLOAD DUP1 SWAP2 SUB SWAP1 RETURN JUMPDEST PUSH2 0x3C5 PUSH1 0x4 DUP1 CALLDATASIZE SUB DUP2 ADD SWAP1 PUSH2 0x3C0 SWAP2 SWAP1 PUSH2 0x29AC JUMP JUMPDEST PUSH2 0xFF6 JUMP JUMPDEST STOP JUMPDEST PUSH2 0x3E1 PUSH1 0x4 DUP1 CALLDATASIZE SUB DUP2 ADD SWAP1 PUSH2 0x3DC SWAP2 SWAP1 PUSH2 0x2596 JUMP JUMPDEST PUSH2 0x1369 JUMP JUMPDEST PUSH1 0x40 MLOAD PUSH2 0x3F4 SWAP8 SWAP7 SWAP6 SWAP5 SWAP4 SWAP3 SWAP2 SWAP1 PUSH2 0x2A67 JUMP JUMPDEST PUSH1 0x40 MLOAD DUP1 SWAP2 SUB SWAP1 RETURN JUMPDEST PUSH2 0x405 PUSH2 0x15EB JUMP JUMPDEST PUSH1 0x40 MLOAD PUSH2 0x412 SWAP2 SWAP1 PUSH2 0x2855 JUMP JUMPDEST PUSH1 0x40 MLOAD DUP1 SWAP2 SUB SWAP1 RETURN JUMPDEST PUSH2 0x435 PUSH1 0x4 DUP1 CALLDATASIZE SUB DUP2 ADD SWAP1 PUSH2 0x430 SWAP2 SWAP1 PUSH2 0x2596 JUMP JUMPDEST PUSH2 0x1679 JUMP JUMPDEST PUSH1 0x40 MLOAD PUSH2 0x448 SWAP8 SWAP7 SWAP6 SWAP5 SWAP4 SWAP3 SWAP2 SWAP1 PUSH2 0x2AF2 JUMP JUMPDEST PUSH1 0x40 MLOAD DUP1 SWAP2 SUB SWAP1 RETURN JUMPDEST PUSH2 0x46B PUSH1 0x4 DUP1 CALLDATASIZE SUB DUP2 ADD SWAP1 PUSH2 0x466 SWAP2 SWAP1 PUSH2 0x2596 JUMP JUMPDEST PUSH2 0x1A41 JUMP JUMPDEST PUSH1 0x40 MLOAD PUSH2 0x478 SWAP2 SWAP1 PUSH2 0x2509 JUMP JUMPDEST PUSH1 0x40 MLOAD DUP1 SWAP2 SUB SWAP1 RETURN JUMPDEST PUSH2 0x49B PUSH1 0x4 DUP1 CALLDATASIZE SUB DUP2 ADD SWAP1 PUSH2 0x496 SWAP2 SWAP1 PUSH2 0x2596 JUMP JUMPDEST PUSH2 0x1A59 JUMP JUMPDEST PUSH1 0x40 MLOAD PUSH2 0x4AF SWAP9 SWAP8 SWAP7 SWAP6 SWAP5 SWAP4 SWAP3 SWAP2 SWAP1 PUSH2 0x2B76 JUMP JUMPDEST PUSH1 0x40 MLOAD DUP1 SWAP2 SUB SWAP1 RETURN JUMPDEST PUSH2 0x4C0 PUSH2 0x1C66 JUMP JUMPDEST PUSH1 0x40 MLOAD PUSH2 0x4CD SWAP2 SWAP1 PUSH2 0x2509 JUMP JUMPDEST PUSH1 0x40 MLOAD DUP1 SWAP2 SUB SWAP1 RETURN JUMPDEST PUSH2 0x4DE PUSH2 0x1C6C JUMP JUMPDEST PUSH1 0x40 MLOAD PUSH2 0x4EB SWAP2 SWAP1 PUSH2 0x2855 JUMP JUMPDEST PUSH1 0x40 MLOAD DUP1 SWAP2 SUB SWAP1 RETURN JUMPDEST PUSH2 0x4FC PUSH2 0x1CFA JUMP JUMPDEST PUSH1 0x40 MLOAD PUSH2 0x509 SWAP2 SWAP1 PUSH2 0x2509 JUMP JUMPDEST PUSH1 0x40 MLOAD DUP1 SWAP2 SUB SWAP1 RETURN JUMPDEST PUSH2 0x52C PUSH1 0x4 DUP1 CALLDATASIZE SUB DUP2 ADD SWAP1 PUSH2 0x527 SWAP2 SWAP1 PUSH2 0x2C09 JUMP JUMPDEST PUSH2 0x1D00 JUMP JUMPDEST STOP JUMPDEST PUSH2 0x548 PUSH1 0x4 DUP1 CALLDATASIZE SUB DUP2 ADD SWAP1 PUSH2 0x543 SWAP2 SWAP1 PUSH2 0x2596 JUMP JUMPDEST PUSH2 0x204B JUMP JUMPDEST PUSH1 0x40 MLOAD PUSH2 0x555 SWAP2 SWAP1 PUSH2 0x2509 JUMP JUMPDEST PUSH1 0x40 MLOAD DUP1 SWAP2 SUB SWAP1 RETURN JUMPDEST PUSH2 0x566 PUSH2 0x2063 JUMP JUMPDEST STOP JUMPDEST PUSH2 0x570 PUSH2 0x2186 JUMP JUMPDEST PUSH1 0x40 MLOAD PUSH2 0x57D SWAP2 SWAP1 PUSH2 0x2509 JUMP JUMPDEST PUSH1 0x40 MLOAD DUP1 SWAP2 SUB SWAP1 RETURN JUMPDEST PUSH2 0x58E PUSH2 0x2193 JUMP JUMPDEST PUSH1 0x40 MLOAD PUSH2 0x59B SWAP2 SWAP1 PUSH2 0x2509 JUMP JUMPDEST PUSH1 0x40 MLOAD DUP1 SWAP2 SUB SWAP1 RETURN JUMPDEST PUSH2 0x5BE PUSH1 0x4 DUP1 CALLDATASIZE SUB DUP2 ADD SWAP1 PUSH2 0x5B9 SWAP2 SWAP1 PUSH2 0x2CF4 JUMP JUMPDEST PUSH2 0x2199 JUMP JUMPDEST STOP JUMPDEST PUSH1 0x0 PUSH1 0xA DUP1 SLOAD SWAP1 POP SWAP1 POP SWAP1 JUMP JUMPDEST PUSH1 0x60 DUP1 PUSH1 0x0 PUSH1 0x60 PUSH1 0x0 PUSH1 0x60 PUSH1 0x0 PUSH1 0x8 PUSH1 0x0 DUP10 PUSH20 0xFFFFFFFFFFFFFFFFFFFFFFFFFFFFFFFFFFFFFFFF AND PUSH20 0xFFFFFFFFFFFFFFFFFFFFFFFFFFFFFFFFFFFFFFFF AND DUP2 MSTORE PUSH1 0x20 ADD SWAP1 DUP2 MSTORE PUSH1 0x20 ADD PUSH1 0x0 KECCAK256 PUSH1 0x1 ADD PUSH1 0x8 PUSH1 0x0 DUP11 PUSH20 0xFFFFFFFFFFFFFFFFFFFFFFFFFFFFFFFFFFFFFFFF AND PUSH20 0xFFFFFFFFFFFFFFFFFFFFFFFFFFFFFFFFFFFFFFFF AND DUP2 MSTORE PUSH1 0x20 ADD SWAP1 DUP2 MSTORE PUSH1 0x20 ADD PUSH1 0x0 KECCAK256 PUSH1 0x2 ADD PUSH1 0x8 PUSH1 0x0 DUP12 PUSH20 0xFFFFFFFFFFFFFFFFFFFFFFFFFFFFFFFFFFFFFFFF AND PUSH20 0xFFFFFFFFFFFFFFFFFFFFFFFFFFFFFFFFFFFFFFFF AND DUP2 MSTORE PUSH1 0x20 ADD SWAP1 DUP2 MSTORE PUSH1 0x20 ADD PUSH1 0x0 KECCAK256 PUSH1 0x0 ADD SLOAD PUSH1 0x8 PUSH1 0x0 DUP13 PUSH20 0xFFFFFFFFFFFFFFFFFFFFFFFFFFFFFFFFFFFFFFFF AND PUSH20 0xFFFFFFFFFFFFFFFFFFFFFFFFFFFFFFFFFFFFFFFF AND DUP2 MSTORE PUSH1 0x20 ADD SWAP1 DUP2 MSTORE PUSH1 0x20 ADD PUSH1 0x0 KECCAK256 PUSH1 0x3 ADD PUSH1 0x8 PUSH1 0x0 DUP14 PUSH20 0xFFFFFFFFFFFFFFFFFFFFFFFFFFFFFFFFFFFFFFFF AND PUSH20 0xFFFFFFFFFFFFFFFFFFFFFFFFFFFFFFFFFFFFFFFF AND DUP2 MSTORE PUSH1 0x20 ADD SWAP1 DUP2 MSTORE PUSH1 0x20 ADD PUSH1 0x0 KECCAK256 PUSH1 0x4 ADD SLOAD PUSH1 0x8 PUSH1 0x0 DUP15 PUSH20 0xFFFFFFFFFFFFFFFFFFFFFFFFFFFFFFFFFFFFFFFF AND PUSH20 0xFFFFFFFFFFFFFFFFFFFFFFFFFFFFFFFFFFFFFFFF AND DUP2 MSTORE PUSH1 0x20 ADD SWAP1 DUP2 MSTORE PUSH1 0x20 ADD PUSH1 0x0 KECCAK256 PUSH1 0x6 ADD PUSH1 0x8 PUSH1 0x0 DUP16 PUSH20 0xFFFFFFFFFFFFFFFFFFFFFFFFFFFFFFFFFFFFFFFF AND PUSH20 0xFFFFFFFFFFFFFFFFFFFFFFFFFFFFFFFFFFFFFFFF AND DUP2 MSTORE PUSH1 0x20 ADD SWAP1 DUP2 MSTORE PUSH1 0x20 ADD PUSH1 0x0 KECCAK256 PUSH1 0x5 ADD PUSH1 0x0 SWAP1 SLOAD SWAP1 PUSH2 0x100 EXP SWAP1 DIV PUSH20 0xFFFFFFFFFFFFFFFFFFFFFFFFFFFFFFFFFFFFFFFF AND DUP7 DUP1 SLOAD PUSH2 0x7D7 SWAP1 PUSH2 0x2D63 JUMP JUMPDEST DUP1 PUSH1 0x1F ADD PUSH1 0x20 DUP1 SWAP2 DIV MUL PUSH1 0x20 ADD PUSH1 0x40 MLOAD SWAP1 DUP2 ADD PUSH1 0x40 MSTORE DUP1 SWAP3 SWAP2 SWAP1 DUP2 DUP2 MSTORE PUSH1 0x20 ADD DUP3 DUP1 SLOAD PUSH2 0x803 SWAP1 PUSH2 0x2D63 JUMP JUMPDEST DUP1 ISZERO PUSH2 0x850 JUMPI DUP1 PUSH1 0x1F LT PUSH2 0x825 JUMPI PUSH2 0x100 DUP1 DUP4 SLOAD DIV MUL DUP4 MSTORE SWAP2 PUSH1 0x20 ADD SWAP2 PUSH2 0x850 JUMP JUMPDEST DUP3 ADD SWAP2 SWAP1 PUSH1 0x0 MSTORE PUSH1 0x20 PUSH1 0x0 KECCAK256 SWAP1 JUMPDEST DUP2 SLOAD DUP2 MSTORE SWAP1 PUSH1 0x1 ADD SWAP1 PUSH1 0x20 ADD DUP1 DUP4 GT PUSH2 0x833 JUMPI DUP3 SWAP1 SUB PUSH1 0x1F AND DUP3 ADD SWAP2 JUMPDEST POP POP POP POP POP SWAP7 POP DUP6 DUP1 SLOAD PUSH2 0x863 SWAP1 PUSH2 0x2D63 JUMP JUMPDEST DUP1 PUSH1 0x1F ADD PUSH1 0x20 DUP1 SWAP2 DIV MUL PUSH1 0x20 ADD PUSH1 0x40 MLOAD SWAP1 DUP2 ADD PUSH1 0x40 MSTORE DUP1 SWAP3 SWAP2 SWAP1 DUP2 DUP2 MSTORE PUSH1 0x20 ADD DUP3 DUP1 SLOAD PUSH2 0x88F SWAP1 PUSH2 0x2D63 JUMP JUMPDEST DUP1 ISZERO PUSH2 0x8DC JUMPI DUP1 PUSH1 0x1F LT PUSH2 0x8B1 JUMPI PUSH2 0x100 DUP1 DUP4 SLOAD DIV MUL DUP4 MSTORE SWAP2 PUSH1 0x20 ADD SWAP2 PUSH2 0x8DC JUMP JUMPDEST DUP3 ADD SWAP2 SWAP1 PUSH1 0x0 MSTORE PUSH1 0x20 PUSH1 0x0 KECCAK256 SWAP1 JUMPDEST DUP2 SLOAD DUP2 MSTORE SWAP1 PUSH1 0x1 ADD SWAP1 PUSH1 0x20 ADD DUP1 DUP4 GT PUSH2 0x8BF JUMPI DUP3 SWAP1 SUB PUSH1 0x1F AND DUP3 ADD SWAP2 JUMPDEST POP POP POP POP POP SWAP6 POP DUP4 DUP1 SLOAD PUSH2 0x8EF SWAP1 PUSH2 0x2D63 JUMP JUMPDEST DUP1 PUSH1 0x1F ADD PUSH1 0x20 DUP1 SWAP2 DIV MUL PUSH1 0x20 ADD PUSH1 0x40 MLOAD SWAP1 DUP2 ADD PUSH1 0x40 MSTORE DUP1 SWAP3 SWAP2 SWAP1 DUP2 DUP2 MSTORE PUSH1 0x20 ADD DUP3 DUP1 SLOAD PUSH2 0x91B SWAP1 PUSH2 0x2D63 JUMP JUMPDEST DUP1 ISZERO PUSH2 0x968 JUMPI DUP1 PUSH1 0x1F LT PUSH2 0x93D JUMPI PUSH2 0x100 DUP1 DUP4 SLOAD DIV MUL DUP4 MSTORE SWAP2 PUSH1 0x20 ADD SWAP2 PUSH2 0x968 JUMP JUMPDEST DUP3 ADD SWAP2 SWAP1 PUSH1 0x0 MSTORE PUSH1 0x20 PUSH1 0x0 KECCAK256 SWAP1 JUMPDEST DUP2 SLOAD DUP2 MSTORE SWAP1 PUSH1 0x1 ADD SWAP1 PUSH1 0x20 ADD DUP1 DUP4 GT PUSH2 0x94B JUMPI DUP3 SWAP1 SUB PUSH1 0x1F AND DUP3 ADD SWAP2 JUMPDEST POP POP POP POP POP SWAP4 POP DUP2 DUP1 SLOAD PUSH2 0x97B SWAP1 PUSH2 0x2D63 JUMP JUMPDEST DUP1 PUSH1 0x1F ADD PUSH1 0x20 DUP1 SWAP2 DIV MUL PUSH1 0x20 ADD PUSH1 0x40 MLOAD SWAP1 DUP2 ADD PUSH1 0x40 MSTORE DUP1 SWAP3 SWAP2 SWAP1 DUP2 DUP2 MSTORE PUSH1 0x20 ADD DUP3 DUP1 SLOAD PUSH2 0x9A7 SWAP1 PUSH2 0x2D63 JUMP JUMPDEST DUP1 ISZERO PUSH2 0x9F4 JUMPI DUP1 PUSH1 0x1F LT PUSH2 0x9C9 JUMPI PUSH2 0x100 DUP1 DUP4 SLOAD DIV MUL DUP4 MSTORE SWAP2 PUSH1 0x20 ADD SWAP2 PUSH2 0x9F4 JUMP JUMPDEST DUP3 ADD SWAP2 SWAP1 PUSH1 0x0 MSTORE PUSH1 0x20 PUSH1 0x0 KECCAK256 SWAP1 JUMPDEST DUP2 SLOAD DUP2 MSTORE SWAP1 PUSH1 0x1 ADD SWAP1 PUSH1 0x20 ADD DUP1 DUP4 GT PUSH2 0x9D7 JUMPI DUP3 SWAP1 SUB PUSH1 0x1F AND DUP3 ADD SWAP2 JUMPDEST POP POP POP POP POP SWAP2 POP SWAP7 POP SWAP7 POP SWAP7 POP SWAP7 POP SWAP7 POP SWAP7 POP SWAP7 POP SWAP2 SWAP4 SWAP6 SWAP8 SWAP1 SWAP3 SWAP5 SWAP7 POP JUMP JUMPDEST PUSH1 0x7 DUP2 DUP2 SLOAD DUP2 LT PUSH2 0xA24 JUMPI PUSH1 0x0 DUP1 REVERT JUMPDEST SWAP1 PUSH1 0x0 MSTORE PUSH1 0x20 PUSH1 0x0 KECCAK256 ADD PUSH1 0x0 SWAP2 POP SLOAD SWAP1 PUSH2 0x100 EXP SWAP1 DIV PUSH20 0xFFFFFFFFFFFFFFFFFFFFFFFFFFFFFFFFFFFFFFFF AND DUP2 JUMP JUMPDEST PUSH1 0x4 PUSH1 0x0 SWAP1 SLOAD SWAP1 PUSH2 0x100 EXP SWAP1 DIV PUSH20 0xFFFFFFFFFFFFFFFFFFFFFFFFFFFFFFFFFFFFFFFF AND DUP2 JUMP JUMPDEST PUSH1 0xA DUP2 DUP2 SLOAD DUP2 LT PUSH2 0xA89 JUMPI PUSH1 0x0 DUP1 REVERT JUMPDEST SWAP1 PUSH1 0x0 MSTORE PUSH1 0x20 PUSH1 0x0 KECCAK256 ADD PUSH1 0x0 SWAP2 POP SLOAD SWAP1 PUSH2 0x100 EXP SWAP1 DIV PUSH20 0xFFFFFFFFFFFFFFFFFFFFFFFFFFFFFFFFFFFFFFFF AND DUP2 JUMP JUMPDEST PUSH2 0xAC0 PUSH2 0x2435 JUMP JUMPDEST PUSH20 0xFFFFFFFFFFFFFFFFFFFFFFFFFFFFFFFFFFFFFFFF AND PUSH1 0x3 PUSH1 0x0 SWAP1 SLOAD SWAP1 PUSH2 0x100 EXP SWAP1 DIV PUSH20 0xFFFFFFFFFFFFFFFFFFFFFFFFFFFFFFFFFFFFFFFF AND PUSH20 0xFFFFFFFFFFFFFFFFFFFFFFFFFFFFFFFFFFFFFFFF AND EQ PUSH2 0xB4F JUMPI PUSH1 0x40 MLOAD PUSH32 0x8C379A000000000000000000000000000000000000000000000000000000000 DUP2 MSTORE PUSH1 0x4 ADD PUSH2 0xB46 SWAP1 PUSH2 0x2E06 JUMP JUMPDEST PUSH1 0x40 MLOAD DUP1 SWAP2 SUB SWAP1 REVERT JUMPDEST PUSH1 0x0 PUSH20 0xFFFFFFFFFFFFFFFFFFFFFFFFFFFFFFFFFFFFFFFF AND DUP2 PUSH20 0xFFFFFFFFFFFFFFFFFFFFFFFFFFFFFFFFFFFFFFFF AND SUB PUSH2 0xBBE JUMPI PUSH1 0x40 MLOAD PUSH32 0x8C379A000000000000000000000000000000000000000000000000000000000 DUP2 MSTORE PUSH1 0x4 ADD PUSH2 0xBB5 SWAP1 PUSH2 0x2E72 JUMP JUMPDEST PUSH1 0x40 MLOAD DUP1 SWAP2 SUB SWAP1 REVERT JUMPDEST PUSH1 0x0 PUSH1 0x4 PUSH1 0x0 SWAP1 SLOAD SWAP1 PUSH2 0x100 EXP SWAP1 DIV PUSH20 0xFFFFFFFFFFFFFFFFFFFFFFFFFFFFFFFFFFFFFFFF AND SWAP1 POP DUP2 PUSH1 0x4 PUSH1 0x0 PUSH2 0x100 EXP DUP2 SLOAD DUP2 PUSH20 0xFFFFFFFFFFFFFFFFFFFFFFFFFFFFFFFFFFFFFFFF MUL NOT AND SWAP1 DUP4 PUSH20 0xFFFFFFFFFFFFFFFFFFFFFFFFFFFFFFFFFFFFFFFF AND MUL OR SWAP1 SSTORE POP PUSH32 0x18F08848C5694A025F9966C34FF2367F32A1A8275663B282EE01F4338B045490 DUP2 DUP4 PUSH1 0x40 MLOAD PUSH2 0xC57 SWAP3 SWAP2 SWAP1 PUSH2 0x2E92 JUMP JUMPDEST PUSH1 0x40 MLOAD DUP1 SWAP2 SUB SWAP1 LOG1 POP POP JUMP JUMPDEST PUSH1 0x0 PUSH2 0xC6D PUSH2 0xF40 JUMP JUMPDEST PUSH20 0xFFFFFFFFFFFFFFFFFFFFFFFFFFFFFFFFFFFFFFFF AND DUP3 PUSH20 0xFFFFFFFFFFFFFFFFFFFFFFFFFFFFFFFFFFFFFFFF AND EQ SWAP1 POP SWAP2 SWAP1 POP JUMP JUMPDEST PUSH1 0x3 PUSH1 0x0 SWAP1 SLOAD SWAP1 PUSH2 0x100 EXP SWAP1 DIV PUSH20 0xFFFFFFFFFFFFFFFFFFFFFFFFFFFFFFFFFFFFFFFF AND DUP2 JUMP JUMPDEST PUSH1 0x60 PUSH1 0x7 DUP1 SLOAD DUP1 PUSH1 0x20 MUL PUSH1 0x20 ADD PUSH1 0x40 MLOAD SWAP1 DUP2 ADD PUSH1 0x40 MSTORE DUP1 SWAP3 SWAP2 SWAP1 DUP2 DUP2 MSTORE PUSH1 0x20 ADD DUP3 DUP1 SLOAD DUP1 ISZERO PUSH2 0xD4C JUMPI PUSH1 0x20 MUL DUP3 ADD SWAP2 SWAP1 PUSH1 0x0 MSTORE PUSH1 0x20 PUSH1 0x0 KECCAK256 SWAP1 JUMPDEST DUP2 PUSH1 0x0 SWAP1 SLOAD SWAP1 PUSH2 0x100 EXP SWAP1 DIV PUSH20 0xFFFFFFFFFFFFFFFFFFFFFFFFFFFFFFFFFFFFFFFF AND PUSH20 0xFFFFFFFFFFFFFFFFFFFFFFFFFFFFFFFFFFFFFFFF AND DUP2 MSTORE PUSH1 0x20 ADD SWAP1 PUSH1 0x1 ADD SWAP1 DUP1 DUP4 GT PUSH2 0xD02 JUMPI JUMPDEST POP POP POP POP POP SWAP1 POP SWAP1 JUMP JUMPDEST PUSH2 0xD5E PUSH2 0x2435 JUMP JUMPDEST PUSH20 0xFFFFFFFFFFFFFFFFFFFFFFFFFFFFFFFFFFFFFFFF AND PUSH1 0x3 PUSH1 0x0 SWAP1 SLOAD SWAP1 PUSH2 0x100 EXP SWAP1 DIV PUSH20 0xFFFFFFFFFFFFFFFFFFFFFFFFFFFFFFFFFFFFFFFF AND PUSH20 0xFFFFFFFFFFFFFFFFFFFFFFFFFFFFFFFFFFFFFFFF AND EQ PUSH2 0xDED JUMPI PUSH1 0x40 MLOAD PUSH32 0x8C379A000000000000000000000000000000000000000000000000000000000 DUP2 MSTORE PUSH1 0x4 ADD PUSH2 0xDE4 SWAP1 PUSH2 0x2E06 JUMP JUMPDEST PUSH1 0x40 MLOAD DUP1 SWAP2 SUB SWAP1 REVERT JUMPDEST PUSH1 0x0 PUSH20 0xFFFFFFFFFFFFFFFFFFFFFFFFFFFFFFFFFFFFFFFF AND DUP2 PUSH20 0xFFFFFFFFFFFFFFFFFFFFFFFFFFFFFFFFFFFFFFFF AND SUB PUSH2 0xE5C JUMPI PUSH1 0x40 MLOAD PUSH32 0x8C379A000000000000000000000000000000000000000000000000000000000 DUP2 MSTORE PUSH1 0x4 ADD PUSH2 0xE53 SWAP1 PUSH2 0x2F07 JUMP JUMPDEST PUSH1 0x40 MLOAD DUP1 SWAP2 SUB SWAP1 REVERT JUMPDEST PUSH1 0x0 PUSH1 0x3 PUSH1 0x0 SWAP1 SLOAD SWAP1 PUSH2 0x100 EXP SWAP1 DIV PUSH20 0xFFFFFFFFFFFFFFFFFFFFFFFFFFFFFFFFFFFFFFFF AND SWAP1 POP DUP2 PUSH1 0x3 PUSH1 0x0 PUSH2 0x100 EXP DUP2 SLOAD DUP2 PUSH20 0xFFFFFFFFFFFFFFFFFFFFFFFFFFFFFFFFFFFFFFFF MUL NOT AND SWAP1 DUP4 PUSH20 0xFFFFFFFFFFFFFFFFFFFFFFFFFFFFFFFFFFFFFFFF AND MUL OR SWAP1 SSTORE POP PUSH32 0x7E644D79422F17C01E4894B5F4F588D331EBFA28653D42AE832DC59E38C9798F DUP2 DUP4 PUSH1 0x40 MLOAD PUSH2 0xEF5 SWAP3 SWAP2 SWAP1 PUSH2 0x2E92 JUMP JUMPDEST PUSH1 0x40 MLOAD DUP1 SWAP2 SUB SWAP1 LOG1 POP POP JUMP JUMPDEST PUSH1 0x9 DUP2 DUP2 SLOAD DUP2 LT PUSH2 0xF11 JUMPI PUSH1 0x0 DUP1 REVERT JUMPDEST SWAP1 PUSH1 0x0 MSTORE PUSH1 0x20 PUSH1 0x0 KECCAK256 ADD PUSH1 0x0 SWAP2 POP SLOAD SWAP1 PUSH2 0x100 EXP SWAP1 DIV PUSH20 0xFFFFFFFFFFFFFFFFFFFFFFFFFFFFFFFFFFFFFFFF AND DUP2 JUMP JUMPDEST PUSH1 0x0 PUSH32 0x0 SWAP1 POP SWAP1 JUMP JUMPDEST PUSH1 0x60 PUSH1 0x7 DUP1 SLOAD DUP1 PUSH1 0x20 MUL PUSH1 0x20 ADD PUSH1 0x40 MLOAD SWAP1 DUP2 ADD PUSH1 0x40 MSTORE DUP1 SWAP3 SWAP2 SWAP1 DUP2 DUP2 MSTORE PUSH1 0x20 ADD DUP3 DUP1 SLOAD DUP1 ISZERO PUSH2 0xFEC JUMPI PUSH1 0x20 MUL DUP3 ADD SWAP2 SWAP1 PUSH1 0x0 MSTORE PUSH1 0x20 PUSH1 0x0 KECCAK256 SWAP1 JUMPDEST DUP2 PUSH1 0x0 SWAP1 SLOAD SWAP1 PUSH2 0x100 EXP SWAP1 DIV PUSH20 0xFFFFFFFFFFFFFFFFFFFFFFFFFFFFFFFFFFFFFFFF AND PUSH20 0xFFFFFFFFFFFFFFFFFFFFFFFFFFFFFFFFFFFFFFFF AND DUP2 MSTORE PUSH1 0x20 ADD SWAP1 PUSH1 0x1 ADD SWAP1 DUP1 DUP4 GT PUSH2 0xFA2 JUMPI JUMPDEST POP POP POP POP POP SWAP1 POP SWAP1 JUMP JUMPDEST PUSH2 0xFFE PUSH2 0x2435 JUMP JUMPDEST PUSH20 0xFFFFFFFFFFFFFFFFFFFFFFFFFFFFFFFFFFFFFFFF AND PUSH1 0x3 PUSH1 0x0 SWAP1 SLOAD SWAP1 PUSH2 0x100 EXP SWAP1 DIV PUSH20 0xFFFFFFFFFFFFFFFFFFFFFFFFFFFFFFFFFFFFFFFF AND PUSH20 0xFFFFFFFFFFFFFFFFFFFFFFFFFFFFFFFFFFFFFFFF AND EQ PUSH2 0x108D JUMPI PUSH1 0x40 MLOAD PUSH32 0x8C379A000000000000000000000000000000000000000000000000000000000 DUP2 MSTORE PUSH1 0x4 ADD PUSH2 0x1084 SWAP1 PUSH2 0x2F99 JUMP JUMPDEST PUSH1 0x40 MLOAD DUP1 SWAP2 SUB SWAP1 REVERT JUMPDEST PUSH1 0x2 SLOAD PUSH1 0x5 PUSH1 0x0 DUP7 PUSH20 0xFFFFFFFFFFFFFFFFFFFFFFFFFFFFFFFFFFFFFFFF AND PUSH20 0xFFFFFFFFFFFFFFFFFFFFFFFFFFFFFFFFFFFFFFFF AND DUP2 MSTORE PUSH1 0x20 ADD SWAP1 DUP2 MSTORE PUSH1 0x20 ADD PUSH1 0x0 KECCAK256 SLOAD LT PUSH2 0x1110 JUMPI PUSH1 0x40 MLOAD PUSH32 0x8C379A000000000000000000000000000000000000000000000000000000000 DUP2 MSTORE PUSH1 0x4 ADD PUSH2 0x1107 SWAP1 PUSH2 0x302B JUMP JUMPDEST PUSH1 0x40 MLOAD DUP1 SWAP2 SUB SWAP1 REVERT JUMPDEST PUSH1 0x0 DUP1 DUP2 SLOAD DUP1 SWAP3 SWAP2 SWAP1 PUSH2 0x1122 SWAP1 PUSH2 0x307A JUMP JUMPDEST SWAP2 SWAP1 POP SSTORE POP PUSH1 0x0 DUP1 SLOAD SWAP1 POP PUSH1 0x0 PUSH1 0xB PUSH1 0x0 DUP8 PUSH20 0xFFFFFFFFFFFFFFFFFFFFFFFFFFFFFFFFFFFFFFFF AND PUSH20 0xFFFFFFFFFFFFFFFFFFFFFFFFFFFFFFFFFFFFFFFF AND DUP2 MSTORE PUSH1 0x20 ADD SWAP1 DUP2 MSTORE PUSH1 0x20 ADD PUSH1 0x0 KECCAK256 SWAP1 POP DUP2 DUP2 PUSH1 0x0 ADD DUP2 SWAP1 SSTORE POP DUP5 DUP2 PUSH1 0x1 ADD SWAP1 DUP2 PUSH2 0x118A SWAP2 SWAP1 PUSH2 0x326E JUMP JUMPDEST POP DUP4 DUP2 PUSH1 0x2 ADD SWAP1 DUP2 PUSH2 0x119C SWAP2 SWAP1 PUSH2 0x326E JUMP JUMPDEST POP DUP6 DUP2 PUSH1 0x3 ADD PUSH1 0x0 PUSH2 0x100 EXP DUP2 SLOAD DUP2 PUSH20 0xFFFFFFFFFFFFFFFFFFFFFFFFFFFFFFFFFFFFFFFF MUL NOT AND SWAP1 DUP4 PUSH20 0xFFFFFFFFFFFFFFFFFFFFFFFFFFFFFFFFFFFFFFFF AND MUL OR SWAP1 SSTORE POP PUSH1 0x1 DUP2 PUSH1 0x4 ADD DUP2 SWAP1 SSTORE POP PUSH1 0x0 DUP2 PUSH1 0x5 ADD PUSH1 0x0 PUSH2 0x100 EXP DUP2 SLOAD DUP2 PUSH1 0xFF MUL NOT AND SWAP1 DUP4 ISZERO ISZERO MUL OR SWAP1 SSTORE POP PUSH2 0x3E8 DUP2 PUSH1 0x6 ADD DUP2 SWAP1 SSTORE POP DUP3 DUP2 PUSH1 0x7 ADD SWAP1 DUP2 PUSH2 0x1223 SWAP2 SWAP1 PUSH2 0x326E JUMP JUMPDEST POP PUSH1 0xA DUP7 SWAP1 DUP1 PUSH1 0x1 DUP2 SLOAD ADD DUP1 DUP3 SSTORE DUP1 SWAP2 POP POP PUSH1 0x1 SWAP1 SUB SWAP1 PUSH1 0x0 MSTORE PUSH1 0x20 PUSH1 0x0 KECCAK256 ADD PUSH1 0x0 SWAP1 SWAP2 SWAP1 SWAP2 SWAP1 SWAP2 PUSH2 0x100 EXP DUP2 SLOAD DUP2 PUSH20 0xFFFFFFFFFFFFFFFFFFFFFFFFFFFFFFFFFFFFFFFF MUL NOT AND SWAP1 DUP4 PUSH20 0xFFFFFFFFFFFFFFFFFFFFFFFFFFFFFFFFFFFFFFFF AND MUL OR SWAP1 SSTORE POP PUSH1 0x2 SLOAD PUSH1 0x5 PUSH1 0x0 DUP9 PUSH20 0xFFFFFFFFFFFFFFFFFFFFFFFFFFFFFFFFFFFFFFFF AND PUSH20 0xFFFFFFFFFFFFFFFFFFFFFFFFFFFFFFFFFFFFFFFF AND DUP2 MSTORE PUSH1 0x20 ADD SWAP1 DUP2 MSTORE PUSH1 0x20 ADD PUSH1 0x0 KECCAK256 DUP2 SWAP1 SSTORE POP DUP2 PUSH32 0xF5F39971DD62D9929E3A9FEAA6BB77FE7C7DA0001BABFF8A65A7E51AD0201C19 DUP7 DUP7 DUP10 DUP6 PUSH1 0x4 ADD SLOAD DUP7 PUSH1 0x5 ADD PUSH1 0x0 SWAP1 SLOAD SWAP1 PUSH2 0x100 EXP SWAP1 DIV PUSH1 0xFF AND DUP8 PUSH1 0x6 ADD SLOAD DUP11 PUSH1 0x40 MLOAD PUSH2 0x1322 SWAP8 SWAP7 SWAP6 SWAP5 SWAP4 SWAP3 SWAP2 SWAP1 PUSH2 0x3340 JUMP JUMPDEST PUSH1 0x40 MLOAD DUP1 SWAP2 SUB SWAP1 LOG2 PUSH32 0xB6BE2187D059CC2A55FE29E0E503B566E1E0F8C8780096E185429350ACFFD3DD DUP7 PUSH1 0x40 MLOAD PUSH2 0x1359 SWAP2 SWAP1 PUSH2 0x2746 JUMP JUMPDEST PUSH1 0x40 MLOAD DUP1 SWAP2 SUB SWAP1 LOG1 POP POP POP POP POP POP JUMP JUMPDEST PUSH1 0x8 PUSH1 0x20 MSTORE DUP1 PUSH1 0x0 MSTORE PUSH1 0x40 PUSH1 0x0 KECCAK256 PUSH1 0x0 SWAP2 POP SWAP1 POP DUP1 PUSH1 0x0 ADD SLOAD SWAP1 DUP1 PUSH1 0x1 ADD DUP1 SLOAD PUSH2 0x1392 SWAP1 PUSH2 0x2D63 JUMP JUMPDEST DUP1 PUSH1 0x1F ADD PUSH1 0x20 DUP1 SWAP2 DIV MUL PUSH1 0x20 ADD PUSH1 0x40 MLOAD SWAP1 DUP2 ADD PUSH1 0x40 MSTORE DUP1 SWAP3 SWAP2 SWAP1 DUP2 DUP2 MSTORE PUSH1 0x20 ADD DUP3 DUP1 SLOAD PUSH2 0x13BE SWAP1 PUSH2 0x2D63 JUMP JUMPDEST DUP1 ISZERO PUSH2 0x140B JUMPI DUP1 PUSH1 0x1F LT PUSH2 0x13E0 JUMPI PUSH2 0x100 DUP1 DUP4 SLOAD DIV MUL DUP4 MSTORE SWAP2 PUSH1 0x20 ADD SWAP2 PUSH2 0x140B JUMP JUMPDEST DUP3 ADD SWAP2 SWAP1 PUSH1 0x0 MSTORE PUSH1 0x20 PUSH1 0x0 KECCAK256 SWAP1 JUMPDEST DUP2 SLOAD DUP2 MSTORE SWAP1 PUSH1 0x1 ADD SWAP1 PUSH1 0x20 ADD DUP1 DUP4 GT PUSH2 0x13EE JUMPI DUP3 SWAP1 SUB PUSH1 0x1F AND DUP3 ADD SWAP2 JUMPDEST POP POP POP POP POP SWAP1 DUP1 PUSH1 0x2 ADD DUP1 SLOAD PUSH2 0x1420 SWAP1 PUSH2 0x2D63 JUMP JUMPDEST DUP1 PUSH1 0x1F ADD PUSH1 0x20 DUP1 SWAP2 DIV MUL PUSH1 0x20 ADD PUSH1 0x40 MLOAD SWAP1 DUP2 ADD PUSH1 0x40 MSTORE DUP1 SWAP3 SWAP2 SWAP1 DUP2 DUP2 MSTORE PUSH1 0x20 ADD DUP3 DUP1 SLOAD PUSH2 0x144C SWAP1 PUSH2 0x2D63 JUMP JUMPDEST DUP1 ISZERO PUSH2 0x1499 JUMPI DUP1 PUSH1 0x1F LT PUSH2 0x146E JUMPI PUSH2 0x100 DUP1 DUP4 SLOAD DIV MUL DUP4 MSTORE SWAP2 PUSH1 0x20 ADD SWAP2 PUSH2 0x1499 JUMP JUMPDEST DUP3 ADD SWAP2 SWAP1 PUSH1 0x0 MSTORE PUSH1 0x20 PUSH1 0x0 KECCAK256 SWAP1 JUMPDEST DUP2 SLOAD DUP2 MSTORE SWAP1 PUSH1 0x1 ADD SWAP1 PUSH1 0x20 ADD DUP1 DUP4 GT PUSH2 0x147C JUMPI DUP3 SWAP1 SUB PUSH1 0x1F AND DUP3 ADD SWAP2 JUMPDEST POP POP POP POP POP SWAP1 DUP1 PUSH1 0x3 ADD DUP1 SLOAD PUSH2 0x14AE SWAP1 PUSH2 0x2D63 JUMP JUMPDEST DUP1 PUSH1 0x1F ADD PUSH1 0x20 DUP1 SWAP2 DIV MUL PUSH1 0x20 ADD PUSH1 0x40 MLOAD SWAP1 DUP2 ADD PUSH1 0x40 MSTORE DUP1 SWAP3 SWAP2 SWAP1 DUP2 DUP2 MSTORE PUSH1 0x20 ADD DUP3 DUP1 SLOAD PUSH2 0x14DA SWAP1 PUSH2 0x2D63 JUMP JUMPDEST DUP1 ISZERO PUSH2 0x1527 JUMPI DUP1 PUSH1 0x1F LT PUSH2 0x14FC JUMPI PUSH2 0x100 DUP1 DUP4 SLOAD DIV MUL DUP4 MSTORE SWAP2 PUSH1 0x20 ADD SWAP2 PUSH2 0x1527 JUMP JUMPDEST DUP3 ADD SWAP2 SWAP1 PUSH1 0x0 MSTORE PUSH1 0x20 PUSH1 0x0 KECCAK256 SWAP1 JUMPDEST DUP2 SLOAD DUP2 MSTORE SWAP1 PUSH1 0x1 ADD SWAP1 PUSH1 0x20 ADD DUP1 DUP4 GT PUSH2 0x150A JUMPI DUP3 SWAP1 SUB PUSH1 0x1F AND DUP3 ADD SWAP2 JUMPDEST POP POP POP POP POP SWAP1 DUP1 PUSH1 0x4 ADD SLOAD SWAP1 DUP1 PUSH1 0x5 ADD PUSH1 0x0 SWAP1 SLOAD SWAP1 PUSH2 0x100 EXP SWAP1 DIV PUSH20 0xFFFFFFFFFFFFFFFFFFFFFFFFFFFFFFFFFFFFFFFF AND SWAP1 DUP1 PUSH1 0x6 ADD DUP1 SLOAD PUSH2 0x1568 SWAP1 PUSH2 0x2D63 JUMP JUMPDEST DUP1 PUSH1 0x1F ADD PUSH1 0x20 DUP1 SWAP2 DIV MUL PUSH1 0x20 ADD PUSH1 0x40 MLOAD SWAP1 DUP2 ADD PUSH1 0x40 MSTORE DUP1 SWAP3 SWAP2 SWAP1 DUP2 DUP2 MSTORE PUSH1 0x20 ADD DUP3 DUP1 SLOAD PUSH2 0x1594 SWAP1 PUSH2 0x2D63 JUMP JUMPDEST DUP1 ISZERO PUSH2 0x15E1 JUMPI DUP1 PUSH1 0x1F LT PUSH2 0x15B6 JUMPI PUSH2 0x100 DUP1 DUP4 SLOAD DIV MUL DUP4 MSTORE SWAP2 PUSH1 0x20 ADD SWAP2 PUSH2 0x15E1 JUMP JUMPDEST DUP3 ADD SWAP2 SWAP1 PUSH1 0x0 MSTORE PUSH1 0x20 PUSH1 0x0 KECCAK256 SWAP1 JUMPDEST DUP2 SLOAD DUP2 MSTORE SWAP1 PUSH1 0x1 ADD SWAP1 PUSH1 0x20 ADD DUP1 DUP4 GT PUSH2 0x15C4 JUMPI DUP3 SWAP1 SUB PUSH1 0x1F AND DUP3 ADD SWAP2 JUMPDEST POP POP POP POP POP SWAP1 POP DUP8 JUMP JUMPDEST PUSH1 0x60 PUSH1 0x9 DUP1 SLOAD DUP1 PUSH1 0x20 MUL PUSH1 0x20 ADD PUSH1 0x40 MLOAD SWAP1 DUP2 ADD PUSH1 0x40 MSTORE DUP1 SWAP3 SWAP2 SWAP1 DUP2 DUP2 MSTORE PUSH1 0x20 ADD DUP3 DUP1 SLOAD DUP1 ISZERO PUSH2 0x166F JUMPI PUSH1 0x20 MUL DUP3 ADD SWAP2 SWAP1 PUSH1 0x0 MSTORE PUSH1 0x20 PUSH1 0x0 KECCAK256 SWAP1 JUMPDEST DUP2 PUSH1 0x0 SWAP1 SLOAD SWAP1 PUSH2 0x100 EXP SWAP1 DIV PUSH20 0xFFFFFFFFFFFFFFFFFFFFFFFFFFFFFFFFFFFFFFFF AND PUSH20 0xFFFFFFFFFFFFFFFFFFFFFFFFFFFFFFFFFFFFFFFF AND DUP2 MSTORE PUSH1 0x20 ADD SWAP1 PUSH1 0x1 ADD SWAP1 DUP1 DUP4 GT PUSH2 0x1625 JUMPI JUMPDEST POP POP POP POP POP SWAP1 POP SWAP1 JUMP JUMPDEST PUSH1 0x0 PUSH1 0x60 DUP1 PUSH1 0x0 PUSH1 0x60 PUSH1 0x0 DUP1 PUSH1 0xB PUSH1 0x0 DUP10 PUSH20 0xFFFFFFFFFFFFFFFFFFFFFFFFFFFFFFFFFFFFFFFF AND PUSH20 0xFFFFFFFFFFFFFFFFFFFFFFFFFFFFFFFFFFFFFFFF AND DUP2 MSTORE PUSH1 0x20 ADD SWAP1 DUP2 MSTORE PUSH1 0x20 ADD PUSH1 0x0 KECCAK256 PUSH1 0x0 ADD SLOAD PUSH1 0xB PUSH1 0x0 DUP11 PUSH20 0xFFFFFFFFFFFFFFFFFFFFFFFFFFFFFFFFFFFFFFFF AND PUSH20 0xFFFFFFFFFFFFFFFFFFFFFFFFFFFFFFFFFFFFFFFF AND DUP2 MSTORE PUSH1 0x20 ADD SWAP1 DUP2 MSTORE PUSH1 0x20 ADD PUSH1 0x0 KECCAK256 PUSH1 0x1 ADD PUSH1 0xB PUSH1 0x0 DUP12 PUSH20 0xFFFFFFFFFFFFFFFFFFFFFFFFFFFFFFFFFFFFFFFF AND PUSH20 0xFFFFFFFFFFFFFFFFFFFFFFFFFFFFFFFFFFFFFFFF AND DUP2 MSTORE PUSH1 0x20 ADD SWAP1 DUP2 MSTORE PUSH1 0x20 ADD PUSH1 0x0 KECCAK256 PUSH1 0x2 ADD PUSH1 0xB PUSH1 0x0 DUP13 PUSH20 0xFFFFFFFFFFFFFFFFFFFFFFFFFFFFFFFFFFFFFFFF AND PUSH20 0xFFFFFFFFFFFFFFFFFFFFFFFFFFFFFFFFFFFFFFFF AND DUP2 MSTORE PUSH1 0x20 ADD SWAP1 DUP2 MSTORE PUSH1 0x20 ADD PUSH1 0x0 KECCAK256 PUSH1 0x3 ADD PUSH1 0x0 SWAP1 SLOAD SWAP1 PUSH2 0x100 EXP SWAP1 DIV PUSH20 0xFFFFFFFFFFFFFFFFFFFFFFFFFFFFFFFFFFFFFFFF AND PUSH1 0xB PUSH1 0x0 DUP14 PUSH20 0xFFFFFFFFFFFFFFFFFFFFFFFFFFFFFFFFFFFFFFFF AND PUSH20 0xFFFFFFFFFFFFFFFFFFFFFFFFFFFFFFFFFFFFFFFF AND DUP2 MSTORE PUSH1 0x20 ADD SWAP1 DUP2 MSTORE PUSH1 0x20 ADD PUSH1 0x0 KECCAK256 PUSH1 0x7 ADD PUSH1 0xB PUSH1 0x0 DUP15 PUSH20 0xFFFFFFFFFFFFFFFFFFFFFFFFFFFFFFFFFFFFFFFF AND PUSH20 0xFFFFFFFFFFFFFFFFFFFFFFFFFFFFFFFFFFFFFFFF AND DUP2 MSTORE PUSH1 0x20 ADD SWAP1 DUP2 MSTORE PUSH1 0x20 ADD PUSH1 0x0 KECCAK256 PUSH1 0x5 ADD PUSH1 0x0 SWAP1 SLOAD SWAP1 PUSH2 0x100 EXP SWAP1 DIV PUSH1 0xFF AND PUSH1 0xB PUSH1 0x0 DUP16 PUSH20 0xFFFFFFFFFFFFFFFFFFFFFFFFFFFFFFFFFFFFFFFF AND PUSH20 0xFFFFFFFFFFFFFFFFFFFFFFFFFFFFFFFFFFFFFFFF AND DUP2 MSTORE PUSH1 0x20 ADD SWAP1 DUP2 MSTORE PUSH1 0x20 ADD PUSH1 0x0 KECCAK256 PUSH1 0x4 ADD SLOAD DUP6 DUP1 SLOAD PUSH2 0x1890 SWAP1 PUSH2 0x2D63 JUMP JUMPDEST DUP1 PUSH1 0x1F ADD PUSH1 0x20 DUP1 SWAP2 DIV MUL PUSH1 0x20 ADD PUSH1 0x40 MLOAD SWAP1 DUP2 ADD PUSH1 0x40 MSTORE DUP1 SWAP3 SWAP2 SWAP1 DUP2 DUP2 MSTORE PUSH1 0x20 ADD DUP3 DUP1 SLOAD PUSH2 0x18BC SWAP1 PUSH2 0x2D63 JUMP JUMPDEST DUP1 ISZERO PUSH2 0x1909 JUMPI DUP1 PUSH1 0x1F LT PUSH2 0x18DE JUMPI PUSH2 0x100 DUP1 DUP4 SLOAD DIV MUL DUP4 MSTORE SWAP2 PUSH1 0x20 ADD SWAP2 PUSH2 0x1909 JUMP JUMPDEST DUP3 ADD SWAP2 SWAP1 PUSH1 0x0 MSTORE PUSH1 0x20 PUSH1 0x0 KECCAK256 SWAP1 JUMPDEST DUP2 SLOAD DUP2 MSTORE SWAP1 PUSH1 0x1 ADD SWAP1 PUSH1 0x20 ADD DUP1 DUP4 GT PUSH2 0x18EC JUMPI DUP3 SWAP1 SUB PUSH1 0x1F AND DUP3 ADD SWAP2 JUMPDEST POP POP POP POP POP SWAP6 POP DUP5 DUP1 SLOAD PUSH2 0x191C SWAP1 PUSH2 0x2D63 JUMP JUMPDEST DUP1 PUSH1 0x1F ADD PUSH1 0x20 DUP1 SWAP2 DIV MUL PUSH1 0x20 ADD PUSH1 0x40 MLOAD SWAP1 DUP2 ADD PUSH1 0x40 MSTORE DUP1 SWAP3 SWAP2 SWAP1 DUP2 DUP2 MSTORE PUSH1 0x20 ADD DUP3 DUP1 SLOAD PUSH2 0x1948 SWAP1 PUSH2 0x2D63 JUMP JUMPDEST DUP1 ISZERO PUSH2 0x1995 JUMPI DUP1 PUSH1 0x1F LT PUSH2 0x196A JUMPI PUSH2 0x100 DUP1 DUP4 SLOAD DIV MUL DUP4 MSTORE SWAP2 PUSH1 0x20 ADD SWAP2 PUSH2 0x1995 JUMP JUMPDEST DUP3 ADD SWAP2 SWAP1 PUSH1 0x0 MSTORE PUSH1 0x20 PUSH1 0x0 KECCAK256 SWAP1 JUMPDEST DUP2 SLOAD DUP2 MSTORE SWAP1 PUSH1 0x1 ADD SWAP1 PUSH1 0x20 ADD DUP1 DUP4 GT PUSH2 0x1978 JUMPI DUP3 SWAP1 SUB PUSH1 0x1F AND DUP3 ADD SWAP2 JUMPDEST POP POP POP POP POP SWAP5 POP DUP3 DUP1 SLOAD PUSH2 0x19A8 SWAP1 PUSH2 0x2D63 JUMP JUMPDEST DUP1 PUSH1 0x1F ADD PUSH1 0x20 DUP1 SWAP2 DIV MUL PUSH1 0x20 ADD PUSH1 0x40 MLOAD SWAP1 DUP2 ADD PUSH1 0x40 MSTORE DUP1 SWAP3 SWAP2 SWAP1 DUP2 DUP2 MSTORE PUSH1 0x20 ADD DUP3 DUP1 SLOAD PUSH2 0x19D4 SWAP1 PUSH2 0x2D63 JUMP JUMPDEST DUP1 ISZERO PUSH2 0x1A21 JUMPI DUP1 PUSH1 0x1F LT PUSH2 0x19F6 JUMPI PUSH2 0x100 DUP1 DUP4 SLOAD DIV MUL DUP4 MSTORE SWAP2 PUSH1 0x20 ADD SWAP2 PUSH2 0x1A21 JUMP JUMPDEST DUP3 ADD SWAP2 SWAP1 PUSH1 0x0 MSTORE PUSH1 0x20 PUSH1 0x0 KECCAK256 SWAP1 JUMPDEST DUP2 SLOAD DUP2 MSTORE SWAP1 PUSH1 0x1 ADD SWAP1 PUSH1 0x20 ADD DUP1 DUP4 GT PUSH2 0x1A04 JUMPI DUP3 SWAP1 SUB PUSH1 0x1F AND DUP3 ADD SWAP2 JUMPDEST POP POP POP POP POP SWAP3 POP SWAP7 POP SWAP7 POP SWAP7 POP SWAP7 POP SWAP7 POP SWAP7 POP SWAP7 POP SWAP2 SWAP4 SWAP6 SWAP8 SWAP1 SWAP3 SWAP5 SWAP7 POP JUMP JUMPDEST PUSH1 0x6 PUSH1 0x20 MSTORE DUP1 PUSH1 0x0 MSTORE PUSH1 0x40 PUSH1 0x0 KECCAK256 PUSH1 0x0 SWAP2 POP SWAP1 POP SLOAD DUP2 JUMP JUMPDEST PUSH1 0xB PUSH1 0x20 MSTORE DUP1 PUSH1 0x0 MSTORE PUSH1 0x40 PUSH1 0x0 KECCAK256 PUSH1 0x0 SWAP2 POP SWAP1 POP DUP1 PUSH1 0x0 ADD SLOAD SWAP1 DUP1 PUSH1 0x1 ADD DUP1 SLOAD PUSH2 0x1A82 SWAP1 PUSH2 0x2D63 JUMP JUMPDEST DUP1 PUSH1 0x1F ADD PUSH1 0x20 DUP1 SWAP2 DIV MUL PUSH1 0x20 ADD PUSH1 0x40 MLOAD SWAP1 DUP2 ADD PUSH1 0x40 MSTORE DUP1 SWAP3 SWAP2 SWAP1 DUP2 DUP2 MSTORE PUSH1 0x20 ADD DUP3 DUP1 SLOAD PUSH2 0x1AAE SWAP1 PUSH2 0x2D63 JUMP JUMPDEST DUP1 ISZERO PUSH2 0x1AFB JUMPI DUP1 PUSH1 0x1F LT PUSH2 0x1AD0 JUMPI PUSH2 0x100 DUP1 DUP4 SLOAD DIV MUL DUP4 MSTORE SWAP2 PUSH1 0x20 ADD SWAP2 PUSH2 0x1AFB JUMP JUMPDEST DUP3 ADD SWAP2 SWAP1 PUSH1 0x0 MSTORE PUSH1 0x20 PUSH1 0x0 KECCAK256 SWAP1 JUMPDEST DUP2 SLOAD DUP2 MSTORE SWAP1 PUSH1 0x1 ADD SWAP1 PUSH1 0x20 ADD DUP1 DUP4 GT PUSH2 0x1ADE JUMPI DUP3 SWAP1 SUB PUSH1 0x1F AND DUP3 ADD SWAP2 JUMPDEST POP POP POP POP POP SWAP1 DUP1 PUSH1 0x2 ADD DUP1 SLOAD PUSH2 0x1B10 SWAP1 PUSH2 0x2D63 JUMP JUMPDEST DUP1 PUSH1 0x1F ADD PUSH1 0x20 DUP1 SWAP2 DIV MUL PUSH1 0x20 ADD PUSH1 0x40 MLOAD SWAP1 DUP2 ADD PUSH1 0x40 MSTORE DUP1 SWAP3 SWAP2 SWAP1 DUP2 DUP2 MSTORE PUSH1 0x20 ADD DUP3 DUP1 SLOAD PUSH2 0x1B3C SWAP1 PUSH2 0x2D63 JUMP JUMPDEST DUP1 ISZERO PUSH2 0x1B89 JUMPI DUP1 PUSH1 0x1F LT PUSH2 0x1B5E JUMPI PUSH2 0x100 DUP1 DUP4 SLOAD DIV MUL DUP4 MSTORE SWAP2 PUSH1 0x20 ADD SWAP2 PUSH2 0x1B89 JUMP JUMPDEST DUP3 ADD SWAP2 SWAP1 PUSH1 0x0 MSTORE PUSH1 0x20 PUSH1 0x0 KECCAK256 SWAP1 JUMPDEST DUP2 SLOAD DUP2 MSTORE SWAP1 PUSH1 0x1 ADD SWAP1 PUSH1 0x20 ADD DUP1 DUP4 GT PUSH2 0x1B6C JUMPI DUP3 SWAP1 SUB PUSH1 0x1F AND DUP3 ADD SWAP2 JUMPDEST POP POP POP POP POP SWAP1 DUP1 PUSH1 0x3 ADD PUSH1 0x0 SWAP1 SLOAD SWAP1 PUSH2 0x100 EXP SWAP1 DIV PUSH20 0xFFFFFFFFFFFFFFFFFFFFFFFFFFFFFFFFFFFFFFFF AND SWAP1 DUP1 PUSH1 0x4 ADD SLOAD SWAP1 DUP1 PUSH1 0x5 ADD PUSH1 0x0 SWAP1 SLOAD SWAP1 PUSH2 0x100 EXP SWAP1 DIV PUSH1 0xFF AND SWAP1 DUP1 PUSH1 0x6 ADD SLOAD SWAP1 DUP1 PUSH1 0x7 ADD DUP1 SLOAD PUSH2 0x1BE3 SWAP1 PUSH2 0x2D63 JUMP JUMPDEST DUP1 PUSH1 0x1F ADD PUSH1 0x20 DUP1 SWAP2 DIV MUL PUSH1 0x20 ADD PUSH1 0x40 MLOAD SWAP1 DUP2 ADD PUSH1 0x40 MSTORE DUP1 SWAP3 SWAP2 SWAP1 DUP2 DUP2 MSTORE PUSH1 0x20 ADD DUP3 DUP1 SLOAD PUSH2 0x1C0F SWAP1 PUSH2 0x2D63 JUMP JUMPDEST DUP1 ISZERO PUSH2 0x1C5C JUMPI DUP1 PUSH1 0x1F LT PUSH2 0x1C31 JUMPI PUSH2 0x100 DUP1 DUP4 SLOAD DIV MUL DUP4 MSTORE SWAP2 PUSH1 0x20 ADD SWAP2 PUSH2 0x1C5C JUMP JUMPDEST DUP3 ADD SWAP2 SWAP1 PUSH1 0x0 MSTORE PUSH1 0x20 PUSH1 0x0 KECCAK256 SWAP1 JUMPDEST DUP2 SLOAD DUP2 MSTORE SWAP1 PUSH1 0x1 ADD SWAP1 PUSH1 0x20 ADD DUP1 DUP4 GT PUSH2 0x1C3F JUMPI DUP3 SWAP1 SUB PUSH1 0x1F AND DUP3 ADD SWAP2 JUMPDEST POP POP POP POP POP SWAP1 POP DUP9 JUMP JUMPDEST PUSH1 0x1 SLOAD DUP2 JUMP JUMPDEST PUSH1 0x60 PUSH1 0xA DUP1 SLOAD DUP1 PUSH1 0x20 MUL PUSH1 0x20 ADD PUSH1 0x40 MLOAD SWAP1 DUP2 ADD PUSH1 0x40 MSTORE DUP1 SWAP3 SWAP2 SWAP1 DUP2 DUP2 MSTORE PUSH1 0x20 ADD DUP3 DUP1 SLOAD DUP1 ISZERO PUSH2 0x1CF0 JUMPI PUSH1 0x20 MUL DUP3 ADD SWAP2 SWAP1 PUSH1 0x0 MSTORE PUSH1 0x20 PUSH1 0x0 KECCAK256 SWAP1 JUMPDEST DUP2 PUSH1 0x0 SWAP1 SLOAD SWAP1 PUSH2 0x100 EXP SWAP1 DIV PUSH20 0xFFFFFFFFFFFFFFFFFFFFFFFFFFFFFFFFFFFFFFFF AND PUSH20 0xFFFFFFFFFFFFFFFFFFFFFFFFFFFFFFFFFFFFFFFF AND DUP2 MSTORE PUSH1 0x20 ADD SWAP1 PUSH1 0x1 ADD SWAP1 DUP1 DUP4 GT PUSH2 0x1CA6 JUMPI JUMPDEST POP POP POP POP POP SWAP1 POP SWAP1 JUMP JUMPDEST PUSH1 0x0 SLOAD DUP2 JUMP JUMPDEST PUSH2 0x1D08 PUSH2 0x2435 JUMP JUMPDEST PUSH20 0xFFFFFFFFFFFFFFFFFFFFFFFFFFFFFFFFFFFFFFFF AND PUSH1 0x3 PUSH1 0x0 SWAP1 SLOAD SWAP1 PUSH2 0x100 EXP SWAP1 DIV PUSH20 0xFFFFFFFFFFFFFFFFFFFFFFFFFFFFFFFFFFFFFFFF AND PUSH20 0xFFFFFFFFFFFFFFFFFFFFFFFFFFFFFFFFFFFFFFFF AND EQ PUSH2 0x1D97 JUMPI PUSH1 0x40 MLOAD PUSH32 0x8C379A000000000000000000000000000000000000000000000000000000000 DUP2 MSTORE PUSH1 0x4 ADD PUSH2 0x1D8E SWAP1 PUSH2 0x3436 JUMP JUMPDEST PUSH1 0x40 MLOAD DUP1 SWAP2 SUB SWAP1 REVERT JUMPDEST PUSH1 0x2 SLOAD PUSH1 0x6 PUSH1 0x0 DUP8 PUSH20 0xFFFFFFFFFFFFFFFFFFFFFFFFFFFFFFFFFFFFFFFF AND PUSH20 0xFFFFFFFFFFFFFFFFFFFFFFFFFFFFFFFFFFFFFFFF AND DUP2 MSTORE PUSH1 0x20 ADD SWAP1 DUP2 MSTORE PUSH1 0x20 ADD PUSH1 0x0 KECCAK256 SLOAD LT PUSH2 0x1E1A JUMPI PUSH1 0x40 MLOAD PUSH32 0x8C379A000000000000000000000000000000000000000000000000000000000 DUP2 MSTORE PUSH1 0x4 ADD PUSH2 0x1E11 SWAP1 PUSH2 0x34C8 JUMP JUMPDEST PUSH1 0x40 MLOAD DUP1 SWAP2 SUB SWAP1 REVERT JUMPDEST PUSH1 0x1 PUSH1 0x0 DUP2 SLOAD DUP1 SWAP3 SWAP2 SWAP1 PUSH2 0x1E2D SWAP1 PUSH2 0x307A JUMP JUMPDEST SWAP2 SWAP1 POP SSTORE POP PUSH1 0x0 PUSH1 0x1 SLOAD SWAP1 POP PUSH1 0x0 PUSH1 0x8 PUSH1 0x0 DUP9 PUSH20 0xFFFFFFFFFFFFFFFFFFFFFFFFFFFFFFFFFFFFFFFF AND PUSH20 0xFFFFFFFFFFFFFFFFFFFFFFFFFFFFFFFFFFFFFFFF AND DUP2 MSTORE PUSH1 0x20 ADD SWAP1 DUP2 MSTORE PUSH1 0x20 ADD PUSH1 0x0 KECCAK256 SWAP1 POP DUP2 DUP2 PUSH1 0x0 ADD DUP2 SWAP1 SSTORE POP DUP6 DUP2 PUSH1 0x1 ADD SWAP1 DUP2 PUSH2 0x1E96 SWAP2 SWAP1 PUSH2 0x326E JUMP JUMPDEST POP DUP5 DUP2 PUSH1 0x2 ADD SWAP1 DUP2 PUSH2 0x1EA8 SWAP2 SWAP1 PUSH2 0x326E JUMP JUMPDEST POP DUP4 DUP2 PUSH1 0x3 ADD SWAP1 DUP2 PUSH2 0x1EBA SWAP2 SWAP1 PUSH2 0x326E JUMP JUMPDEST POP PUSH1 0x0 DUP2 PUSH1 0x4 ADD DUP2 SWAP1 SSTORE POP DUP7 DUP2 PUSH1 0x5 ADD PUSH1 0x0 PUSH2 0x100 EXP DUP2 SLOAD DUP2 PUSH20 0xFFFFFFFFFFFFFFFFFFFFFFFFFFFFFFFFFFFFFFFF MUL NOT AND SWAP1 DUP4 PUSH20 0xFFFFFFFFFFFFFFFFFFFFFFFFFFFFFFFFFFFFFFFF AND MUL OR SWAP1 SSTORE POP DUP3 DUP2 PUSH1 0x6 ADD SWAP1 DUP2 PUSH2 0x1F19 SWAP2 SWAP1 PUSH2 0x326E JUMP JUMPDEST POP PUSH1 0x7 DUP8 SWAP1 DUP1 PUSH1 0x1 DUP2 SLOAD ADD DUP1 DUP3 SSTORE DUP1 SWAP2 POP POP PUSH1 0x1 SWAP1 SUB SWAP1 PUSH1 0x0 MSTORE PUSH1 0x20 PUSH1 0x0 KECCAK256 ADD PUSH1 0x0 SWAP1 SWAP2 SWAP1 SWAP2 SWAP1 SWAP2 PUSH2 0x100 EXP DUP2 SLOAD DUP2 PUSH20 0xFFFFFFFFFFFFFFFFFFFFFFFFFFFFFFFFFFFFFFFF MUL NOT AND SWAP1 DUP4 PUSH20 0xFFFFFFFFFFFFFFFFFFFFFFFFFFFFFFFFFFFFFFFF AND MUL OR SWAP1 SSTORE POP PUSH1 0x2 SLOAD PUSH1 0x6 PUSH1 0x0 DUP10 PUSH20 0xFFFFFFFFFFFFFFFFFFFFFFFFFFFFFFFFFFFFFFFF AND PUSH20 0xFFFFFFFFFFFFFFFFFFFFFFFFFFFFFFFFFFFFFFFF AND DUP2 MSTORE PUSH1 0x20 ADD SWAP1 DUP2 MSTORE PUSH1 0x20 ADD PUSH1 0x0 KECCAK256 DUP2 SWAP1 SSTORE POP DUP2 PUSH32 0xD297F12B256BB8485A6013FB5E302017018123E99A0EBB20756C09E1707B4B90 DUP8 DUP8 DUP8 DUP6 PUSH1 0x4 ADD SLOAD DUP13 DUP10 PUSH1 0x40 MLOAD PUSH2 0x2001 SWAP7 SWAP6 SWAP5 SWAP4 SWAP3 SWAP2 SWAP1 PUSH2 0x34E8 JUMP JUMPDEST PUSH1 0x40 MLOAD DUP1 SWAP2 SUB SWAP1 LOG2 PUSH32 0x78D27A3C512303F604B46BC28ACC0CA45ABE6420172A017C5A6DC585821EB639 DUP3 DUP7 PUSH1 0x40 MLOAD PUSH2 0x203A SWAP3 SWAP2 SWAP1 PUSH2 0x3565 JUMP JUMPDEST PUSH1 0x40 MLOAD DUP1 SWAP2 SUB SWAP1 LOG1 POP POP POP POP POP POP POP JUMP JUMPDEST PUSH1 0x5 PUSH1 0x20 MSTORE DUP1 PUSH1 0x0 MSTORE PUSH1 0x40 PUSH1 0x0 KECCAK256 PUSH1 0x0 SWAP2 POP SWAP1 POP SLOAD DUP2 JUMP JUMPDEST PUSH2 0x206B PUSH2 0x2435 JUMP JUMPDEST PUSH20 0xFFFFFFFFFFFFFFFFFFFFFFFFFFFFFFFFFFFFFFFF AND PUSH1 0x3 PUSH1 0x0 SWAP1 SLOAD SWAP1 PUSH2 0x100 EXP SWAP1 DIV PUSH20 0xFFFFFFFFFFFFFFFFFFFFFFFFFFFFFFFFFFFFFFFF AND PUSH20 0xFFFFFFFFFFFFFFFFFFFFFFFFFFFFFFFFFFFFFFFF AND EQ PUSH2 0x20FA JUMPI PUSH1 0x40 MLOAD PUSH32 0x8C379A000000000000000000000000000000000000000000000000000000000 DUP2 MSTORE PUSH1 0x4 ADD PUSH2 0x20F1 SWAP1 PUSH2 0x3607 JUMP JUMPDEST PUSH1 0x40 MLOAD DUP1 SWAP2 SUB SWAP1 REVERT JUMPDEST PUSH1 0x7 PUSH1 0x0 PUSH2 0x2108 SWAP2 SWAP1 PUSH2 0x24B2 JUMP JUMPDEST PUSH1 0xA PUSH1 0x0 PUSH2 0x2116 SWAP2 SWAP1 PUSH2 0x24B2 JUMP JUMPDEST PUSH1 0x9 PUSH1 0x0 PUSH2 0x2124 SWAP2 SWAP1 PUSH2 0x24B2 JUMP JUMPDEST PUSH1 0x0 PUSH1 0x1 DUP2 SWAP1 SSTORE POP PUSH1 0x0 DUP1 DUP2 SWAP1 SSTORE POP PUSH1 0x2 PUSH1 0x0 DUP2 SLOAD DUP1 SWAP3 SWAP2 SWAP1 PUSH2 0x2146 SWAP1 PUSH2 0x307A JUMP JUMPDEST SWAP2 SWAP1 POP SSTORE POP PUSH32 0x2A0E7CA52E830898FC8DDD8F2FC8695795A5FDF74064958562691B5BEA4485F5 PUSH1 0x2 SLOAD PUSH1 0x40 MLOAD PUSH2 0x217C SWAP2 SWAP1 PUSH2 0x2509 JUMP JUMPDEST PUSH1 0x40 MLOAD DUP1 SWAP2 SUB SWAP1 LOG1 JUMP JUMPDEST PUSH1 0x0 PUSH1 0x7 DUP1 SLOAD SWAP1 POP SWAP1 POP SWAP1 JUMP JUMPDEST PUSH1 0x2 SLOAD DUP2 JUMP JUMPDEST PUSH1 0x2 SLOAD PUSH1 0x5 PUSH1 0x0 PUSH2 0x21A8 PUSH2 0x2435 JUMP JUMPDEST PUSH20 0xFFFFFFFFFFFFFFFFFFFFFFFFFFFFFFFFFFFFFFFF AND PUSH20 0xFFFFFFFFFFFFFFFFFFFFFFFFFFFFFFFFFFFFFFFF AND DUP2 MSTORE PUSH1 0x20 ADD SWAP1 DUP2 MSTORE PUSH1 0x20 ADD PUSH1 0x0 KECCAK256 SLOAD EQ PUSH2 0x2223 JUMPI PUSH1 0x40 MLOAD PUSH32 0x8C379A000000000000000000000000000000000000000000000000000000000 DUP2 MSTORE PUSH1 0x4 ADD PUSH2 0x221A SWAP1 PUSH2 0x3699 JUMP JUMPDEST PUSH1 0x40 MLOAD DUP1 SWAP2 SUB SWAP1 REVERT JUMPDEST PUSH1 0x0 PUSH1 0xB PUSH1 0x0 PUSH2 0x2231 PUSH2 0x2435 JUMP JUMPDEST PUSH20 0xFFFFFFFFFFFFFFFFFFFFFFFFFFFFFFFFFFFFFFFF AND PUSH20 0xFFFFFFFFFFFFFFFFFFFFFFFFFFFFFFFFFFFFFFFF AND DUP2 MSTORE PUSH1 0x20 ADD SWAP1 DUP2 MSTORE PUSH1 0x20 ADD PUSH1 0x0 KECCAK256 SWAP1 POP DUP1 PUSH1 0x5 ADD PUSH1 0x0 SWAP1 SLOAD SWAP1 PUSH2 0x100 EXP SWAP1 DIV PUSH1 0xFF AND ISZERO PUSH2 0x22BF JUMPI PUSH1 0x40 MLOAD PUSH32 0x8C379A000000000000000000000000000000000000000000000000000000000 DUP2 MSTORE PUSH1 0x4 ADD PUSH2 0x22B6 SWAP1 PUSH2 0x3705 JUMP JUMPDEST PUSH1 0x40 MLOAD DUP1 SWAP2 SUB SWAP1 REVERT JUMPDEST PUSH1 0x0 DUP2 PUSH1 0x4 ADD SLOAD SUB PUSH2 0x2306 JUMPI PUSH1 0x40 MLOAD PUSH32 0x8C379A000000000000000000000000000000000000000000000000000000000 DUP2 MSTORE PUSH1 0x4 ADD PUSH2 0x22FD SWAP1 PUSH2 0x3771 JUMP JUMPDEST PUSH1 0x40 MLOAD DUP1 SWAP2 SUB SWAP1 REVERT JUMPDEST PUSH1 0x1 DUP2 PUSH1 0x5 ADD PUSH1 0x0 PUSH2 0x100 EXP DUP2 SLOAD DUP2 PUSH1 0xFF MUL NOT AND SWAP1 DUP4 ISZERO ISZERO MUL OR SWAP1 SSTORE POP DUP2 DUP2 PUSH1 0x6 ADD DUP2 SWAP1 SSTORE POP PUSH1 0x9 PUSH2 0x2336 PUSH2 0x2435 JUMP JUMPDEST SWAP1 DUP1 PUSH1 0x1 DUP2 SLOAD ADD DUP1 DUP3 SSTORE DUP1 SWAP2 POP POP PUSH1 0x1 SWAP1 SUB SWAP1 PUSH1 0x0 MSTORE PUSH1 0x20 PUSH1 0x0 KECCAK256 ADD PUSH1 0x0 SWAP1 SWAP2 SWAP1 SWAP2 SWAP1 SWAP2 PUSH2 0x100 EXP DUP2 SLOAD DUP2 PUSH20 0xFFFFFFFFFFFFFFFFFFFFFFFFFFFFFFFFFFFFFFFF MUL NOT AND SWAP1 DUP4 PUSH20 0xFFFFFFFFFFFFFFFFFFFFFFFFFFFFFFFFFFFFFFFF AND MUL OR SWAP1 SSTORE POP PUSH1 0x1 PUSH1 0x8 PUSH1 0x0 DUP6 PUSH20 0xFFFFFFFFFFFFFFFFFFFFFFFFFFFFFFFFFFFFFFFF AND PUSH20 0xFFFFFFFFFFFFFFFFFFFFFFFFFFFFFFFFFFFFFFFF AND DUP2 MSTORE PUSH1 0x20 ADD SWAP1 DUP2 MSTORE PUSH1 0x20 ADD PUSH1 0x0 KECCAK256 PUSH1 0x4 ADD PUSH1 0x0 DUP3 DUP3 SLOAD PUSH2 0x23E9 SWAP2 SWAP1 PUSH2 0x3791 JUMP JUMPDEST SWAP3 POP POP DUP2 SWAP1 SSTORE POP PUSH32 0xA36CC2BEBB74DB33E9F88110A07EF56E1B31B24B4C4F51B54B1664266E29F45B PUSH2 0x2419 PUSH2 0x2435 JUMP JUMPDEST DUP4 PUSH1 0x40 MLOAD PUSH2 0x2428 SWAP3 SWAP2 SWAP1 PUSH2 0x37C5 JUMP JUMPDEST PUSH1 0x40 MLOAD DUP1 SWAP2 SUB SWAP1 LOG1 POP POP POP JUMP JUMPDEST PUSH1 0x0 DUP1 PUSH1 0x0 CALLDATASIZE SWAP1 POP SWAP1 POP PUSH1 0x0 PUSH2 0x2449 PUSH2 0x24A1 JUMP JUMPDEST SWAP1 POP DUP1 DUP3 LT ISZERO DUP1 ISZERO PUSH2 0x2460 JUMPI POP PUSH2 0x245F CALLER PUSH2 0xC63 JUMP JUMPDEST JUMPDEST ISZERO PUSH2 0x2491 JUMPI PUSH1 0x0 CALLDATASIZE DUP3 DUP5 SUB SWAP1 DUP1 SWAP3 PUSH2 0x247A SWAP4 SWAP3 SWAP2 SWAP1 PUSH2 0x37F8 JUMP JUMPDEST SWAP1 PUSH2 0x2485 SWAP2 SWAP1 PUSH2 0x386A JUMP JUMPDEST PUSH1 0x60 SHR SWAP3 POP POP POP PUSH2 0x249E JUMP JUMPDEST PUSH2 0x2499 PUSH2 0x24AA JUMP JUMPDEST SWAP3 POP POP POP JUMPDEST SWAP1 JUMP JUMPDEST PUSH1 0x0 PUSH1 0x14 SWAP1 POP SWAP1 JUMP JUMPDEST PUSH1 0x0 CALLER SWAP1 POP SWAP1 JUMP JUMPDEST POP DUP1 SLOAD PUSH1 0x0 DUP3 SSTORE SWAP1 PUSH1 0x0 MSTORE PUSH1 0x20 PUSH1 0x0 KECCAK256 SWAP1 DUP2 ADD SWAP1 PUSH2 0x24D0 SWAP2 SWAP1 PUSH2 0x24D3 JUMP JUMPDEST POP JUMP JUMPDEST JUMPDEST DUP1 DUP3 GT ISZERO PUSH2 0x24EC JUMPI PUSH1 0x0 DUP2 PUSH1 0x0 SWAP1 SSTORE POP PUSH1 0x1 ADD PUSH2 0x24D4 JUMP JUMPDEST POP SWAP1 JUMP JUMPDEST PUSH1 0x0 DUP2 SWAP1 POP SWAP2 SWAP1 POP JUMP JUMPDEST PUSH2 0x2503 DUP2 PUSH2 0x24F0 JUMP JUMPDEST DUP3 MSTORE POP POP JUMP JUMPDEST PUSH1 0x0 PUSH1 0x20 DUP3 ADD SWAP1 POP PUSH2 0x251E PUSH1 0x0 DUP4 ADD DUP5 PUSH2 0x24FA JUMP JUMPDEST SWAP3 SWAP2 POP POP JUMP JUMPDEST PUSH1 0x0 PUSH1 0x40 MLOAD SWAP1 POP SWAP1 JUMP JUMPDEST PUSH1 0x0 DUP1 REVERT JUMPDEST PUSH1 0x0 DUP1 REVERT JUMPDEST PUSH1 0x0 PUSH20 0xFFFFFFFFFFFFFFFFFFFFFFFFFFFFFFFFFFFFFFFF DUP3 AND SWAP1 POP SWAP2 SWAP1 POP JUMP JUMPDEST PUSH1 0x0 PUSH2 0x2563 DUP3 PUSH2 0x2538 JUMP JUMPDEST SWAP1 POP SWAP2 SWAP1 POP JUMP JUMPDEST PUSH2 0x2573 DUP2 PUSH2 0x2558 JUMP JUMPDEST DUP2 EQ PUSH2 0x257E JUMPI PUSH1 0x0 DUP1 REVERT JUMPDEST POP JUMP JUMPDEST PUSH1 0x0 DUP2 CALLDATALOAD SWAP1 POP PUSH2 0x2590 DUP2 PUSH2 0x256A JUMP JUMPDEST SWAP3 SWAP2 POP POP JUMP JUMPDEST PUSH1 0x0 PUSH1 0x20 DUP3 DUP5 SUB SLT ISZERO PUSH2 0x25AC JUMPI PUSH2 0x25AB PUSH2 0x252E JUMP JUMPDEST JUMPDEST PUSH1 0x0 PUSH2 0x25BA DUP5 DUP3 DUP6 ADD PUSH2 0x2581 JUMP JUMPDEST SWAP2 POP POP SWAP3 SWAP2 POP POP JUMP JUMPDEST PUSH1 0x0 DUP2 MLOAD SWAP1 POP SWAP2 SWAP1 POP JUMP JUMPDEST PUSH1 0x0 DUP3 DUP3 MSTORE PUSH1 0x20 DUP3 ADD SWAP1 POP SWAP3 SWAP2 POP POP JUMP JUMPDEST PUSH1 0x0 JUMPDEST DUP4 DUP2 LT ISZERO PUSH2 0x25FD JUMPI DUP1 DUP3 ADD MLOAD DUP2 DUP5 ADD MSTORE PUSH1 0x20 DUP2 ADD SWAP1 POP PUSH2 0x25E2 JUMP JUMPDEST PUSH1 0x0 DUP5 DUP5 ADD MSTORE POP POP POP POP JUMP JUMPDEST PUSH1 0x0 PUSH1 0x1F NOT PUSH1 0x1F DUP4 ADD AND SWAP1 POP SWAP2 SWAP1 POP JUMP JUMPDEST PUSH1 0x0 PUSH2 0x2625 DUP3 PUSH2 0x25C3 JUMP JUMPDEST PUSH2 0x262F DUP2 DUP6 PUSH2 0x25CE JUMP JUMPDEST SWAP4 POP PUSH2 0x263F DUP2 DUP6 PUSH1 0x20 DUP7 ADD PUSH2 0x25DF JUMP JUMPDEST PUSH2 0x2648 DUP2 PUSH2 0x2609 JUMP JUMPDEST DUP5 ADD SWAP2 POP POP SWAP3 SWAP2 POP POP JUMP JUMPDEST PUSH2 0x265C DUP2 PUSH2 0x2558 JUMP JUMPDEST DUP3 MSTORE POP POP JUMP JUMPDEST PUSH1 0x0 PUSH1 0xE0 DUP3 ADD SWAP1 POP DUP2 DUP2 SUB PUSH1 0x0 DUP4 ADD MSTORE PUSH2 0x267C DUP2 DUP11 PUSH2 0x261A JUMP JUMPDEST SWAP1 POP DUP2 DUP2 SUB PUSH1 0x20 DUP4 ADD MSTORE PUSH2 0x2690 DUP2 DUP10 PUSH2 0x261A JUMP JUMPDEST SWAP1 POP PUSH2 0x269F PUSH1 0x40 DUP4 ADD DUP9 PUSH2 0x24FA JUMP JUMPDEST DUP2 DUP2 SUB PUSH1 0x60 DUP4 ADD MSTORE PUSH2 0x26B1 DUP2 DUP8 PUSH2 0x261A JUMP JUMPDEST SWAP1 POP PUSH2 0x26C0 PUSH1 0x80 DUP4 ADD DUP7 PUSH2 0x24FA JUMP JUMPDEST DUP2 DUP2 SUB PUSH1 0xA0 DUP4 ADD MSTORE PUSH2 0x26D2 DUP2 DUP6 PUSH2 0x261A JUMP JUMPDEST SWAP1 POP PUSH2 0x26E1 PUSH1 0xC0 DUP4 ADD DUP5 PUSH2 0x2653 JUMP JUMPDEST SWAP9 SWAP8 POP POP POP POP POP POP POP POP JUMP JUMPDEST PUSH2 0x26F6 DUP2 PUSH2 0x24F0 JUMP JUMPDEST DUP2 EQ PUSH2 0x2701 JUMPI PUSH1 0x0 DUP1 REVERT JUMPDEST POP JUMP JUMPDEST PUSH1 0x0 DUP2 CALLDATALOAD SWAP1 POP PUSH2 0x2713 DUP2 PUSH2 0x26ED JUMP JUMPDEST SWAP3 SWAP2 POP POP JUMP JUMPDEST PUSH1 0x0 PUSH1 0x20 DUP3 DUP5 SUB SLT ISZERO PUSH2 0x272F JUMPI PUSH2 0x272E PUSH2 0x252E JUMP JUMPDEST JUMPDEST PUSH1 0x0 PUSH2 0x273D DUP5 DUP3 DUP6 ADD PUSH2 0x2704 JUMP JUMPDEST SWAP2 POP POP SWAP3 SWAP2 POP POP JUMP JUMPDEST PUSH1 0x0 PUSH1 0x20 DUP3 ADD SWAP1 POP PUSH2 0x275B PUSH1 0x0 DUP4 ADD DUP5 PUSH2 0x2653 JUMP JUMPDEST SWAP3 SWAP2 POP POP JUMP JUMPDEST PUSH1 0x0 DUP2 ISZERO ISZERO SWAP1 POP SWAP2 SWAP1 POP JUMP JUMPDEST PUSH2 0x2776 DUP2 PUSH2 0x2761 JUMP JUMPDEST DUP3 MSTORE POP POP JUMP JUMPDEST PUSH1 0x0 PUSH1 0x20 DUP3 ADD SWAP1 POP PUSH2 0x2791 PUSH1 0x0 DUP4 ADD DUP5 PUSH2 0x276D JUMP JUMPDEST SWAP3 SWAP2 POP POP JUMP JUMPDEST PUSH1 0x0 DUP2 MLOAD SWAP1 POP SWAP2 SWAP1 POP JUMP JUMPDEST PUSH1 0x0 DUP3 DUP3 MSTORE PUSH1 0x20 DUP3 ADD SWAP1 POP SWAP3 SWAP2 POP POP JUMP JUMPDEST PUSH1 0x0 DUP2 SWAP1 POP PUSH1 0x20 DUP3 ADD SWAP1 POP SWAP2 SWAP1 POP JUMP JUMPDEST PUSH2 0x27CC DUP2 PUSH2 0x2558 JUMP JUMPDEST DUP3 MSTORE POP POP JUMP JUMPDEST PUSH1 0x0 PUSH2 0x27DE DUP4 DUP4 PUSH2 0x27C3 JUMP JUMPDEST PUSH1 0x20 DUP4 ADD SWAP1 POP SWAP3 SWAP2 POP POP JUMP JUMPDEST PUSH1 0x0 PUSH1 0x20 DUP3 ADD SWAP1 POP SWAP2 SWAP1 POP JUMP JUMPDEST PUSH1 0x0 PUSH2 0x2802 DUP3 PUSH2 0x2797 JUMP JUMPDEST PUSH2 0x280C DUP2 DUP6 PUSH2 0x27A2 JUMP JUMPDEST SWAP4 POP PUSH2 0x2817 DUP4 PUSH2 0x27B3 JUMP JUMPDEST DUP1 PUSH1 0x0 JUMPDEST DUP4 DUP2 LT ISZERO PUSH2 0x2848 JUMPI DUP2 MLOAD PUSH2 0x282F DUP9 DUP3 PUSH2 0x27D2 JUMP JUMPDEST SWAP8 POP PUSH2 0x283A DUP4 PUSH2 0x27EA JUMP JUMPDEST SWAP3 POP POP PUSH1 0x1 DUP2 ADD SWAP1 POP PUSH2 0x281B JUMP JUMPDEST POP DUP6 SWAP4 POP POP POP POP SWAP3 SWAP2 POP POP JUMP JUMPDEST PUSH1 0x0 PUSH1 0x20 DUP3 ADD SWAP1 POP DUP2 DUP2 SUB PUSH1 0x0 DUP4 ADD MSTORE PUSH2 0x286F DUP2 DUP5 PUSH2 0x27F7 JUMP JUMPDEST SWAP1 POP SWAP3 SWAP2 POP POP JUMP JUMPDEST PUSH1 0x0 DUP1 REVERT JUMPDEST PUSH1 0x0 DUP1 REVERT JUMPDEST PUSH32 0x4E487B7100000000000000000000000000000000000000000000000000000000 PUSH1 0x0 MSTORE PUSH1 0x41 PUSH1 0x4 MSTORE PUSH1 0x24 PUSH1 0x0 REVERT JUMPDEST PUSH2 0x28B9 DUP3 PUSH2 0x2609 JUMP JUMPDEST DUP2 ADD DUP2 DUP2 LT PUSH8 0xFFFFFFFFFFFFFFFF DUP3 GT OR ISZERO PUSH2 0x28D8 JUMPI PUSH2 0x28D7 PUSH2 0x2881 JUMP JUMPDEST JUMPDEST DUP1 PUSH1 0x40 MSTORE POP POP POP JUMP JUMPDEST PUSH1 0x0 PUSH2 0x28EB PUSH2 0x2524 JUMP JUMPDEST SWAP1 POP PUSH2 0x28F7 DUP3 DUP3 PUSH2 0x28B0 JUMP JUMPDEST SWAP2 SWAP1 POP JUMP JUMPDEST PUSH1 0x0 PUSH8 0xFFFFFFFFFFFFFFFF DUP3 GT ISZERO PUSH2 0x2917 JUMPI PUSH2 0x2916 PUSH2 0x2881 JUMP JUMPDEST JUMPDEST PUSH2 0x2920 DUP3 PUSH2 0x2609 JUMP JUMPDEST SWAP1 POP PUSH1 0x20 DUP2 ADD SWAP1 POP SWAP2 SWAP1 POP JUMP JUMPDEST DUP3 DUP2 DUP4 CALLDATACOPY PUSH1 0x0 DUP4 DUP4 ADD MSTORE POP POP POP JUMP JUMPDEST PUSH1 0x0 PUSH2 0x294F PUSH2 0x294A DUP5 PUSH2 0x28FC JUMP JUMPDEST PUSH2 0x28E1 JUMP JUMPDEST SWAP1 POP DUP3 DUP2 MSTORE PUSH1 0x20 DUP2 ADD DUP5 DUP5 DUP5 ADD GT ISZERO PUSH2 0x296B JUMPI PUSH2 0x296A PUSH2 0x287C JUMP JUMPDEST JUMPDEST PUSH2 0x2976 DUP5 DUP3 DUP6 PUSH2 0x292D JUMP JUMPDEST POP SWAP4 SWAP3 POP POP POP JUMP JUMPDEST PUSH1 0x0 DUP3 PUSH1 0x1F DUP4 ADD SLT PUSH2 0x2993 JUMPI PUSH2 0x2992 PUSH2 0x2877 JUMP JUMPDEST JUMPDEST DUP2 CALLDATALOAD PUSH2 0x29A3 DUP5 DUP3 PUSH1 0x20 DUP7 ADD PUSH2 0x293C JUMP JUMPDEST SWAP2 POP POP SWAP3 SWAP2 POP POP JUMP JUMPDEST PUSH1 0x0 DUP1 PUSH1 0x0 DUP1 PUSH1 0x80 DUP6 DUP8 SUB SLT ISZERO PUSH2 0x29C6 JUMPI PUSH2 0x29C5 PUSH2 0x252E JUMP JUMPDEST JUMPDEST PUSH1 0x0 PUSH2 0x29D4 DUP8 DUP3 DUP9 ADD PUSH2 0x2581 JUMP JUMPDEST SWAP5 POP POP PUSH1 0x20 DUP6 ADD CALLDATALOAD PUSH8 0xFFFFFFFFFFFFFFFF DUP2 GT ISZERO PUSH2 0x29F5 JUMPI PUSH2 0x29F4 PUSH2 0x2533 JUMP JUMPDEST JUMPDEST PUSH2 0x2A01 DUP8 DUP3 DUP9 ADD PUSH2 0x297E JUMP JUMPDEST SWAP4 POP POP PUSH1 0x40 DUP6 ADD CALLDATALOAD PUSH8 0xFFFFFFFFFFFFFFFF DUP2 GT ISZERO PUSH2 0x2A22 JUMPI PUSH2 0x2A21 PUSH2 0x2533 JUMP JUMPDEST JUMPDEST PUSH2 0x2A2E DUP8 DUP3 DUP9 ADD PUSH2 0x297E JUMP JUMPDEST SWAP3 POP POP PUSH1 0x60 DUP6 ADD CALLDATALOAD PUSH8 0xFFFFFFFFFFFFFFFF DUP2 GT ISZERO PUSH2 0x2A4F JUMPI PUSH2 0x2A4E PUSH2 0x2533 JUMP JUMPDEST JUMPDEST PUSH2 0x2A5B DUP8 DUP3 DUP9 ADD PUSH2 0x297E JUMP JUMPDEST SWAP2 POP POP SWAP3 SWAP6 SWAP2 SWAP5 POP SWAP3 POP JUMP JUMPDEST PUSH1 0x0 PUSH1 0xE0 DUP3 ADD SWAP1 POP PUSH2 0x2A7C PUSH1 0x0 DUP4 ADD DUP11 PUSH2 0x24FA JUMP JUMPDEST DUP2 DUP2 SUB PUSH1 0x20 DUP4 ADD MSTORE PUSH2 0x2A8E DUP2 DUP10 PUSH2 0x261A JUMP JUMPDEST SWAP1 POP DUP2 DUP2 SUB PUSH1 0x40 DUP4 ADD MSTORE PUSH2 0x2AA2 DUP2 DUP9 PUSH2 0x261A JUMP JUMPDEST SWAP1 POP DUP2 DUP2 SUB PUSH1 0x60 DUP4 ADD MSTORE PUSH2 0x2AB6 DUP2 DUP8 PUSH2 0x261A JUMP JUMPDEST SWAP1 POP PUSH2 0x2AC5 PUSH1 0x80 DUP4 ADD DUP7 PUSH2 0x24FA JUMP JUMPDEST PUSH2 0x2AD2 PUSH1 0xA0 DUP4 ADD DUP6 PUSH2 0x2653 JUMP JUMPDEST DUP2 DUP2 SUB PUSH1 0xC0 DUP4 ADD MSTORE PUSH2 0x2AE4 DUP2 DUP5 PUSH2 0x261A JUMP JUMPDEST SWAP1 POP SWAP9 SWAP8 POP POP POP POP POP POP POP POP JUMP JUMPDEST PUSH1 0x0 PUSH1 0xE0 DUP3 ADD SWAP1 POP PUSH2 0x2B07 PUSH1 0x0 DUP4 ADD DUP11 PUSH2 0x24FA JUMP JUMPDEST DUP2 DUP2 SUB PUSH1 0x20 DUP4 ADD MSTORE PUSH2 0x2B19 DUP2 DUP10 PUSH2 0x261A JUMP JUMPDEST SWAP1 POP DUP2 DUP2 SUB PUSH1 0x40 DUP4 ADD MSTORE PUSH2 0x2B2D DUP2 DUP9 PUSH2 0x261A JUMP JUMPDEST SWAP1 POP PUSH2 0x2B3C PUSH1 0x60 DUP4 ADD DUP8 PUSH2 0x2653 JUMP JUMPDEST DUP2 DUP2 SUB PUSH1 0x80 DUP4 ADD MSTORE PUSH2 0x2B4E DUP2 DUP7 PUSH2 0x261A JUMP JUMPDEST SWAP1 POP PUSH2 0x2B5D PUSH1 0xA0 DUP4 ADD DUP6 PUSH2 0x276D JUMP JUMPDEST PUSH2 0x2B6A PUSH1 0xC0 DUP4 ADD DUP5 PUSH2 0x24FA JUMP JUMPDEST SWAP9 SWAP8 POP POP POP POP POP POP POP POP JUMP JUMPDEST PUSH1 0x0 PUSH2 0x100 DUP3 ADD SWAP1 POP PUSH2 0x2B8C PUSH1 0x0 DUP4 ADD DUP12 PUSH2 0x24FA JUMP JUMPDEST DUP2 DUP2 SUB PUSH1 0x20 DUP4 ADD MSTORE PUSH2 0x2B9E DUP2 DUP11 PUSH2 0x261A JUMP JUMPDEST SWAP1 POP DUP2 DUP2 SUB PUSH1 0x40 DUP4 ADD MSTORE PUSH2 0x2BB2 DUP2 DUP10 PUSH2 0x261A JUMP JUMPDEST SWAP1 POP PUSH2 0x2BC1 PUSH1 0x60 DUP4 ADD DUP9 PUSH2 0x2653 JUMP JUMPDEST PUSH2 0x2BCE PUSH1 0x80 DUP4 ADD DUP8 PUSH2 0x24FA JUMP JUMPDEST PUSH2 0x2BDB PUSH1 0xA0 DUP4 ADD DUP7 PUSH2 0x276D JUMP JUMPDEST PUSH2 0x2BE8 PUSH1 0xC0 DUP4 ADD DUP6 PUSH2 0x24FA JUMP JUMPDEST DUP2 DUP2 SUB PUSH1 0xE0 DUP4 ADD MSTORE PUSH2 0x2BFA DUP2 DUP5 PUSH2 0x261A JUMP JUMPDEST SWAP1 POP SWAP10 SWAP9 POP POP POP POP POP POP POP POP POP JUMP JUMPDEST PUSH1 0x0 DUP1 PUSH1 0x0 DUP1 PUSH1 0x0 PUSH1 0xA0 DUP7 DUP9 SUB SLT ISZERO PUSH2 0x2C25 JUMPI PUSH2 0x2C24 PUSH2 0x252E JUMP JUMPDEST JUMPDEST PUSH1 0x0 PUSH2 0x2C33 DUP9 DUP3 DUP10 ADD PUSH2 0x2581 JUMP JUMPDEST SWAP6 POP POP PUSH1 0x20 DUP7 ADD CALLDATALOAD PUSH8 0xFFFFFFFFFFFFFFFF DUP2 GT ISZERO PUSH2 0x2C54 JUMPI PUSH2 0x2C53 PUSH2 0x2533 JUMP JUMPDEST JUMPDEST PUSH2 0x2C60 DUP9 DUP3 DUP10 ADD PUSH2 0x297E JUMP JUMPDEST SWAP5 POP POP PUSH1 0x40 DUP7 ADD CALLDATALOAD PUSH8 0xFFFFFFFFFFFFFFFF DUP2 GT ISZERO PUSH2 0x2C81 JUMPI PUSH2 0x2C80 PUSH2 0x2533 JUMP JUMPDEST JUMPDEST PUSH2 0x2C8D DUP9 DUP3 DUP10 ADD PUSH2 0x297E JUMP JUMPDEST SWAP4 POP POP PUSH1 0x60 DUP7 ADD CALLDATALOAD PUSH8 0xFFFFFFFFFFFFFFFF DUP2 GT ISZERO PUSH2 0x2CAE JUMPI PUSH2 0x2CAD PUSH2 0x2533 JUMP JUMPDEST JUMPDEST PUSH2 0x2CBA DUP9 DUP3 DUP10 ADD PUSH2 0x297E JUMP JUMPDEST SWAP3 POP POP PUSH1 0x80 DUP7 ADD CALLDATALOAD PUSH8 0xFFFFFFFFFFFFFFFF DUP2 GT ISZERO PUSH2 0x2CDB JUMPI PUSH2 0x2CDA PUSH2 0x2533 JUMP JUMPDEST JUMPDEST PUSH2 0x2CE7 DUP9 DUP3 DUP10 ADD PUSH2 0x297E JUMP JUMPDEST SWAP2 POP POP SWAP3 SWAP6 POP SWAP3 SWAP6 SWAP1 SWAP4 POP JUMP JUMPDEST PUSH1 0x0 DUP1 PUSH1 0x40 DUP4 DUP6 SUB SLT ISZERO PUSH2 0x2D0B JUMPI PUSH2 0x2D0A PUSH2 0x252E JUMP JUMPDEST JUMPDEST PUSH1 0x0 PUSH2 0x2D19 DUP6 DUP3 DUP7 ADD PUSH2 0x2581 JUMP JUMPDEST SWAP3 POP POP PUSH1 0x20 PUSH2 0x2D2A DUP6 DUP3 DUP7 ADD PUSH2 0x2704 JUMP JUMPDEST SWAP2 POP POP SWAP3 POP SWAP3 SWAP1 POP JUMP JUMPDEST PUSH32 0x4E487B7100000000000000000000000000000000000000000000000000000000 PUSH1 0x0 MSTORE PUSH1 0x22 PUSH1 0x4 MSTORE PUSH1 0x24 PUSH1 0x0 REVERT JUMPDEST PUSH1 0x0 PUSH1 0x2 DUP3 DIV SWAP1 POP PUSH1 0x1 DUP3 AND DUP1 PUSH2 0x2D7B JUMPI PUSH1 0x7F DUP3 AND SWAP2 POP JUMPDEST PUSH1 0x20 DUP3 LT DUP2 SUB PUSH2 0x2D8E JUMPI PUSH2 0x2D8D PUSH2 0x2D34 JUMP JUMPDEST JUMPDEST POP SWAP2 SWAP1 POP JUMP JUMPDEST PUSH32 0x4F6E6C792061646D696E2063616E2063616C6C20746869732066756E6374696F PUSH1 0x0 DUP3 ADD MSTORE PUSH32 0x6E00000000000000000000000000000000000000000000000000000000000000 PUSH1 0x20 DUP3 ADD MSTORE POP JUMP JUMPDEST PUSH1 0x0 PUSH2 0x2DF0 PUSH1 0x21 DUP4 PUSH2 0x25CE JUMP JUMPDEST SWAP2 POP PUSH2 0x2DFB DUP3 PUSH2 0x2D94 JUMP JUMPDEST PUSH1 0x40 DUP3 ADD SWAP1 POP SWAP2 SWAP1 POP JUMP JUMPDEST PUSH1 0x0 PUSH1 0x20 DUP3 ADD SWAP1 POP DUP2 DUP2 SUB PUSH1 0x0 DUP4 ADD MSTORE PUSH2 0x2E1F DUP2 PUSH2 0x2DE3 JUMP JUMPDEST SWAP1 POP SWAP2 SWAP1 POP JUMP JUMPDEST PUSH32 0x496E76616C6964206E65772072656C6179657220616464726573730000000000 PUSH1 0x0 DUP3 ADD MSTORE POP JUMP JUMPDEST PUSH1 0x0 PUSH2 0x2E5C PUSH1 0x1B DUP4 PUSH2 0x25CE JUMP JUMPDEST SWAP2 POP PUSH2 0x2E67 DUP3 PUSH2 0x2E26 JUMP JUMPDEST PUSH1 0x20 DUP3 ADD SWAP1 POP SWAP2 SWAP1 POP JUMP JUMPDEST PUSH1 0x0 PUSH1 0x20 DUP3 ADD SWAP1 POP DUP2 DUP2 SUB PUSH1 0x0 DUP4 ADD MSTORE PUSH2 0x2E8B DUP2 PUSH2 0x2E4F JUMP JUMPDEST SWAP1 POP SWAP2 SWAP1 POP JUMP JUMPDEST PUSH1 0x0 PUSH1 0x40 DUP3 ADD SWAP1 POP PUSH2 0x2EA7 PUSH1 0x0 DUP4 ADD DUP6 PUSH2 0x2653 JUMP JUMPDEST PUSH2 0x2EB4 PUSH1 0x20 DUP4 ADD DUP5 PUSH2 0x2653 JUMP JUMPDEST SWAP4 SWAP3 POP POP POP JUMP JUMPDEST PUSH32 0x496E76616C6964206E65772061646D696E206164647265737300000000000000 PUSH1 0x0 DUP3 ADD MSTORE POP JUMP JUMPDEST PUSH1 0x0 PUSH2 0x2EF1 PUSH1 0x19 DUP4 PUSH2 0x25CE JUMP JUMPDEST SWAP2 POP PUSH2 0x2EFC DUP3 PUSH2 0x2EBB JUMP JUMPDEST PUSH1 0x20 DUP3 ADD SWAP1 POP SWAP2 SWAP1 POP JUMP JUMPDEST PUSH1 0x0 PUSH1 0x20 DUP3 ADD SWAP1 POP DUP2 DUP2 SUB PUSH1 0x0 DUP4 ADD MSTORE PUSH2 0x2F20 DUP2 PUSH2 0x2EE4 JUMP JUMPDEST SWAP1 POP SWAP2 SWAP1 POP JUMP JUMPDEST PUSH32 0x4F6E6C79206F7267616E697A65722063616E20637265617465206120766F7465 PUSH1 0x0 DUP3 ADD MSTORE PUSH32 0x7200000000000000000000000000000000000000000000000000000000000000 PUSH1 0x20 DUP3 ADD MSTORE POP JUMP JUMPDEST PUSH1 0x0 PUSH2 0x2F83 PUSH1 0x21 DUP4 PUSH2 0x25CE JUMP JUMPDEST SWAP2 POP PUSH2 0x2F8E DUP3 PUSH2 0x2F27 JUMP JUMPDEST PUSH1 0x40 DUP3 ADD SWAP1 POP SWAP2 SWAP1 POP JUMP JUMPDEST PUSH1 0x0 PUSH1 0x20 DUP3 ADD SWAP1 POP DUP2 DUP2 SUB PUSH1 0x0 DUP4 ADD MSTORE PUSH2 0x2FB2 DUP2 PUSH2 0x2F76 JUMP JUMPDEST SWAP1 POP SWAP2 SWAP1 POP JUMP JUMPDEST PUSH32 0x566F74657220616C7265616479207265676973746572656420696E2063757272 PUSH1 0x0 DUP3 ADD MSTORE PUSH32 0x656E7420656C656374696F6E0000000000000000000000000000000000000000 PUSH1 0x20 DUP3 ADD MSTORE POP JUMP JUMPDEST PUSH1 0x0 PUSH2 0x3015 PUSH1 0x2C DUP4 PUSH2 0x25CE JUMP JUMPDEST SWAP2 POP PUSH2 0x3020 DUP3 PUSH2 0x2FB9 JUMP JUMPDEST PUSH1 0x40 DUP3 ADD SWAP1 POP SWAP2 SWAP1 POP JUMP JUMPDEST PUSH1 0x0 PUSH1 0x20 DUP3 ADD SWAP1 POP DUP2 DUP2 SUB PUSH1 0x0 DUP4 ADD MSTORE PUSH2 0x3044 DUP2 PUSH2 0x3008 JUMP JUMPDEST SWAP1 POP SWAP2 SWAP1 POP JUMP JUMPDEST PUSH32 0x4E487B7100000000000000000000000000000000000000000000000000000000 PUSH1 0x0 MSTORE PUSH1 0x11 PUSH1 0x4 MSTORE PUSH1 0x24 PUSH1 0x0 REVERT JUMPDEST PUSH1 0x0 PUSH2 0x3085 DUP3 PUSH2 0x24F0 JUMP JUMPDEST SWAP2 POP PUSH32 0xFFFFFFFFFFFFFFFFFFFFFFFFFFFFFFFFFFFFFFFFFFFFFFFFFFFFFFFFFFFFFFFF DUP3 SUB PUSH2 0x30B7 JUMPI PUSH2 0x30B6 PUSH2 0x304B JUMP JUMPDEST JUMPDEST PUSH1 0x1 DUP3 ADD SWAP1 POP SWAP2 SWAP1 POP JUMP JUMPDEST PUSH1 0x0 DUP2 SWAP1 POP DUP2 PUSH1 0x0 MSTORE PUSH1 0x20 PUSH1 0x0 KECCAK256 SWAP1 POP SWAP2 SWAP1 POP JUMP JUMPDEST PUSH1 0x0 PUSH1 0x20 PUSH1 0x1F DUP4 ADD DIV SWAP1 POP SWAP2 SWAP1 POP JUMP JUMPDEST PUSH1 0x0 DUP3 DUP3 SHL SWAP1 POP SWAP3 SWAP2 POP POP JUMP JUMPDEST PUSH1 0x0 PUSH1 0x8 DUP4 MUL PUSH2 0x3124 PUSH32 0xFFFFFFFFFFFFFFFFFFFFFFFFFFFFFFFFFFFFFFFFFFFFFFFFFFFFFFFFFFFFFFFF DUP3 PUSH2 0x30E7 JUMP JUMPDEST PUSH2 0x312E DUP7 DUP4 PUSH2 0x30E7 JUMP JUMPDEST SWAP6 POP DUP1 NOT DUP5 AND SWAP4 POP DUP1 DUP7 AND DUP5 OR SWAP3 POP POP POP SWAP4 SWAP3 POP POP POP JUMP JUMPDEST PUSH1 0x0 DUP2 SWAP1 POP SWAP2 SWAP1 POP JUMP JUMPDEST PUSH1 0x0 PUSH2 0x316B PUSH2 0x3166 PUSH2 0x3161 DUP5 PUSH2 0x24F0 JUMP JUMPDEST PUSH2 0x3146 JUMP JUMPDEST PUSH2 0x24F0 JUMP JUMPDEST SWAP1 POP SWAP2 SWAP1 POP JUMP JUMPDEST PUSH1 0x0 DUP2 SWAP1 POP SWAP2 SWAP1 POP JUMP JUMPDEST PUSH2 0x3185 DUP4 PUSH2 0x3150 JUMP JUMPDEST PUSH2 0x3199 PUSH2 0x3191 DUP3 PUSH2 0x3172 JUMP JUMPDEST DUP5 DUP5 SLOAD PUSH2 0x30F4 JUMP JUMPDEST DUP3 SSTORE POP POP POP POP JUMP JUMPDEST PUSH1 0x0 SWAP1 JUMP JUMPDEST PUSH2 0x31AE PUSH2 0x31A1 JUMP JUMPDEST PUSH2 0x31B9 DUP2 DUP5 DUP5 PUSH2 0x317C JUMP JUMPDEST POP POP POP JUMP JUMPDEST JUMPDEST DUP2 DUP2 LT ISZERO PUSH2 0x31DD JUMPI PUSH2 0x31D2 PUSH1 0x0 DUP3 PUSH2 0x31A6 JUMP JUMPDEST PUSH1 0x1 DUP2 ADD SWAP1 POP PUSH2 0x31BF JUMP JUMPDEST POP POP JUMP JUMPDEST PUSH1 0x1F DUP3 GT ISZERO PUSH2 0x3222 JUMPI PUSH2 0x31F3 DUP2 PUSH2 0x30C2 JUMP JUMPDEST PUSH2 0x31FC DUP5 PUSH2 0x30D7 JUMP JUMPDEST DUP2 ADD PUSH1 0x20 DUP6 LT ISZERO PUSH2 0x320B JUMPI DUP2 SWAP1 POP JUMPDEST PUSH2 0x321F PUSH2 0x3217 DUP6 PUSH2 0x30D7 JUMP JUMPDEST DUP4 ADD DUP3 PUSH2 0x31BE JUMP JUMPDEST POP POP JUMPDEST POP POP POP JUMP JUMPDEST PUSH1 0x0 DUP3 DUP3 SHR SWAP1 POP SWAP3 SWAP2 POP POP JUMP JUMPDEST PUSH1 0x0 PUSH2 0x3245 PUSH1 0x0 NOT DUP5 PUSH1 0x8 MUL PUSH2 0x3227 JUMP JUMPDEST NOT DUP1 DUP4 AND SWAP2 POP POP SWAP3 SWAP2 POP POP JUMP JUMPDEST PUSH1 0x0 PUSH2 0x325E DUP4 DUP4 PUSH2 0x3234 JUMP JUMPDEST SWAP2 POP DUP3 PUSH1 0x2 MUL DUP3 OR SWAP1 POP SWAP3 SWAP2 POP POP JUMP JUMPDEST PUSH2 0x3277 DUP3 PUSH2 0x25C3 JUMP JUMPDEST PUSH8 0xFFFFFFFFFFFFFFFF DUP2 GT ISZERO PUSH2 0x3290 JUMPI PUSH2 0x328F PUSH2 0x2881 JUMP JUMPDEST JUMPDEST PUSH2 0x329A DUP3 SLOAD PUSH2 0x2D63 JUMP JUMPDEST PUSH2 0x32A5 DUP3 DUP3 DUP6 PUSH2 0x31E1 JUMP JUMPDEST PUSH1 0x0 PUSH1 0x20 SWAP1 POP PUSH1 0x1F DUP4 GT PUSH1 0x1 DUP2 EQ PUSH2 0x32D8 JUMPI PUSH1 0x0 DUP5 ISZERO PUSH2 0x32C6 JUMPI DUP3 DUP8 ADD MLOAD SWAP1 POP JUMPDEST PUSH2 0x32D0 DUP6 DUP3 PUSH2 0x3252 JUMP JUMPDEST DUP7 SSTORE POP PUSH2 0x3338 JUMP JUMPDEST PUSH1 0x1F NOT DUP5 AND PUSH2 0x32E6 DUP7 PUSH2 0x30C2 JUMP JUMPDEST PUSH1 0x0 JUMPDEST DUP3 DUP2 LT ISZERO PUSH2 0x330E JUMPI DUP5 DUP10 ADD MLOAD DUP3 SSTORE PUSH1 0x1 DUP3 ADD SWAP2 POP PUSH1 0x20 DUP6 ADD SWAP5 POP PUSH1 0x20 DUP2 ADD SWAP1 POP PUSH2 0x32E9 JUMP JUMPDEST DUP7 DUP4 LT ISZERO PUSH2 0x332B JUMPI DUP5 DUP10 ADD MLOAD PUSH2 0x3327 PUSH1 0x1F DUP10 AND DUP3 PUSH2 0x3234 JUMP JUMPDEST DUP4 SSTORE POP JUMPDEST PUSH1 0x1 PUSH1 0x2 DUP9 MUL ADD DUP9 SSTORE POP POP POP JUMPDEST POP POP POP POP POP POP JUMP JUMPDEST PUSH1 0x0 PUSH1 0xE0 DUP3 ADD SWAP1 POP DUP2 DUP2 SUB PUSH1 0x0 DUP4 ADD MSTORE PUSH2 0x335A DUP2 DUP11 PUSH2 0x261A JUMP JUMPDEST SWAP1 POP DUP2 DUP2 SUB PUSH1 0x20 DUP4 ADD MSTORE PUSH2 0x336E DUP2 DUP10 PUSH2 0x261A JUMP JUMPDEST SWAP1 POP PUSH2 0x337D PUSH1 0x40 DUP4 ADD DUP9 PUSH2 0x2653 JUMP JUMPDEST PUSH2 0x338A PUSH1 0x60 DUP4 ADD DUP8 PUSH2 0x24FA JUMP JUMPDEST PUSH2 0x3397 PUSH1 0x80 DUP4 ADD DUP7 PUSH2 0x276D JUMP JUMPDEST PUSH2 0x33A4 PUSH1 0xA0 DUP4 ADD DUP6 PUSH2 0x24FA JUMP JUMPDEST DUP2 DUP2 SUB PUSH1 0xC0 DUP4 ADD MSTORE PUSH2 0x33B6 DUP2 DUP5 PUSH2 0x261A JUMP JUMPDEST SWAP1 POP SWAP9 SWAP8 POP POP POP POP POP POP POP POP JUMP JUMPDEST PUSH32 0x4F6E6C79206F7267616E697A65722063616E2063726561746520612063616E64 PUSH1 0x0 DUP3 ADD MSTORE PUSH32 0x6964617465000000000000000000000000000000000000000000000000000000 PUSH1 0x20 DUP3 ADD MSTORE POP JUMP JUMPDEST PUSH1 0x0 PUSH2 0x3420 PUSH1 0x25 DUP4 PUSH2 0x25CE JUMP JUMPDEST SWAP2 POP PUSH2 0x342B DUP3 PUSH2 0x33C4 JUMP JUMPDEST PUSH1 0x40 DUP3 ADD SWAP1 POP SWAP2 SWAP1 POP JUMP JUMPDEST PUSH1 0x0 PUSH1 0x20 DUP3 ADD SWAP1 POP DUP2 DUP2 SUB PUSH1 0x0 DUP4 ADD MSTORE PUSH2 0x344F DUP2 PUSH2 0x3413 JUMP JUMPDEST SWAP1 POP SWAP2 SWAP1 POP JUMP JUMPDEST PUSH32 0x43616E64696461746520616C7265616479207265676973746572656420696E20 PUSH1 0x0 DUP3 ADD MSTORE PUSH32 0x63757272656E7420656C656374696F6E00000000000000000000000000000000 PUSH1 0x20 DUP3 ADD MSTORE POP JUMP JUMPDEST PUSH1 0x0 PUSH2 0x34B2 PUSH1 0x30 DUP4 PUSH2 0x25CE JUMP JUMPDEST SWAP2 POP PUSH2 0x34BD DUP3 PUSH2 0x3456 JUMP JUMPDEST PUSH1 0x40 DUP3 ADD SWAP1 POP SWAP2 SWAP1 POP JUMP JUMPDEST PUSH1 0x0 PUSH1 0x20 DUP3 ADD SWAP1 POP DUP2 DUP2 SUB PUSH1 0x0 DUP4 ADD MSTORE PUSH2 0x34E1 DUP2 PUSH2 0x34A5 JUMP JUMPDEST SWAP1 POP SWAP2 SWAP1 POP JUMP JUMPDEST PUSH1 0x0 PUSH1 0xC0 DUP3 ADD SWAP1 POP DUP2 DUP2 SUB PUSH1 0x0 DUP4 ADD MSTORE PUSH2 0x3502 DUP2 DUP10 PUSH2 0x261A JUMP JUMPDEST SWAP1 POP DUP2 DUP2 SUB PUSH1 0x20 DUP4 ADD MSTORE PUSH2 0x3516 DUP2 DUP9 PUSH2 0x261A JUMP JUMPDEST SWAP1 POP DUP2 DUP2 SUB PUSH1 0x40 DUP4 ADD MSTORE PUSH2 0x352A DUP2 DUP8 PUSH2 0x261A JUMP JUMPDEST SWAP1 POP PUSH2 0x3539 PUSH1 0x60 DUP4 ADD DUP7 PUSH2 0x24FA JUMP JUMPDEST PUSH2 0x3546 PUSH1 0x80 DUP4 ADD DUP6 PUSH2 0x2653 JUMP JUMPDEST DUP2 DUP2 SUB PUSH1 0xA0 DUP4 ADD MSTORE PUSH2 0x3558 DUP2 DUP5 PUSH2 0x261A JUMP JUMPDEST SWAP1 POP SWAP8 SWAP7 POP POP POP POP POP POP POP JUMP JUMPDEST PUSH1 0x0 PUSH1 0x40 DUP3 ADD SWAP1 POP PUSH2 0x357A PUSH1 0x0 DUP4 ADD DUP6 PUSH2 0x24FA JUMP JUMPDEST DUP2 DUP2 SUB PUSH1 0x20 DUP4 ADD MSTORE PUSH2 0x358C DUP2 DUP5 PUSH2 0x261A JUMP JUMPDEST SWAP1 POP SWAP4 SWAP3 POP POP POP JUMP JUMPDEST PUSH32 0x4F6E6C79206F7267616E697A65722063616E2072657365742074686520656C65 PUSH1 0x0 DUP3 ADD MSTORE PUSH32 0x6374696F6E000000000000000000000000000000000000000000000000000000 PUSH1 0x20 DUP3 ADD MSTORE POP JUMP JUMPDEST PUSH1 0x0 PUSH2 0x35F1 PUSH1 0x25 DUP4 PUSH2 0x25CE JUMP JUMPDEST SWAP2 POP PUSH2 0x35FC DUP3 PUSH2 0x3595 JUMP JUMPDEST PUSH1 0x40 DUP3 ADD SWAP1 POP SWAP2 SWAP1 POP JUMP JUMPDEST PUSH1 0x0 PUSH1 0x20 DUP3 ADD SWAP1 POP DUP2 DUP2 SUB PUSH1 0x0 DUP4 ADD MSTORE PUSH2 0x3620 DUP2 PUSH2 0x35E4 JUMP JUMPDEST SWAP1 POP SWAP2 SWAP1 POP JUMP JUMPDEST PUSH32 0x596F7520617265206E6F74207265676973746572656420666F72207468652063 PUSH1 0x0 DUP3 ADD MSTORE PUSH32 0x757272656E7420656C656374696F6E0000000000000000000000000000000000 PUSH1 0x20 DUP3 ADD MSTORE POP JUMP JUMPDEST PUSH1 0x0 PUSH2 0x3683 PUSH1 0x2F DUP4 PUSH2 0x25CE JUMP JUMPDEST SWAP2 POP PUSH2 0x368E DUP3 PUSH2 0x3627 JUMP JUMPDEST PUSH1 0x40 DUP3 ADD SWAP1 POP SWAP2 SWAP1 POP JUMP JUMPDEST PUSH1 0x0 PUSH1 0x20 DUP3 ADD SWAP1 POP DUP2 DUP2 SUB PUSH1 0x0 DUP4 ADD MSTORE PUSH2 0x36B2 DUP2 PUSH2 0x3676 JUMP JUMPDEST SWAP1 POP SWAP2 SWAP1 POP JUMP JUMPDEST PUSH32 0x596F75206861766520616C726561647920766F74656400000000000000000000 PUSH1 0x0 DUP3 ADD MSTORE POP JUMP JUMPDEST PUSH1 0x0 PUSH2 0x36EF PUSH1 0x16 DUP4 PUSH2 0x25CE JUMP JUMPDEST SWAP2 POP PUSH2 0x36FA DUP3 PUSH2 0x36B9 JUMP JUMPDEST PUSH1 0x20 DUP3 ADD SWAP1 POP SWAP2 SWAP1 POP JUMP JUMPDEST PUSH1 0x0 PUSH1 0x20 DUP3 ADD SWAP1 POP DUP2 DUP2 SUB PUSH1 0x0 DUP4 ADD MSTORE PUSH2 0x371E DUP2 PUSH2 0x36E2 JUMP JUMPDEST SWAP1 POP SWAP2 SWAP1 POP JUMP JUMPDEST PUSH32 0x596F752068617665206E6F20726967687420746F20766F746500000000000000 PUSH1 0x0 DUP3 ADD MSTORE POP JUMP JUMPDEST PUSH1 0x0 PUSH2 0x375B PUSH1 0x19 DUP4 PUSH2 0x25CE JUMP JUMPDEST SWAP2 POP PUSH2 0x3766 DUP3 PUSH2 0x3725 JUMP JUMPDEST PUSH1 0x20 DUP3 ADD SWAP1 POP SWAP2 SWAP1 POP JUMP JUMPDEST PUSH1 0x0 PUSH1 0x20 DUP3 ADD SWAP1 POP DUP2 DUP2 SUB PUSH1 0x0 DUP4 ADD MSTORE PUSH2 0x378A DUP2 PUSH2 0x374E JUMP JUMPDEST SWAP1 POP SWAP2 SWAP1 POP JUMP JUMPDEST PUSH1 0x0 PUSH2 0x379C DUP3 PUSH2 0x24F0 JUMP JUMPDEST SWAP2 POP PUSH2 0x37A7 DUP4 PUSH2 0x24F0 JUMP JUMPDEST SWAP3 POP DUP3 DUP3 ADD SWAP1 POP DUP1 DUP3 GT ISZERO PUSH2 0x37BF JUMPI PUSH2 0x37BE PUSH2 0x304B JUMP JUMPDEST JUMPDEST SWAP3 SWAP2 POP POP JUMP JUMPDEST PUSH1 0x0 PUSH1 0x40 DUP3 ADD SWAP1 POP PUSH2 0x37DA PUSH1 0x0 DUP4 ADD DUP6 PUSH2 0x2653 JUMP JUMPDEST PUSH2 0x37E7 PUSH1 0x20 DUP4 ADD DUP5 PUSH2 0x24FA JUMP JUMPDEST SWAP4 SWAP3 POP POP POP JUMP JUMPDEST PUSH1 0x0 DUP1 REVERT JUMPDEST PUSH1 0x0 DUP1 REVERT JUMPDEST PUSH1 0x0 DUP1 DUP6 DUP6 GT ISZERO PUSH2 0x380C JUMPI PUSH2 0x380B PUSH2 0x37EE JUMP JUMPDEST JUMPDEST DUP4 DUP7 GT ISZERO PUSH2 0x381D JUMPI PUSH2 0x381C PUSH2 0x37F3 JUMP JUMPDEST JUMPDEST PUSH1 0x1 DUP6 MUL DUP4 ADD SWAP2 POP DUP5 DUP7 SUB SWAP1 POP SWAP5 POP SWAP5 SWAP3 POP POP POP JUMP JUMPDEST PUSH1 0x0 DUP3 SWAP1 POP SWAP3 SWAP2 POP POP JUMP JUMPDEST PUSH1 0x0 PUSH32 0xFFFFFFFFFFFFFFFFFFFFFFFFFFFFFFFFFFFFFFFF000000000000000000000000 DUP3 AND SWAP1 POP SWAP2 SWAP1 POP JUMP JUMPDEST PUSH1 0x0 PUSH2 0x3876 DUP4 DUP4 PUSH2 0x3833 JUMP JUMPDEST DUP3 PUSH2 0x3881 DUP2 CALLDATALOAD PUSH2 0x383E JUMP JUMPDEST SWAP3 POP PUSH1 0x14 DUP3 LT ISZERO PUSH2 0x38C1 JUMPI PUSH2 0x38BC PUSH32 0xFFFFFFFFFFFFFFFFFFFFFFFFFFFFFFFFFFFFFFFF000000000000000000000000 DUP4 PUSH1 0x14 SUB PUSH1 0x8 MUL PUSH2 0x30E7 JUMP JUMPDEST DUP4 AND SWAP3 POP JUMPDEST POP POP SWAP3 SWAP2 POP POP JUMP INVALID LOG2 PUSH5 0x6970667358 0x22 SLT KECCAK256 GT CODECOPY SIGNEXTEND 0x4C 0xC1 POP BASEFEE 0xAE 0xE6 0xE7 0xB3 SWAP6 SWAP12 PC PUSH8 0x63CAA7EC2EF98492 NOT DELEGATECALL DUP12 0xA8 0xCB 0xAD PUSH6 0x2D7964736F6C PUSH4 0x43000814 STOP CALLER "},"methodIdentifiers":{"_candidateId()":"a7388967","_voterId()":"b9be3152","candidateAddress(uint256)":"3a88251a","candidateElectionVersion(address)":"9af2ae64","candidates(address)":"8ab66a90","changeRelayer(address)":"48d23829","currentRelayer()":"41cd0420","electionVersion()":"f7d0628f","getCandidate()":"70218b85","getCandidateData(address)":"2a466ac7","getCandidateLength()":"f7522a83","getKey()":"82678dd6","getVotedVoterList()":"8e945685","getVoterData(address)":"8fb4cd80","getVoterLength()":"05ad45a4","getVoterList()":"b28d92ae","giveVote(address,uint256)":"fa678ae7","isTrustedForwarder(address)":"572b6c05","resetElection()":"e8f30523","setCandidate(address,string,string,string,string)":"c91ec712","setVoter(address,string,string,string)":"82aac8f3","transferAdmin(address)":"75829def","trustedForwarder()":"7da0a877","votedVoters(uint256)":"7831ffb3","voterElectionVersion(address)":"d6310e9a","voters(address)":"a3ec138d","votersAddress(uint256)":"43242daa","votingOrganizer()":"5cc48aa7"}}}}}