{"contracts/Voting.sol":{"Voting":{"abi":[{"inputs":[{"internalType":"address","name":"trustedForwarder","type":"address"}],"stateMutability":"nonpayable","type":"constructor"},{"anonymous":false,"inputs":[{"indexed":true,"internalType":"uint256","name":"candidateId","type":"uint256"},{"indexed":false,"internalType":"string","name":"age","type":"string"},{"indexed":false,"internalType":"string","name":"name","type":"string"},{"indexed":false,"internalType":"string","name":"image","type":"string"},{"indexed":false,"internalType":"uint256","name":"voteCount","type":"uint256"},{"indexed":false,"internalType":"address","name":"_address","type":"address"},{"indexed":false,"internalType":"string","name":"ipfs","type":"string"}],"name":"CandidateCreate","type":"event"},{"anonymous":false,"inputs":[{"indexed":false,"internalType":"uint256","name":"candidateId","type":"uint256"},{"indexed":false,"internalType":"string","name":"name","type":"string"}],"name":"CandidateCreated","type":"event"},{"anonymous":false,"inputs":[{"indexed":false,"internalType":"uint256","name":"newVersion","type":"uint256"}],"name":"ElectionReset","type":"event"},{"anonymous":false,"inputs":[{"indexed":false,"internalType":"address","name":"oldRelayer","type":"address"},{"indexed":false,"internalType":"address","name":"newRelayer","type":"address"}],"name":"RelayerChanged","type":"event"},{"anonymous":false,"inputs":[{"indexed":false,"internalType":"address","name":"voter","type":"address"},{"indexed":false,"internalType":"uint256","name":"candidateId","type":"uint256"}],"name":"VoteCast","type":"event"},{"anonymous":false,"inputs":[{"indexed":true,"internalType":"uint256","name":"voter_voterId","type":"uint256"},{"indexed":false,"internalType":"string","name":"voter_name","type":"string"},{"indexed":false,"internalType":"string","name":"voter_image","type":"string"},{"indexed":false,"internalType":"address","name":"voter_address","type":"address"},{"indexed":false,"internalType":"uint256","name":"voter_allowed","type":"uint256"},{"indexed":false,"internalType":"bool","name":"voter_voted","type":"bool"},{"indexed":false,"internalType":"uint256","name":"voter_vote","type":"uint256"},{"indexed":false,"internalType":"string","name":"voter_ipfs","type":"string"}],"name":"VoterCreated","type":"event"},{"anonymous":false,"inputs":[{"indexed":false,"internalType":"address","name":"voter","type":"address"}],"name":"VoterRegistered","type":"event"},{"inputs":[],"name":"_candidateId","outputs":[{"internalType":"uint256","name":"","type":"uint256"}],"stateMutability":"view","type":"function"},{"inputs":[],"name":"_voterId","outputs":[{"internalType":"uint256","name":"","type":"uint256"}],"stateMutability":"view","type":"function"},{"inputs":[{"internalType":"uint256","name":"","type":"uint256"}],"name":"candidateAddress","outputs":[{"internalType":"address","name":"","type":"address"}],"stateMutability":"view","type":"function"},{"inputs":[{"internalType":"address","name":"","type":"address"}],"name":"candidateElectionVersion","outputs":[{"internalType":"uint256","name":"","type":"uint256"}],"stateMutability":"view","type":"function"},{"inputs":[{"internalType":"address","name":"","type":"address"}],"name":"candidates","outputs":[{"internalType":"uint256","name":"candidateId","type":"uint256"},{"internalType":"string","name":"age","type":"string"},{"internalType":"string","name":"name","type":"string"},{"internalType":"string","name":"image","type":"string"},{"internalType":"uint256","name":"voteCount","type":"uint256"},{"internalType":"address","name":"_address","type":"address"},{"internalType":"string","name":"ipfs","type":"string"}],"stateMutability":"view","type":"function"},{"inputs":[{"internalType":"address","name":"newRelayer","type":"address"}],"name":"changeRelayer","outputs":[],"stateMutability":"nonpayable","type":"function"},{"inputs":[],"name":"currentRelayer","outputs":[{"internalType":"address","name":"","type":"address"}],"stateMutability":"view","type":"function"},{"inputs":[],"name":"electionVersion","outputs":[{"internalType":"uint256","name":"","type":"uint256"}],"stateMutability":"view","type":"function"},{"inputs":[],"name":"getCandidate","outputs":[{"internalType":"address[]","name":"","type":"address[]"}],"stateMutability":"view","type":"function"},{"inputs":[{"internalType":"address","name":"_address","type":"address"}],"name":"getCandidateData","outputs":[{"internalType":"string","name":"","type":"string"},{"internalType":"string","name":"","type":"string"},{"internalType":"uint256","name":"","type":"uint256"},{"internalType":"string","name":"","type":"string"},{"internalType":"uint256","name":"","type":"uint256"},{"internalType":"string","name":"","type":"string"},{"internalType":"address","name":"","type":"address"}],"stateMutability":"view","type":"function"},{"inputs":[],"name":"getCandidateLength","outputs":[{"internalType":"uint256","name":"","type":"uint256"}],"stateMutability":"view","type":"function"},{"inputs":[],"name":"getKey","outputs":[{"internalType":"address[]","name":"","type":"address[]"}],"stateMutability":"view","type":"function"},{"inputs":[],"name":"getVotedVoterList","outputs":[{"internalType":"address[]","name":"","type":"address[]"}],"stateMutability":"view","type":"function"},{"inputs":[{"internalType":"address","name":"_address","type":"address"}],"name":"getVoterData","outputs":[{"internalType":"uint256","name":"","type":"uint256"},{"internalType":"string","name":"","type":"string"},{"internalType":"string","name":"","type":"string"},{"internalType":"address","name":"","type":"address"},{"internalType":"string","name":"","type":"string"},{"internalType":"bool","name":"","type":"bool"},{"internalType":"uint256","name":"","type":"uint256"}],"stateMutability":"view","type":"function"},{"inputs":[],"name":"getVoterLength","outputs":[{"internalType":"uint256","name":"","type":"uint256"}],"stateMutability":"view","type":"function"},{"inputs":[],"name":"getVoterList","outputs":[{"internalType":"address[]","name":"","type":"address[]"}],"stateMutability":"view","type":"function"},{"inputs":[{"internalType":"address","name":"_candidateAddress","type":"address"},{"internalType":"uint256","name":"_candidateVoteId","type":"uint256"}],"name":"giveVote","outputs":[],"stateMutability":"nonpayable","type":"function"},{"inputs":[{"internalType":"address","name":"forwarder","type":"address"}],"name":"isTrustedForwarder","outputs":[{"internalType":"bool","name":"","type":"bool"}],"stateMutability":"view","type":"function"},{"inputs":[],"name":"resetElection","outputs":[],"stateMutability":"nonpayable","type":"function"},{"inputs":[{"internalType":"address","name":"_address","type":"address"},{"internalType":"string","name":"_age","type":"string"},{"internalType":"string","name":"_name","type":"string"},{"internalType":"string","name":"_image","type":"string"},{"internalType":"string","name":"_ipfs","type":"string"}],"name":"setCandidate","outputs":[],"stateMutability":"nonpayable","type":"function"},{"inputs":[{"internalType":"address","name":"_address","type":"address"},{"internalType":"string","name":"_name","type":"string"},{"internalType":"string","name":"_image","type":"string"},{"internalType":"string","name":"_ipfs","type":"string"}],"name":"setVoter","outputs":[],"stateMutability":"nonpayable","type":"function"},{"inputs":[],"name":"trustedForwarder","outputs":[{"internalType":"address","name":"","type":"address"}],"stateMutability":"view","type":"function"},{"inputs":[{"internalType":"uint256","name":"","type":"uint256"}],"name":"votedVoters","outputs":[{"internalType":"address","name":"","type":"address"}],"stateMutability":"view","type":"function"},{"inputs":[{"internalType":"address","name":"","type":"address"}],"name":"voterElectionVersion","outputs":[{"internalType":"uint256","name":"","type":"uint256"}],"stateMutability":"view","type":"function"},{"inputs":[{"internalType":"address","name":"","type":"address"}],"name":"voters","outputs":[{"internalType":"uint256","name":"voter_voterId","type":"uint256"},{"internalType":"string","name":"voter_name","type":"string"},{"internalType":"string","name":"voter_image","type":"string"},{"internalType":"address","name":"voter_address","type":"address"},{"internalType":"uint256","name":"voter_allowed","type":"uint256"},{"internalType":"bool","name":"voter_voted","type":"bool"},{"internalType":"uint256","name":"voter_vote","type":"uint256"},{"internalType":"string","name":"voter_ipfs","type":"string"}],"stateMutability":"view","type":"function"},{"inputs":[{"internalType":"uint256","name":"","type":"uint256"}],"name":"votersAddress","outputs":[{"internalType":"address","name":"","type":"address"}],"stateMutability":"view","type":"function"},{"inputs":[],"name":"votingOrganizer","outputs":[{"internalType":"address","name":"","type":"address"}],"stateMutability":"view","type":"function"}],"evm":{"bytecode":{"linkReferences":{},"object":"60a06040523480156200001157600080fd5b5060405162003a6738038062003a67833981810160405281019062000037919062000273565b808073ffffffffffffffffffffffffffffffffffffffff1660808173ffffffffffffffffffffffffffffffffffffffff1681525050506200007d6200011c60201b60201c565b600360006101000a81548173ffffffffffffffffffffffffffffffffffffffff021916908373ffffffffffffffffffffffffffffffffffffffff160217905550620000cd6200011c60201b60201c565b600460006101000a81548173ffffffffffffffffffffffffffffffffffffffff021916908373ffffffffffffffffffffffffffffffffffffffff1602179055506001600281905550506200039a565b60008060003690509050600062000138620001a760201b60201c565b90508082101580156200015857506200015733620001b060201b60201c565b5b156200018f576000368284039080926200017593929190620002af565b9062000182919062000334565b60601c92505050620001a4565b6200019f620001f760201b60201c565b925050505b90565b60006014905090565b6000620001c2620001ff60201b60201c565b73ffffffffffffffffffffffffffffffffffffffff168273ffffffffffffffffffffffffffffffffffffffff16149050919050565b600033905090565b6000608051905090565b600080fd5b600073ffffffffffffffffffffffffffffffffffffffff82169050919050565b60006200023b826200020e565b9050919050565b6200024d816200022e565b81146200025957600080fd5b50565b6000815190506200026d8162000242565b92915050565b6000602082840312156200028c576200028b62000209565b5b60006200029c848285016200025c565b91505092915050565b600080fd5b600080fd5b60008085851115620002c657620002c5620002a5565b5b83861115620002da57620002d9620002aa565b5b6001850283019150848603905094509492505050565b600082905092915050565b60007fffffffffffffffffffffffffffffffffffffffff00000000000000000000000082169050919050565b600082821b905092915050565b6000620003428383620002f0565b826200034f8135620002fb565b9250601482101562000392576200038d7fffffffffffffffffffffffffffffffffffffffff0000000000000000000000008360140360080262000327565b831692505b505092915050565b6080516136b1620003b66000396000610d6201526136b16000f3fe608060405234801561001057600080fd5b50600436106101a95760003560e01c80638ab66a90116100f9578063b9be315211610097578063e8f3052311610071578063e8f3052314610527578063f7522a8314610531578063f7d0628f1461054f578063fa678ae71461056d576101a9565b8063b9be3152146104bd578063c91ec712146104db578063d6310e9a146104f7576101a9565b80639af2ae64116100d35780639af2ae641461041a578063a3ec138d1461044a578063a738896714610481578063b28d92ae1461049f576101a9565b80638ab66a90146103905780638e945685146103c65780638fb4cd80146103e4576101a9565b8063572b6c05116101665780637831ffb3116101405780637831ffb3146103085780637da0a8771461033857806382678dd61461035657806382aac8f314610374576101a9565b8063572b6c051461029c5780635cc48aa7146102cc57806370218b85146102ea576101a9565b806305ad45a4146101ae5780632a466ac7146101cc5780633a88251a1461020257806341cd04201461023257806343242daa1461025057806348d2382914610280575b600080fd5b6101b6610589565b6040516101c39190612327565b60405180910390f35b6101e660048036038101906101e191906123b4565b610596565b6040516101f99796959493929190612480565b60405180910390f35b61021c60048036038101906102179190612537565b6109dd565b6040516102299190612564565b60405180910390f35b61023a610a1c565b6040516102479190612564565b60405180910390f35b61026a60048036038101906102659190612537565b610a42565b6040516102779190612564565b60405180910390f35b61029a600480360381019061029591906123b4565b610a81565b005b6102b660048036038101906102b191906123b4565b610c2c565b6040516102c3919061259a565b60405180910390f35b6102d4610c6b565b6040516102e19190612564565b60405180910390f35b6102f2610c91565b6040516102ff9190612673565b60405180910390f35b610322600480360381019061031d9190612537565b610d1f565b60405161032f9190612564565b60405180910390f35b610340610d5e565b60405161034d9190612564565b60405180910390f35b61035e610d86565b60405161036b9190612673565b60405180910390f35b61038e600480360381019061038991906127ca565b610e14565b005b6103aa60048036038101906103a591906123b4565b611187565b6040516103bd9796959493929190612885565b60405180910390f35b6103ce611409565b6040516103db9190612673565b60405180910390f35b6103fe60048036038101906103f991906123b4565b611497565b6040516104119796959493929190612910565b60405180910390f35b610434600480360381019061042f91906123b4565b61185f565b6040516104419190612327565b60405180910390f35b610464600480360381019061045f91906123b4565b611877565b604051610478989796959493929190612994565b60405180910390f35b610489611a84565b6040516104969190612327565b60405180910390f35b6104a7611a8a565b6040516104b49190612673565b60405180910390f35b6104c5611b18565b6040516104d29190612327565b60405180910390f35b6104f560048036038101906104f09190612a27565b611b1e565b005b610511600480360381019061050c91906123b4565b611e69565b60405161051e9190612327565b60405180910390f35b61052f611e81565b005b610539611fa4565b6040516105469190612327565b60405180910390f35b610557611fb1565b6040516105649190612327565b60405180910390f35b61058760048036038101906105829190612b12565b611fb7565b005b6000600a80549050905090565b60608060006060600060606000600860008973ffffffffffffffffffffffffffffffffffffffff1673ffffffffffffffffffffffffffffffffffffffff168152602001908152602001600020600101600860008a73ffffffffffffffffffffffffffffffffffffffff1673ffffffffffffffffffffffffffffffffffffffff168152602001908152602001600020600201600860008b73ffffffffffffffffffffffffffffffffffffffff1673ffffffffffffffffffffffffffffffffffffffff16815260200190815260200160002060000154600860008c73ffffffffffffffffffffffffffffffffffffffff1673ffffffffffffffffffffffffffffffffffffffff168152602001908152602001600020600301600860008d73ffffffffffffffffffffffffffffffffffffffff1673ffffffffffffffffffffffffffffffffffffffff16815260200190815260200160002060040154600860008e73ffffffffffffffffffffffffffffffffffffffff1673ffffffffffffffffffffffffffffffffffffffff168152602001908152602001600020600601600860008f73ffffffffffffffffffffffffffffffffffffffff1673ffffffffffffffffffffffffffffffffffffffff16815260200190815260200160002060050160009054906101000a900473ffffffffffffffffffffffffffffffffffffffff168680546107a090612b81565b80601f01602080910402602001604051908101604052809291908181526020018280546107cc90612b81565b80156108195780601f106107ee57610100808354040283529160200191610819565b820191906000526020600020905b8154815290600101906020018083116107fc57829003601f168201915b5050505050965085805461082c90612b81565b80601f016020809104026020016040519081016040528092919081815260200182805461085890612b81565b80156108a55780601f1061087a576101008083540402835291602001916108a5565b820191906000526020600020905b81548152906001019060200180831161088857829003601f168201915b505050505095508380546108b890612b81565b80601f01602080910402602001604051908101604052809291908181526020018280546108e490612b81565b80156109315780601f1061090657610100808354040283529160200191610931565b820191906000526020600020905b81548152906001019060200180831161091457829003601f168201915b5050505050935081805461094490612b81565b80601f016020809104026020016040519081016040528092919081815260200182805461097090612b81565b80156109bd5780601f10610992576101008083540402835291602001916109bd565b820191906000526020600020905b8154815290600101906020018083116109a057829003601f168201915b505050505091509650965096509650965096509650919395979092949650565b600781815481106109ed57600080fd5b906000526020600020016000915054906101000a900473ffffffffffffffffffffffffffffffffffffffff1681565b600460009054906101000a900473ffffffffffffffffffffffffffffffffffffffff1681565b600a8181548110610a5257600080fd5b906000526020600020016000915054906101000a900473ffffffffffffffffffffffffffffffffffffffff1681565b610a89612253565b73ffffffffffffffffffffffffffffffffffffffff16600360009054906101000a900473ffffffffffffffffffffffffffffffffffffffff1673ffffffffffffffffffffffffffffffffffffffff1614610b18576040517f08c379a0000000000000000000000000000000000000000000000000000000008152600401610b0f90612c24565b60405180910390fd5b600073ffffffffffffffffffffffffffffffffffffffff168173ffffffffffffffffffffffffffffffffffffffff1603610b87576040517f08c379a0000000000000000000000000000000000000000000000000000000008152600401610b7e90612c90565b60405180910390fd5b6000600460009054906101000a900473ffffffffffffffffffffffffffffffffffffffff16905081600460006101000a81548173ffffffffffffffffffffffffffffffffffffffff021916908373ffffffffffffffffffffffffffffffffffffffff1602179055507f18f08848c5694a025f9966c34ff2367f32a1a8275663b282ee01f4338b0454908183604051610c20929190612cb0565b60405180910390a15050565b6000610c36610d5e565b73ffffffffffffffffffffffffffffffffffffffff168273ffffffffffffffffffffffffffffffffffffffff16149050919050565b600360009054906101000a900473ffffffffffffffffffffffffffffffffffffffff1681565b60606007805480602002602001604051908101604052809291908181526020018280548015610d1557602002820191906000526020600020905b8160009054906101000a900473ffffffffffffffffffffffffffffffffffffffff1673ffffffffffffffffffffffffffffffffffffffff1681526020019060010190808311610ccb575b5050505050905090565b60098181548110610d2f57600080fd5b906000526020600020016000915054906101000a900473ffffffffffffffffffffffffffffffffffffffff1681565b60007f0000000000000000000000000000000000000000000000000000000000000000905090565b60606007805480602002602001604051908101604052809291908181526020018280548015610e0a57602002820191906000526020600020905b8160009054906101000a900473ffffffffffffffffffffffffffffffffffffffff1673ffffffffffffffffffffffffffffffffffffffff1681526020019060010190808311610dc0575b5050505050905090565b610e1c612253565b73ffffffffffffffffffffffffffffffffffffffff16600360009054906101000a900473ffffffffffffffffffffffffffffffffffffffff1673ffffffffffffffffffffffffffffffffffffffff1614610eab576040517f08c379a0000000000000000000000000000000000000000000000000000000008152600401610ea290612d4b565b60405180910390fd5b600254600560008673ffffffffffffffffffffffffffffffffffffffff1673ffffffffffffffffffffffffffffffffffffffff1681526020019081526020016000205410610f2e576040517f08c379a0000000000000000000000000000000000000000000000000000000008152600401610f2590612ddd565b60405180910390fd5b600080815480929190610f4090612e2c565b91905055506000805490506000600b60008773ffffffffffffffffffffffffffffffffffffffff1673ffffffffffffffffffffffffffffffffffffffff168152602001908152602001600020905081816000018190555084816001019081610fa89190613020565b5083816002019081610fba9190613020565b50858160030160006101000a81548173ffffffffffffffffffffffffffffffffffffffff021916908373ffffffffffffffffffffffffffffffffffffffff1602179055506001816004018190555060008160050160006101000a81548160ff0219169083151502179055506103e88160060181905550828160070190816110419190613020565b50600a869080600181540180825580915050600190039060005260206000200160009091909190916101000a81548173ffffffffffffffffffffffffffffffffffffffff021916908373ffffffffffffffffffffffffffffffffffffffff160217905550600254600560008873ffffffffffffffffffffffffffffffffffffffff1673ffffffffffffffffffffffffffffffffffffffff16815260200190815260200160002081905550817ff5f39971dd62d9929e3a9feaa6bb77fe7c7da0001babff8a65a7e51ad0201c1986868985600401548660050160009054906101000a900460ff1687600601548a60405161114097969594939291906130f2565b60405180910390a27fb6be2187d059cc2a55fe29e0e503b566e1e0f8c8780096e185429350acffd3dd866040516111779190612564565b60405180910390a1505050505050565b60086020528060005260406000206000915090508060000154908060010180546111b090612b81565b80601f01602080910402602001604051908101604052809291908181526020018280546111dc90612b81565b80156112295780601f106111fe57610100808354040283529160200191611229565b820191906000526020600020905b81548152906001019060200180831161120c57829003601f168201915b50505050509080600201805461123e90612b81565b80601f016020809104026020016040519081016040528092919081815260200182805461126a90612b81565b80156112b75780601f1061128c576101008083540402835291602001916112b7565b820191906000526020600020905b81548152906001019060200180831161129a57829003601f168201915b5050505050908060030180546112cc90612b81565b80601f01602080910402602001604051908101604052809291908181526020018280546112f890612b81565b80156113455780601f1061131a57610100808354040283529160200191611345565b820191906000526020600020905b81548152906001019060200180831161132857829003601f168201915b5050505050908060040154908060050160009054906101000a900473ffffffffffffffffffffffffffffffffffffffff169080600601805461138690612b81565b80601f01602080910402602001604051908101604052809291908181526020018280546113b290612b81565b80156113ff5780601f106113d4576101008083540402835291602001916113ff565b820191906000526020600020905b8154815290600101906020018083116113e257829003601f168201915b5050505050905087565b6060600980548060200260200160405190810160405280929190818152602001828054801561148d57602002820191906000526020600020905b8160009054906101000a900473ffffffffffffffffffffffffffffffffffffffff1673ffffffffffffffffffffffffffffffffffffffff1681526020019060010190808311611443575b5050505050905090565b600060608060006060600080600b60008973ffffffffffffffffffffffffffffffffffffffff1673ffffffffffffffffffffffffffffffffffffffff16815260200190815260200160002060000154600b60008a73ffffffffffffffffffffffffffffffffffffffff1673ffffffffffffffffffffffffffffffffffffffff168152602001908152602001600020600101600b60008b73ffffffffffffffffffffffffffffffffffffffff1673ffffffffffffffffffffffffffffffffffffffff168152602001908152602001600020600201600b60008c73ffffffffffffffffffffffffffffffffffffffff1673ffffffffffffffffffffffffffffffffffffffff16815260200190815260200160002060030160009054906101000a900473ffffffffffffffffffffffffffffffffffffffff16600b60008d73ffffffffffffffffffffffffffffffffffffffff1673ffffffffffffffffffffffffffffffffffffffff168152602001908152602001600020600701600b60008e73ffffffffffffffffffffffffffffffffffffffff1673ffffffffffffffffffffffffffffffffffffffff16815260200190815260200160002060050160009054906101000a900460ff16600b60008f73ffffffffffffffffffffffffffffffffffffffff1673ffffffffffffffffffffffffffffffffffffffff168152602001908152602001600020600401548580546116ae90612b81565b80601f01602080910402602001604051908101604052809291908181526020018280546116da90612b81565b80156117275780601f106116fc57610100808354040283529160200191611727565b820191906000526020600020905b81548152906001019060200180831161170a57829003601f168201915b5050505050955084805461173a90612b81565b80601f016020809104026020016040519081016040528092919081815260200182805461176690612b81565b80156117b35780601f10611788576101008083540402835291602001916117b3565b820191906000526020600020905b81548152906001019060200180831161179657829003601f168201915b505050505094508280546117c690612b81565b80601f01602080910402602001604051908101604052809291908181526020018280546117f290612b81565b801561183f5780601f106118145761010080835404028352916020019161183f565b820191906000526020600020905b81548152906001019060200180831161182257829003601f168201915b505050505092509650965096509650965096509650919395979092949650565b60066020528060005260406000206000915090505481565b600b6020528060005260406000206000915090508060000154908060010180546118a090612b81565b80601f01602080910402602001604051908101604052809291908181526020018280546118cc90612b81565b80156119195780601f106118ee57610100808354040283529160200191611919565b820191906000526020600020905b8154815290600101906020018083116118fc57829003601f168201915b50505050509080600201805461192e90612b81565b80601f016020809104026020016040519081016040528092919081815260200182805461195a90612b81565b80156119a75780601f1061197c576101008083540402835291602001916119a7565b820191906000526020600020905b81548152906001019060200180831161198a57829003601f168201915b5050505050908060030160009054906101000a900473ffffffffffffffffffffffffffffffffffffffff16908060040154908060050160009054906101000a900460ff1690806006015490806007018054611a0190612b81565b80601f0160208091040260200160405190810160405280929190818152602001828054611a2d90612b81565b8015611a7a5780601f10611a4f57610100808354040283529160200191611a7a565b820191906000526020600020905b815481529060010190602001808311611a5d57829003601f168201915b5050505050905088565b60015481565b6060600a805480602002602001604051908101604052809291908181526020018280548015611b0e57602002820191906000526020600020905b8160009054906101000a900473ffffffffffffffffffffffffffffffffffffffff1673ffffffffffffffffffffffffffffffffffffffff1681526020019060010190808311611ac4575b5050505050905090565b60005481565b611b26612253565b73ffffffffffffffffffffffffffffffffffffffff16600360009054906101000a900473ffffffffffffffffffffffffffffffffffffffff1673ffffffffffffffffffffffffffffffffffffffff1614611bb5576040517f08c379a0000000000000000000000000000000000000000000000000000000008152600401611bac906131e8565b60405180910390fd5b600254600660008773ffffffffffffffffffffffffffffffffffffffff1673ffffffffffffffffffffffffffffffffffffffff1681526020019081526020016000205410611c38576040517f08c379a0000000000000000000000000000000000000000000000000000000008152600401611c2f9061327a565b60405180910390fd5b60016000815480929190611c4b90612e2c565b9190505550600060015490506000600860008873ffffffffffffffffffffffffffffffffffffffff1673ffffffffffffffffffffffffffffffffffffffff168152602001908152602001600020905081816000018190555085816001019081611cb49190613020565b5084816002019081611cc69190613020565b5083816003019081611cd89190613020565b5060008160040181905550868160050160006101000a81548173ffffffffffffffffffffffffffffffffffffffff021916908373ffffffffffffffffffffffffffffffffffffffff16021790555082816006019081611d379190613020565b506007879080600181540180825580915050600190039060005260206000200160009091909190916101000a81548173ffffffffffffffffffffffffffffffffffffffff021916908373ffffffffffffffffffffffffffffffffffffffff160217905550600254600660008973ffffffffffffffffffffffffffffffffffffffff1673ffffffffffffffffffffffffffffffffffffffff16815260200190815260200160002081905550817fd297f12b256bb8485a6013fb5e302017018123e99a0ebb20756c09e1707b4b9087878785600401548c89604051611e1f9695949392919061329a565b60405180910390a27f78d27a3c512303f604b46bc28acc0ca45abe6420172a017c5a6dc585821eb6398286604051611e58929190613317565b60405180910390a150505050505050565b60056020528060005260406000206000915090505481565b611e89612253565b73ffffffffffffffffffffffffffffffffffffffff16600360009054906101000a900473ffffffffffffffffffffffffffffffffffffffff1673ffffffffffffffffffffffffffffffffffffffff1614611f18576040517f08c379a0000000000000000000000000000000000000000000000000000000008152600401611f0f906133b9565b60405180910390fd5b60076000611f2691906122d0565b600a6000611f3491906122d0565b60096000611f4291906122d0565b60006001819055506000808190555060026000815480929190611f6490612e2c565b91905055507f2a0e7ca52e830898fc8ddd8f2fc8695795a5fdf74064958562691b5bea4485f5600254604051611f9a9190612327565b60405180910390a1565b6000600780549050905090565b60025481565b60025460056000611fc6612253565b73ffffffffffffffffffffffffffffffffffffffff1673ffffffffffffffffffffffffffffffffffffffff1681526020019081526020016000205414612041576040517f08c379a00000000000000000000000000000000000000000000000000000000081526004016120389061344b565b60405180910390fd5b6000600b600061204f612253565b73ffffffffffffffffffffffffffffffffffffffff1673ffffffffffffffffffffffffffffffffffffffff16815260200190815260200160002090508060050160009054906101000a900460ff16156120dd576040517f08c379a00000000000000000000000000000000000000000000000000000000081526004016120d4906134b7565b60405180910390fd5b6000816004015403612124576040517f08c379a000000000000000000000000000000000000000000000000000000000815260040161211b90613523565b60405180910390fd5b60018160050160006101000a81548160ff0219169083151502179055508181600601819055506009612154612253565b9080600181540180825580915050600190039060005260206000200160009091909190916101000a81548173ffffffffffffffffffffffffffffffffffffffff021916908373ffffffffffffffffffffffffffffffffffffffff1602179055506001600860008573ffffffffffffffffffffffffffffffffffffffff1673ffffffffffffffffffffffffffffffffffffffff16815260200190815260200160002060040160008282546122079190613543565b925050819055507fa36cc2bebb74db33e9f88110a07ef56e1b31b24b4c4f51b54b1664266e29f45b612237612253565b83604051612246929190613577565b60405180910390a1505050565b6000806000369050905060006122676122bf565b905080821015801561227e575061227d33610c2c565b5b156122af57600036828403908092612298939291906135aa565b906122a3919061361c565b60601c925050506122bc565b6122b76122c8565b925050505b90565b60006014905090565b600033905090565b50805460008255906000526020600020908101906122ee91906122f1565b50565b5b8082111561230a5760008160009055506001016122f2565b5090565b6000819050919050565b6123218161230e565b82525050565b600060208201905061233c6000830184612318565b92915050565b6000604051905090565b600080fd5b600080fd5b600073ffffffffffffffffffffffffffffffffffffffff82169050919050565b600061238182612356565b9050919050565b61239181612376565b811461239c57600080fd5b50565b6000813590506123ae81612388565b92915050565b6000602082840312156123ca576123c961234c565b5b60006123d88482850161239f565b91505092915050565b600081519050919050565b600082825260208201905092915050565b60005b8381101561241b578082015181840152602081019050612400565b60008484015250505050565b6000601f19601f8301169050919050565b6000612443826123e1565b61244d81856123ec565b935061245d8185602086016123fd565b61246681612427565b840191505092915050565b61247a81612376565b82525050565b600060e082019050818103600083015261249a818a612438565b905081810360208301526124ae8189612438565b90506124bd6040830188612318565b81810360608301526124cf8187612438565b90506124de6080830186612318565b81810360a08301526124f08185612438565b90506124ff60c0830184612471565b98975050505050505050565b6125148161230e565b811461251f57600080fd5b50565b6000813590506125318161250b565b92915050565b60006020828403121561254d5761254c61234c565b5b600061255b84828501612522565b91505092915050565b60006020820190506125796000830184612471565b92915050565b60008115159050919050565b6125948161257f565b82525050565b60006020820190506125af600083018461258b565b92915050565b600081519050919050565b600082825260208201905092915050565b6000819050602082019050919050565b6125ea81612376565b82525050565b60006125fc83836125e1565b60208301905092915050565b6000602082019050919050565b6000612620826125b5565b61262a81856125c0565b9350612635836125d1565b8060005b8381101561266657815161264d88826125f0565b975061265883612608565b925050600181019050612639565b5085935050505092915050565b6000602082019050818103600083015261268d8184612615565b905092915050565b600080fd5b600080fd5b7f4e487b7100000000000000000000000000000000000000000000000000000000600052604160045260246000fd5b6126d782612427565b810181811067ffffffffffffffff821117156126f6576126f561269f565b5b80604052505050565b6000612709612342565b905061271582826126ce565b919050565b600067ffffffffffffffff8211156127355761273461269f565b5b61273e82612427565b9050602081019050919050565b82818337600083830152505050565b600061276d6127688461271a565b6126ff565b9050828152602081018484840111156127895761278861269a565b5b61279484828561274b565b509392505050565b600082601f8301126127b1576127b0612695565b5b81356127c184826020860161275a565b91505092915050565b600080600080608085870312156127e4576127e361234c565b5b60006127f28782880161239f565b945050602085013567ffffffffffffffff81111561281357612812612351565b5b61281f8782880161279c565b935050604085013567ffffffffffffffff8111156128405761283f612351565b5b61284c8782880161279c565b925050606085013567ffffffffffffffff81111561286d5761286c612351565b5b6128798782880161279c565b91505092959194509250565b600060e08201905061289a600083018a612318565b81810360208301526128ac8189612438565b905081810360408301526128c08188612438565b905081810360608301526128d48187612438565b90506128e36080830186612318565b6128f060a0830185612471565b81810360c08301526129028184612438565b905098975050505050505050565b600060e082019050612925600083018a612318565b81810360208301526129378189612438565b9050818103604083015261294b8188612438565b905061295a6060830187612471565b818103608083015261296c8186612438565b905061297b60a083018561258b565b61298860c0830184612318565b98975050505050505050565b6000610100820190506129aa600083018b612318565b81810360208301526129bc818a612438565b905081810360408301526129d08189612438565b90506129df6060830188612471565b6129ec6080830187612318565b6129f960a083018661258b565b612a0660c0830185612318565b81810360e0830152612a188184612438565b90509998505050505050505050565b600080600080600060a08688031215612a4357612a4261234c565b5b6000612a518882890161239f565b955050602086013567ffffffffffffffff811115612a7257612a71612351565b5b612a7e8882890161279c565b945050604086013567ffffffffffffffff811115612a9f57612a9e612351565b5b612aab8882890161279c565b935050606086013567ffffffffffffffff811115612acc57612acb612351565b5b612ad88882890161279c565b925050608086013567ffffffffffffffff811115612af957612af8612351565b5b612b058882890161279c565b9150509295509295909350565b60008060408385031215612b2957612b2861234c565b5b6000612b378582860161239f565b9250506020612b4885828601612522565b9150509250929050565b7f4e487b7100000000000000000000000000000000000000000000000000000000600052602260045260246000fd5b60006002820490506001821680612b9957607f821691505b602082108103612bac57612bab612b52565b5b50919050565b7f4f6e6c792061646d696e2063616e2063616c6c20746869732066756e6374696f60008201527f6e00000000000000000000000000000000000000000000000000000000000000602082015250565b6000612c0e6021836123ec565b9150612c1982612bb2565b604082019050919050565b60006020820190508181036000830152612c3d81612c01565b9050919050565b7f496e76616c6964206e65772072656c6179657220616464726573730000000000600082015250565b6000612c7a601b836123ec565b9150612c8582612c44565b602082019050919050565b60006020820190508181036000830152612ca981612c6d565b9050919050565b6000604082019050612cc56000830185612471565b612cd26020830184612471565b9392505050565b7f4f6e6c79206f7267616e697a65722063616e20637265617465206120766f746560008201527f7200000000000000000000000000000000000000000000000000000000000000602082015250565b6000612d356021836123ec565b9150612d4082612cd9565b604082019050919050565b60006020820190508181036000830152612d6481612d28565b9050919050565b7f566f74657220616c7265616479207265676973746572656420696e206375727260008201527f656e7420656c656374696f6e0000000000000000000000000000000000000000602082015250565b6000612dc7602c836123ec565b9150612dd282612d6b565b604082019050919050565b60006020820190508181036000830152612df681612dba565b9050919050565b7f4e487b7100000000000000000000000000000000000000000000000000000000600052601160045260246000fd5b6000612e378261230e565b91507fffffffffffffffffffffffffffffffffffffffffffffffffffffffffffffffff8203612e6957612e68612dfd565b5b600182019050919050565b60008190508160005260206000209050919050565b60006020601f8301049050919050565b600082821b905092915050565b600060088302612ed67fffffffffffffffffffffffffffffffffffffffffffffffffffffffffffffffff82612e99565b612ee08683612e99565b95508019841693508086168417925050509392505050565b6000819050919050565b6000612f1d612f18612f138461230e565b612ef8565b61230e565b9050919050565b6000819050919050565b612f3783612f02565b612f4b612f4382612f24565b848454612ea6565b825550505050565b600090565b612f60612f53565b612f6b818484612f2e565b505050565b5b81811015612f8f57612f84600082612f58565b600181019050612f71565b5050565b601f821115612fd457612fa581612e74565b612fae84612e89565b81016020851015612fbd578190505b612fd1612fc985612e89565b830182612f70565b50505b505050565b600082821c905092915050565b6000612ff760001984600802612fd9565b1980831691505092915050565b60006130108383612fe6565b9150826002028217905092915050565b613029826123e1565b67ffffffffffffffff8111156130425761304161269f565b5b61304c8254612b81565b613057828285612f93565b600060209050601f83116001811461308a5760008415613078578287015190505b6130828582613004565b8655506130ea565b601f19841661309886612e74565b60005b828110156130c05784890151825560018201915060208501945060208101905061309b565b868310156130dd57848901516130d9601f891682612fe6565b8355505b6001600288020188555050505b505050505050565b600060e082019050818103600083015261310c818a612438565b905081810360208301526131208189612438565b905061312f6040830188612471565b61313c6060830187612318565b613149608083018661258b565b61315660a0830185612318565b81810360c08301526131688184612438565b905098975050505050505050565b7f4f6e6c79206f7267616e697a65722063616e2063726561746520612063616e6460008201527f6964617465000000000000000000000000000000000000000000000000000000602082015250565b60006131d26025836123ec565b91506131dd82613176565b604082019050919050565b60006020820190508181036000830152613201816131c5565b9050919050565b7f43616e64696461746520616c7265616479207265676973746572656420696e2060008201527f63757272656e7420656c656374696f6e00000000000000000000000000000000602082015250565b60006132646030836123ec565b915061326f82613208565b604082019050919050565b6000602082019050818103600083015261329381613257565b9050919050565b600060c08201905081810360008301526132b48189612438565b905081810360208301526132c88188612438565b905081810360408301526132dc8187612438565b90506132eb6060830186612318565b6132f86080830185612471565b81810360a083015261330a8184612438565b9050979650505050505050565b600060408201905061332c6000830185612318565b818103602083015261333e8184612438565b90509392505050565b7f4f6e6c79206f7267616e697a65722063616e2072657365742074686520656c6560008201527f6374696f6e000000000000000000000000000000000000000000000000000000602082015250565b60006133a36025836123ec565b91506133ae82613347565b604082019050919050565b600060208201905081810360008301526133d281613396565b9050919050565b7f596f7520617265206e6f74207265676973746572656420666f7220746865206360008201527f757272656e7420656c656374696f6e0000000000000000000000000000000000602082015250565b6000613435602f836123ec565b9150613440826133d9565b604082019050919050565b6000602082019050818103600083015261346481613428565b9050919050565b7f596f75206861766520616c726561647920766f74656400000000000000000000600082015250565b60006134a16016836123ec565b91506134ac8261346b565b602082019050919050565b600060208201905081810360008301526134d081613494565b9050919050565b7f596f752068617665206e6f20726967687420746f20766f746500000000000000600082015250565b600061350d6019836123ec565b9150613518826134d7565b602082019050919050565b6000602082019050818103600083015261353c81613500565b9050919050565b600061354e8261230e565b91506135598361230e565b925082820190508082111561357157613570612dfd565b5b92915050565b600060408201905061358c6000830185612471565b6135996020830184612318565b9392505050565b600080fd5b600080fd5b600080858511156135be576135bd6135a0565b5b838611156135cf576135ce6135a5565b5b6001850283019150848603905094509492505050565b600082905092915050565b60007fffffffffffffffffffffffffffffffffffffffff00000000000000000000000082169050919050565b600061362883836135e5565b8261363381356135f0565b925060148210156136735761366e7fffffffffffffffffffffffffffffffffffffffff00000000000000000000000083601403600802612e99565b831692505b50509291505056fea2646970667358221220355c17385c8d43882d06133624a8924faff27324b90ce63302ab6cae572cbc0264736f6c63430008140033","opcodes":"PUSH1 0xA0 PUSH1 0x40 MSTORE CALLVALUE DUP1 ISZERO PUSH3 0x11 JUMPI PUSH1 0x0 DUP1 REVERT JUMPDEST POP PUSH1 0x40 MLOAD PUSH3 0x3A67 CODESIZE SUB DUP1 PUSH3 0x3A67 DUP4 CODECOPY DUP2 DUP2 ADD PUSH1 0x40 MSTORE DUP2 ADD SWAP1 PUSH3 0x37 SWAP2 SWAP1 PUSH3 0x273 JUMP JUMPDEST DUP1 DUP1 PUSH20 0xFFFFFFFFFFFFFFFFFFFFFFFFFFFFFFFFFFFFFFFF AND PUSH1 0x80 DUP2 PUSH20 0xFFFFFFFFFFFFFFFFFFFFFFFFFFFFFFFFFFFFFFFF AND DUP2 MSTORE POP POP POP PUSH3 0x7D PUSH3 0x11C PUSH1 0x20 SHL PUSH1 0x20 SHR JUMP JUMPDEST PUSH1 0x3 PUSH1 0x0 PUSH2 0x100 EXP DUP2 SLOAD DUP2 PUSH20 0xFFFFFFFFFFFFFFFFFFFFFFFFFFFFFFFFFFFFFFFF MUL NOT AND SWAP1 DUP4 PUSH20 0xFFFFFFFFFFFFFFFFFFFFFFFFFFFFFFFFFFFFFFFF AND MUL OR SWAP1 SSTORE POP PUSH3 0xCD PUSH3 0x11C PUSH1 0x20 SHL PUSH1 0x20 SHR JUMP JUMPDEST PUSH1 0x4 PUSH1 0x0 PUSH2 0x100 EXP DUP2 SLOAD DUP2 PUSH20 0xFFFFFFFFFFFFFFFFFFFFFFFFFFFFFFFFFFFFFFFF MUL NOT AND SWAP1 DUP4 PUSH20 0xFFFFFFFFFFFFFFFFFFFFFFFFFFFFFFFFFFFFFFFF AND MUL OR SWAP1 SSTORE POP PUSH1 0x1 PUSH1 0x2 DUP2 SWAP1 SSTORE POP POP PUSH3 0x39A JUMP JUMPDEST PUSH1 0x0 DUP1 PUSH1 0x0 CALLDATASIZE SWAP1 POP SWAP1 POP PUSH1 0x0 PUSH3 0x138 PUSH3 0x1A7 PUSH1 0x20 SHL PUSH1 0x20 SHR JUMP JUMPDEST SWAP1 POP DUP1 DUP3 LT ISZERO DUP1 ISZERO PUSH3 0x158 JUMPI POP PUSH3 0x157 CALLER PUSH3 0x1B0 PUSH1 0x20 SHL PUSH1 0x20 SHR JUMP JUMPDEST JUMPDEST ISZERO PUSH3 0x18F JUMPI PUSH1 0x0 CALLDATASIZE DUP3 DUP5 SUB SWAP1 DUP1 SWAP3 PUSH3 0x175 SWAP4 SWAP3 SWAP2 SWAP1 PUSH3 0x2AF JUMP JUMPDEST SWAP1 PUSH3 0x182 SWAP2 SWAP1 PUSH3 0x334 JUMP JUMPDEST PUSH1 0x60 SHR SWAP3 POP POP POP PUSH3 0x1A4 JUMP JUMPDEST PUSH3 0x19F PUSH3 0x1F7 PUSH1 0x20 SHL PUSH1 0x20 SHR JUMP JUMPDEST SWAP3 POP POP POP JUMPDEST SWAP1 JUMP JUMPDEST PUSH1 0x0 PUSH1 0x14 SWAP1 POP SWAP1 JUMP JUMPDEST PUSH1 0x0 PUSH3 0x1C2 PUSH3 0x1FF PUSH1 0x20 SHL PUSH1 0x20 SHR JUMP JUMPDEST PUSH20 0xFFFFFFFFFFFFFFFFFFFFFFFFFFFFFFFFFFFFFFFF AND DUP3 PUSH20 0xFFFFFFFFFFFFFFFFFFFFFFFFFFFFFFFFFFFFFFFF AND EQ SWAP1 POP SWAP2 SWAP1 POP JUMP JUMPDEST PUSH1 0x0 CALLER SWAP1 POP SWAP1 JUMP JUMPDEST PUSH1 0x0 PUSH1 0x80 MLOAD SWAP1 POP SWAP1 JUMP JUMPDEST PUSH1 0x0 DUP1 REVERT JUMPDEST PUSH1 0x0 PUSH20 0xFFFFFFFFFFFFFFFFFFFFFFFFFFFFFFFFFFFFFFFF DUP3 AND SWAP1 POP SWAP2 SWAP1 POP JUMP JUMPDEST PUSH1 0x0 PUSH3 0x23B DUP3 PUSH3 0x20E JUMP JUMPDEST SWAP1 POP SWAP2 SWAP1 POP JUMP JUMPDEST PUSH3 0x24D DUP2 PUSH3 0x22E JUMP JUMPDEST DUP2 EQ PUSH3 0x259 JUMPI PUSH1 0x0 DUP1 REVERT JUMPDEST POP JUMP JUMPDEST PUSH1 0x0 DUP2 MLOAD SWAP1 POP PUSH3 0x26D DUP2 PUSH3 0x242 JUMP JUMPDEST SWAP3 SWAP2 POP POP JUMP JUMPDEST PUSH1 0x0 PUSH1 0x20 DUP3 DUP5 SUB SLT ISZERO PUSH3 0x28C JUMPI PUSH3 0x28B PUSH3 0x209 JUMP JUMPDEST JUMPDEST PUSH1 0x0 PUSH3 0x29C DUP5 DUP3 DUP6 ADD PUSH3 0x25C JUMP JUMPDEST SWAP2 POP POP SWAP3 SWAP2 POP POP JUMP JUMPDEST PUSH1 0x0 DUP1 REVERT JUMPDEST PUSH1 0x0 DUP1 REVERT JUMPDEST PUSH1 0x0 DUP1 DUP6 DUP6 GT ISZERO PUSH3 0x2C6 JUMPI PUSH3 0x2C5 PUSH3 0x2A5 JUMP JUMPDEST JUMPDEST DUP4 DUP7 GT ISZERO PUSH3 0x2DA JUMPI PUSH3 0x2D9 PUSH3 0x2AA JUMP JUMPDEST JUMPDEST PUSH1 0x1 DUP6 MUL DUP4 ADD SWAP2 POP DUP5 DUP7 SUB SWAP1 POP SWAP5 POP SWAP5 SWAP3 POP POP POP JUMP JUMPDEST PUSH1 0x0 DUP3 SWAP1 POP SWAP3 SWAP2 POP POP JUMP JUMPDEST PUSH1 0x0 PUSH32 0xFFFFFFFFFFFFFFFFFFFFFFFFFFFFFFFFFFFFFFFF000000000000000000000000 DUP3 AND SWAP1 POP SWAP2 SWAP1 POP JUMP JUMPDEST PUSH1 0x0 DUP3 DUP3 SHL SWAP1 POP SWAP3 SWAP2 POP POP JUMP JUMPDEST PUSH1 0x0 PUSH3 0x342 DUP4 DUP4 PUSH3 0x2F0 JUMP JUMPDEST DUP3 PUSH3 0x34F DUP2 CALLDATALOAD PUSH3 0x2FB JUMP JUMPDEST SWAP3 POP PUSH1 0x14 DUP3 LT ISZERO PUSH3 0x392 JUMPI PUSH3 0x38D PUSH32 0xFFFFFFFFFFFFFFFFFFFFFFFFFFFFFFFFFFFFFFFF000000000000000000000000 DUP4 PUSH1 0x14 SUB PUSH1 0x8 MUL PUSH3 0x327 JUMP JUMPDEST DUP4 AND SWAP3 POP JUMPDEST POP POP SWAP3 SWAP2 POP POP JUMP JUMPDEST PUSH1 0x80 MLOAD PUSH2 0x36B1 PUSH3 0x3B6 PUSH1 0x0 CODECOPY PUSH1 0x0 PUSH2 0xD62 ADD MSTORE PUSH2 0x36B1 PUSH1 0x0 RETURN INVALID PUSH1 0x80 PUSH1 0x40 MSTORE CALLVALUE DUP1 ISZERO PUSH2 0x10 JUMPI PUSH1 0x0 DUP1 REVERT JUMPDEST POP PUSH1 0x4 CALLDATASIZE LT PUSH2 0x1A9 JUMPI PUSH1 0x0 CALLDATALOAD PUSH1 0xE0 SHR DUP1 PUSH4 0x8AB66A90 GT PUSH2 0xF9 JUMPI DUP1 PUSH4 0xB9BE3152 GT PUSH2 0x97 JUMPI DUP1 PUSH4 0xE8F30523 GT PUSH2 0x71 JUMPI DUP1 PUSH4 0xE8F30523 EQ PUSH2 0x527 JUMPI DUP1 PUSH4 0xF7522A83 EQ PUSH2 0x531 JUMPI DUP1 PUSH4 0xF7D0628F EQ PUSH2 0x54F JUMPI DUP1 PUSH4 0xFA678AE7 EQ PUSH2 0x56D JUMPI PUSH2 0x1A9 JUMP JUMPDEST DUP1 PUSH4 0xB9BE3152 EQ PUSH2 0x4BD JUMPI DUP1 PUSH4 0xC91EC712 EQ PUSH2 0x4DB JUMPI DUP1 PUSH4 0xD6310E9A EQ PUSH2 0x4F7 JUMPI PUSH2 0x1A9 JUMP JUMPDEST DUP1 PUSH4 0x9AF2AE64 GT PUSH2 0xD3 JUMPI DUP1 PUSH4 0x9AF2AE64 EQ PUSH2 0x41A JUMPI DUP1 PUSH4 0xA3EC138D EQ PUSH2 0x44A JUMPI DUP1 PUSH4 0xA7388967 EQ PUSH2 0x481 JUMPI DUP1 PUSH4 0xB28D92AE EQ PUSH2 0x49F JUMPI PUSH2 0x1A9 JUMP JUMPDEST DUP1 PUSH4 0x8AB66A90 EQ PUSH2 0x390 JUMPI DUP1 PUSH4 0x8E945685 EQ PUSH2 0x3C6 JUMPI DUP1 PUSH4 0x8FB4CD80 EQ PUSH2 0x3E4 JUMPI PUSH2 0x1A9 JUMP JUMPDEST DUP1 PUSH4 0x572B6C05 GT PUSH2 0x166 JUMPI DUP1 PUSH4 0x7831FFB3 GT PUSH2 0x140 JUMPI DUP1 PUSH4 0x7831FFB3 EQ PUSH2 0x308 JUMPI DUP1 PUSH4 0x7DA0A877 EQ PUSH2 0x338 JUMPI DUP1 PUSH4 0x82678DD6 EQ PUSH2 0x356 JUMPI DUP1 PUSH4 0x82AAC8F3 EQ PUSH2 0x374 JUMPI PUSH2 0x1A9 JUMP JUMPDEST DUP1 PUSH4 0x572B6C05 EQ PUSH2 0x29C JUMPI DUP1 PUSH4 0x5CC48AA7 EQ PUSH2 0x2CC JUMPI DUP1 PUSH4 0x70218B85 EQ PUSH2 0x2EA JUMPI PUSH2 0x1A9 JUMP JUMPDEST DUP1 PUSH4 0x5AD45A4 EQ PUSH2 0x1AE JUMPI DUP1 PUSH4 0x2A466AC7 EQ PUSH2 0x1CC JUMPI DUP1 PUSH4 0x3A88251A EQ PUSH2 0x202 JUMPI DUP1 PUSH4 0x41CD0420 EQ PUSH2 0x232 JUMPI DUP1 PUSH4 0x43242DAA EQ PUSH2 0x250 JUMPI DUP1 PUSH4 0x48D23829 EQ PUSH2 0x280 JUMPI JUMPDEST PUSH1 0x0 DUP1 REVERT JUMPDEST PUSH2 0x1B6 PUSH2 0x589 JUMP JUMPDEST PUSH1 0x40 MLOAD PUSH2 0x1C3 SWAP2 SWAP1 PUSH2 0x2327 JUMP JUMPDEST PUSH1 0x40 MLOAD DUP1 SWAP2 SUB SWAP1 RETURN JUMPDEST PUSH2 0x1E6 PUSH1 0x4 DUP1 CALLDATASIZE SUB DUP2 ADD SWAP1 PUSH2 0x1E1 SWAP2 SWAP1 PUSH2 0x23B4 JUMP JUMPDEST PUSH2 0x596 JUMP JUMPDEST PUSH1 0x40 MLOAD PUSH2 0x1F9 SWAP8 SWAP7 SWAP6 SWAP5 SWAP4 SWAP3 SWAP2 SWAP1 PUSH2 0x2480 JUMP JUMPDEST PUSH1 0x40 MLOAD DUP1 SWAP2 SUB SWAP1 RETURN JUMPDEST PUSH2 0x21C PUSH1 0x4 DUP1 CALLDATASIZE SUB DUP2 ADD SWAP1 PUSH2 0x217 SWAP2 SWAP1 PUSH2 0x2537 JUMP JUMPDEST PUSH2 0x9DD JUMP JUMPDEST PUSH1 0x40 MLOAD PUSH2 0x229 SWAP2 SWAP1 PUSH2 0x2564 JUMP JUMPDEST PUSH1 0x40 MLOAD DUP1 SWAP2 SUB SWAP1 RETURN JUMPDEST PUSH2 0x23A PUSH2 0xA1C JUMP JUMPDEST PUSH1 0x40 MLOAD PUSH2 0x247 SWAP2 SWAP1 PUSH2 0x2564 JUMP JUMPDEST PUSH1 0x40 MLOAD DUP1 SWAP2 SUB SWAP1 RETURN JUMPDEST PUSH2 0x26A PUSH1 0x4 DUP1 CALLDATASIZE SUB DUP2 ADD SWAP1 PUSH2 0x265 SWAP2 SWAP1 PUSH2 0x2537 JUMP JUMPDEST PUSH2 0xA42 JUMP JUMPDEST PUSH1 0x40 MLOAD PUSH2 0x277 SWAP2 SWAP1 PUSH2 0x2564 JUMP JUMPDEST PUSH1 0x40 MLOAD DUP1 SWAP2 SUB SWAP1 RETURN JUMPDEST PUSH2 0x29A PUSH1 0x4 DUP1 CALLDATASIZE SUB DUP2 ADD SWAP1 PUSH2 0x295 SWAP2 SWAP1 PUSH2 0x23B4 JUMP JUMPDEST PUSH2 0xA81 JUMP JUMPDEST STOP JUMPDEST PUSH2 0x2B6 PUSH1 0x4 DUP1 CALLDATASIZE SUB DUP2 ADD SWAP1 PUSH2 0x2B1 SWAP2 SWAP1 PUSH2 0x23B4 JUMP JUMPDEST PUSH2 0xC2C JUMP JUMPDEST PUSH1 0x40 MLOAD PUSH2 0x2C3 SWAP2 SWAP1 PUSH2 0x259A JUMP JUMPDEST PUSH1 0x40 MLOAD DUP1 SWAP2 SUB SWAP1 RETURN JUMPDEST PUSH2 0x2D4 PUSH2 0xC6B JUMP JUMPDEST PUSH1 0x40 MLOAD PUSH2 0x2E1 SWAP2 SWAP1 PUSH2 0x2564 JUMP JUMPDEST PUSH1 0x40 MLOAD DUP1 SWAP2 SUB SWAP1 RETURN JUMPDEST PUSH2 0x2F2 PUSH2 0xC91 JUMP JUMPDEST PUSH1 0x40 MLOAD PUSH2 0x2FF SWAP2 SWAP1 PUSH2 0x2673 JUMP JUMPDEST PUSH1 0x40 MLOAD DUP1 SWAP2 SUB SWAP1 RETURN JUMPDEST PUSH2 0x322 PUSH1 0x4 DUP1 CALLDATASIZE SUB DUP2 ADD SWAP1 PUSH2 0x31D SWAP2 SWAP1 PUSH2 0x2537 JUMP JUMPDEST PUSH2 0xD1F JUMP JUMPDEST PUSH1 0x40 MLOAD PUSH2 0x32F SWAP2 SWAP1 PUSH2 0x2564 JUMP JUMPDEST PUSH1 0x40 MLOAD DUP1 SWAP2 SUB SWAP1 RETURN JUMPDEST PUSH2 0x340 PUSH2 0xD5E JUMP JUMPDEST PUSH1 0x40 MLOAD PUSH2 0x34D SWAP2 SWAP1 PUSH2 0x2564 JUMP JUMPDEST PUSH1 0x40 MLOAD DUP1 SWAP2 SUB SWAP1 RETURN JUMPDEST PUSH2 0x35E PUSH2 0xD86 JUMP JUMPDEST PUSH1 0x40 MLOAD PUSH2 0x36B SWAP2 SWAP1 PUSH2 0x2673 JUMP JUMPDEST PUSH1 0x40 MLOAD DUP1 SWAP2 SUB SWAP1 RETURN JUMPDEST PUSH2 0x38E PUSH1 0x4 DUP1 CALLDATASIZE SUB DUP2 ADD SWAP1 PUSH2 0x389 SWAP2 SWAP1 PUSH2 0x27CA JUMP JUMPDEST PUSH2 0xE14 JUMP JUMPDEST STOP JUMPDEST PUSH2 0x3AA PUSH1 0x4 DUP1 CALLDATASIZE SUB DUP2 ADD SWAP1 PUSH2 0x3A5 SWAP2 SWAP1 PUSH2 0x23B4 JUMP JUMPDEST PUSH2 0x1187 JUMP JUMPDEST PUSH1 0x40 MLOAD PUSH2 0x3BD SWAP8 SWAP7 SWAP6 SWAP5 SWAP4 SWAP3 SWAP2 SWAP1 PUSH2 0x2885 JUMP JUMPDEST PUSH1 0x40 MLOAD DUP1 SWAP2 SUB SWAP1 RETURN JUMPDEST PUSH2 0x3CE PUSH2 0x1409 JUMP JUMPDEST PUSH1 0x40 MLOAD PUSH2 0x3DB SWAP2 SWAP1 PUSH2 0x2673 JUMP JUMPDEST PUSH1 0x40 MLOAD DUP1 SWAP2 SUB SWAP1 RETURN JUMPDEST PUSH2 0x3FE PUSH1 0x4 DUP1 CALLDATASIZE SUB DUP2 ADD SWAP1 PUSH2 0x3F9 SWAP2 SWAP1 PUSH2 0x23B4 JUMP JUMPDEST PUSH2 0x1497 JUMP JUMPDEST PUSH1 0x40 MLOAD PUSH2 0x411 SWAP8 SWAP7 SWAP6 SWAP5 SWAP4 SWAP3 SWAP2 SWAP1 PUSH2 0x2910 JUMP JUMPDEST PUSH1 0x40 MLOAD DUP1 SWAP2 SUB SWAP1 RETURN JUMPDEST PUSH2 0x434 PUSH1 0x4 DUP1 CALLDATASIZE SUB DUP2 ADD SWAP1 PUSH2 0x42F SWAP2 SWAP1 PUSH2 0x23B4 JUMP JUMPDEST PUSH2 0x185F JUMP JUMPDEST PUSH1 0x40 MLOAD PUSH2 0x441 SWAP2 SWAP1 PUSH2 0x2327 JUMP JUMPDEST PUSH1 0x40 MLOAD DUP1 SWAP2 SUB SWAP1 RETURN JUMPDEST PUSH2 0x464 PUSH1 0x4 DUP1 CALLDATASIZE SUB DUP2 ADD SWAP1 PUSH2 0x45F SWAP2 SWAP1 PUSH2 0x23B4 JUMP JUMPDEST PUSH2 0x1877 JUMP JUMPDEST PUSH1 0x40 MLOAD PUSH2 0x478 SWAP9 SWAP8 SWAP7 SWAP6 SWAP5 SWAP4 SWAP3 SWAP2 SWAP1 PUSH2 0x2994 JUMP JUMPDEST PUSH1 0x40 MLOAD DUP1 SWAP2 SUB SWAP1 RETURN JUMPDEST PUSH2 0x489 PUSH2 0x1A84 JUMP JUMPDEST PUSH1 0x40 MLOAD PUSH2 0x496 SWAP2 SWAP1 PUSH2 0x2327 JUMP JUMPDEST PUSH1 0x40 MLOAD DUP1 SWAP2 SUB SWAP1 RETURN JUMPDEST PUSH2 0x4A7 PUSH2 0x1A8A JUMP JUMPDEST PUSH1 0x40 MLOAD PUSH2 0x4B4 SWAP2 SWAP1 PUSH2 0x2673 JUMP JUMPDEST PUSH1 0x40 MLOAD DUP1 SWAP2 SUB SWAP1 RETURN JUMPDEST PUSH2 0x4C5 PUSH2 0x1B18 JUMP JUMPDEST PUSH1 0x40 MLOAD PUSH2 0x4D2 SWAP2 SWAP1 PUSH2 0x2327 JUMP JUMPDEST PUSH1 0x40 MLOAD DUP1 SWAP2 SUB SWAP1 RETURN JUMPDEST PUSH2 0x4F5 PUSH1 0x4 DUP1 CALLDATASIZE SUB DUP2 ADD SWAP1 PUSH2 0x4F0 SWAP2 SWAP1 PUSH2 0x2A27 JUMP JUMPDEST PUSH2 0x1B1E JUMP JUMPDEST STOP JUMPDEST PUSH2 0x511 PUSH1 0x4 DUP1 CALLDATASIZE SUB DUP2 ADD SWAP1 PUSH2 0x50C SWAP2 SWAP1 PUSH2 0x23B4 JUMP JUMPDEST PUSH2 0x1E69 JUMP JUMPDEST PUSH1 0x40 MLOAD PUSH2 0x51E SWAP2 SWAP1 PUSH2 0x2327 JUMP JUMPDEST PUSH1 0x40 MLOAD DUP1 SWAP2 SUB SWAP1 RETURN JUMPDEST PUSH2 0x52F PUSH2 0x1E81 JUMP JUMPDEST STOP JUMPDEST PUSH2 0x539 PUSH2 0x1FA4 JUMP JUMPDEST PUSH1 0x40 MLOAD PUSH2 0x546 SWAP2 SWAP1 PUSH2 0x2327 JUMP JUMPDEST PUSH1 0x40 MLOAD DUP1 SWAP2 SUB SWAP1 RETURN JUMPDEST PUSH2 0x557 PUSH2 0x1FB1 JUMP JUMPDEST PUSH1 0x40 MLOAD PUSH2 0x564 SWAP2 SWAP1 PUSH2 0x2327 JUMP JUMPDEST PUSH1 0x40 MLOAD DUP1 SWAP2 SUB SWAP1 RETURN JUMPDEST PUSH2 0x587 PUSH1 0x4 DUP1 CALLDATASIZE SUB DUP2 ADD SWAP1 PUSH2 0x582 SWAP2 SWAP1 PUSH2 0x2B12 JUMP JUMPDEST PUSH2 0x1FB7 JUMP JUMPDEST STOP JUMPDEST PUSH1 0x0 PUSH1 0xA DUP1 SLOAD SWAP1 POP SWAP1 POP SWAP1 JUMP JUMPDEST PUSH1 0x60 DUP1 PUSH1 0x0 PUSH1 0x60 PUSH1 0x0 PUSH1 0x60 PUSH1 0x0 PUSH1 0x8 PUSH1 0x0 DUP10 PUSH20 0xFFFFFFFFFFFFFFFFFFFFFFFFFFFFFFFFFFFFFFFF AND PUSH20 0xFFFFFFFFFFFFFFFFFFFFFFFFFFFFFFFFFFFFFFFF AND DUP2 MSTORE PUSH1 0x20 ADD SWAP1 DUP2 MSTORE PUSH1 0x20 ADD PUSH1 0x0 KECCAK256 PUSH1 0x1 ADD PUSH1 0x8 PUSH1 0x0 DUP11 PUSH20 0xFFFFFFFFFFFFFFFFFFFFFFFFFFFFFFFFFFFFFFFF AND PUSH20 0xFFFFFFFFFFFFFFFFFFFFFFFFFFFFFFFFFFFFFFFF AND DUP2 MSTORE PUSH1 0x20 ADD SWAP1 DUP2 MSTORE PUSH1 0x20 ADD PUSH1 0x0 KECCAK256 PUSH1 0x2 ADD PUSH1 0x8 PUSH1 0x0 DUP12 PUSH20 0xFFFFFFFFFFFFFFFFFFFFFFFFFFFFFFFFFFFFFFFF AND PUSH20 0xFFFFFFFFFFFFFFFFFFFFFFFFFFFFFFFFFFFFFFFF AND DUP2 MSTORE PUSH1 0x20 ADD SWAP1 DUP2 MSTORE PUSH1 0x20 ADD PUSH1 0x0 KECCAK256 PUSH1 0x0 ADD SLOAD PUSH1 0x8 PUSH1 0x0 DUP13 PUSH20 0xFFFFFFFFFFFFFFFFFFFFFFFFFFFFFFFFFFFFFFFF AND PUSH20 0xFFFFFFFFFFFFFFFFFFFFFFFFFFFFFFFFFFFFFFFF AND DUP2 MSTORE PUSH1 0x20 ADD SWAP1 DUP2 MSTORE PUSH1 0x20 ADD PUSH1 0x0 KECCAK256 PUSH1 0x3 ADD PUSH1 0x8 PUSH1 0x0 DUP14 PUSH20 0xFFFFFFFFFFFFFFFFFFFFFFFFFFFFFFFFFFFFFFFF AND PUSH20 0xFFFFFFFFFFFFFFFFFFFFFFFFFFFFFFFFFFFFFFFF AND DUP2 MSTORE PUSH1 0x20 ADD SWAP1 DUP2 MSTORE PUSH1 0x20 ADD PUSH1 0x0 KECCAK256 PUSH1 0x4 ADD SLOAD PUSH1 0x8 PUSH1 0x0 DUP15 PUSH20 0xFFFFFFFFFFFFFFFFFFFFFFFFFFFFFFFFFFFFFFFF AND PUSH20 0xFFFFFFFFFFFFFFFFFFFFFFFFFFFFFFFFFFFFFFFF AND DUP2 MSTORE PUSH1 0x20 ADD SWAP1 DUP2 MSTORE PUSH1 0x20 ADD PUSH1 0x0 KECCAK256 PUSH1 0x6 ADD PUSH1 0x8 PUSH1 0x0 DUP16 PUSH20 0xFFFFFFFFFFFFFFFFFFFFFFFFFFFFFFFFFFFFFFFF AND PUSH20 0xFFFFFFFFFFFFFFFFFFFFFFFFFFFFFFFFFFFFFFFF AND DUP2 MSTORE PUSH1 0x20 ADD SWAP1 DUP2 MSTORE PUSH1 0x20 ADD PUSH1 0x0 KECCAK256 PUSH1 0x5 ADD PUSH1 0x0 SWAP1 SLOAD SWAP1 PUSH2 0x100 EXP SWAP1 DIV PUSH20 0xFFFFFFFFFFFFFFFFFFFFFFFFFFFFFFFFFFFFFFFF AND DUP7 DUP1 SLOAD PUSH2 0x7A0 SWAP1 PUSH2 0x2B81 JUMP JUMPDEST DUP1 PUSH1 0x1F ADD PUSH1 0x20 DUP1 SWAP2 DIV MUL PUSH1 0x20 ADD PUSH1 0x40 MLOAD SWAP1 DUP2 ADD PUSH1 0x40 MSTORE DUP1 SWAP3 SWAP2 SWAP1 DUP2 DUP2 MSTORE PUSH1 0x20 ADD DUP3 DUP1 SLOAD PUSH2 0x7CC SWAP1 PUSH2 0x2B81 JUMP JUMPDEST DUP1 ISZERO PUSH2 0x819 JUMPI DUP1 PUSH1 0x1F LT PUSH2 0x7EE JUMPI PUSH2 0x100 DUP1 DUP4 SLOAD DIV MUL DUP4 MSTORE SWAP2 PUSH1 0x20 ADD SWAP2 PUSH2 0x819 JUMP JUMPDEST DUP3 ADD SWAP2 SWAP1 PUSH1 0x0 MSTORE PUSH1 0x20 PUSH1 0x0 KECCAK256 SWAP1 JUMPDEST DUP2 SLOAD DUP2 MSTORE SWAP1 PUSH1 0x1 ADD SWAP1 PUSH1 0x20 ADD DUP1 DUP4 GT PUSH2 0x7FC JUMPI DUP3 SWAP1 SUB PUSH1 0x1F AND DUP3 ADD SWAP2 JUMPDEST POP POP POP POP POP SWAP7 POP DUP6 DUP1 SLOAD PUSH2 0x82C SWAP1 PUSH2 0x2B81 JUMP JUMPDEST DUP1 PUSH1 0x1F ADD PUSH1 0x20 DUP1 SWAP2 DIV MUL PUSH1 0x20 ADD PUSH1 0x40 MLOAD SWAP1 DUP2 ADD PUSH1 0x40 MSTORE DUP1 SWAP3 SWAP2 SWAP1 DUP2 DUP2 MSTORE PUSH1 0x20 ADD DUP3 DUP1 SLOAD PUSH2 0x858 SWAP1 PUSH2 0x2B81 JUMP JUMPDEST DUP1 ISZERO PUSH2 0x8A5 JUMPI DUP1 PUSH1 0x1F LT PUSH2 0x87A JUMPI PUSH2 0x100 DUP1 DUP4 SLOAD DIV MUL DUP4 MSTORE SWAP2 PUSH1 0x20 ADD SWAP2 PUSH2 0x8A5 JUMP JUMPDEST DUP3 ADD SWAP2 SWAP1 PUSH1 0x0 MSTORE PUSH1 0x20 PUSH1 0x0 KECCAK256 SWAP1 JUMPDEST DUP2 SLOAD DUP2 MSTORE SWAP1 PUSH1 0x1 ADD SWAP1 PUSH1 0x20 ADD DUP1 DUP4 GT PUSH2 0x888 JUMPI DUP3 SWAP1 SUB PUSH1 0x1F AND DUP3 ADD SWAP2 JUMPDEST POP POP POP POP POP SWAP6 POP DUP4 DUP1 SLOAD PUSH2 0x8B8 SWAP1 PUSH2 0x2B81 JUMP JUMPDEST DUP1 PUSH1 0x1F ADD PUSH1 0x20 DUP1 SWAP2 DIV MUL PUSH1 0x20 ADD PUSH1 0x40 MLOAD SWAP1 DUP2 ADD PUSH1 0x40 MSTORE DUP1 SWAP3 SWAP2 SWAP1 DUP2 DUP2 MSTORE PUSH1 0x20 ADD DUP3 DUP1 SLOAD PUSH2 0x8E4 SWAP1 PUSH2 0x2B81 JUMP JUMPDEST DUP1 ISZERO PUSH2 0x931 JUMPI DUP1 PUSH1 0x1F LT PUSH2 0x906 JUMPI PUSH2 0x100 DUP1 DUP4 SLOAD DIV MUL DUP4 MSTORE SWAP2 PUSH1 0x20 ADD SWAP2 PUSH2 0x931 JUMP JUMPDEST DUP3 ADD SWAP2 SWAP1 PUSH1 0x0 MSTORE PUSH1 0x20 PUSH1 0x0 KECCAK256 SWAP1 JUMPDEST DUP2 SLOAD DUP2 MSTORE SWAP1 PUSH1 0x1 ADD SWAP1 PUSH1 0x20 ADD DUP1 DUP4 GT PUSH2 0x914 JUMPI DUP3 SWAP1 SUB PUSH1 0x1F AND DUP3 ADD SWAP2 JUMPDEST POP POP POP POP POP SWAP4 POP DUP2 DUP1 SLOAD PUSH2 0x944 SWAP1 PUSH2 0x2B81 JUMP JUMPDEST DUP1 PUSH1 0x1F ADD PUSH1 0x20 DUP1 SWAP2 DIV MUL PUSH1 0x20 ADD PUSH1 0x40 MLOAD SWAP1 DUP2 ADD PUSH1 0x40 MSTORE DUP1 SWAP3 SWAP2 SWAP1 DUP2 DUP2 MSTORE PUSH1 0x20 ADD DUP3 DUP1 SLOAD PUSH2 0x970 SWAP1 PUSH2 0x2B81 JUMP JUMPDEST DUP1 ISZERO PUSH2 0x9BD JUMPI DUP1 PUSH1 0x1F LT PUSH2 0x992 JUMPI PUSH2 0x100 DUP1 DUP4 SLOAD DIV MUL DUP4 MSTORE SWAP2 PUSH1 0x20 ADD SWAP2 PUSH2 0x9BD JUMP JUMPDEST DUP3 ADD SWAP2 SWAP1 PUSH1 0x0 MSTORE PUSH1 0x20 PUSH1 0x0 KECCAK256 SWAP1 JUMPDEST DUP2 SLOAD DUP2 MSTORE SWAP1 PUSH1 0x1 ADD SWAP1 PUSH1 0x20 ADD DUP1 DUP4 GT PUSH2 0x9A0 JUMPI DUP3 SWAP1 SUB PUSH1 0x1F AND DUP3 ADD SWAP2 JUMPDEST POP POP POP POP POP SWAP2 POP SWAP7 POP SWAP7 POP SWAP7 POP SWAP7 POP SWAP7 POP SWAP7 POP SWAP7 POP SWAP2 SWAP4 SWAP6 SWAP8 SWAP1 SWAP3 SWAP5 SWAP7 POP JUMP JUMPDEST PUSH1 0x7 DUP2 DUP2 SLOAD DUP2 LT PUSH2 0x9ED JUMPI PUSH1 0x0 DUP1 REVERT JUMPDEST SWAP1 PUSH1 0x0 MSTORE PUSH1 0x20 PUSH1 0x0 KECCAK256 ADD PUSH1 0x0 SWAP2 POP SLOAD SWAP1 PUSH2 0x100 EXP SWAP1 DIV PUSH20 0xFFFFFFFFFFFFFFFFFFFFFFFFFFFFFFFFFFFFFFFF AND DUP2 JUMP JUMPDEST PUSH1 0x4 PUSH1 0x0 SWAP1 SLOAD SWAP1 PUSH2 0x100 EXP SWAP1 DIV PUSH20 0xFFFFFFFFFFFFFFFFFFFFFFFFFFFFFFFFFFFFFFFF AND DUP2 JUMP JUMPDEST PUSH1 0xA DUP2 DUP2 SLOAD DUP2 LT PUSH2 0xA52 JUMPI PUSH1 0x0 DUP1 REVERT JUMPDEST SWAP1 PUSH1 0x0 MSTORE PUSH1 0x20 PUSH1 0x0 KECCAK256 ADD PUSH1 0x0 SWAP2 POP SLOAD SWAP1 PUSH2 0x100 EXP SWAP1 DIV PUSH20 0xFFFFFFFFFFFFFFFFFFFFFFFFFFFFFFFFFFFFFFFF AND DUP2 JUMP JUMPDEST PUSH2 0xA89 PUSH2 0x2253 JUMP JUMPDEST PUSH20 0xFFFFFFFFFFFFFFFFFFFFFFFFFFFFFFFFFFFFFFFF AND PUSH1 0x3 PUSH1 0x0 SWAP1 SLOAD SWAP1 PUSH2 0x100 EXP SWAP1 DIV PUSH20 0xFFFFFFFFFFFFFFFFFFFFFFFFFFFFFFFFFFFFFFFF AND PUSH20 0xFFFFFFFFFFFFFFFFFFFFFFFFFFFFFFFFFFFFFFFF AND EQ PUSH2 0xB18 JUMPI PUSH1 0x40 MLOAD PUSH32 0x8C379A000000000000000000000000000000000000000000000000000000000 DUP2 MSTORE PUSH1 0x4 ADD PUSH2 0xB0F SWAP1 PUSH2 0x2C24 JUMP JUMPDEST PUSH1 0x40 MLOAD DUP1 SWAP2 SUB SWAP1 REVERT JUMPDEST PUSH1 0x0 PUSH20 0xFFFFFFFFFFFFFFFFFFFFFFFFFFFFFFFFFFFFFFFF AND DUP2 PUSH20 0xFFFFFFFFFFFFFFFFFFFFFFFFFFFFFFFFFFFFFFFF AND SUB PUSH2 0xB87 JUMPI PUSH1 0x40 MLOAD PUSH32 0x8C379A000000000000000000000000000000000000000000000000000000000 DUP2 MSTORE PUSH1 0x4 ADD PUSH2 0xB7E SWAP1 PUSH2 0x2C90 JUMP JUMPDEST PUSH1 0x40 MLOAD DUP1 SWAP2 SUB SWAP1 REVERT JUMPDEST PUSH1 0x0 PUSH1 0x4 PUSH1 0x0 SWAP1 SLOAD SWAP1 PUSH2 0x100 EXP SWAP1 DIV PUSH20 0xFFFFFFFFFFFFFFFFFFFFFFFFFFFFFFFFFFFFFFFF AND SWAP1 POP DUP2 PUSH1 0x4 PUSH1 0x0 PUSH2 0x100 EXP DUP2 SLOAD DUP2 PUSH20 0xFFFFFFFFFFFFFFFFFFFFFFFFFFFFFFFFFFFFFFFF MUL NOT AND SWAP1 DUP4 PUSH20 0xFFFFFFFFFFFFFFFFFFFFFFFFFFFFFFFFFFFFFFFF AND MUL OR SWAP1 SSTORE POP PUSH32 0x18F08848C5694A025F9966C34FF2367F32A1A8275663B282EE01F4338B045490 DUP2 DUP4 PUSH1 0x40 MLOAD PUSH2 0xC20 SWAP3 SWAP2 SWAP1 PUSH2 0x2CB0 JUMP JUMPDEST PUSH1 0x40 MLOAD DUP1 SWAP2 SUB SWAP1 LOG1 POP POP JUMP JUMPDEST PUSH1 0x0 PUSH2 0xC36 PUSH2 0xD5E JUMP JUMPDEST PUSH20 0xFFFFFFFFFFFFFFFFFFFFFFFFFFFFFFFFFFFFFFFF AND DUP3 PUSH20 0xFFFFFFFFFFFFFFFFFFFFFFFFFFFFFFFFFFFFFFFF AND EQ SWAP1 POP SWAP2 SWAP1 POP JUMP JUMPDEST PUSH1 0x3 PUSH1 0x0 SWAP1 SLOAD SWAP1 PUSH2 0x100 EXP SWAP1 DIV PUSH20 0xFFFFFFFFFFFFFFFFFFFFFFFFFFFFFFFFFFFFFFFF AND DUP2 JUMP JUMPDEST PUSH1 0x60 PUSH1 0x7 DUP1 SLOAD DUP1 PUSH1 0x20 MUL PUSH1 0x20 ADD PUSH1 0x40 MLOAD SWAP1 DUP2 ADD PUSH1 0x40 MSTORE DUP1 SWAP3 SWAP2 SWAP1 DUP2 DUP2 MSTORE PUSH1 0x20 ADD DUP3 DUP1 SLOAD DUP1 ISZERO PUSH2 0xD15 JUMPI PUSH1 0x20 MUL DUP3 ADD SWAP2 SWAP1 PUSH1 0x0 MSTORE PUSH1 0x20 PUSH1 0x0 KECCAK256 SWAP1 JUMPDEST DUP2 PUSH1 0x0 SWAP1 SLOAD SWAP1 PUSH2 0x100 EXP SWAP1 DIV PUSH20 0xFFFFFFFFFFFFFFFFFFFFFFFFFFFFFFFFFFFFFFFF AND PUSH20 0xFFFFFFFFFFFFFFFFFFFFFFFFFFFFFFFFFFFFFFFF AND DUP2 MSTORE PUSH1 0x20 ADD SWAP1 PUSH1 0x1 ADD SWAP1 DUP1 DUP4 GT PUSH2 0xCCB JUMPI JUMPDEST POP POP POP POP POP SWAP1 POP SWAP1 JUMP JUMPDEST PUSH1 0x9 DUP2 DUP2 SLOAD DUP2 LT PUSH2 0xD2F JUMPI PUSH1 0x0 DUP1 REVERT JUMPDEST SWAP1 PUSH1 0x0 MSTORE PUSH1 0x20 PUSH1 0x0 KECCAK256 ADD PUSH1 0x0 SWAP2 POP SLOAD SWAP1 PUSH2 0x100 EXP SWAP1 DIV PUSH20 0xFFFFFFFFFFFFFFFFFFFFFFFFFFFFFFFFFFFFFFFF AND DUP2 JUMP JUMPDEST PUSH1 0x0 PUSH32 0x0 SWAP1 POP SWAP1 JUMP JUMPDEST PUSH1 0x60 PUSH1 0x7 DUP1 SLOAD DUP1 PUSH1 0x20 MUL PUSH1 0x20 ADD PUSH1 0x40 MLOAD SWAP1 DUP2 ADD PUSH1 0x40 MSTORE DUP1 SWAP3 SWAP2 SWAP1 DUP2 DUP2 MSTORE PUSH1 0x20 ADD DUP3 DUP1 SLOAD DUP1 ISZERO PUSH2 0xE0A JUMPI PUSH1 0x20 MUL DUP3 ADD SWAP2 SWAP1 PUSH1 0x0 MSTORE PUSH1 0x20 PUSH1 0x0 KECCAK256 SWAP1 JUMPDEST DUP2 PUSH1 0x0 SWAP1 SLOAD SWAP1 PUSH2 0x100 EXP SWAP1 DIV PUSH20 0xFFFFFFFFFFFFFFFFFFFFFFFFFFFFFFFFFFFFFFFF AND PUSH20 0xFFFFFFFFFFFFFFFFFFFFFFFFFFFFFFFFFFFFFFFF AND DUP2 MSTORE PUSH1 0x20 ADD SWAP1 PUSH1 0x1 ADD SWAP1 DUP1 DUP4 GT PUSH2 0xDC0 JUMPI JUMPDEST POP POP POP POP POP SWAP1 POP SWAP1 JUMP JUMPDEST PUSH2 0xE1C PUSH2 0x2253 JUMP JUMPDEST PUSH20 0xFFFFFFFFFFFFFFFFFFFFFFFFFFFFFFFFFFFFFFFF AND PUSH1 0x3 PUSH1 0x0 SWAP1 SLOAD SWAP1 PUSH2 0x100 EXP SWAP1 DIV PUSH20 0xFFFFFFFFFFFFFFFFFFFFFFFFFFFFFFFFFFFFFFFF AND PUSH20 0xFFFFFFFFFFFFFFFFFFFFFFFFFFFFFFFFFFFFFFFF AND EQ PUSH2 0xEAB JUMPI PUSH1 0x40 MLOAD PUSH32 0x8C379A000000000000000000000000000000000000000000000000000000000 DUP2 MSTORE PUSH1 0x4 ADD PUSH2 0xEA2 SWAP1 PUSH2 0x2D4B JUMP JUMPDEST PUSH1 0x40 MLOAD DUP1 SWAP2 SUB SWAP1 REVERT JUMPDEST PUSH1 0x2 SLOAD PUSH1 0x5 PUSH1 0x0 DUP7 PUSH20 0xFFFFFFFFFFFFFFFFFFFFFFFFFFFFFFFFFFFFFFFF AND PUSH20 0xFFFFFFFFFFFFFFFFFFFFFFFFFFFFFFFFFFFFFFFF AND DUP2 MSTORE PUSH1 0x20 ADD SWAP1 DUP2 MSTORE PUSH1 0x20 ADD PUSH1 0x0 KECCAK256 SLOAD LT PUSH2 0xF2E JUMPI PUSH1 0x40 MLOAD PUSH32 0x8C379A000000000000000000000000000000000000000000000000000000000 DUP2 MSTORE PUSH1 0x4 ADD PUSH2 0xF25 SWAP1 PUSH2 0x2DDD JUMP JUMPDEST PUSH1 0x40 MLOAD DUP1 SWAP2 SUB SWAP1 REVERT JUMPDEST PUSH1 0x0 DUP1 DUP2 SLOAD DUP1 SWAP3 SWAP2 SWAP1 PUSH2 0xF40 SWAP1 PUSH2 0x2E2C JUMP JUMPDEST SWAP2 SWAP1 POP SSTORE POP PUSH1 0x0 DUP1 SLOAD SWAP1 POP PUSH1 0x0 PUSH1 0xB PUSH1 0x0 DUP8 PUSH20 0xFFFFFFFFFFFFFFFFFFFFFFFFFFFFFFFFFFFFFFFF AND PUSH20 0xFFFFFFFFFFFFFFFFFFFFFFFFFFFFFFFFFFFFFFFF AND DUP2 MSTORE PUSH1 0x20 ADD SWAP1 DUP2 MSTORE PUSH1 0x20 ADD PUSH1 0x0 KECCAK256 SWAP1 POP DUP2 DUP2 PUSH1 0x0 ADD DUP2 SWAP1 SSTORE POP DUP5 DUP2 PUSH1 0x1 ADD SWAP1 DUP2 PUSH2 0xFA8 SWAP2 SWAP1 PUSH2 0x3020 JUMP JUMPDEST POP DUP4 DUP2 PUSH1 0x2 ADD SWAP1 DUP2 PUSH2 0xFBA SWAP2 SWAP1 PUSH2 0x3020 JUMP JUMPDEST POP DUP6 DUP2 PUSH1 0x3 ADD PUSH1 0x0 PUSH2 0x100 EXP DUP2 SLOAD DUP2 PUSH20 0xFFFFFFFFFFFFFFFFFFFFFFFFFFFFFFFFFFFFFFFF MUL NOT AND SWAP1 DUP4 PUSH20 0xFFFFFFFFFFFFFFFFFFFFFFFFFFFFFFFFFFFFFFFF AND MUL OR SWAP1 SSTORE POP PUSH1 0x1 DUP2 PUSH1 0x4 ADD DUP2 SWAP1 SSTORE POP PUSH1 0x0 DUP2 PUSH1 0x5 ADD PUSH1 0x0 PUSH2 0x100 EXP DUP2 SLOAD DUP2 PUSH1 0xFF MUL NOT AND SWAP1 DUP4 ISZERO ISZERO MUL OR SWAP1 SSTORE POP PUSH2 0x3E8 DUP2 PUSH1 0x6 ADD DUP2 SWAP1 SSTORE POP DUP3 DUP2 PUSH1 0x7 ADD SWAP1 DUP2 PUSH2 0x1041 SWAP2 SWAP1 PUSH2 0x3020 JUMP JUMPDEST POP PUSH1 0xA DUP7 SWAP1 DUP1 PUSH1 0x1 DUP2 SLOAD ADD DUP1 DUP3 SSTORE DUP1 SWAP2 POP POP PUSH1 0x1 SWAP1 SUB SWAP1 PUSH1 0x0 MSTORE PUSH1 0x20 PUSH1 0x0 KECCAK256 ADD PUSH1 0x0 SWAP1 SWAP2 SWAP1 SWAP2 SWAP1 SWAP2 PUSH2 0x100 EXP DUP2 SLOAD DUP2 PUSH20 0xFFFFFFFFFFFFFFFFFFFFFFFFFFFFFFFFFFFFFFFF MUL NOT AND SWAP1 DUP4 PUSH20 0xFFFFFFFFFFFFFFFFFFFFFFFFFFFFFFFFFFFFFFFF AND MUL OR SWAP1 SSTORE POP PUSH1 0x2 SLOAD PUSH1 0x5 PUSH1 0x0 DUP9 PUSH20 0xFFFFFFFFFFFFFFFFFFFFFFFFFFFFFFFFFFFFFFFF AND PUSH20 0xFFFFFFFFFFFFFFFFFFFFFFFFFFFFFFFFFFFFFFFF AND DUP2 MSTORE PUSH1 0x20 ADD SWAP1 DUP2 MSTORE PUSH1 0x20 ADD PUSH1 0x0 KECCAK256 DUP2 SWAP1 SSTORE POP DUP2 PUSH32 0xF5F39971DD62D9929E3A9FEAA6BB77FE7C7DA0001BABFF8A65A7E51AD0201C19 DUP7 DUP7 DUP10 DUP6 PUSH1 0x4 ADD SLOAD DUP7 PUSH1 0x5 ADD PUSH1 0x0 SWAP1 SLOAD SWAP1 PUSH2 0x100 EXP SWAP1 DIV PUSH1 0xFF AND DUP8 PUSH1 0x6 ADD SLOAD DUP11 PUSH1 0x40 MLOAD PUSH2 0x1140 SWAP8 SWAP7 SWAP6 SWAP5 SWAP4 SWAP3 SWAP2 SWAP1 PUSH2 0x30F2 JUMP JUMPDEST PUSH1 0x40 MLOAD DUP1 SWAP2 SUB SWAP1 LOG2 PUSH32 0xB6BE2187D059CC2A55FE29E0E503B566E1E0F8C8780096E185429350ACFFD3DD DUP7 PUSH1 0x40 MLOAD PUSH2 0x1177 SWAP2 SWAP1 PUSH2 0x2564 JUMP JUMPDEST PUSH1 0x40 MLOAD DUP1 SWAP2 SUB SWAP1 LOG1 POP POP POP POP POP POP JUMP JUMPDEST PUSH1 0x8 PUSH1 0x20 MSTORE DUP1 PUSH1 0x0 MSTORE PUSH1 0x40 PUSH1 0x0 KECCAK256 PUSH1 0x0 SWAP2 POP SWAP1 POP DUP1 PUSH1 0x0 ADD SLOAD SWAP1 DUP1 PUSH1 0x1 ADD DUP1 SLOAD PUSH2 0x11B0 SWAP1 PUSH2 0x2B81 JUMP JUMPDEST DUP1 PUSH1 0x1F ADD PUSH1 0x20 DUP1 SWAP2 DIV MUL PUSH1 0x20 ADD PUSH1 0x40 MLOAD SWAP1 DUP2 ADD PUSH1 0x40 MSTORE DUP1 SWAP3 SWAP2 SWAP1 DUP2 DUP2 MSTORE PUSH1 0x20 ADD DUP3 DUP1 SLOAD PUSH2 0x11DC SWAP1 PUSH2 0x2B81 JUMP JUMPDEST DUP1 ISZERO PUSH2 0x1229 JUMPI DUP1 PUSH1 0x1F LT PUSH2 0x11FE JUMPI PUSH2 0x100 DUP1 DUP4 SLOAD DIV MUL DUP4 MSTORE SWAP2 PUSH1 0x20 ADD SWAP2 PUSH2 0x1229 JUMP JUMPDEST DUP3 ADD SWAP2 SWAP1 PUSH1 0x0 MSTORE PUSH1 0x20 PUSH1 0x0 KECCAK256 SWAP1 JUMPDEST DUP2 SLOAD DUP2 MSTORE SWAP1 PUSH1 0x1 ADD SWAP1 PUSH1 0x20 ADD DUP1 DUP4 GT PUSH2 0x120C JUMPI DUP3 SWAP1 SUB PUSH1 0x1F AND DUP3 ADD SWAP2 JUMPDEST POP POP POP POP POP SWAP1 DUP1 PUSH1 0x2 ADD DUP1 SLOAD PUSH2 0x123E SWAP1 PUSH2 0x2B81 JUMP JUMPDEST DUP1 PUSH1 0x1F ADD PUSH1 0x20 DUP1 SWAP2 DIV MUL PUSH1 0x20 ADD PUSH1 0x40 MLOAD SWAP1 DUP2 ADD PUSH1 0x40 MSTORE DUP1 SWAP3 SWAP2 SWAP1 DUP2 DUP2 MSTORE PUSH1 0x20 ADD DUP3 DUP1 SLOAD PUSH2 0x126A SWAP1 PUSH2 0x2B81 JUMP JUMPDEST DUP1 ISZERO PUSH2 0x12B7 JUMPI DUP1 PUSH1 0x1F LT PUSH2 0x128C JUMPI PUSH2 0x100 DUP1 DUP4 SLOAD DIV MUL DUP4 MSTORE SWAP2 PUSH1 0x20 ADD SWAP2 PUSH2 0x12B7 JUMP JUMPDEST DUP3 ADD SWAP2 SWAP1 PUSH1 0x0 MSTORE PUSH1 0x20 PUSH1 0x0 KECCAK256 SWAP1 JUMPDEST DUP2 SLOAD DUP2 MSTORE SWAP1 PUSH1 0x1 ADD SWAP1 PUSH1 0x20 ADD DUP1 DUP4 GT PUSH2 0x129A JUMPI DUP3 SWAP1 SUB PUSH1 0x1F AND DUP3 ADD SWAP2 JUMPDEST POP POP POP POP POP SWAP1 DUP1 PUSH1 0x3 ADD DUP1 SLOAD PUSH2 0x12CC SWAP1 PUSH2 0x2B81 JUMP JUMPDEST DUP1 PUSH1 0x1F ADD PUSH1 0x20 DUP1 SWAP2 DIV MUL PUSH1 0x20 ADD PUSH1 0x40 MLOAD SWAP1 DUP2 ADD PUSH1 0x40 MSTORE DUP1 SWAP3 SWAP2 SWAP1 DUP2 DUP2 MSTORE PUSH1 0x20 ADD DUP3 DUP1 SLOAD PUSH2 0x12F8 SWAP1 PUSH2 0x2B81 JUMP JUMPDEST DUP1 ISZERO PUSH2 0x1345 JUMPI DUP1 PUSH1 0x1F LT PUSH2 0x131A JUMPI PUSH2 0x100 DUP1 DUP4 SLOAD DIV MUL DUP4 MSTORE SWAP2 PUSH1 0x20 ADD SWAP2 PUSH2 0x1345 JUMP JUMPDEST DUP3 ADD SWAP2 SWAP1 PUSH1 0x0 MSTORE PUSH1 0x20 PUSH1 0x0 KECCAK256 SWAP1 JUMPDEST DUP2 SLOAD DUP2 MSTORE SWAP1 PUSH1 0x1 ADD SWAP1 PUSH1 0x20 ADD DUP1 DUP4 GT PUSH2 0x1328 JUMPI DUP3 SWAP1 SUB PUSH1 0x1F AND DUP3 ADD SWAP2 JUMPDEST POP POP POP POP POP SWAP1 DUP1 PUSH1 0x4 ADD SLOAD SWAP1 DUP1 PUSH1 0x5 ADD PUSH1 0x0 SWAP1 SLOAD SWAP1 PUSH2 0x100 EXP SWAP1 DIV PUSH20 0xFFFFFFFFFFFFFFFFFFFFFFFFFFFFFFFFFFFFFFFF AND SWAP1 DUP1 PUSH1 0x6 ADD DUP1 SLOAD PUSH2 0x1386 SWAP1 PUSH2 0x2B81 JUMP JUMPDEST DUP1 PUSH1 0x1F ADD PUSH1 0x20 DUP1 SWAP2 DIV MUL PUSH1 0x20 ADD PUSH1 0x40 MLOAD SWAP1 DUP2 ADD PUSH1 0x40 MSTORE DUP1 SWAP3 SWAP2 SWAP1 DUP2 DUP2 MSTORE PUSH1 0x20 ADD DUP3 DUP1 SLOAD PUSH2 0x13B2 SWAP1 PUSH2 0x2B81 JUMP JUMPDEST DUP1 ISZERO PUSH2 0x13FF JUMPI DUP1 PUSH1 0x1F LT PUSH2 0x13D4 JUMPI PUSH2 0x100 DUP1 DUP4 SLOAD DIV MUL DUP4 MSTORE SWAP2 PUSH1 0x20 ADD SWAP2 PUSH2 0x13FF JUMP JUMPDEST DUP3 ADD SWAP2 SWAP1 PUSH1 0x0 MSTORE PUSH1 0x20 PUSH1 0x0 KECCAK256 SWAP1 JUMPDEST DUP2 SLOAD DUP2 MSTORE SWAP1 PUSH1 0x1 ADD SWAP1 PUSH1 0x20 ADD DUP1 DUP4 GT PUSH2 0x13E2 JUMPI DUP3 SWAP1 SUB PUSH1 0x1F AND DUP3 ADD SWAP2 JUMPDEST POP POP POP POP POP SWAP1 POP DUP8 JUMP JUMPDEST PUSH1 0x60 PUSH1 0x9 DUP1 SLOAD DUP1 PUSH1 0x20 MUL PUSH1 0x20 ADD PUSH1 0x40 MLOAD SWAP1 DUP2 ADD PUSH1 0x40 MSTORE DUP1 SWAP3 SWAP2 SWAP1 DUP2 DUP2 MSTORE PUSH1 0x20 ADD DUP3 DUP1 SLOAD DUP1 ISZERO PUSH2 0x148D JUMPI PUSH1 0x20 MUL DUP3 ADD SWAP2 SWAP1 PUSH1 0x0 MSTORE PUSH1 0x20 PUSH1 0x0 KECCAK256 SWAP1 JUMPDEST DUP2 PUSH1 0x0 SWAP1 SLOAD SWAP1 PUSH2 0x100 EXP SWAP1 DIV PUSH20 0xFFFFFFFFFFFFFFFFFFFFFFFFFFFFFFFFFFFFFFFF AND PUSH20 0xFFFFFFFFFFFFFFFFFFFFFFFFFFFFFFFFFFFFFFFF AND DUP2 MSTORE PUSH1 0x20 ADD SWAP1 PUSH1 0x1 ADD SWAP1 DUP1 DUP4 GT PUSH2 0x1443 JUMPI JUMPDEST POP POP POP POP POP SWAP1 POP SWAP1 JUMP JUMPDEST PUSH1 0x0 PUSH1 0x60 DUP1 PUSH1 0x0 PUSH1 0x60 PUSH1 0x0 DUP1 PUSH1 0xB PUSH1 0x0 DUP10 PUSH20 0xFFFFFFFFFFFFFFFFFFFFFFFFFFFFFFFFFFFFFFFF AND PUSH20 0xFFFFFFFFFFFFFFFFFFFFFFFFFFFFFFFFFFFFFFFF AND DUP2 MSTORE PUSH1 0x20 ADD SWAP1 DUP2 MSTORE PUSH1 0x20 ADD PUSH1 0x0 KECCAK256 PUSH1 0x0 ADD SLOAD PUSH1 0xB PUSH1 0x0 DUP11 PUSH20 0xFFFFFFFFFFFFFFFFFFFFFFFFFFFFFFFFFFFFFFFF AND PUSH20 0xFFFFFFFFFFFFFFFFFFFFFFFFFFFFFFFFFFFFFFFF AND DUP2 MSTORE PUSH1 0x20 ADD SWAP1 DUP2 MSTORE PUSH1 0x20 ADD PUSH1 0x0 KECCAK256 PUSH1 0x1 ADD PUSH1 0xB PUSH1 0x0 DUP12 PUSH20 0xFFFFFFFFFFFFFFFFFFFFFFFFFFFFFFFFFFFFFFFF AND PUSH20 0xFFFFFFFFFFFFFFFFFFFFFFFFFFFFFFFFFFFFFFFF AND DUP2 MSTORE PUSH1 0x20 ADD SWAP1 DUP2 MSTORE PUSH1 0x20 ADD PUSH1 0x0 KECCAK256 PUSH1 0x2 ADD PUSH1 0xB PUSH1 0x0 DUP13 PUSH20 0xFFFFFFFFFFFFFFFFFFFFFFFFFFFFFFFFFFFFFFFF AND PUSH20 0xFFFFFFFFFFFFFFFFFFFFFFFFFFFFFFFFFFFFFFFF AND DUP2 MSTORE PUSH1 0x20 ADD SWAP1 DUP2 MSTORE PUSH1 0x20 ADD PUSH1 0x0 KECCAK256 PUSH1 0x3 ADD PUSH1 0x0 SWAP1 SLOAD SWAP1 PUSH2 0x100 EXP SWAP1 DIV PUSH20 0xFFFFFFFFFFFFFFFFFFFFFFFFFFFFFFFFFFFFFFFF AND PUSH1 0xB PUSH1 0x0 DUP14 PUSH20 0xFFFFFFFFFFFFFFFFFFFFFFFFFFFFFFFFFFFFFFFF AND PUSH20 0xFFFFFFFFFFFFFFFFFFFFFFFFFFFFFFFFFFFFFFFF AND DUP2 MSTORE PUSH1 0x20 ADD SWAP1 DUP2 MSTORE PUSH1 0x20 ADD PUSH1 0x0 KECCAK256 PUSH1 0x7 ADD PUSH1 0xB PUSH1 0x0 DUP15 PUSH20 0xFFFFFFFFFFFFFFFFFFFFFFFFFFFFFFFFFFFFFFFF AND PUSH20 0xFFFFFFFFFFFFFFFFFFFFFFFFFFFFFFFFFFFFFFFF AND DUP2 MSTORE PUSH1 0x20 ADD SWAP1 DUP2 MSTORE PUSH1 0x20 ADD PUSH1 0x0 KECCAK256 PUSH1 0x5 ADD PUSH1 0x0 SWAP1 SLOAD SWAP1 PUSH2 0x100 EXP SWAP1 DIV PUSH1 0xFF AND PUSH1 0xB PUSH1 0x0 DUP16 PUSH20 0xFFFFFFFFFFFFFFFFFFFFFFFFFFFFFFFFFFFFFFFF AND PUSH20 0xFFFFFFFFFFFFFFFFFFFFFFFFFFFFFFFFFFFFFFFF AND DUP2 MSTORE PUSH1 0x20 ADD SWAP1 DUP2 MSTORE PUSH1 0x20 ADD PUSH1 0x0 KECCAK256 PUSH1 0x4 ADD SLOAD DUP6 DUP1 SLOAD PUSH2 0x16AE SWAP1 PUSH2 0x2B81 JUMP JUMPDEST DUP1 PUSH1 0x1F ADD PUSH1 0x20 DUP1 SWAP2 DIV MUL PUSH1 0x20 ADD PUSH1 0x40 MLOAD SWAP1 DUP2 ADD PUSH1 0x40 MSTORE DUP1 SWAP3 SWAP2 SWAP1 DUP2 DUP2 MSTORE PUSH1 0x20 ADD DUP3 DUP1 SLOAD PUSH2 0x16DA SWAP1 PUSH2 0x2B81 JUMP JUMPDEST DUP1 ISZERO PUSH2 0x1727 JUMPI DUP1 PUSH1 0x1F LT PUSH2 0x16FC JUMPI PUSH2 0x100 DUP1 DUP4 SLOAD DIV MUL DUP4 MSTORE SWAP2 PUSH1 0x20 ADD SWAP2 PUSH2 0x1727 JUMP JUMPDEST DUP3 ADD SWAP2 SWAP1 PUSH1 0x0 MSTORE PUSH1 0x20 PUSH1 0x0 KECCAK256 SWAP1 JUMPDEST DUP2 SLOAD DUP2 MSTORE SWAP1 PUSH1 0x1 ADD SWAP1 PUSH1 0x20 ADD DUP1 DUP4 GT PUSH2 0x170A JUMPI DUP3 SWAP1 SUB PUSH1 0x1F AND DUP3 ADD SWAP2 JUMPDEST POP POP POP POP POP SWAP6 POP DUP5 DUP1 SLOAD PUSH2 0x173A SWAP1 PUSH2 0x2B81 JUMP JUMPDEST DUP1 PUSH1 0x1F ADD PUSH1 0x20 DUP1 SWAP2 DIV MUL PUSH1 0x20 ADD PUSH1 0x40 MLOAD SWAP1 DUP2 ADD PUSH1 0x40 MSTORE DUP1 SWAP3 SWAP2 SWAP1 DUP2 DUP2 MSTORE PUSH1 0x20 ADD DUP3 DUP1 SLOAD PUSH2 0x1766 SWAP1 PUSH2 0x2B81 JUMP JUMPDEST DUP1 ISZERO PUSH2 0x17B3 JUMPI DUP1 PUSH1 0x1F LT PUSH2 0x1788 JUMPI PUSH2 0x100 DUP1 DUP4 SLOAD DIV MUL DUP4 MSTORE SWAP2 PUSH1 0x20 ADD SWAP2 PUSH2 0x17B3 JUMP JUMPDEST DUP3 ADD SWAP2 SWAP1 PUSH1 0x0 MSTORE PUSH1 0x20 PUSH1 0x0 KECCAK256 SWAP1 JUMPDEST DUP2 SLOAD DUP2 MSTORE SWAP1 PUSH1 0x1 ADD SWAP1 PUSH1 0x20 ADD DUP1 DUP4 GT PUSH2 0x1796 JUMPI DUP3 SWAP1 SUB PUSH1 0x1F AND DUP3 ADD SWAP2 JUMPDEST POP POP POP POP POP SWAP5 POP DUP3 DUP1 SLOAD PUSH2 0x17C6 SWAP1 PUSH2 0x2B81 JUMP JUMPDEST DUP1 PUSH1 0x1F ADD PUSH1 0x20 DUP1 SWAP2 DIV MUL PUSH1 0x20 ADD PUSH1 0x40 MLOAD SWAP1 DUP2 ADD PUSH1 0x40 MSTORE DUP1 SWAP3 SWAP2 SWAP1 DUP2 DUP2 MSTORE PUSH1 0x20 ADD DUP3 DUP1 SLOAD PUSH2 0x17F2 SWAP1 PUSH2 0x2B81 JUMP JUMPDEST DUP1 ISZERO PUSH2 0x183F JUMPI DUP1 PUSH1 0x1F LT PUSH2 0x1814 JUMPI PUSH2 0x100 DUP1 DUP4 SLOAD DIV MUL DUP4 MSTORE SWAP2 PUSH1 0x20 ADD SWAP2 PUSH2 0x183F JUMP JUMPDEST DUP3 ADD SWAP2 SWAP1 PUSH1 0x0 MSTORE PUSH1 0x20 PUSH1 0x0 KECCAK256 SWAP1 JUMPDEST DUP2 SLOAD DUP2 MSTORE SWAP1 PUSH1 0x1 ADD SWAP1 PUSH1 0x20 ADD DUP1 DUP4 GT PUSH2 0x1822 JUMPI DUP3 SWAP1 SUB PUSH1 0x1F AND DUP3 ADD SWAP2 JUMPDEST POP POP POP POP POP SWAP3 POP SWAP7 POP SWAP7 POP SWAP7 POP SWAP7 POP SWAP7 POP SWAP7 POP SWAP7 POP SWAP2 SWAP4 SWAP6 SWAP8 SWAP1 SWAP3 SWAP5 SWAP7 POP JUMP JUMPDEST PUSH1 0x6 PUSH1 0x20 MSTORE DUP1 PUSH1 0x0 MSTORE PUSH1 0x40 PUSH1 0x0 KECCAK256 PUSH1 0x0 SWAP2 POP SWAP1 POP SLOAD DUP2 JUMP JUMPDEST PUSH1 0xB PUSH1 0x20 MSTORE DUP1 PUSH1 0x0 MSTORE PUSH1 0x40 PUSH1 0x0 KECCAK256 PUSH1 0x0 SWAP2 POP SWAP1 POP DUP1 PUSH1 0x0 ADD SLOAD SWAP1 DUP1 PUSH1 0x1 ADD DUP1 SLOAD PUSH2 0x18A0 SWAP1 PUSH2 0x2B81 JUMP JUMPDEST DUP1 PUSH1 0x1F ADD PUSH1 0x20 DUP1 SWAP2 DIV MUL PUSH1 0x20 ADD PUSH1 0x40 MLOAD SWAP1 DUP2 ADD PUSH1 0x40 MSTORE DUP1 SWAP3 SWAP2 SWAP1 DUP2 DUP2 MSTORE PUSH1 0x20 ADD DUP3 DUP1 SLOAD PUSH2 0x18CC SWAP1 PUSH2 0x2B81 JUMP JUMPDEST DUP1 ISZERO PUSH2 0x1919 JUMPI DUP1 PUSH1 0x1F LT PUSH2 0x18EE JUMPI PUSH2 0x100 DUP1 DUP4 SLOAD DIV MUL DUP4 MSTORE SWAP2 PUSH1 0x20 ADD SWAP2 PUSH2 0x1919 JUMP JUMPDEST DUP3 ADD SWAP2 SWAP1 PUSH1 0x0 MSTORE PUSH1 0x20 PUSH1 0x0 KECCAK256 SWAP1 JUMPDEST DUP2 SLOAD DUP2 MSTORE SWAP1 PUSH1 0x1 ADD SWAP1 PUSH1 0x20 ADD DUP1 DUP4 GT PUSH2 0x18FC JUMPI DUP3 SWAP1 SUB PUSH1 0x1F AND DUP3 ADD SWAP2 JUMPDEST POP POP POP POP POP SWAP1 DUP1 PUSH1 0x2 ADD DUP1 SLOAD PUSH2 0x192E SWAP1 PUSH2 0x2B81 JUMP JUMPDEST DUP1 PUSH1 0x1F ADD PUSH1 0x20 DUP1 SWAP2 DIV MUL PUSH1 0x20 ADD PUSH1 0x40 MLOAD SWAP1 DUP2 ADD PUSH1 0x40 MSTORE DUP1 SWAP3 SWAP2 SWAP1 DUP2 DUP2 MSTORE PUSH1 0x20 ADD DUP3 DUP1 SLOAD PUSH2 0x195A SWAP1 PUSH2 0x2B81 JUMP JUMPDEST DUP1 ISZERO PUSH2 0x19A7 JUMPI DUP1 PUSH1 0x1F LT PUSH2 0x197C JUMPI PUSH2 0x100 DUP1 DUP4 SLOAD DIV MUL DUP4 MSTORE SWAP2 PUSH1 0x20 ADD SWAP2 PUSH2 0x19A7 JUMP JUMPDEST DUP3 ADD SWAP2 SWAP1 PUSH1 0x0 MSTORE PUSH1 0x20 PUSH1 0x0 KECCAK256 SWAP1 JUMPDEST DUP2 SLOAD DUP2 MSTORE SWAP1 PUSH1 0x1 ADD SWAP1 PUSH1 0x20 ADD DUP1 DUP4 GT PUSH2 0x198A JUMPI DUP3 SWAP1 SUB PUSH1 0x1F AND DUP3 ADD SWAP2 JUMPDEST POP POP POP POP POP SWAP1 DUP1 PUSH1 0x3 ADD PUSH1 0x0 SWAP1 SLOAD SWAP1 PUSH2 0x100 EXP SWAP1 DIV PUSH20 0xFFFFFFFFFFFFFFFFFFFFFFFFFFFFFFFFFFFFFFFF AND SWAP1 DUP1 PUSH1 0x4 ADD SLOAD SWAP1 DUP1 PUSH1 0x5 ADD PUSH1 0x0 SWAP1 SLOAD SWAP1 PUSH2 0x100 EXP SWAP1 DIV PUSH1 0xFF AND SWAP1 DUP1 PUSH1 0x6 ADD SLOAD SWAP1 DUP1 PUSH1 0x7 ADD DUP1 SLOAD PUSH2 0x1A01 SWAP1 PUSH2 0x2B81 JUMP JUMPDEST DUP1 PUSH1 0x1F ADD PUSH1 0x20 DUP1 SWAP2 DIV MUL PUSH1 0x20 ADD PUSH1 0x40 MLOAD SWAP1 DUP2 ADD PUSH1 0x40 MSTORE DUP1 SWAP3 SWAP2 SWAP1 DUP2 DUP2 MSTORE PUSH1 0x20 ADD DUP3 DUP1 SLOAD PUSH2 0x1A2D SWAP1 PUSH2 0x2B81 JUMP JUMPDEST DUP1 ISZERO PUSH2 0x1A7A JUMPI DUP1 PUSH1 0x1F LT PUSH2 0x1A4F JUMPI PUSH2 0x100 DUP1 DUP4 SLOAD DIV MUL DUP4 MSTORE SWAP2 PUSH1 0x20 ADD SWAP2 PUSH2 0x1A7A JUMP JUMPDEST DUP3 ADD SWAP2 SWAP1 PUSH1 0x0 MSTORE PUSH1 0x20 PUSH1 0x0 KECCAK256 SWAP1 JUMPDEST DUP2 SLOAD DUP2 MSTORE SWAP1 PUSH1 0x1 ADD SWAP1 PUSH1 0x20 ADD DUP1 DUP4 GT PUSH2 0x1A5D JUMPI DUP3 SWAP1 SUB PUSH1 0x1F AND DUP3 ADD SWAP2 JUMPDEST POP POP POP POP POP SWAP1 POP DUP9 JUMP JUMPDEST PUSH1 0x1 SLOAD DUP2 JUMP JUMPDEST PUSH1 0x60 PUSH1 0xA DUP1 SLOAD DUP1 PUSH1 0x20 MUL PUSH1 0x20 ADD PUSH1 0x40 MLOAD SWAP1 DUP2 ADD PUSH1 0x40 MSTORE DUP1 SWAP3 SWAP2 SWAP1 DUP2 DUP2 MSTORE PUSH1 0x20 ADD DUP3 DUP1 SLOAD DUP1 ISZERO PUSH2 0x1B0E JUMPI PUSH1 0x20 MUL DUP3 ADD SWAP2 SWAP1 PUSH1 0x0 MSTORE PUSH1 0x20 PUSH1 0x0 KECCAK256 SWAP1 JUMPDEST DUP2 PUSH1 0x0 SWAP1 SLOAD SWAP1 PUSH2 0x100 EXP SWAP1 DIV PUSH20 0xFFFFFFFFFFFFFFFFFFFFFFFFFFFFFFFFFFFFFFFF AND PUSH20 0xFFFFFFFFFFFFFFFFFFFFFFFFFFFFFFFFFFFFFFFF AND DUP2 MSTORE PUSH1 0x20 ADD SWAP1 PUSH1 0x1 ADD SWAP1 DUP1 DUP4 GT PUSH2 0x1AC4 JUMPI JUMPDEST POP POP POP POP POP SWAP1 POP SWAP1 JUMP JUMPDEST PUSH1 0x0 SLOAD DUP2 JUMP JUMPDEST PUSH2 0x1B26 PUSH2 0x2253 JUMP JUMPDEST PUSH20 0xFFFFFFFFFFFFFFFFFFFFFFFFFFFFFFFFFFFFFFFF AND PUSH1 0x3 PUSH1 0x0 SWAP1 SLOAD SWAP1 PUSH2 0x100 EXP SWAP1 DIV PUSH20 0xFFFFFFFFFFFFFFFFFFFFFFFFFFFFFFFFFFFFFFFF AND PUSH20 0xFFFFFFFFFFFFFFFFFFFFFFFFFFFFFFFFFFFFFFFF AND EQ PUSH2 0x1BB5 JUMPI PUSH1 0x40 MLOAD PUSH32 0x8C379A000000000000000000000000000000000000000000000000000000000 DUP2 MSTORE PUSH1 0x4 ADD PUSH2 0x1BAC SWAP1 PUSH2 0x31E8 JUMP JUMPDEST PUSH1 0x40 MLOAD DUP1 SWAP2 SUB SWAP1 REVERT JUMPDEST PUSH1 0x2 SLOAD PUSH1 0x6 PUSH1 0x0 DUP8 PUSH20 0xFFFFFFFFFFFFFFFFFFFFFFFFFFFFFFFFFFFFFFFF AND PUSH20 0xFFFFFFFFFFFFFFFFFFFFFFFFFFFFFFFFFFFFFFFF AND DUP2 MSTORE PUSH1 0x20 ADD SWAP1 DUP2 MSTORE PUSH1 0x20 ADD PUSH1 0x0 KECCAK256 SLOAD LT PUSH2 0x1C38 JUMPI PUSH1 0x40 MLOAD PUSH32 0x8C379A000000000000000000000000000000000000000000000000000000000 DUP2 MSTORE PUSH1 0x4 ADD PUSH2 0x1C2F SWAP1 PUSH2 0x327A JUMP JUMPDEST PUSH1 0x40 MLOAD DUP1 SWAP2 SUB SWAP1 REVERT JUMPDEST PUSH1 0x1 PUSH1 0x0 DUP2 SLOAD DUP1 SWAP3 SWAP2 SWAP1 PUSH2 0x1C4B SWAP1 PUSH2 0x2E2C JUMP JUMPDEST SWAP2 SWAP1 POP SSTORE POP PUSH1 0x0 PUSH1 0x1 SLOAD SWAP1 POP PUSH1 0x0 PUSH1 0x8 PUSH1 0x0 DUP9 PUSH20 0xFFFFFFFFFFFFFFFFFFFFFFFFFFFFFFFFFFFFFFFF AND PUSH20 0xFFFFFFFFFFFFFFFFFFFFFFFFFFFFFFFFFFFFFFFF AND DUP2 MSTORE PUSH1 0x20 ADD SWAP1 DUP2 MSTORE PUSH1 0x20 ADD PUSH1 0x0 KECCAK256 SWAP1 POP DUP2 DUP2 PUSH1 0x0 ADD DUP2 SWAP1 SSTORE POP DUP6 DUP2 PUSH1 0x1 ADD SWAP1 DUP2 PUSH2 0x1CB4 SWAP2 SWAP1 PUSH2 0x3020 JUMP JUMPDEST POP DUP5 DUP2 PUSH1 0x2 ADD SWAP1 DUP2 PUSH2 0x1CC6 SWAP2 SWAP1 PUSH2 0x3020 JUMP JUMPDEST POP DUP4 DUP2 PUSH1 0x3 ADD SWAP1 DUP2 PUSH2 0x1CD8 SWAP2 SWAP1 PUSH2 0x3020 JUMP JUMPDEST POP PUSH1 0x0 DUP2 PUSH1 0x4 ADD DUP2 SWAP1 SSTORE POP DUP7 DUP2 PUSH1 0x5 ADD PUSH1 0x0 PUSH2 0x100 EXP DUP2 SLOAD DUP2 PUSH20 0xFFFFFFFFFFFFFFFFFFFFFFFFFFFFFFFFFFFFFFFF MUL NOT AND SWAP1 DUP4 PUSH20 0xFFFFFFFFFFFFFFFFFFFFFFFFFFFFFFFFFFFFFFFF AND MUL OR SWAP1 SSTORE POP DUP3 DUP2 PUSH1 0x6 ADD SWAP1 DUP2 PUSH2 0x1D37 SWAP2 SWAP1 PUSH2 0x3020 JUMP JUMPDEST POP PUSH1 0x7 DUP8 SWAP1 DUP1 PUSH1 0x1 DUP2 SLOAD ADD DUP1 DUP3 SSTORE DUP1 SWAP2 POP POP PUSH1 0x1 SWAP1 SUB SWAP1 PUSH1 0x0 MSTORE PUSH1 0x20 PUSH1 0x0 KECCAK256 ADD PUSH1 0x0 SWAP1 SWAP2 SWAP1 SWAP2 SWAP1 SWAP2 PUSH2 0x100 EXP DUP2 SLOAD DUP2 PUSH20 0xFFFFFFFFFFFFFFFFFFFFFFFFFFFFFFFFFFFFFFFF MUL NOT AND SWAP1 DUP4 PUSH20 0xFFFFFFFFFFFFFFFFFFFFFFFFFFFFFFFFFFFFFFFF AND MUL OR SWAP1 SSTORE POP PUSH1 0x2 SLOAD PUSH1 0x6 PUSH1 0x0 DUP10 PUSH20 0xFFFFFFFFFFFFFFFFFFFFFFFFFFFFFFFFFFFFFFFF AND PUSH20 0xFFFFFFFFFFFFFFFFFFFFFFFFFFFFFFFFFFFFFFFF AND DUP2 MSTORE PUSH1 0x20 ADD SWAP1 DUP2 MSTORE PUSH1 0x20 ADD PUSH1 0x0 KECCAK256 DUP2 SWAP1 SSTORE POP DUP2 PUSH32 0xD297F12B256BB8485A6013FB5E302017018123E99A0EBB20756C09E1707B4B90 DUP8 DUP8 DUP8 DUP6 PUSH1 0x4 ADD SLOAD DUP13 DUP10 PUSH1 0x40 MLOAD PUSH2 0x1E1F SWAP7 SWAP6 SWAP5 SWAP4 SWAP3 SWAP2 SWAP1 PUSH2 0x329A JUMP JUMPDEST PUSH1 0x40 MLOAD DUP1 SWAP2 SUB SWAP1 LOG2 PUSH32 0x78D27A3C512303F604B46BC28ACC0CA45ABE6420172A017C5A6DC585821EB639 DUP3 DUP7 PUSH1 0x40 MLOAD PUSH2 0x1E58 SWAP3 SWAP2 SWAP1 PUSH2 0x3317 JUMP JUMPDEST PUSH1 0x40 MLOAD DUP1 SWAP2 SUB SWAP1 LOG1 POP POP POP POP POP POP POP JUMP JUMPDEST PUSH1 0x5 PUSH1 0x20 MSTORE DUP1 PUSH1 0x0 MSTORE PUSH1 0x40 PUSH1 0x0 KECCAK256 PUSH1 0x0 SWAP2 POP SWAP1 POP SLOAD DUP2 JUMP JUMPDEST PUSH2 0x1E89 PUSH2 0x2253 JUMP JUMPDEST PUSH20 0xFFFFFFFFFFFFFFFFFFFFFFFFFFFFFFFFFFFFFFFF AND PUSH1 0x3 PUSH1 0x0 SWAP1 SLOAD SWAP1 PUSH2 0x100 EXP SWAP1 DIV PUSH20 0xFFFFFFFFFFFFFFFFFFFFFFFFFFFFFFFFFFFFFFFF AND PUSH20 0xFFFFFFFFFFFFFFFFFFFFFFFFFFFFFFFFFFFFFFFF AND EQ PUSH2 0x1F18 JUMPI PUSH1 0x40 MLOAD PUSH32 0x8C379A000000000000000000000000000000000000000000000000000000000 DUP2 MSTORE PUSH1 0x4 ADD PUSH2 0x1F0F SWAP1 PUSH2 0x33B9 JUMP JUMPDEST PUSH1 0x40 MLOAD DUP1 SWAP2 SUB SWAP1 REVERT JUMPDEST PUSH1 0x7 PUSH1 0x0 PUSH2 0x1F26 SWAP2 SWAP1 PUSH2 0x22D0 JUMP JUMPDEST PUSH1 0xA PUSH1 0x0 PUSH2 0x1F34 SWAP2 SWAP1 PUSH2 0x22D0 JUMP JUMPDEST PUSH1 0x9 PUSH1 0x0 PUSH2 0x1F42 SWAP2 SWAP1 PUSH2 0x22D0 JUMP JUMPDEST PUSH1 0x0 PUSH1 0x1 DUP2 SWAP1 SSTORE POP PUSH1 0x0 DUP1 DUP2 SWAP1 SSTORE POP PUSH1 0x2 PUSH1 0x0 DUP2 SLOAD DUP1 SWAP3 SWAP2 SWAP1 PUSH2 0x1F64 SWAP1 PUSH2 0x2E2C JUMP JUMPDEST SWAP2 SWAP1 POP SSTORE POP PUSH32 0x2A0E7CA52E830898FC8DDD8F2FC8695795A5FDF74064958562691B5BEA4485F5 PUSH1 0x2 SLOAD PUSH1 0x40 MLOAD PUSH2 0x1F9A SWAP2 SWAP1 PUSH2 0x2327 JUMP JUMPDEST PUSH1 0x40 MLOAD DUP1 SWAP2 SUB SWAP1 LOG1 JUMP JUMPDEST PUSH1 0x0 PUSH1 0x7 DUP1 SLOAD SWAP1 POP SWAP1 POP SWAP1 JUMP JUMPDEST PUSH1 0x2 SLOAD DUP2 JUMP JUMPDEST PUSH1 0x2 SLOAD PUSH1 0x5 PUSH1 0x0 PUSH2 0x1FC6 PUSH2 0x2253 JUMP JUMPDEST PUSH20 0xFFFFFFFFFFFFFFFFFFFFFFFFFFFFFFFFFFFFFFFF AND PUSH20 0xFFFFFFFFFFFFFFFFFFFFFFFFFFFFFFFFFFFFFFFF AND DUP2 MSTORE PUSH1 0x20 ADD SWAP1 DUP2 MSTORE PUSH1 0x20 ADD PUSH1 0x0 KECCAK256 SLOAD EQ PUSH2 0x2041 JUMPI PUSH1 0x40 MLOAD PUSH32 0x8C379A000000000000000000000000000000000000000000000000000000000 DUP2 MSTORE PUSH1 0x4 ADD PUSH2 0x2038 SWAP1 PUSH2 0x344B JUMP JUMPDEST PUSH1 0x40 MLOAD DUP1 SWAP2 SUB SWAP1 REVERT JUMPDEST PUSH1 0x0 PUSH1 0xB PUSH1 0x0 PUSH2 0x204F PUSH2 0x2253 JUMP JUMPDEST PUSH20 0xFFFFFFFFFFFFFFFFFFFFFFFFFFFFFFFFFFFFFFFF AND PUSH20 0xFFFFFFFFFFFFFFFFFFFFFFFFFFFFFFFFFFFFFFFF AND DUP2 MSTORE PUSH1 0x20 ADD SWAP1 DUP2 MSTORE PUSH1 0x20 ADD PUSH1 0x0 KECCAK256 SWAP1 POP DUP1 PUSH1 0x5 ADD PUSH1 0x0 SWAP1 SLOAD SWAP1 PUSH2 0x100 EXP SWAP1 DIV PUSH1 0xFF AND ISZERO PUSH2 0x20DD JUMPI PUSH1 0x40 MLOAD PUSH32 0x8C379A000000000000000000000000000000000000000000000000000000000 DUP2 MSTORE PUSH1 0x4 ADD PUSH2 0x20D4 SWAP1 PUSH2 0x34B7 JUMP JUMPDEST PUSH1 0x40 MLOAD DUP1 SWAP2 SUB SWAP1 REVERT JUMPDEST PUSH1 0x0 DUP2 PUSH1 0x4 ADD SLOAD SUB PUSH2 0x2124 JUMPI PUSH1 0x40 MLOAD PUSH32 0x8C379A000000000000000000000000000000000000000000000000000000000 DUP2 MSTORE PUSH1 0x4 ADD PUSH2 0x211B SWAP1 PUSH2 0x3523 JUMP JUMPDEST PUSH1 0x40 MLOAD DUP1 SWAP2 SUB SWAP1 REVERT JUMPDEST PUSH1 0x1 DUP2 PUSH1 0x5 ADD PUSH1 0x0 PUSH2 0x100 EXP DUP2 SLOAD DUP2 PUSH1 0xFF MUL NOT AND SWAP1 DUP4 ISZERO ISZERO MUL OR SWAP1 SSTORE POP DUP2 DUP2 PUSH1 0x6 ADD DUP2 SWAP1 SSTORE POP PUSH1 0x9 PUSH2 0x2154 PUSH2 0x2253 JUMP JUMPDEST SWAP1 DUP1 PUSH1 0x1 DUP2 SLOAD ADD DUP1 DUP3 SSTORE DUP1 SWAP2 POP POP PUSH1 0x1 SWAP1 SUB SWAP1 PUSH1 0x0 MSTORE PUSH1 0x20 PUSH1 0x0 KECCAK256 ADD PUSH1 0x0 SWAP1 SWAP2 SWAP1 SWAP2 SWAP1 SWAP2 PUSH2 0x100 EXP DUP2 SLOAD DUP2 PUSH20 0xFFFFFFFFFFFFFFFFFFFFFFFFFFFFFFFFFFFFFFFF MUL NOT AND SWAP1 DUP4 PUSH20 0xFFFFFFFFFFFFFFFFFFFFFFFFFFFFFFFFFFFFFFFF AND MUL OR SWAP1 SSTORE POP PUSH1 0x1 PUSH1 0x8 PUSH1 0x0 DUP6 PUSH20 0xFFFFFFFFFFFFFFFFFFFFFFFFFFFFFFFFFFFFFFFF AND PUSH20 0xFFFFFFFFFFFFFFFFFFFFFFFFFFFFFFFFFFFFFFFF AND DUP2 MSTORE PUSH1 0x20 ADD SWAP1 DUP2 MSTORE PUSH1 0x20 ADD PUSH1 0x0 KECCAK256 PUSH1 0x4 ADD PUSH1 0x0 DUP3 DUP3 SLOAD PUSH2 0x2207 SWAP2 SWAP1 PUSH2 0x3543 JUMP JUMPDEST SWAP3 POP POP DUP2 SWAP1 SSTORE POP PUSH32 0xA36CC2BEBB74DB33E9F88110A07EF56E1B31B24B4C4F51B54B1664266E29F45B PUSH2 0x2237 PUSH2 0x2253 JUMP JUMPDEST DUP4 PUSH1 0x40 MLOAD PUSH2 0x2246 SWAP3 SWAP2 SWAP1 PUSH2 0x3577 JUMP JUMPDEST PUSH1 0x40 MLOAD DUP1 SWAP2 SUB SWAP1 LOG1 POP POP POP JUMP JUMPDEST PUSH1 0x0 DUP1 PUSH1 0x0 CALLDATASIZE SWAP1 POP SWAP1 POP PUSH1 0x0 PUSH2 0x2267 PUSH2 0x22BF JUMP JUMPDEST SWAP1 POP DUP1 DUP3 LT ISZERO DUP1 ISZERO PUSH2 0x227E JUMPI POP PUSH2 0x227D CALLER PUSH2 0xC2C JUMP JUMPDEST JUMPDEST ISZERO PUSH2 0x22AF JUMPI PUSH1 0x0 CALLDATASIZE DUP3 DUP5 SUB SWAP1 DUP1 SWAP3 PUSH2 0x2298 SWAP4 SWAP3 SWAP2 SWAP1 PUSH2 0x35AA JUMP JUMPDEST SWAP1 PUSH2 0x22A3 SWAP2 SWAP1 PUSH2 0x361C JUMP JUMPDEST PUSH1 0x60 SHR SWAP3 POP POP POP PUSH2 0x22BC JUMP JUMPDEST PUSH2 0x22B7 PUSH2 0x22C8 JUMP JUMPDEST SWAP3 POP POP POP JUMPDEST SWAP1 JUMP JUMPDEST PUSH1 0x0 PUSH1 0x14 SWAP1 POP SWAP1 JUMP JUMPDEST PUSH1 0x0 CALLER SWAP1 POP SWAP1 JUMP JUMPDEST POP DUP1 SLOAD PUSH1 0x0 DUP3 SSTORE SWAP1 PUSH1 0x0 MSTORE PUSH1 0x20 PUSH1 0x0 KECCAK256 SWAP1 DUP2 ADD SWAP1 PUSH2 0x22EE SWAP2 SWAP1 PUSH2 0x22F1 JUMP JUMPDEST POP JUMP JUMPDEST JUMPDEST DUP1 DUP3 GT ISZERO PUSH2 0x230A JUMPI PUSH1 0x0 DUP2 PUSH1 0x0 SWAP1 SSTORE POP PUSH1 0x1 ADD PUSH2 0x22F2 JUMP JUMPDEST POP SWAP1 JUMP JUMPDEST PUSH1 0x0 DUP2 SWAP1 POP SWAP2 SWAP1 POP JUMP JUMPDEST PUSH2 0x2321 DUP2 PUSH2 0x230E JUMP JUMPDEST DUP3 MSTORE POP POP JUMP JUMPDEST PUSH1 0x0 PUSH1 0x20 DUP3 ADD SWAP1 POP PUSH2 0x233C PUSH1 0x0 DUP4 ADD DUP5 PUSH2 0x2318 JUMP JUMPDEST SWAP3 SWAP2 POP POP JUMP JUMPDEST PUSH1 0x0 PUSH1 0x40 MLOAD SWAP1 POP SWAP1 JUMP JUMPDEST PUSH1 0x0 DUP1 REVERT JUMPDEST PUSH1 0x0 DUP1 REVERT JUMPDEST PUSH1 0x0 PUSH20 0xFFFFFFFFFFFFFFFFFFFFFFFFFFFFFFFFFFFFFFFF DUP3 AND SWAP1 POP SWAP2 SWAP1 POP JUMP JUMPDEST PUSH1 0x0 PUSH2 0x2381 DUP3 PUSH2 0x2356 JUMP JUMPDEST SWAP1 POP SWAP2 SWAP1 POP JUMP JUMPDEST PUSH2 0x2391 DUP2 PUSH2 0x2376 JUMP JUMPDEST DUP2 EQ PUSH2 0x239C JUMPI PUSH1 0x0 DUP1 REVERT JUMPDEST POP JUMP JUMPDEST PUSH1 0x0 DUP2 CALLDATALOAD SWAP1 POP PUSH2 0x23AE DUP2 PUSH2 0x2388 JUMP JUMPDEST SWAP3 SWAP2 POP POP JUMP JUMPDEST PUSH1 0x0 PUSH1 0x20 DUP3 DUP5 SUB SLT ISZERO PUSH2 0x23CA JUMPI PUSH2 0x23C9 PUSH2 0x234C JUMP JUMPDEST JUMPDEST PUSH1 0x0 PUSH2 0x23D8 DUP5 DUP3 DUP6 ADD PUSH2 0x239F JUMP JUMPDEST SWAP2 POP POP SWAP3 SWAP2 POP POP JUMP JUMPDEST PUSH1 0x0 DUP2 MLOAD SWAP1 POP SWAP2 SWAP1 POP JUMP JUMPDEST PUSH1 0x0 DUP3 DUP3 MSTORE PUSH1 0x20 DUP3 ADD SWAP1 POP SWAP3 SWAP2 POP POP JUMP JUMPDEST PUSH1 0x0 JUMPDEST DUP4 DUP2 LT ISZERO PUSH2 0x241B JUMPI DUP1 DUP3 ADD MLOAD DUP2 DUP5 ADD MSTORE PUSH1 0x20 DUP2 ADD SWAP1 POP PUSH2 0x2400 JUMP JUMPDEST PUSH1 0x0 DUP5 DUP5 ADD MSTORE POP POP POP POP JUMP JUMPDEST PUSH1 0x0 PUSH1 0x1F NOT PUSH1 0x1F DUP4 ADD AND SWAP1 POP SWAP2 SWAP1 POP JUMP JUMPDEST PUSH1 0x0 PUSH2 0x2443 DUP3 PUSH2 0x23E1 JUMP JUMPDEST PUSH2 0x244D DUP2 DUP6 PUSH2 0x23EC JUMP JUMPDEST SWAP4 POP PUSH2 0x245D DUP2 DUP6 PUSH1 0x20 DUP7 ADD PUSH2 0x23FD JUMP JUMPDEST PUSH2 0x2466 DUP2 PUSH2 0x2427 JUMP JUMPDEST DUP5 ADD SWAP2 POP POP SWAP3 SWAP2 POP POP JUMP JUMPDEST PUSH2 0x247A DUP2 PUSH2 0x2376 JUMP JUMPDEST DUP3 MSTORE POP POP JUMP JUMPDEST PUSH1 0x0 PUSH1 0xE0 DUP3 ADD SWAP1 POP DUP2 DUP2 SUB PUSH1 0x0 DUP4 ADD MSTORE PUSH2 0x249A DUP2 DUP11 PUSH2 0x2438 JUMP JUMPDEST SWAP1 POP DUP2 DUP2 SUB PUSH1 0x20 DUP4 ADD MSTORE PUSH2 0x24AE DUP2 DUP10 PUSH2 0x2438 JUMP JUMPDEST SWAP1 POP PUSH2 0x24BD PUSH1 0x40 DUP4 ADD DUP9 PUSH2 0x2318 JUMP JUMPDEST DUP2 DUP2 SUB PUSH1 0x60 DUP4 ADD MSTORE PUSH2 0x24CF DUP2 DUP8 PUSH2 0x2438 JUMP JUMPDEST SWAP1 POP PUSH2 0x24DE PUSH1 0x80 DUP4 ADD DUP7 PUSH2 0x2318 JUMP JUMPDEST DUP2 DUP2 SUB PUSH1 0xA0 DUP4 ADD MSTORE PUSH2 0x24F0 DUP2 DUP6 PUSH2 0x2438 JUMP JUMPDEST SWAP1 POP PUSH2 0x24FF PUSH1 0xC0 DUP4 ADD DUP5 PUSH2 0x2471 JUMP JUMPDEST SWAP9 SWAP8 POP POP POP POP POP POP POP POP JUMP JUMPDEST PUSH2 0x2514 DUP2 PUSH2 0x230E JUMP JUMPDEST DUP2 EQ PUSH2 0x251F JUMPI PUSH1 0x0 DUP1 REVERT JUMPDEST POP JUMP JUMPDEST PUSH1 0x0 DUP2 CALLDATALOAD SWAP1 POP PUSH2 0x2531 DUP2 PUSH2 0x250B JUMP JUMPDEST SWAP3 SWAP2 POP POP JUMP JUMPDEST PUSH1 0x0 PUSH1 0x20 DUP3 DUP5 SUB SLT ISZERO PUSH2 0x254D JUMPI PUSH2 0x254C PUSH2 0x234C JUMP JUMPDEST JUMPDEST PUSH1 0x0 PUSH2 0x255B DUP5 DUP3 DUP6 ADD PUSH2 0x2522 JUMP JUMPDEST SWAP2 POP POP SWAP3 SWAP2 POP POP JUMP JUMPDEST PUSH1 0x0 PUSH1 0x20 DUP3 ADD SWAP1 POP PUSH2 0x2579 PUSH1 0x0 DUP4 ADD DUP5 PUSH2 0x2471 JUMP JUMPDEST SWAP3 SWAP2 POP POP JUMP JUMPDEST PUSH1 0x0 DUP2 ISZERO ISZERO SWAP1 POP SWAP2 SWAP1 POP JUMP JUMPDEST PUSH2 0x2594 DUP2 PUSH2 0x257F JUMP JUMPDEST DUP3 MSTORE POP POP JUMP JUMPDEST PUSH1 0x0 PUSH1 0x20 DUP3 ADD SWAP1 POP PUSH2 0x25AF PUSH1 0x0 DUP4 ADD DUP5 PUSH2 0x258B JUMP JUMPDEST SWAP3 SWAP2 POP POP JUMP JUMPDEST PUSH1 0x0 DUP2 MLOAD SWAP1 POP SWAP2 SWAP1 POP JUMP JUMPDEST PUSH1 0x0 DUP3 DUP3 MSTORE PUSH1 0x20 DUP3 ADD SWAP1 POP SWAP3 SWAP2 POP POP JUMP JUMPDEST PUSH1 0x0 DUP2 SWAP1 POP PUSH1 0x20 DUP3 ADD SWAP1 POP SWAP2 SWAP1 POP JUMP JUMPDEST PUSH2 0x25EA DUP2 PUSH2 0x2376 JUMP JUMPDEST DUP3 MSTORE POP POP JUMP JUMPDEST PUSH1 0x0 PUSH2 0x25FC DUP4 DUP4 PUSH2 0x25E1 JUMP JUMPDEST PUSH1 0x20 DUP4 ADD SWAP1 POP SWAP3 SWAP2 POP POP JUMP JUMPDEST PUSH1 0x0 PUSH1 0x20 DUP3 ADD SWAP1 POP SWAP2 SWAP1 POP JUMP JUMPDEST PUSH1 0x0 PUSH2 0x2620 DUP3 PUSH2 0x25B5 JUMP JUMPDEST PUSH2 0x262A DUP2 DUP6 PUSH2 0x25C0 JUMP JUMPDEST SWAP4 POP PUSH2 0x2635 DUP4 PUSH2 0x25D1 JUMP JUMPDEST DUP1 PUSH1 0x0 JUMPDEST DUP4 DUP2 LT ISZERO PUSH2 0x2666 JUMPI DUP2 MLOAD PUSH2 0x264D DUP9 DUP3 PUSH2 0x25F0 JUMP JUMPDEST SWAP8 POP PUSH2 0x2658 DUP4 PUSH2 0x2608 JUMP JUMPDEST SWAP3 POP POP PUSH1 0x1 DUP2 ADD SWAP1 POP PUSH2 0x2639 JUMP JUMPDEST POP DUP6 SWAP4 POP POP POP POP SWAP3 SWAP2 POP POP JUMP JUMPDEST PUSH1 0x0 PUSH1 0x20 DUP3 ADD SWAP1 POP DUP2 DUP2 SUB PUSH1 0x0 DUP4 ADD MSTORE PUSH2 0x268D DUP2 DUP5 PUSH2 0x2615 JUMP JUMPDEST SWAP1 POP SWAP3 SWAP2 POP POP JUMP JUMPDEST PUSH1 0x0 DUP1 REVERT JUMPDEST PUSH1 0x0 DUP1 REVERT JUMPDEST PUSH32 0x4E487B7100000000000000000000000000000000000000000000000000000000 PUSH1 0x0 MSTORE PUSH1 0x41 PUSH1 0x4 MSTORE PUSH1 0x24 PUSH1 0x0 REVERT JUMPDEST PUSH2 0x26D7 DUP3 PUSH2 0x2427 JUMP JUMPDEST DUP2 ADD DUP2 DUP2 LT PUSH8 0xFFFFFFFFFFFFFFFF DUP3 GT OR ISZERO PUSH2 0x26F6 JUMPI PUSH2 0x26F5 PUSH2 0x269F JUMP JUMPDEST JUMPDEST DUP1 PUSH1 0x40 MSTORE POP POP POP JUMP JUMPDEST PUSH1 0x0 PUSH2 0x2709 PUSH2 0x2342 JUMP JUMPDEST SWAP1 POP PUSH2 0x2715 DUP3 DUP3 PUSH2 0x26CE JUMP JUMPDEST SWAP2 SWAP1 POP JUMP JUMPDEST PUSH1 0x0 PUSH8 0xFFFFFFFFFFFFFFFF DUP3 GT ISZERO PUSH2 0x2735 JUMPI PUSH2 0x2734 PUSH2 0x269F JUMP JUMPDEST JUMPDEST PUSH2 0x273E DUP3 PUSH2 0x2427 JUMP JUMPDEST SWAP1 POP PUSH1 0x20 DUP2 ADD SWAP1 POP SWAP2 SWAP1 POP JUMP JUMPDEST DUP3 DUP2 DUP4 CALLDATACOPY PUSH1 0x0 DUP4 DUP4 ADD MSTORE POP POP POP JUMP JUMPDEST PUSH1 0x0 PUSH2 0x276D PUSH2 0x2768 DUP5 PUSH2 0x271A JUMP JUMPDEST PUSH2 0x26FF JUMP JUMPDEST SWAP1 POP DUP3 DUP2 MSTORE PUSH1 0x20 DUP2 ADD DUP5 DUP5 DUP5 ADD GT ISZERO PUSH2 0x2789 JUMPI PUSH2 0x2788 PUSH2 0x269A JUMP JUMPDEST JUMPDEST PUSH2 0x2794 DUP5 DUP3 DUP6 PUSH2 0x274B JUMP JUMPDEST POP SWAP4 SWAP3 POP POP POP JUMP JUMPDEST PUSH1 0x0 DUP3 PUSH1 0x1F DUP4 ADD SLT PUSH2 0x27B1 JUMPI PUSH2 0x27B0 PUSH2 0x2695 JUMP JUMPDEST JUMPDEST DUP2 CALLDATALOAD PUSH2 0x27C1 DUP5 DUP3 PUSH1 0x20 DUP7 ADD PUSH2 0x275A JUMP JUMPDEST SWAP2 POP POP SWAP3 SWAP2 POP POP JUMP JUMPDEST PUSH1 0x0 DUP1 PUSH1 0x0 DUP1 PUSH1 0x80 DUP6 DUP8 SUB SLT ISZERO PUSH2 0x27E4 JUMPI PUSH2 0x27E3 PUSH2 0x234C JUMP JUMPDEST JUMPDEST PUSH1 0x0 PUSH2 0x27F2 DUP8 DUP3 DUP9 ADD PUSH2 0x239F JUMP JUMPDEST SWAP5 POP POP PUSH1 0x20 DUP6 ADD CALLDATALOAD PUSH8 0xFFFFFFFFFFFFFFFF DUP2 GT ISZERO PUSH2 0x2813 JUMPI PUSH2 0x2812 PUSH2 0x2351 JUMP JUMPDEST JUMPDEST PUSH2 0x281F DUP8 DUP3 DUP9 ADD PUSH2 0x279C JUMP JUMPDEST SWAP4 POP POP PUSH1 0x40 DUP6 ADD CALLDATALOAD PUSH8 0xFFFFFFFFFFFFFFFF DUP2 GT ISZERO PUSH2 0x2840 JUMPI PUSH2 0x283F PUSH2 0x2351 JUMP JUMPDEST JUMPDEST PUSH2 0x284C DUP8 DUP3 DUP9 ADD PUSH2 0x279C JUMP JUMPDEST SWAP3 POP POP PUSH1 0x60 DUP6 ADD CALLDATALOAD PUSH8 0xFFFFFFFFFFFFFFFF DUP2 GT ISZERO PUSH2 0x286D JUMPI PUSH2 0x286C PUSH2 0x2351 JUMP JUMPDEST JUMPDEST PUSH2 0x2879 DUP8 DUP3 DUP9 ADD PUSH2 0x279C JUMP JUMPDEST SWAP2 POP POP SWAP3 SWAP6 SWAP2 SWAP5 POP SWAP3 POP JUMP JUMPDEST PUSH1 0x0 PUSH1 0xE0 DUP3 ADD SWAP1 POP PUSH2 0x289A PUSH1 0x0 DUP4 ADD DUP11 PUSH2 0x2318 JUMP JUMPDEST DUP2 DUP2 SUB PUSH1 0x20 DUP4 ADD MSTORE PUSH2 0x28AC DUP2 DUP10 PUSH2 0x2438 JUMP JUMPDEST SWAP1 POP DUP2 DUP2 SUB PUSH1 0x40 DUP4 ADD MSTORE PUSH2 0x28C0 DUP2 DUP9 PUSH2 0x2438 JUMP JUMPDEST SWAP1 POP DUP2 DUP2 SUB PUSH1 0x60 DUP4 ADD MSTORE PUSH2 0x28D4 DUP2 DUP8 PUSH2 0x2438 JUMP JUMPDEST SWAP1 POP PUSH2 0x28E3 PUSH1 0x80 DUP4 ADD DUP7 PUSH2 0x2318 JUMP JUMPDEST PUSH2 0x28F0 PUSH1 0xA0 DUP4 ADD DUP6 PUSH2 0x2471 JUMP JUMPDEST DUP2 DUP2 SUB PUSH1 0xC0 DUP4 ADD MSTORE PUSH2 0x2902 DUP2 DUP5 PUSH2 0x2438 JUMP JUMPDEST SWAP1 POP SWAP9 SWAP8 POP POP POP POP POP POP POP POP JUMP JUMPDEST PUSH1 0x0 PUSH1 0xE0 DUP3 ADD SWAP1 POP PUSH2 0x2925 PUSH1 0x0 DUP4 ADD DUP11 PUSH2 0x2318 JUMP JUMPDEST DUP2 DUP2 SUB PUSH1 0x20 DUP4 ADD MSTORE PUSH2 0x2937 DUP2 DUP10 PUSH2 0x2438 JUMP JUMPDEST SWAP1 POP DUP2 DUP2 SUB PUSH1 0x40 DUP4 ADD MSTORE PUSH2 0x294B DUP2 DUP9 PUSH2 0x2438 JUMP JUMPDEST SWAP1 POP PUSH2 0x295A PUSH1 0x60 DUP4 ADD DUP8 PUSH2 0x2471 JUMP JUMPDEST DUP2 DUP2 SUB PUSH1 0x80 DUP4 ADD MSTORE PUSH2 0x296C DUP2 DUP7 PUSH2 0x2438 JUMP JUMPDEST SWAP1 POP PUSH2 0x297B PUSH1 0xA0 DUP4 ADD DUP6 PUSH2 0x258B JUMP JUMPDEST PUSH2 0x2988 PUSH1 0xC0 DUP4 ADD DUP5 PUSH2 0x2318 JUMP JUMPDEST SWAP9 SWAP8 POP POP POP POP POP POP POP POP JUMP JUMPDEST PUSH1 0x0 PUSH2 0x100 DUP3 ADD SWAP1 POP PUSH2 0x29AA PUSH1 0x0 DUP4 ADD DUP12 PUSH2 0x2318 JUMP JUMPDEST DUP2 DUP2 SUB PUSH1 0x20 DUP4 ADD MSTORE PUSH2 0x29BC DUP2 DUP11 PUSH2 0x2438 JUMP JUMPDEST SWAP1 POP DUP2 DUP2 SUB PUSH1 0x40 DUP4 ADD MSTORE PUSH2 0x29D0 DUP2 DUP10 PUSH2 0x2438 JUMP JUMPDEST SWAP1 POP PUSH2 0x29DF PUSH1 0x60 DUP4 ADD DUP9 PUSH2 0x2471 JUMP JUMPDEST PUSH2 0x29EC PUSH1 0x80 DUP4 ADD DUP8 PUSH2 0x2318 JUMP JUMPDEST PUSH2 0x29F9 PUSH1 0xA0 DUP4 ADD DUP7 PUSH2 0x258B JUMP JUMPDEST PUSH2 0x2A06 PUSH1 0xC0 DUP4 ADD DUP6 PUSH2 0x2318 JUMP JUMPDEST DUP2 DUP2 SUB PUSH1 0xE0 DUP4 ADD MSTORE PUSH2 0x2A18 DUP2 DUP5 PUSH2 0x2438 JUMP JUMPDEST SWAP1 POP SWAP10 SWAP9 POP POP POP POP POP POP POP POP POP JUMP JUMPDEST PUSH1 0x0 DUP1 PUSH1 0x0 DUP1 PUSH1 0x0 PUSH1 0xA0 DUP7 DUP9 SUB SLT ISZERO PUSH2 0x2A43 JUMPI PUSH2 0x2A42 PUSH2 0x234C JUMP JUMPDEST JUMPDEST PUSH1 0x0 PUSH2 0x2A51 DUP9 DUP3 DUP10 ADD PUSH2 0x239F JUMP JUMPDEST SWAP6 POP POP PUSH1 0x20 DUP7 ADD CALLDATALOAD PUSH8 0xFFFFFFFFFFFFFFFF DUP2 GT ISZERO PUSH2 0x2A72 JUMPI PUSH2 0x2A71 PUSH2 0x2351 JUMP JUMPDEST JUMPDEST PUSH2 0x2A7E DUP9 DUP3 DUP10 ADD PUSH2 0x279C JUMP JUMPDEST SWAP5 POP POP PUSH1 0x40 DUP7 ADD CALLDATALOAD PUSH8 0xFFFFFFFFFFFFFFFF DUP2 GT ISZERO PUSH2 0x2A9F JUMPI PUSH2 0x2A9E PUSH2 0x2351 JUMP JUMPDEST JUMPDEST PUSH2 0x2AAB DUP9 DUP3 DUP10 ADD PUSH2 0x279C JUMP JUMPDEST SWAP4 POP POP PUSH1 0x60 DUP7 ADD CALLDATALOAD PUSH8 0xFFFFFFFFFFFFFFFF DUP2 GT ISZERO PUSH2 0x2ACC JUMPI PUSH2 0x2ACB PUSH2 0x2351 JUMP JUMPDEST JUMPDEST PUSH2 0x2AD8 DUP9 DUP3 DUP10 ADD PUSH2 0x279C JUMP JUMPDEST SWAP3 POP POP PUSH1 0x80 DUP7 ADD CALLDATALOAD PUSH8 0xFFFFFFFFFFFFFFFF DUP2 GT ISZERO PUSH2 0x2AF9 JUMPI PUSH2 0x2AF8 PUSH2 0x2351 JUMP JUMPDEST JUMPDEST PUSH2 0x2B05 DUP9 DUP3 DUP10 ADD PUSH2 0x279C JUMP JUMPDEST SWAP2 POP POP SWAP3 SWAP6 POP SWAP3 SWAP6 SWAP1 SWAP4 POP JUMP JUMPDEST PUSH1 0x0 DUP1 PUSH1 0x40 DUP4 DUP6 SUB SLT ISZERO PUSH2 0x2B29 JUMPI PUSH2 0x2B28 PUSH2 0x234C JUMP JUMPDEST JUMPDEST PUSH1 0x0 PUSH2 0x2B37 DUP6 DUP3 DUP7 ADD PUSH2 0x239F JUMP JUMPDEST SWAP3 POP POP PUSH1 0x20 PUSH2 0x2B48 DUP6 DUP3 DUP7 ADD PUSH2 0x2522 JUMP JUMPDEST SWAP2 POP POP SWAP3 POP SWAP3 SWAP1 POP JUMP JUMPDEST PUSH32 0x4E487B7100000000000000000000000000000000000000000000000000000000 PUSH1 0x0 MSTORE PUSH1 0x22 PUSH1 0x4 MSTORE PUSH1 0x24 PUSH1 0x0 REVERT JUMPDEST PUSH1 0x0 PUSH1 0x2 DUP3 DIV SWAP1 POP PUSH1 0x1 DUP3 AND DUP1 PUSH2 0x2B99 JUMPI PUSH1 0x7F DUP3 AND SWAP2 POP JUMPDEST PUSH1 0x20 DUP3 LT DUP2 SUB PUSH2 0x2BAC JUMPI PUSH2 0x2BAB PUSH2 0x2B52 JUMP JUMPDEST JUMPDEST POP SWAP2 SWAP1 POP JUMP JUMPDEST PUSH32 0x4F6E6C792061646D696E2063616E2063616C6C20746869732066756E6374696F PUSH1 0x0 DUP3 ADD MSTORE PUSH32 0x6E00000000000000000000000000000000000000000000000000000000000000 PUSH1 0x20 DUP3 ADD MSTORE POP JUMP JUMPDEST PUSH1 0x0 PUSH2 0x2C0E PUSH1 0x21 DUP4 PUSH2 0x23EC JUMP JUMPDEST SWAP2 POP PUSH2 0x2C19 DUP3 PUSH2 0x2BB2 JUMP JUMPDEST PUSH1 0x40 DUP3 ADD SWAP1 POP SWAP2 SWAP1 POP JUMP JUMPDEST PUSH1 0x0 PUSH1 0x20 DUP3 ADD SWAP1 POP DUP2 DUP2 SUB PUSH1 0x0 DUP4 ADD MSTORE PUSH2 0x2C3D DUP2 PUSH2 0x2C01 JUMP JUMPDEST SWAP1 POP SWAP2 SWAP1 POP JUMP JUMPDEST PUSH32 0x496E76616C6964206E65772072656C6179657220616464726573730000000000 PUSH1 0x0 DUP3 ADD MSTORE POP JUMP JUMPDEST PUSH1 0x0 PUSH2 0x2C7A PUSH1 0x1B DUP4 PUSH2 0x23EC JUMP JUMPDEST SWAP2 POP PUSH2 0x2C85 DUP3 PUSH2 0x2C44 JUMP JUMPDEST PUSH1 0x20 DUP3 ADD SWAP1 POP SWAP2 SWAP1 POP JUMP JUMPDEST PUSH1 0x0 PUSH1 0x20 DUP3 ADD SWAP1 POP DUP2 DUP2 SUB PUSH1 0x0 DUP4 ADD MSTORE PUSH2 0x2CA9 DUP2 PUSH2 0x2C6D JUMP JUMPDEST SWAP1 POP SWAP2 SWAP1 POP JUMP JUMPDEST PUSH1 0x0 PUSH1 0x40 DUP3 ADD SWAP1 POP PUSH2 0x2CC5 PUSH1 0x0 DUP4 ADD DUP6 PUSH2 0x2471 JUMP JUMPDEST PUSH2 0x2CD2 PUSH1 0x20 DUP4 ADD DUP5 PUSH2 0x2471 JUMP JUMPDEST SWAP4 SWAP3 POP POP POP JUMP JUMPDEST PUSH32 0x4F6E6C79206F7267616E697A65722063616E20637265617465206120766F7465 PUSH1 0x0 DUP3 ADD MSTORE PUSH32 0x7200000000000000000000000000000000000000000000000000000000000000 PUSH1 0x20 DUP3 ADD MSTORE POP JUMP JUMPDEST PUSH1 0x0 PUSH2 0x2D35 PUSH1 0x21 DUP4 PUSH2 0x23EC JUMP JUMPDEST SWAP2 POP PUSH2 0x2D40 DUP3 PUSH2 0x2CD9 JUMP JUMPDEST PUSH1 0x40 DUP3 ADD SWAP1 POP SWAP2 SWAP1 POP JUMP JUMPDEST PUSH1 0x0 PUSH1 0x20 DUP3 ADD SWAP1 POP DUP2 DUP2 SUB PUSH1 0x0 DUP4 ADD MSTORE PUSH2 0x2D64 DUP2 PUSH2 0x2D28 JUMP JUMPDEST SWAP1 POP SWAP2 SWAP1 POP JUMP JUMPDEST PUSH32 0x566F74657220616C7265616479207265676973746572656420696E2063757272 PUSH1 0x0 DUP3 ADD MSTORE PUSH32 0x656E7420656C656374696F6E0000000000000000000000000000000000000000 PUSH1 0x20 DUP3 ADD MSTORE POP JUMP JUMPDEST PUSH1 0x0 PUSH2 0x2DC7 PUSH1 0x2C DUP4 PUSH2 0x23EC JUMP JUMPDEST SWAP2 POP PUSH2 0x2DD2 DUP3 PUSH2 0x2D6B JUMP JUMPDEST PUSH1 0x40 DUP3 ADD SWAP1 POP SWAP2 SWAP1 POP JUMP JUMPDEST PUSH1 0x0 PUSH1 0x20 DUP3 ADD SWAP1 POP DUP2 DUP2 SUB PUSH1 0x0 DUP4 ADD MSTORE PUSH2 0x2DF6 DUP2 PUSH2 0x2DBA JUMP JUMPDEST SWAP1 POP SWAP2 SWAP1 POP JUMP JUMPDEST PUSH32 0x4E487B7100000000000000000000000000000000000000000000000000000000 PUSH1 0x0 MSTORE PUSH1 0x11 PUSH1 0x4 MSTORE PUSH1 0x24 PUSH1 0x0 REVERT JUMPDEST PUSH1 0x0 PUSH2 0x2E37 DUP3 PUSH2 0x230E JUMP JUMPDEST SWAP2 POP PUSH32 0xFFFFFFFFFFFFFFFFFFFFFFFFFFFFFFFFFFFFFFFFFFFFFFFFFFFFFFFFFFFFFFFF DUP3 SUB PUSH2 0x2E69 JUMPI PUSH2 0x2E68 PUSH2 0x2DFD JUMP JUMPDEST JUMPDEST PUSH1 0x1 DUP3 ADD SWAP1 POP SWAP2 SWAP1 POP JUMP JUMPDEST PUSH1 0x0 DUP2 SWAP1 POP DUP2 PUSH1 0x0 MSTORE PUSH1 0x20 PUSH1 0x0 KECCAK256 SWAP1 POP SWAP2 SWAP1 POP JUMP JUMPDEST PUSH1 0x0 PUSH1 0x20 PUSH1 0x1F DUP4 ADD DIV SWAP1 POP SWAP2 SWAP1 POP JUMP JUMPDEST PUSH1 0x0 DUP3 DUP3 SHL SWAP1 POP SWAP3 SWAP2 POP POP JUMP JUMPDEST PUSH1 0x0 PUSH1 0x8 DUP4 MUL PUSH2 0x2ED6 PUSH32 0xFFFFFFFFFFFFFFFFFFFFFFFFFFFFFFFFFFFFFFFFFFFFFFFFFFFFFFFFFFFFFFFF DUP3 PUSH2 0x2E99 JUMP JUMPDEST PUSH2 0x2EE0 DUP7 DUP4 PUSH2 0x2E99 JUMP JUMPDEST SWAP6 POP DUP1 NOT DUP5 AND SWAP4 POP DUP1 DUP7 AND DUP5 OR SWAP3 POP POP POP SWAP4 SWAP3 POP POP POP JUMP JUMPDEST PUSH1 0x0 DUP2 SWAP1 POP SWAP2 SWAP1 POP JUMP JUMPDEST PUSH1 0x0 PUSH2 0x2F1D PUSH2 0x2F18 PUSH2 0x2F13 DUP5 PUSH2 0x230E JUMP JUMPDEST PUSH2 0x2EF8 JUMP JUMPDEST PUSH2 0x230E JUMP JUMPDEST SWAP1 POP SWAP2 SWAP1 POP JUMP JUMPDEST PUSH1 0x0 DUP2 SWAP1 POP SWAP2 SWAP1 POP JUMP JUMPDEST PUSH2 0x2F37 DUP4 PUSH2 0x2F02 JUMP JUMPDEST PUSH2 0x2F4B PUSH2 0x2F43 DUP3 PUSH2 0x2F24 JUMP JUMPDEST DUP5 DUP5 SLOAD PUSH2 0x2EA6 JUMP JUMPDEST DUP3 SSTORE POP POP POP POP JUMP JUMPDEST PUSH1 0x0 SWAP1 JUMP JUMPDEST PUSH2 0x2F60 PUSH2 0x2F53 JUMP JUMPDEST PUSH2 0x2F6B DUP2 DUP5 DUP5 PUSH2 0x2F2E JUMP JUMPDEST POP POP POP JUMP JUMPDEST JUMPDEST DUP2 DUP2 LT ISZERO PUSH2 0x2F8F JUMPI PUSH2 0x2F84 PUSH1 0x0 DUP3 PUSH2 0x2F58 JUMP JUMPDEST PUSH1 0x1 DUP2 ADD SWAP1 POP PUSH2 0x2F71 JUMP JUMPDEST POP POP JUMP JUMPDEST PUSH1 0x1F DUP3 GT ISZERO PUSH2 0x2FD4 JUMPI PUSH2 0x2FA5 DUP2 PUSH2 0x2E74 JUMP JUMPDEST PUSH2 0x2FAE DUP5 PUSH2 0x2E89 JUMP JUMPDEST DUP2 ADD PUSH1 0x20 DUP6 LT ISZERO PUSH2 0x2FBD JUMPI DUP2 SWAP1 POP JUMPDEST PUSH2 0x2FD1 PUSH2 0x2FC9 DUP6 PUSH2 0x2E89 JUMP JUMPDEST DUP4 ADD DUP3 PUSH2 0x2F70 JUMP JUMPDEST POP POP JUMPDEST POP POP POP JUMP JUMPDEST PUSH1 0x0 DUP3 DUP3 SHR SWAP1 POP SWAP3 SWAP2 POP POP JUMP JUMPDEST PUSH1 0x0 PUSH2 0x2FF7 PUSH1 0x0 NOT DUP5 PUSH1 0x8 MUL PUSH2 0x2FD9 JUMP JUMPDEST NOT DUP1 DUP4 AND SWAP2 POP POP SWAP3 SWAP2 POP POP JUMP JUMPDEST PUSH1 0x0 PUSH2 0x3010 DUP4 DUP4 PUSH2 0x2FE6 JUMP JUMPDEST SWAP2 POP DUP3 PUSH1 0x2 MUL DUP3 OR SWAP1 POP SWAP3 SWAP2 POP POP JUMP JUMPDEST PUSH2 0x3029 DUP3 PUSH2 0x23E1 JUMP JUMPDEST PUSH8 0xFFFFFFFFFFFFFFFF DUP2 GT ISZERO PUSH2 0x3042 JUMPI PUSH2 0x3041 PUSH2 0x269F JUMP JUMPDEST JUMPDEST PUSH2 0x304C DUP3 SLOAD PUSH2 0x2B81 JUMP JUMPDEST PUSH2 0x3057 DUP3 DUP3 DUP6 PUSH2 0x2F93 JUMP JUMPDEST PUSH1 0x0 PUSH1 0x20 SWAP1 POP PUSH1 0x1F DUP4 GT PUSH1 0x1 DUP2 EQ PUSH2 0x308A JUMPI PUSH1 0x0 DUP5 ISZERO PUSH2 0x3078 JUMPI DUP3 DUP8 ADD MLOAD SWAP1 POP JUMPDEST PUSH2 0x3082 DUP6 DUP3 PUSH2 0x3004 JUMP JUMPDEST DUP7 SSTORE POP PUSH2 0x30EA JUMP JUMPDEST PUSH1 0x1F NOT DUP5 AND PUSH2 0x3098 DUP7 PUSH2 0x2E74 JUMP JUMPDEST PUSH1 0x0 JUMPDEST DUP3 DUP2 LT ISZERO PUSH2 0x30C0 JUMPI DUP5 DUP10 ADD MLOAD DUP3 SSTORE PUSH1 0x1 DUP3 ADD SWAP2 POP PUSH1 0x20 DUP6 ADD SWAP5 POP PUSH1 0x20 DUP2 ADD SWAP1 POP PUSH2 0x309B JUMP JUMPDEST DUP7 DUP4 LT ISZERO PUSH2 0x30DD JUMPI DUP5 DUP10 ADD MLOAD PUSH2 0x30D9 PUSH1 0x1F DUP10 AND DUP3 PUSH2 0x2FE6 JUMP JUMPDEST DUP4 SSTORE POP JUMPDEST PUSH1 0x1 PUSH1 0x2 DUP9 MUL ADD DUP9 SSTORE POP POP POP JUMPDEST POP POP POP POP POP POP JUMP JUMPDEST PUSH1 0x0 PUSH1 0xE0 DUP3 ADD SWAP1 POP DUP2 DUP2 SUB PUSH1 0x0 DUP4 ADD MSTORE PUSH2 0x310C DUP2 DUP11 PUSH2 0x2438 JUMP JUMPDEST SWAP1 POP DUP2 DUP2 SUB PUSH1 0x20 DUP4 ADD MSTORE PUSH2 0x3120 DUP2 DUP10 PUSH2 0x2438 JUMP JUMPDEST SWAP1 POP PUSH2 0x312F PUSH1 0x40 DUP4 ADD DUP9 PUSH2 0x2471 JUMP JUMPDEST PUSH2 0x313C PUSH1 0x60 DUP4 ADD DUP8 PUSH2 0x2318 JUMP JUMPDEST PUSH2 0x3149 PUSH1 0x80 DUP4 ADD DUP7 PUSH2 0x258B JUMP JUMPDEST PUSH2 0x3156 PUSH1 0xA0 DUP4 ADD DUP6 PUSH2 0x2318 JUMP JUMPDEST DUP2 DUP2 SUB PUSH1 0xC0 DUP4 ADD MSTORE PUSH2 0x3168 DUP2 DUP5 PUSH2 0x2438 JUMP JUMPDEST SWAP1 POP SWAP9 SWAP8 POP POP POP POP POP POP POP POP JUMP JUMPDEST PUSH32 0x4F6E6C79206F7267616E697A65722063616E2063726561746520612063616E64 PUSH1 0x0 DUP3 ADD MSTORE PUSH32 0x6964617465000000000000000000000000000000000000000000000000000000 PUSH1 0x20 DUP3 ADD MSTORE POP JUMP JUMPDEST PUSH1 0x0 PUSH2 0x31D2 PUSH1 0x25 DUP4 PUSH2 0x23EC JUMP JUMPDEST SWAP2 POP PUSH2 0x31DD DUP3 PUSH2 0x3176 JUMP JUMPDEST PUSH1 0x40 DUP3 ADD SWAP1 POP SWAP2 SWAP1 POP JUMP JUMPDEST PUSH1 0x0 PUSH1 0x20 DUP3 ADD SWAP1 POP DUP2 DUP2 SUB PUSH1 0x0 DUP4 ADD MSTORE PUSH2 0x3201 DUP2 PUSH2 0x31C5 JUMP JUMPDEST SWAP1 POP SWAP2 SWAP1 POP JUMP JUMPDEST PUSH32 0x43616E64696461746520616C7265616479207265676973746572656420696E20 PUSH1 0x0 DUP3 ADD MSTORE PUSH32 0x63757272656E7420656C656374696F6E00000000000000000000000000000000 PUSH1 0x20 DUP3 ADD MSTORE POP JUMP JUMPDEST PUSH1 0x0 PUSH2 0x3264 PUSH1 0x30 DUP4 PUSH2 0x23EC JUMP JUMPDEST SWAP2 POP PUSH2 0x326F DUP3 PUSH2 0x3208 JUMP JUMPDEST PUSH1 0x40 DUP3 ADD SWAP1 POP SWAP2 SWAP1 POP JUMP JUMPDEST PUSH1 0x0 PUSH1 0x20 DUP3 ADD SWAP1 POP DUP2 DUP2 SUB PUSH1 0x0 DUP4 ADD MSTORE PUSH2 0x3293 DUP2 PUSH2 0x3257 JUMP JUMPDEST SWAP1 POP SWAP2 SWAP1 POP JUMP JUMPDEST PUSH1 0x0 PUSH1 0xC0 DUP3 ADD SWAP1 POP DUP2 DUP2 SUB PUSH1 0x0 DUP4 ADD MSTORE PUSH2 0x32B4 DUP2 DUP10 PUSH2 0x2438 JUMP JUMPDEST SWAP1 POP DUP2 DUP2 SUB PUSH1 0x20 DUP4 ADD MSTORE PUSH2 0x32C8 DUP2 DUP9 PUSH2 0x2438 JUMP JUMPDEST SWAP1 POP DUP2 DUP2 SUB PUSH1 0x40 DUP4 ADD MSTORE PUSH2 0x32DC DUP2 DUP8 PUSH2 0x2438 JUMP JUMPDEST SWAP1 POP PUSH2 0x32EB PUSH1 0x60 DUP4 ADD DUP7 PUSH2 0x2318 JUMP JUMPDEST PUSH2 0x32F8 PUSH1 0x80 DUP4 ADD DUP6 PUSH2 0x2471 JUMP JUMPDEST DUP2 DUP2 SUB PUSH1 0xA0 DUP4 ADD MSTORE PUSH2 0x330A DUP2 DUP5 PUSH2 0x2438 JUMP JUMPDEST SWAP1 POP SWAP8 SWAP7 POP POP POP POP POP POP POP JUMP JUMPDEST PUSH1 0x0 PUSH1 0x40 DUP3 ADD SWAP1 POP PUSH2 0x332C PUSH1 0x0 DUP4 ADD DUP6 PUSH2 0x2318 JUMP JUMPDEST DUP2 DUP2 SUB PUSH1 0x20 DUP4 ADD MSTORE PUSH2 0x333E DUP2 DUP5 PUSH2 0x2438 JUMP JUMPDEST SWAP1 POP SWAP4 SWAP3 POP POP POP JUMP JUMPDEST PUSH32 0x4F6E6C79206F7267616E697A65722063616E2072657365742074686520656C65 PUSH1 0x0 DUP3 ADD MSTORE PUSH32 0x6374696F6E000000000000000000000000000000000000000000000000000000 PUSH1 0x20 DUP3 ADD MSTORE POP JUMP JUMPDEST PUSH1 0x0 PUSH2 0x33A3 PUSH1 0x25 DUP4 PUSH2 0x23EC JUMP JUMPDEST SWAP2 POP PUSH2 0x33AE DUP3 PUSH2 0x3347 JUMP JUMPDEST PUSH1 0x40 DUP3 ADD SWAP1 POP SWAP2 SWAP1 POP JUMP JUMPDEST PUSH1 0x0 PUSH1 0x20 DUP3 ADD SWAP1 POP DUP2 DUP2 SUB PUSH1 0x0 DUP4 ADD MSTORE PUSH2 0x33D2 DUP2 PUSH2 0x3396 JUMP JUMPDEST SWAP1 POP SWAP2 SWAP1 POP JUMP JUMPDEST PUSH32 0x596F7520617265206E6F74207265676973746572656420666F72207468652063 PUSH1 0x0 DUP3 ADD MSTORE PUSH32 0x757272656E7420656C656374696F6E0000000000000000000000000000000000 PUSH1 0x20 DUP3 ADD MSTORE POP JUMP JUMPDEST PUSH1 0x0 PUSH2 0x3435 PUSH1 0x2F DUP4 PUSH2 0x23EC JUMP JUMPDEST SWAP2 POP PUSH2 0x3440 DUP3 PUSH2 0x33D9 JUMP JUMPDEST PUSH1 0x40 DUP3 ADD SWAP1 POP SWAP2 SWAP1 POP JUMP JUMPDEST PUSH1 0x0 PUSH1 0x20 DUP3 ADD SWAP1 POP DUP2 DUP2 SUB PUSH1 0x0 DUP4 ADD MSTORE PUSH2 0x3464 DUP2 PUSH2 0x3428 JUMP JUMPDEST SWAP1 POP SWAP2 SWAP1 POP JUMP JUMPDEST PUSH32 0x596F75206861766520616C726561647920766F74656400000000000000000000 PUSH1 0x0 DUP3 ADD MSTORE POP JUMP JUMPDEST PUSH1 0x0 PUSH2 0x34A1 PUSH1 0x16 DUP4 PUSH2 0x23EC JUMP JUMPDEST SWAP2 POP PUSH2 0x34AC DUP3 PUSH2 0x346B JUMP JUMPDEST PUSH1 0x20 DUP3 ADD SWAP1 POP SWAP2 SWAP1 POP JUMP JUMPDEST PUSH1 0x0 PUSH1 0x20 DUP3 ADD SWAP1 POP DUP2 DUP2 SUB PUSH1 0x0 DUP4 ADD MSTORE PUSH2 0x34D0 DUP2 PUSH2 0x3494 JUMP JUMPDEST SWAP1 POP SWAP2 SWAP1 POP JUMP JUMPDEST PUSH32 0x596F752068617665206E6F20726967687420746F20766F746500000000000000 PUSH1 0x0 DUP3 ADD MSTORE POP JUMP JUMPDEST PUSH1 0x0 PUSH2 0x350D PUSH1 0x19 DUP4 PUSH2 0x23EC JUMP JUMPDEST SWAP2 POP PUSH2 0x3518 DUP3 PUSH2 0x34D7 JUMP JUMPDEST PUSH1 0x20 DUP3 ADD SWAP1 POP SWAP2 SWAP1 POP JUMP JUMPDEST PUSH1 0x0 PUSH1 0x20 DUP3 ADD SWAP1 POP DUP2 DUP2 SUB PUSH1 0x0 DUP4 ADD MSTORE PUSH2 0x353C DUP2 PUSH2 0x3500 JUMP JUMPDEST SWAP1 POP SWAP2 SWAP1 POP JUMP JUMPDEST PUSH1 0x0 PUSH2 0x354E DUP3 PUSH2 0x230E JUMP JUMPDEST SWAP2 POP PUSH2 0x3559 DUP4 PUSH2 0x230E JUMP JUMPDEST SWAP3 POP DUP3 DUP3 ADD SWAP1 POP DUP1 DUP3 GT ISZERO PUSH2 0x3571 JUMPI PUSH2 0x3570 PUSH2 0x2DFD JUMP JUMPDEST JUMPDEST SWAP3 SWAP2 POP POP JUMP JUMPDEST PUSH1 0x0 PUSH1 0x40 DUP3 ADD SWAP1 POP PUSH2 0x358C PUSH1 0x0 DUP4 ADD DUP6 PUSH2 0x2471 JUMP JUMPDEST PUSH2 0x3599 PUSH1 0x20 DUP4 ADD DUP5 PUSH2 0x2318 JUMP JUMPDEST SWAP4 SWAP3 POP POP POP JUMP JUMPDEST PUSH1 0x0 DUP1 REVERT JUMPDEST PUSH1 0x0 DUP1 REVERT JUMPDEST PUSH1 0x0 DUP1 DUP6 DUP6 GT ISZERO PUSH2 0x35BE JUMPI PUSH2 0x35BD PUSH2 0x35A0 JUMP JUMPDEST JUMPDEST DUP4 DUP7 GT ISZERO PUSH2 0x35CF JUMPI PUSH2 0x35CE PUSH2 0x35A5 JUMP JUMPDEST JUMPDEST PUSH1 0x1 DUP6 MUL DUP4 ADD SWAP2 POP DUP5 DUP7 SUB SWAP1 POP SWAP5 POP SWAP5 SWAP3 POP POP POP JUMP JUMPDEST PUSH1 0x0 DUP3 SWAP1 POP SWAP3 SWAP2 POP POP JUMP JUMPDEST PUSH1 0x0 PUSH32 0xFFFFFFFFFFFFFFFFFFFFFFFFFFFFFFFFFFFFFFFF000000000000000000000000 DUP3 AND SWAP1 POP SWAP2 SWAP1 POP JUMP JUMPDEST PUSH1 0x0 PUSH2 0x3628 DUP4 DUP4 PUSH2 0x35E5 JUMP JUMPDEST DUP3 PUSH2 0x3633 DUP2 CALLDATALOAD PUSH2 0x35F0 JUMP JUMPDEST SWAP3 POP PUSH1 0x14 DUP3 LT ISZERO PUSH2 0x3673 JUMPI PUSH2 0x366E PUSH32 0xFFFFFFFFFFFFFFFFFFFFFFFFFFFFFFFFFFFFFFFF000000000000000000000000 DUP4 PUSH1 0x14 SUB PUSH1 0x8 MUL PUSH2 0x2E99 JUMP JUMPDEST DUP4 AND SWAP3 POP JUMPDEST POP POP SWAP3 SWAP2 POP POP JUMP INVALID LOG2 PUSH5 0x6970667358 0x22 SLT KECCAK256 CALLDATALOAD 0x5C OR CODESIZE 0x5C DUP14 NUMBER DUP9 0x2D MOD SGT CALLDATASIZE 0x24 0xA8 SWAP3 0x4F 0xAF CALLCODE PUSH20 0x24B90CE63302AB6CAE572CBC0264736F6C634300 ADDMOD EQ STOP CALLER "},"methodIdentifiers":{"_candidateId()":"a7388967","_voterId()":"b9be3152","candidateAddress(uint256)":"3a88251a","candidateElectionVersion(address)":"9af2ae64","candidates(address)":"8ab66a90","changeRelayer(address)":"48d23829","currentRelayer()":"41cd0420","electionVersion()":"f7d0628f","getCandidate()":"70218b85","getCandidateData(address)":"2a466ac7","getCandidateLength()":"f7522a83","getKey()":"82678dd6","getVotedVoterList()":"8e945685","getVoterData(address)":"8fb4cd80","getVoterLength()":"05ad45a4","getVoterList()":"b28d92ae","giveVote(address,uint256)":"fa678ae7","isTrustedForwarder(address)":"572b6c05","resetElection()":"e8f30523","setCandidate(address,string,string,string,string)":"c91ec712","setVoter(address,string,string,string)":"82aac8f3","trustedForwarder()":"7da0a877","votedVoters(uint256)":"7831ffb3","voterElectionVersion(address)":"d6310e9a","voters(address)":"a3ec138d","votersAddress(uint256)":"43242daa","votingOrganizer()":"5cc48aa7"}}}}}