{
  "_format": "hh-sol-artifact-1",
  "contractName": "Voting",
  "sourceName": "contracts/Voting.sol",
  "abi": [
    {
      "inputs": [
        {
          "internalType": "address",
          "name": "trustedForwarder",
          "type": "address"
        }
      ],
      "stateMutability": "nonpayable",
      "type": "constructor"
    },
    {
      "anonymous": false,
      "inputs": [
        {
          "indexed": true,
          "internalType": "uint256",
          "name": "candidateId",
          "type": "uint256"
        },
        {
          "indexed": false,
          "internalType": "string",
          "name": "age",
          "type": "string"
        },
        {
          "indexed": false,
          "internalType": "string",
          "name": "name",
          "type": "string"
        },
        {
          "indexed": false,
          "internalType": "string",
          "name": "image",
          "type": "string"
        },
        {
          "indexed": false,
          "internalType": "uint256",
          "name": "voteCount",
          "type": "uint256"
        },
        {
          "indexed": false,
          "internalType": "address",
          "name": "_address",
          "type": "address"
        },
        {
          "indexed": false,
          "internalType": "string",
          "name": "ipfs",
          "type": "string"
        }
      ],
      "name": "CandidateCreate",
      "type": "event"
    },
    {
      "anonymous": false,
      "inputs": [
        {
          "indexed": true,
          "internalType": "uint256",
          "name": "voter_voterId",
          "type": "uint256"
        },
        {
          "indexed": false,
          "internalType": "string",
          "name": "voter_name",
          "type": "string"
        },
        {
          "indexed": false,
          "internalType": "string",
          "name": "voter_image",
          "type": "string"
        },
        {
          "indexed": false,
          "internalType": "address",
          "name": "voter_address",
          "type": "address"
        },
        {
          "indexed": false,
          "internalType": "uint256",
          "name": "voter_allowed",
          "type": "uint256"
        },
        {
          "indexed": false,
          "internalType": "bool",
          "name": "voter_voted",
          "type": "bool"
        },
        {
          "indexed": false,
          "internalType": "uint256",
          "name": "voter_vote",
          "type": "uint256"
        },
        {
          "indexed": false,
          "internalType": "string",
          "name": "voter_ipfs",
          "type": "string"
        }
      ],
      "name": "VoterCreated",
      "type": "event"
    },
    {
      "inputs": [],
      "name": "_candidateId",
      "outputs": [
        {
          "internalType": "uint256",
          "name": "",
          "type": "uint256"
        }
      ],
      "stateMutability": "view",
      "type": "function"
    },
    {
      "inputs": [],
      "name": "_voterId",
      "outputs": [
        {
          "internalType": "uint256",
          "name": "",
          "type": "uint256"
        }
      ],
      "stateMutability": "view",
      "type": "function"
    },
    {
      "inputs": [
        {
          "internalType": "uint256",
          "name": "",
          "type": "uint256"
        }
      ],
      "name": "candidateAddress",
      "outputs": [
        {
          "internalType": "address",
          "name": "",
          "type": "address"
        }
      ],
      "stateMutability": "view",
      "type": "function"
    },
    {
      "inputs": [
        {
          "internalType": "address",
          "name": "",
          "type": "address"
        }
      ],
      "name": "candidateElectionVersion",
      "outputs": [
        {
          "internalType": "uint256",
          "name": "",
          "type": "uint256"
        }
      ],
      "stateMutability": "view",
      "type": "function"
    },
    {
      "inputs": [
        {
          "internalType": "address",
          "name": "",
          "type": "address"
        }
      ],
      "name": "candidates",
      "outputs": [
        {
          "internalType": "uint256",
          "name": "candidateId",
          "type": "uint256"
        },
        {
          "internalType": "string",
          "name": "age",
          "type": "string"
        },
        {
          "internalType": "string",
          "name": "name",
          "type": "string"
        },
        {
          "internalType": "string",
          "name": "image",
          "type": "string"
        },
        {
          "internalType": "uint256",
          "name": "voteCount",
          "type": "uint256"
        },
        {
          "internalType": "address",
          "name": "_address",
          "type": "address"
        },
        {
          "internalType": "string",
          "name": "ipfs",
          "type": "string"
        }
      ],
      "stateMutability": "view",
      "type": "function"
    },
    {
      "inputs": [],
      "name": "electionVersion",
      "outputs": [
        {
          "internalType": "uint256",
          "name": "",
          "type": "uint256"
        }
      ],
      "stateMutability": "view",
      "type": "function"
    },
    {
      "inputs": [],
      "name": "getCandidate",
      "outputs": [
        {
          "internalType": "address[]",
          "name": "",
          "type": "address[]"
        }
      ],
      "stateMutability": "view",
      "type": "function"
    },
    {
      "inputs": [
        {
          "internalType": "address",
          "name": "_address",
          "type": "address"
        }
      ],
      "name": "getCandidateData",
      "outputs": [
        {
          "internalType": "string",
          "name": "",
          "type": "string"
        },
        {
          "internalType": "string",
          "name": "",
          "type": "string"
        },
        {
          "internalType": "uint256",
          "name": "",
          "type": "uint256"
        },
        {
          "internalType": "string",
          "name": "",
          "type": "string"
        },
        {
          "internalType": "uint256",
          "name": "",
          "type": "uint256"
        },
        {
          "internalType": "string",
          "name": "",
          "type": "string"
        },
        {
          "internalType": "address",
          "name": "",
          "type": "address"
        }
      ],
      "stateMutability": "view",
      "type": "function"
    },
    {
      "inputs": [],
      "name": "getCandidateLength",
      "outputs": [
        {
          "internalType": "uint256",
          "name": "",
          "type": "uint256"
        }
      ],
      "stateMutability": "view",
      "type": "function"
    },
    {
      "inputs": [],
      "name": "getKey",
      "outputs": [
        {
          "internalType": "address[]",
          "name": "",
          "type": "address[]"
        }
      ],
      "stateMutability": "view",
      "type": "function"
    },
    {
      "inputs": [],
      "name": "getVotedVoterList",
      "outputs": [
        {
          "internalType": "address[]",
          "name": "",
          "type": "address[]"
        }
      ],
      "stateMutability": "view",
      "type": "function"
    },
    {
      "inputs": [
        {
          "internalType": "address",
          "name": "_address",
          "type": "address"
        }
      ],
      "name": "getVoterData",
      "outputs": [
        {
          "internalType": "uint256",
          "name": "",
          "type": "uint256"
        },
        {
          "internalType": "string",
          "name": "",
          "type": "string"
        },
        {
          "internalType": "string",
          "name": "",
          "type": "string"
        },
        {
          "internalType": "address",
          "name": "",
          "type": "address"
        },
        {
          "internalType": "string",
          "name": "",
          "type": "string"
        },
        {
          "internalType": "bool",
          "name": "",
          "type": "bool"
        },
        {
          "internalType": "uint256",
          "name": "",
          "type": "uint256"
        }
      ],
      "stateMutability": "view",
      "type": "function"
    },
    {
      "inputs": [],
      "name": "getVoterLength",
      "outputs": [
        {
          "internalType": "uint256",
          "name": "",
          "type": "uint256"
        }
      ],
      "stateMutability": "view",
      "type": "function"
    },
    {
      "inputs": [],
      "name": "getVoterList",
      "outputs": [
        {
          "internalType": "address[]",
          "name": "",
          "type": "address[]"
        }
      ],
      "stateMutability": "view",
      "type": "function"
    },
    {
      "inputs": [
        {
          "internalType": "address",
          "name": "_candidateAddress",
          "type": "address"
        },
        {
          "internalType": "uint256",
          "name": "_candidateVoteId",
          "type": "uint256"
        }
      ],
      "name": "giveVote",
      "outputs": [],
      "stateMutability": "nonpayable",
      "type": "function"
    },
    {
      "inputs": [
        {
          "internalType": "address",
          "name": "forwarder",
          "type": "address"
        }
      ],
      "name": "isTrustedForwarder",
      "outputs": [
        {
          "internalType": "bool",
          "name": "",
          "type": "bool"
        }
      ],
      "stateMutability": "view",
      "type": "function"
    },
    {
      "inputs": [],
      "name": "resetElection",
      "outputs": [],
      "stateMutability": "nonpayable",
      "type": "function"
    },
    {
      "inputs": [
        {
          "internalType": "address",
          "name": "_address",
          "type": "address"
        },
        {
          "internalType": "string",
          "name": "_age",
          "type": "string"
        },
        {
          "internalType": "string",
          "name": "_name",
          "type": "string"
        },
        {
          "internalType": "string",
          "name": "_image",
          "type": "string"
        },
        {
          "internalType": "string",
          "name": "_ipfs",
          "type": "string"
        }
      ],
      "name": "setCandidate",
      "outputs": [],
      "stateMutability": "nonpayable",
      "type": "function"
    },
    {
      "inputs": [
        {
          "internalType": "address",
          "name": "_address",
          "type": "address"
        },
        {
          "internalType": "string",
          "name": "_name",
          "type": "string"
        },
        {
          "internalType": "string",
          "name": "_image",
          "type": "string"
        },
        {
          "internalType": "string",
          "name": "_ipfs",
          "type": "string"
        }
      ],
      "name": "setVoter",
      "outputs": [],
      "stateMutability": "nonpayable",
      "type": "function"
    },
    {
      "inputs": [],
      "name": "trustedForwarder",
      "outputs": [
        {
          "internalType": "address",
          "name": "",
          "type": "address"
        }
      ],
      "stateMutability": "view",
      "type": "function"
    },
    {
      "inputs": [
        {
          "internalType": "uint256",
          "name": "",
          "type": "uint256"
        }
      ],
      "name": "votedVoters",
      "outputs": [
        {
          "internalType": "address",
          "name": "",
          "type": "address"
        }
      ],
      "stateMutability": "view",
      "type": "function"
    },
    {
      "inputs": [
        {
          "internalType": "address",
          "name": "",
          "type": "address"
        }
      ],
      "name": "voterElectionVersion",
      "outputs": [
        {
          "internalType": "uint256",
          "name": "",
          "type": "uint256"
        }
      ],
      "stateMutability": "view",
      "type": "function"
    },
    {
      "inputs": [
        {
          "internalType": "address",
          "name": "",
          "type": "address"
        }
      ],
      "name": "voters",
      "outputs": [
        {
          "internalType": "uint256",
          "name": "voter_voterId",
          "type": "uint256"
        },
        {
          "internalType": "string",
          "name": "voter_name",
          "type": "string"
        },
        {
          "internalType": "string",
          "name": "voter_image",
          "type": "string"
        },
        {
          "internalType": "address",
          "name": "voter_address",
          "type": "address"
        },
        {
          "internalType": "uint256",
          "name": "voter_allowed",
          "type": "uint256"
        },
        {
          "internalType": "bool",
          "name": "voter_voted",
          "type": "bool"
        },
        {
          "internalType": "uint256",
          "name": "voter_vote",
          "type": "uint256"
        },
        {
          "internalType": "string",
          "name": "voter_ipfs",
          "type": "string"
        }
      ],
      "stateMutability": "view",
      "type": "function"
    },
    {
      "inputs": [
        {
          "internalType": "uint256",
          "name": "",
          "type": "uint256"
        }
      ],
      "name": "votersAddress",
      "outputs": [
        {
          "internalType": "address",
          "name": "",
          "type": "address"
        }
      ],
      "stateMutability": "view",
      "type": "function"
    },
    {
      "inputs": [],
      "name": "votingOrganizer",
      "outputs": [
        {
          "internalType": "address",
          "name": "",
          "type": "address"
        }
      ],
      "stateMutability": "view",
      "type": "function"
    }
  ],
  "bytecode": "0x60a06040523480156200001157600080fd5b506040516200356d3803806200356d833981810160405281019062000037919062000223565b808073ffffffffffffffffffffffffffffffffffffffff1660808173ffffffffffffffffffffffffffffffffffffffff1681525050506200007d620000cc60201b60201c565b600360006101000a81548173ffffffffffffffffffffffffffffffffffffffff021916908373ffffffffffffffffffffffffffffffffffffffff1602179055506001600281905550506200034a565b600080600036905090506000620000e86200015760201b60201c565b905080821015801562000108575062000107336200016060201b60201c565b5b156200013f5760003682840390809262000125939291906200025f565b90620001329190620002e4565b60601c9250505062000154565b6200014f620001a760201b60201c565b925050505b90565b60006014905090565b600062000172620001af60201b60201c565b73ffffffffffffffffffffffffffffffffffffffff168273ffffffffffffffffffffffffffffffffffffffff16149050919050565b600033905090565b6000608051905090565b600080fd5b600073ffffffffffffffffffffffffffffffffffffffff82169050919050565b6000620001eb82620001be565b9050919050565b620001fd81620001de565b81146200020957600080fd5b50565b6000815190506200021d81620001f2565b92915050565b6000602082840312156200023c576200023b620001b9565b5b60006200024c848285016200020c565b91505092915050565b600080fd5b600080fd5b6000808585111562000276576200027562000255565b5b838611156200028a57620002896200025a565b5b6001850283019150848603905094509492505050565b600082905092915050565b60007fffffffffffffffffffffffffffffffffffffffff00000000000000000000000082169050919050565b600082821b905092915050565b6000620002f28383620002a0565b82620002ff8135620002ab565b9250601482101562000342576200033d7fffffffffffffffffffffffffffffffffffffffff00000000000000000000000083601403600802620002d7565b831692505b505092915050565b608051613207620003666000396000610b2101526132076000f3fe608060405234801561001057600080fd5b50600436106101735760003560e01c80638e945685116100de578063b9be315211610097578063e8f3052311610071578063e8f30523146104b7578063f7522a83146104c1578063f7d0628f146104df578063fa678ae7146104fd57610173565b8063b9be31521461044d578063c91ec7121461046b578063d6310e9a1461048757610173565b80638e945685146103565780638fb4cd80146103745780639af2ae64146103aa578063a3ec138d146103da578063a738896714610411578063b28d92ae1461042f57610173565b806370218b851161013057806370218b851461027a5780637831ffb3146102985780637da0a877146102c857806382678dd6146102e657806382aac8f3146103045780638ab66a901461032057610173565b806305ad45a4146101785780632a466ac7146101965780633a88251a146101cc57806343242daa146101fc578063572b6c051461022c5780635cc48aa71461025c575b600080fd5b610180610519565b60405161018d9190611ffd565b60405180910390f35b6101b060048036038101906101ab919061208a565b610526565b6040516101c39796959493929190612156565b60405180910390f35b6101e660048036038101906101e1919061220d565b61096d565b6040516101f3919061223a565b60405180910390f35b6102166004803603810190610211919061220d565b6109ac565b604051610223919061223a565b60405180910390f35b6102466004803603810190610241919061208a565b6109eb565b6040516102539190612270565b60405180910390f35b610264610a2a565b604051610271919061223a565b60405180910390f35b610282610a50565b60405161028f9190612349565b60405180910390f35b6102b260048036038101906102ad919061220d565b610ade565b6040516102bf919061223a565b60405180910390f35b6102d0610b1d565b6040516102dd919061223a565b60405180910390f35b6102ee610b45565b6040516102fb9190612349565b60405180910390f35b61031e600480360381019061031991906124a0565b610bd3565b005b61033a6004803603810190610335919061208a565b610f0f565b60405161034d979695949392919061255b565b60405180910390f35b61035e611191565b60405161036b9190612349565b60405180910390f35b61038e6004803603810190610389919061208a565b61121f565b6040516103a197969594939291906125e6565b60405180910390f35b6103c460048036038101906103bf919061208a565b6115e7565b6040516103d19190611ffd565b60405180910390f35b6103f460048036038101906103ef919061208a565b6115ff565b60405161040898979695949392919061266a565b60405180910390f35b61041961180c565b6040516104269190611ffd565b60405180910390f35b610437611812565b6040516104449190612349565b60405180910390f35b6104556118a0565b6040516104629190611ffd565b60405180910390f35b610485600480360381019061048091906126fd565b6118a6565b005b6104a1600480360381019061049c919061208a565b611bb8565b6040516104ae9190611ffd565b60405180910390f35b6104bf611bd0565b005b6104c9611cba565b6040516104d69190611ffd565b60405180910390f35b6104e7611cc7565b6040516104f49190611ffd565b60405180910390f35b610517600480360381019061051291906127e8565b611ccd565b005b6000600980549050905090565b60608060006060600060606000600760008973ffffffffffffffffffffffffffffffffffffffff1673ffffffffffffffffffffffffffffffffffffffff168152602001908152602001600020600101600760008a73ffffffffffffffffffffffffffffffffffffffff1673ffffffffffffffffffffffffffffffffffffffff168152602001908152602001600020600201600760008b73ffffffffffffffffffffffffffffffffffffffff1673ffffffffffffffffffffffffffffffffffffffff16815260200190815260200160002060000154600760008c73ffffffffffffffffffffffffffffffffffffffff1673ffffffffffffffffffffffffffffffffffffffff168152602001908152602001600020600301600760008d73ffffffffffffffffffffffffffffffffffffffff1673ffffffffffffffffffffffffffffffffffffffff16815260200190815260200160002060040154600760008e73ffffffffffffffffffffffffffffffffffffffff1673ffffffffffffffffffffffffffffffffffffffff168152602001908152602001600020600601600760008f73ffffffffffffffffffffffffffffffffffffffff1673ffffffffffffffffffffffffffffffffffffffff16815260200190815260200160002060050160009054906101000a900473ffffffffffffffffffffffffffffffffffffffff1686805461073090612857565b80601f016020809104026020016040519081016040528092919081815260200182805461075c90612857565b80156107a95780601f1061077e576101008083540402835291602001916107a9565b820191906000526020600020905b81548152906001019060200180831161078c57829003601f168201915b505050505096508580546107bc90612857565b80601f01602080910402602001604051908101604052809291908181526020018280546107e890612857565b80156108355780601f1061080a57610100808354040283529160200191610835565b820191906000526020600020905b81548152906001019060200180831161081857829003601f168201915b5050505050955083805461084890612857565b80601f016020809104026020016040519081016040528092919081815260200182805461087490612857565b80156108c15780601f10610896576101008083540402835291602001916108c1565b820191906000526020600020905b8154815290600101906020018083116108a457829003601f168201915b505050505093508180546108d490612857565b80601f016020809104026020016040519081016040528092919081815260200182805461090090612857565b801561094d5780601f106109225761010080835404028352916020019161094d565b820191906000526020600020905b81548152906001019060200180831161093057829003601f168201915b505050505091509650965096509650965096509650919395979092949650565b6006818154811061097d57600080fd5b906000526020600020016000915054906101000a900473ffffffffffffffffffffffffffffffffffffffff1681565b600981815481106109bc57600080fd5b906000526020600020016000915054906101000a900473ffffffffffffffffffffffffffffffffffffffff1681565b60006109f5610b1d565b73ffffffffffffffffffffffffffffffffffffffff168273ffffffffffffffffffffffffffffffffffffffff16149050919050565b600360009054906101000a900473ffffffffffffffffffffffffffffffffffffffff1681565b60606006805480602002602001604051908101604052809291908181526020018280548015610ad457602002820191906000526020600020905b8160009054906101000a900473ffffffffffffffffffffffffffffffffffffffff1673ffffffffffffffffffffffffffffffffffffffff1681526020019060010190808311610a8a575b5050505050905090565b60088181548110610aee57600080fd5b906000526020600020016000915054906101000a900473ffffffffffffffffffffffffffffffffffffffff1681565b60007f0000000000000000000000000000000000000000000000000000000000000000905090565b60606006805480602002602001604051908101604052809291908181526020018280548015610bc957602002820191906000526020600020905b8160009054906101000a900473ffffffffffffffffffffffffffffffffffffffff1673ffffffffffffffffffffffffffffffffffffffff1681526020019060010190808311610b7f575b5050505050905090565b610bdb611f29565b73ffffffffffffffffffffffffffffffffffffffff16600360009054906101000a900473ffffffffffffffffffffffffffffffffffffffff1673ffffffffffffffffffffffffffffffffffffffff1614610c6a576040517f08c379a0000000000000000000000000000000000000000000000000000000008152600401610c61906128fa565b60405180910390fd5b600254600460008673ffffffffffffffffffffffffffffffffffffffff1673ffffffffffffffffffffffffffffffffffffffff1681526020019081526020016000205410610ced576040517f08c379a0000000000000000000000000000000000000000000000000000000008152600401610ce49061298c565b60405180910390fd5b600080815480929190610cff906129db565b91905055506000805490506000600a60008773ffffffffffffffffffffffffffffffffffffffff1673ffffffffffffffffffffffffffffffffffffffff168152602001908152602001600020905081816000018190555084816001019081610d679190612bcf565b5083816002019081610d799190612bcf565b50858160030160006101000a81548173ffffffffffffffffffffffffffffffffffffffff021916908373ffffffffffffffffffffffffffffffffffffffff1602179055506001816004018190555060008160050160006101000a81548160ff0219169083151502179055506103e8816006018190555082816007019081610e009190612bcf565b506009869080600181540180825580915050600190039060005260206000200160009091909190916101000a81548173ffffffffffffffffffffffffffffffffffffffff021916908373ffffffffffffffffffffffffffffffffffffffff160217905550600254600460008873ffffffffffffffffffffffffffffffffffffffff1673ffffffffffffffffffffffffffffffffffffffff16815260200190815260200160002081905550817ff5f39971dd62d9929e3a9feaa6bb77fe7c7da0001babff8a65a7e51ad0201c1986868985600401548660050160009054906101000a900460ff1687600601548a604051610eff9796959493929190612ca1565b60405180910390a2505050505050565b6007602052806000526040600020600091509050806000015490806001018054610f3890612857565b80601f0160208091040260200160405190810160405280929190818152602001828054610f6490612857565b8015610fb15780601f10610f8657610100808354040283529160200191610fb1565b820191906000526020600020905b815481529060010190602001808311610f9457829003601f168201915b505050505090806002018054610fc690612857565b80601f0160208091040260200160405190810160405280929190818152602001828054610ff290612857565b801561103f5780601f106110145761010080835404028352916020019161103f565b820191906000526020600020905b81548152906001019060200180831161102257829003601f168201915b50505050509080600301805461105490612857565b80601f016020809104026020016040519081016040528092919081815260200182805461108090612857565b80156110cd5780601f106110a2576101008083540402835291602001916110cd565b820191906000526020600020905b8154815290600101906020018083116110b057829003601f168201915b5050505050908060040154908060050160009054906101000a900473ffffffffffffffffffffffffffffffffffffffff169080600601805461110e90612857565b80601f016020809104026020016040519081016040528092919081815260200182805461113a90612857565b80156111875780601f1061115c57610100808354040283529160200191611187565b820191906000526020600020905b81548152906001019060200180831161116a57829003601f168201915b5050505050905087565b6060600880548060200260200160405190810160405280929190818152602001828054801561121557602002820191906000526020600020905b8160009054906101000a900473ffffffffffffffffffffffffffffffffffffffff1673ffffffffffffffffffffffffffffffffffffffff16815260200190600101908083116111cb575b5050505050905090565b600060608060006060600080600a60008973ffffffffffffffffffffffffffffffffffffffff1673ffffffffffffffffffffffffffffffffffffffff16815260200190815260200160002060000154600a60008a73ffffffffffffffffffffffffffffffffffffffff1673ffffffffffffffffffffffffffffffffffffffff168152602001908152602001600020600101600a60008b73ffffffffffffffffffffffffffffffffffffffff1673ffffffffffffffffffffffffffffffffffffffff168152602001908152602001600020600201600a60008c73ffffffffffffffffffffffffffffffffffffffff1673ffffffffffffffffffffffffffffffffffffffff16815260200190815260200160002060030160009054906101000a900473ffffffffffffffffffffffffffffffffffffffff16600a60008d73ffffffffffffffffffffffffffffffffffffffff1673ffffffffffffffffffffffffffffffffffffffff168152602001908152602001600020600701600a60008e73ffffffffffffffffffffffffffffffffffffffff1673ffffffffffffffffffffffffffffffffffffffff16815260200190815260200160002060050160009054906101000a900460ff16600a60008f73ffffffffffffffffffffffffffffffffffffffff1673ffffffffffffffffffffffffffffffffffffffff1681526020019081526020016000206004015485805461143690612857565b80601f016020809104026020016040519081016040528092919081815260200182805461146290612857565b80156114af5780601f10611484576101008083540402835291602001916114af565b820191906000526020600020905b81548152906001019060200180831161149257829003601f168201915b505050505095508480546114c290612857565b80601f01602080910402602001604051908101604052809291908181526020018280546114ee90612857565b801561153b5780601f106115105761010080835404028352916020019161153b565b820191906000526020600020905b81548152906001019060200180831161151e57829003601f168201915b5050505050945082805461154e90612857565b80601f016020809104026020016040519081016040528092919081815260200182805461157a90612857565b80156115c75780601f1061159c576101008083540402835291602001916115c7565b820191906000526020600020905b8154815290600101906020018083116115aa57829003601f168201915b505050505092509650965096509650965096509650919395979092949650565b60056020528060005260406000206000915090505481565b600a60205280600052604060002060009150905080600001549080600101805461162890612857565b80601f016020809104026020016040519081016040528092919081815260200182805461165490612857565b80156116a15780601f10611676576101008083540402835291602001916116a1565b820191906000526020600020905b81548152906001019060200180831161168457829003601f168201915b5050505050908060020180546116b690612857565b80601f01602080910402602001604051908101604052809291908181526020018280546116e290612857565b801561172f5780601f106117045761010080835404028352916020019161172f565b820191906000526020600020905b81548152906001019060200180831161171257829003601f168201915b5050505050908060030160009054906101000a900473ffffffffffffffffffffffffffffffffffffffff16908060040154908060050160009054906101000a900460ff169080600601549080600701805461178990612857565b80601f01602080910402602001604051908101604052809291908181526020018280546117b590612857565b80156118025780601f106117d757610100808354040283529160200191611802565b820191906000526020600020905b8154815290600101906020018083116117e557829003601f168201915b5050505050905088565b60015481565b6060600980548060200260200160405190810160405280929190818152602001828054801561189657602002820191906000526020600020905b8160009054906101000a900473ffffffffffffffffffffffffffffffffffffffff1673ffffffffffffffffffffffffffffffffffffffff168152602001906001019080831161184c575b5050505050905090565b60005481565b6118ae611f29565b73ffffffffffffffffffffffffffffffffffffffff16600360009054906101000a900473ffffffffffffffffffffffffffffffffffffffff1673ffffffffffffffffffffffffffffffffffffffff161461193d576040517f08c379a000000000000000000000000000000000000000000000000000000000815260040161193490612d97565b60405180910390fd5b600254600560008773ffffffffffffffffffffffffffffffffffffffff1673ffffffffffffffffffffffffffffffffffffffff16815260200190815260200160002054106119c0576040517f08c379a00000000000000000000000000000000000000000000000000000000081526004016119b790612e29565b60405180910390fd5b600160008154809291906119d3906129db565b9190505550600060015490506000600760008873ffffffffffffffffffffffffffffffffffffffff1673ffffffffffffffffffffffffffffffffffffffff168152602001908152602001600020905081816000018190555085816001019081611a3c9190612bcf565b5084816002019081611a4e9190612bcf565b5083816003019081611a609190612bcf565b5060008160040181905550868160050160006101000a81548173ffffffffffffffffffffffffffffffffffffffff021916908373ffffffffffffffffffffffffffffffffffffffff16021790555082816006019081611abf9190612bcf565b506006879080600181540180825580915050600190039060005260206000200160009091909190916101000a81548173ffffffffffffffffffffffffffffffffffffffff021916908373ffffffffffffffffffffffffffffffffffffffff160217905550600254600560008973ffffffffffffffffffffffffffffffffffffffff1673ffffffffffffffffffffffffffffffffffffffff16815260200190815260200160002081905550817fd297f12b256bb8485a6013fb5e302017018123e99a0ebb20756c09e1707b4b9087878785600401548c89604051611ba796959493929190612e49565b60405180910390a250505050505050565b60046020528060005260406000206000915090505481565b611bd8611f29565b73ffffffffffffffffffffffffffffffffffffffff16600360009054906101000a900473ffffffffffffffffffffffffffffffffffffffff1673ffffffffffffffffffffffffffffffffffffffff1614611c67576040517f08c379a0000000000000000000000000000000000000000000000000000000008152600401611c5e90612f38565b60405180910390fd5b60066000611c759190611fa6565b60096000611c839190611fa6565b60086000611c919190611fa6565b60006001819055506000808190555060026000815480929190611cb3906129db565b9190505550565b6000600680549050905090565b60025481565b60025460046000611cdc611f29565b73ffffffffffffffffffffffffffffffffffffffff1673ffffffffffffffffffffffffffffffffffffffff1681526020019081526020016000205414611d57576040517f08c379a0000000000000000000000000000000000000000000000000000000008152600401611d4e90612fca565b60405180910390fd5b6000600a6000611d65611f29565b73ffffffffffffffffffffffffffffffffffffffff1673ffffffffffffffffffffffffffffffffffffffff16815260200190815260200160002090508060050160009054906101000a900460ff1615611df3576040517f08c379a0000000000000000000000000000000000000000000000000000000008152600401611dea90613036565b60405180910390fd5b6000816004015403611e3a576040517f08c379a0000000000000000000000000000000000000000000000000000000008152600401611e31906130a2565b60405180910390fd5b60018160050160006101000a81548160ff0219169083151502179055508181600601819055506008611e6a611f29565b9080600181540180825580915050600190039060005260206000200160009091909190916101000a81548173ffffffffffffffffffffffffffffffffffffffff021916908373ffffffffffffffffffffffffffffffffffffffff1602179055506001600760008573ffffffffffffffffffffffffffffffffffffffff1673ffffffffffffffffffffffffffffffffffffffff1681526020019081526020016000206004016000828254611f1d91906130c2565b92505081905550505050565b600080600036905090506000611f3d611f95565b9050808210158015611f545750611f53336109eb565b5b15611f8557600036828403908092611f6e93929190613100565b90611f799190613172565b60601c92505050611f92565b611f8d611f9e565b925050505b90565b60006014905090565b600033905090565b5080546000825590600052602060002090810190611fc49190611fc7565b50565b5b80821115611fe0576000816000905550600101611fc8565b5090565b6000819050919050565b611ff781611fe4565b82525050565b60006020820190506120126000830184611fee565b92915050565b6000604051905090565b600080fd5b600080fd5b600073ffffffffffffffffffffffffffffffffffffffff82169050919050565b60006120578261202c565b9050919050565b6120678161204c565b811461207257600080fd5b50565b6000813590506120848161205e565b92915050565b6000602082840312156120a05761209f612022565b5b60006120ae84828501612075565b91505092915050565b600081519050919050565b600082825260208201905092915050565b60005b838110156120f15780820151818401526020810190506120d6565b60008484015250505050565b6000601f19601f8301169050919050565b6000612119826120b7565b61212381856120c2565b93506121338185602086016120d3565b61213c816120fd565b840191505092915050565b6121508161204c565b82525050565b600060e0820190508181036000830152612170818a61210e565b90508181036020830152612184818961210e565b90506121936040830188611fee565b81810360608301526121a5818761210e565b90506121b46080830186611fee565b81810360a08301526121c6818561210e565b90506121d560c0830184612147565b98975050505050505050565b6121ea81611fe4565b81146121f557600080fd5b50565b600081359050612207816121e1565b92915050565b60006020828403121561222357612222612022565b5b6000612231848285016121f8565b91505092915050565b600060208201905061224f6000830184612147565b92915050565b60008115159050919050565b61226a81612255565b82525050565b60006020820190506122856000830184612261565b92915050565b600081519050919050565b600082825260208201905092915050565b6000819050602082019050919050565b6122c08161204c565b82525050565b60006122d283836122b7565b60208301905092915050565b6000602082019050919050565b60006122f68261228b565b6123008185612296565b935061230b836122a7565b8060005b8381101561233c57815161232388826122c6565b975061232e836122de565b92505060018101905061230f565b5085935050505092915050565b6000602082019050818103600083015261236381846122eb565b905092915050565b600080fd5b600080fd5b7f4e487b7100000000000000000000000000000000000000000000000000000000600052604160045260246000fd5b6123ad826120fd565b810181811067ffffffffffffffff821117156123cc576123cb612375565b5b80604052505050565b60006123df612018565b90506123eb82826123a4565b919050565b600067ffffffffffffffff82111561240b5761240a612375565b5b612414826120fd565b9050602081019050919050565b82818337600083830152505050565b600061244361243e846123f0565b6123d5565b90508281526020810184848401111561245f5761245e612370565b5b61246a848285612421565b509392505050565b600082601f8301126124875761248661236b565b5b8135612497848260208601612430565b91505092915050565b600080600080608085870312156124ba576124b9612022565b5b60006124c887828801612075565b945050602085013567ffffffffffffffff8111156124e9576124e8612027565b5b6124f587828801612472565b935050604085013567ffffffffffffffff81111561251657612515612027565b5b61252287828801612472565b925050606085013567ffffffffffffffff81111561254357612542612027565b5b61254f87828801612472565b91505092959194509250565b600060e082019050612570600083018a611fee565b8181036020830152612582818961210e565b90508181036040830152612596818861210e565b905081810360608301526125aa818761210e565b90506125b96080830186611fee565b6125c660a0830185612147565b81810360c08301526125d8818461210e565b905098975050505050505050565b600060e0820190506125fb600083018a611fee565b818103602083015261260d818961210e565b90508181036040830152612621818861210e565b90506126306060830187612147565b8181036080830152612642818661210e565b905061265160a0830185612261565b61265e60c0830184611fee565b98975050505050505050565b600061010082019050612680600083018b611fee565b8181036020830152612692818a61210e565b905081810360408301526126a6818961210e565b90506126b56060830188612147565b6126c26080830187611fee565b6126cf60a0830186612261565b6126dc60c0830185611fee565b81810360e08301526126ee818461210e565b90509998505050505050505050565b600080600080600060a0868803121561271957612718612022565b5b600061272788828901612075565b955050602086013567ffffffffffffffff81111561274857612747612027565b5b61275488828901612472565b945050604086013567ffffffffffffffff81111561277557612774612027565b5b61278188828901612472565b935050606086013567ffffffffffffffff8111156127a2576127a1612027565b5b6127ae88828901612472565b925050608086013567ffffffffffffffff8111156127cf576127ce612027565b5b6127db88828901612472565b9150509295509295909350565b600080604083850312156127ff576127fe612022565b5b600061280d85828601612075565b925050602061281e858286016121f8565b9150509250929050565b7f4e487b7100000000000000000000000000000000000000000000000000000000600052602260045260246000fd5b6000600282049050600182168061286f57607f821691505b60208210810361288257612881612828565b5b50919050565b7f4f6e6c79206f7267616e697a65722063616e20637265617465206120766f746560008201527f7200000000000000000000000000000000000000000000000000000000000000602082015250565b60006128e46021836120c2565b91506128ef82612888565b604082019050919050565b60006020820190508181036000830152612913816128d7565b9050919050565b7f566f74657220616c7265616479207265676973746572656420696e206375727260008201527f656e7420656c656374696f6e0000000000000000000000000000000000000000602082015250565b6000612976602c836120c2565b91506129818261291a565b604082019050919050565b600060208201905081810360008301526129a581612969565b9050919050565b7f4e487b7100000000000000000000000000000000000000000000000000000000600052601160045260246000fd5b60006129e682611fe4565b91507fffffffffffffffffffffffffffffffffffffffffffffffffffffffffffffffff8203612a1857612a176129ac565b5b600182019050919050565b60008190508160005260206000209050919050565b60006020601f8301049050919050565b600082821b905092915050565b600060088302612a857fffffffffffffffffffffffffffffffffffffffffffffffffffffffffffffffff82612a48565b612a8f8683612a48565b95508019841693508086168417925050509392505050565b6000819050919050565b6000612acc612ac7612ac284611fe4565b612aa7565b611fe4565b9050919050565b6000819050919050565b612ae683612ab1565b612afa612af282612ad3565b848454612a55565b825550505050565b600090565b612b0f612b02565b612b1a818484612add565b505050565b5b81811015612b3e57612b33600082612b07565b600181019050612b20565b5050565b601f821115612b8357612b5481612a23565b612b5d84612a38565b81016020851015612b6c578190505b612b80612b7885612a38565b830182612b1f565b50505b505050565b600082821c905092915050565b6000612ba660001984600802612b88565b1980831691505092915050565b6000612bbf8383612b95565b9150826002028217905092915050565b612bd8826120b7565b67ffffffffffffffff811115612bf157612bf0612375565b5b612bfb8254612857565b612c06828285612b42565b600060209050601f831160018114612c395760008415612c27578287015190505b612c318582612bb3565b865550612c99565b601f198416612c4786612a23565b60005b82811015612c6f57848901518255600182019150602085019450602081019050612c4a565b86831015612c8c5784890151612c88601f891682612b95565b8355505b6001600288020188555050505b505050505050565b600060e0820190508181036000830152612cbb818a61210e565b90508181036020830152612ccf818961210e565b9050612cde6040830188612147565b612ceb6060830187611fee565b612cf86080830186612261565b612d0560a0830185611fee565b81810360c0830152612d17818461210e565b905098975050505050505050565b7f4f6e6c79206f7267616e697a65722063616e2063726561746520612063616e6460008201527f6964617465000000000000000000000000000000000000000000000000000000602082015250565b6000612d816025836120c2565b9150612d8c82612d25565b604082019050919050565b60006020820190508181036000830152612db081612d74565b9050919050565b7f43616e64696461746520616c7265616479207265676973746572656420696e2060008201527f63757272656e7420656c656374696f6e00000000000000000000000000000000602082015250565b6000612e136030836120c2565b9150612e1e82612db7565b604082019050919050565b60006020820190508181036000830152612e4281612e06565b9050919050565b600060c0820190508181036000830152612e63818961210e565b90508181036020830152612e77818861210e565b90508181036040830152612e8b818761210e565b9050612e9a6060830186611fee565b612ea76080830185612147565b81810360a0830152612eb9818461210e565b9050979650505050505050565b7f4f6e6c79206f7267616e697a65722063616e2072657365742074686520656c6560008201527f6374696f6e000000000000000000000000000000000000000000000000000000602082015250565b6000612f226025836120c2565b9150612f2d82612ec6565b604082019050919050565b60006020820190508181036000830152612f5181612f15565b9050919050565b7f596f7520617265206e6f74207265676973746572656420666f7220746865206360008201527f757272656e7420656c656374696f6e0000000000000000000000000000000000602082015250565b6000612fb4602f836120c2565b9150612fbf82612f58565b604082019050919050565b60006020820190508181036000830152612fe381612fa7565b9050919050565b7f596f75206861766520616c726561647920766f74656400000000000000000000600082015250565b60006130206016836120c2565b915061302b82612fea565b602082019050919050565b6000602082019050818103600083015261304f81613013565b9050919050565b7f596f752068617665206e6f20726967687420746f20766f746500000000000000600082015250565b600061308c6019836120c2565b915061309782613056565b602082019050919050565b600060208201905081810360008301526130bb8161307f565b9050919050565b60006130cd82611fe4565b91506130d883611fe4565b92508282019050808211156130f0576130ef6129ac565b5b92915050565b600080fd5b600080fd5b60008085851115613114576131136130f6565b5b83861115613125576131246130fb565b5b6001850283019150848603905094509492505050565b600082905092915050565b60007fffffffffffffffffffffffffffffffffffffffff00000000000000000000000082169050919050565b600061317e838361313b565b826131898135613146565b925060148210156131c9576131c47fffffffffffffffffffffffffffffffffffffffff00000000000000000000000083601403600802612a48565b831692505b50509291505056fea264697066735822122080be0d68c494173f52d577d0d6c176cf978c8f77a2f749bd35ade0295520080164736f6c63430008140033",
  "linkReferences": {},
  "deployedLinkReferences": {}
}