{
  "_format": "hh-sol-artifact-1",
  "contractName": "Voting",
  "sourceName": "contracts/Voting.sol",
  "abi": [
    {
      "inputs": [],
      "stateMutability": "nonpayable",
      "type": "constructor"
    },
    {
      "anonymous": false,
      "inputs": [
        {
          "indexed": true,
          "internalType": "uint256",
          "name": "candidateId",
          "type": "uint256"
        },
        {
          "indexed": false,
          "internalType": "string",
          "name": "age",
          "type": "string"
        },
        {
          "indexed": false,
          "internalType": "string",
          "name": "name",
          "type": "string"
        },
        {
          "indexed": false,
          "internalType": "string",
          "name": "image",
          "type": "string"
        },
        {
          "indexed": false,
          "internalType": "uint256",
          "name": "voteCount",
          "type": "uint256"
        },
        {
          "indexed": false,
          "internalType": "address",
          "name": "_address",
          "type": "address"
        },
        {
          "indexed": false,
          "internalType": "string",
          "name": "ipfs",
          "type": "string"
        }
      ],
      "name": "CandidateCreate",
      "type": "event"
    },
    {
      "anonymous": false,
      "inputs": [
        {
          "indexed": true,
          "internalType": "uint256",
          "name": "voter_voterId",
          "type": "uint256"
        },
        {
          "indexed": false,
          "internalType": "string",
          "name": "voter_name",
          "type": "string"
        },
        {
          "indexed": false,
          "internalType": "string",
          "name": "voter_image",
          "type": "string"
        },
        {
          "indexed": false,
          "internalType": "address",
          "name": "voter_address",
          "type": "address"
        },
        {
          "indexed": false,
          "internalType": "uint256",
          "name": "voter_allowed",
          "type": "uint256"
        },
        {
          "indexed": false,
          "internalType": "bool",
          "name": "voter_voted",
          "type": "bool"
        },
        {
          "indexed": false,
          "internalType": "uint256",
          "name": "voter_vote",
          "type": "uint256"
        },
        {
          "indexed": false,
          "internalType": "string",
          "name": "voter_ipfs",
          "type": "string"
        }
      ],
      "name": "VoterCreated",
      "type": "event"
    },
    {
      "inputs": [],
      "name": "_candidateId",
      "outputs": [
        {
          "internalType": "uint256",
          "name": "",
          "type": "uint256"
        }
      ],
      "stateMutability": "view",
      "type": "function"
    },
    {
      "inputs": [],
      "name": "_voterId",
      "outputs": [
        {
          "internalType": "uint256",
          "name": "",
          "type": "uint256"
        }
      ],
      "stateMutability": "view",
      "type": "function"
    },
    {
      "inputs": [
        {
          "internalType": "uint256",
          "name": "",
          "type": "uint256"
        }
      ],
      "name": "candidateAddress",
      "outputs": [
        {
          "internalType": "address",
          "name": "",
          "type": "address"
        }
      ],
      "stateMutability": "view",
      "type": "function"
    },
    {
      "inputs": [
        {
          "internalType": "address",
          "name": "",
          "type": "address"
        }
      ],
      "name": "candidates",
      "outputs": [
        {
          "internalType": "uint256",
          "name": "candidateId",
          "type": "uint256"
        },
        {
          "internalType": "string",
          "name": "age",
          "type": "string"
        },
        {
          "internalType": "string",
          "name": "name",
          "type": "string"
        },
        {
          "internalType": "string",
          "name": "image",
          "type": "string"
        },
        {
          "internalType": "uint256",
          "name": "voteCount",
          "type": "uint256"
        },
        {
          "internalType": "address",
          "name": "_address",
          "type": "address"
        },
        {
          "internalType": "string",
          "name": "ipfs",
          "type": "string"
        }
      ],
      "stateMutability": "view",
      "type": "function"
    },
    {
      "inputs": [],
      "name": "getCandidate",
      "outputs": [
        {
          "internalType": "address[]",
          "name": "",
          "type": "address[]"
        }
      ],
      "stateMutability": "view",
      "type": "function"
    },
    {
      "inputs": [
        {
          "internalType": "address",
          "name": "_address",
          "type": "address"
        }
      ],
      "name": "getCandidateData",
      "outputs": [
        {
          "internalType": "string",
          "name": "",
          "type": "string"
        },
        {
          "internalType": "string",
          "name": "",
          "type": "string"
        },
        {
          "internalType": "uint256",
          "name": "",
          "type": "uint256"
        },
        {
          "internalType": "string",
          "name": "",
          "type": "string"
        },
        {
          "internalType": "uint256",
          "name": "",
          "type": "uint256"
        },
        {
          "internalType": "string",
          "name": "",
          "type": "string"
        },
        {
          "internalType": "address",
          "name": "",
          "type": "address"
        }
      ],
      "stateMutability": "view",
      "type": "function"
    },
    {
      "inputs": [],
      "name": "getCandidateLength",
      "outputs": [
        {
          "internalType": "uint256",
          "name": "",
          "type": "uint256"
        }
      ],
      "stateMutability": "view",
      "type": "function"
    },
    {
      "inputs": [],
      "name": "getKey",
      "outputs": [
        {
          "internalType": "address[]",
          "name": "",
          "type": "address[]"
        }
      ],
      "stateMutability": "view",
      "type": "function"
    },
    {
      "inputs": [],
      "name": "getVotedVoterList",
      "outputs": [
        {
          "internalType": "address[]",
          "name": "",
          "type": "address[]"
        }
      ],
      "stateMutability": "view",
      "type": "function"
    },
    {
      "inputs": [
        {
          "internalType": "address",
          "name": "_address",
          "type": "address"
        }
      ],
      "name": "getVoterData",
      "outputs": [
        {
          "internalType": "uint256",
          "name": "",
          "type": "uint256"
        },
        {
          "internalType": "string",
          "name": "",
          "type": "string"
        },
        {
          "internalType": "string",
          "name": "",
          "type": "string"
        },
        {
          "internalType": "address",
          "name": "",
          "type": "address"
        },
        {
          "internalType": "string",
          "name": "",
          "type": "string"
        },
        {
          "internalType": "bool",
          "name": "",
          "type": "bool"
        },
        {
          "internalType": "uint256",
          "name": "",
          "type": "uint256"
        }
      ],
      "stateMutability": "view",
      "type": "function"
    },
    {
      "inputs": [],
      "name": "getVoterLength",
      "outputs": [
        {
          "internalType": "uint256",
          "name": "",
          "type": "uint256"
        }
      ],
      "stateMutability": "view",
      "type": "function"
    },
    {
      "inputs": [],
      "name": "getVoterList",
      "outputs": [
        {
          "internalType": "address[]",
          "name": "",
          "type": "address[]"
        }
      ],
      "stateMutability": "view",
      "type": "function"
    },
    {
      "inputs": [
        {
          "internalType": "address",
          "name": "_candidateAddress",
          "type": "address"
        },
        {
          "internalType": "uint256",
          "name": "_candidateVoteId",
          "type": "uint256"
        }
      ],
      "name": "giveVote",
      "outputs": [],
      "stateMutability": "nonpayable",
      "type": "function"
    },
    {
      "inputs": [
        {
          "internalType": "address",
          "name": "_address",
          "type": "address"
        },
        {
          "internalType": "string",
          "name": "_age",
          "type": "string"
        },
        {
          "internalType": "string",
          "name": "_name",
          "type": "string"
        },
        {
          "internalType": "string",
          "name": "_image",
          "type": "string"
        },
        {
          "internalType": "string",
          "name": "_ipfs",
          "type": "string"
        }
      ],
      "name": "setCandidate",
      "outputs": [],
      "stateMutability": "nonpayable",
      "type": "function"
    },
    {
      "inputs": [
        {
          "internalType": "address",
          "name": "_address",
          "type": "address"
        },
        {
          "internalType": "string",
          "name": "_name",
          "type": "string"
        },
        {
          "internalType": "string",
          "name": "_image",
          "type": "string"
        },
        {
          "internalType": "string",
          "name": "_ipfs",
          "type": "string"
        }
      ],
      "name": "setVoter",
      "outputs": [],
      "stateMutability": "nonpayable",
      "type": "function"
    },
    {
      "inputs": [
        {
          "internalType": "uint256",
          "name": "",
          "type": "uint256"
        }
      ],
      "name": "votedVoters",
      "outputs": [
        {
          "internalType": "address",
          "name": "",
          "type": "address"
        }
      ],
      "stateMutability": "view",
      "type": "function"
    },
    {
      "inputs": [
        {
          "internalType": "address",
          "name": "",
          "type": "address"
        }
      ],
      "name": "voters",
      "outputs": [
        {
          "internalType": "uint256",
          "name": "voter_voterId",
          "type": "uint256"
        },
        {
          "internalType": "string",
          "name": "voter_name",
          "type": "string"
        },
        {
          "internalType": "string",
          "name": "voter_image",
          "type": "string"
        },
        {
          "internalType": "address",
          "name": "voter_address",
          "type": "address"
        },
        {
          "internalType": "uint256",
          "name": "voter_allowed",
          "type": "uint256"
        },
        {
          "internalType": "bool",
          "name": "voter_voted",
          "type": "bool"
        },
        {
          "internalType": "uint256",
          "name": "voter_vote",
          "type": "uint256"
        },
        {
          "internalType": "string",
          "name": "voter_ipfs",
          "type": "string"
        }
      ],
      "stateMutability": "view",
      "type": "function"
    },
    {
      "inputs": [
        {
          "internalType": "uint256",
          "name": "",
          "type": "uint256"
        }
      ],
      "name": "votersAddress",
      "outputs": [
        {
          "internalType": "address",
          "name": "",
          "type": "address"
        }
      ],
      "stateMutability": "view",
      "type": "function"
    },
    {
      "inputs": [],
      "name": "votingOrganizer",
      "outputs": [
        {
          "internalType": "address",
          "name": "",
          "type": "address"
        }
      ],
      "stateMutability": "view",
      "type": "function"
    }
  ],
  "bytecode": "0x608060405234801561001057600080fd5b5033600260006101000a81548173ffffffffffffffffffffffffffffffffffffffff021916908373ffffffffffffffffffffffffffffffffffffffff1602179055506127ab806100616000396000f3fe608060405234801561001057600080fd5b50600436106101215760003560e01c80638ab66a90116100ad578063b28d92ae11610071578063b28d92ae1461035f578063b9be31521461037d578063c91ec7121461039b578063f7522a83146103b7578063fa678ae7146103d557610121565b80638ab66a90146102805780638e945685146102b65780638fb4cd80146102d4578063a3ec138d1461030a578063a73889671461034157610121565b80635cc48aa7116100f45780635cc48aa7146101da57806370218b85146101f85780637831ffb31461021657806382678dd61461024657806382aac8f31461026457610121565b806305ad45a4146101265780632a466ac7146101445780633a88251a1461017a57806343242daa146101aa575b600080fd5b61012e6103f1565b60405161013b9190611b30565b60405180910390f35b61015e60048036038101906101599190611bbd565b6103fe565b6040516101719796959493929190611c92565b60405180910390f35b610194600480360381019061018f9190611d49565b610845565b6040516101a19190611d76565b60405180910390f35b6101c460048036038101906101bf9190611d49565b610884565b6040516101d19190611d76565b60405180910390f35b6101e26108c3565b6040516101ef9190611d76565b60405180910390f35b6102006108e9565b60405161020d9190611e4f565b60405180910390f35b610230600480360381019061022b9190611d49565b610977565b60405161023d9190611d76565b60405180910390f35b61024e6109b6565b60405161025b9190611e4f565b60405180910390f35b61027e60048036038101906102799190611fa6565b610a44565b005b61029a60048036038101906102959190611bbd565b610cc5565b6040516102ad9796959493929190612061565b60405180910390f35b6102be610f47565b6040516102cb9190611e4f565b60405180910390f35b6102ee60048036038101906102e99190611bbd565b610fd5565b6040516103019796959493929190612107565b60405180910390f35b610324600480360381019061031f9190611bbd565b61139d565b60405161033898979695949392919061218b565b60405180910390f35b6103496115aa565b6040516103569190611b30565b60405180910390f35b6103676115b0565b6040516103749190611e4f565b60405180910390f35b61038561163e565b6040516103929190611b30565b60405180910390f35b6103b560048036038101906103b0919061221e565b611644565b005b6103bf6118a2565b6040516103cc9190611b30565b60405180910390f35b6103ef60048036038101906103ea9190612309565b6118af565b005b6000600680549050905090565b60608060006060600060606000600460008973ffffffffffffffffffffffffffffffffffffffff1673ffffffffffffffffffffffffffffffffffffffff168152602001908152602001600020600101600460008a73ffffffffffffffffffffffffffffffffffffffff1673ffffffffffffffffffffffffffffffffffffffff168152602001908152602001600020600201600460008b73ffffffffffffffffffffffffffffffffffffffff1673ffffffffffffffffffffffffffffffffffffffff16815260200190815260200160002060000154600460008c73ffffffffffffffffffffffffffffffffffffffff1673ffffffffffffffffffffffffffffffffffffffff168152602001908152602001600020600301600460008d73ffffffffffffffffffffffffffffffffffffffff1673ffffffffffffffffffffffffffffffffffffffff16815260200190815260200160002060040154600460008e73ffffffffffffffffffffffffffffffffffffffff1673ffffffffffffffffffffffffffffffffffffffff168152602001908152602001600020600601600460008f73ffffffffffffffffffffffffffffffffffffffff1673ffffffffffffffffffffffffffffffffffffffff16815260200190815260200160002060050160009054906101000a900473ffffffffffffffffffffffffffffffffffffffff1686805461060890612378565b80601f016020809104026020016040519081016040528092919081815260200182805461063490612378565b80156106815780601f1061065657610100808354040283529160200191610681565b820191906000526020600020905b81548152906001019060200180831161066457829003601f168201915b5050505050965085805461069490612378565b80601f01602080910402602001604051908101604052809291908181526020018280546106c090612378565b801561070d5780601f106106e25761010080835404028352916020019161070d565b820191906000526020600020905b8154815290600101906020018083116106f057829003601f168201915b5050505050955083805461072090612378565b80601f016020809104026020016040519081016040528092919081815260200182805461074c90612378565b80156107995780601f1061076e57610100808354040283529160200191610799565b820191906000526020600020905b81548152906001019060200180831161077c57829003601f168201915b505050505093508180546107ac90612378565b80601f01602080910402602001604051908101604052809291908181526020018280546107d890612378565b80156108255780601f106107fa57610100808354040283529160200191610825565b820191906000526020600020905b81548152906001019060200180831161080857829003601f168201915b505050505091509650965096509650965096509650919395979092949650565b6003818154811061085557600080fd5b906000526020600020016000915054906101000a900473ffffffffffffffffffffffffffffffffffffffff1681565b6006818154811061089457600080fd5b906000526020600020016000915054906101000a900473ffffffffffffffffffffffffffffffffffffffff1681565b600260009054906101000a900473ffffffffffffffffffffffffffffffffffffffff1681565b6060600380548060200260200160405190810160405280929190818152602001828054801561096d57602002820191906000526020600020905b8160009054906101000a900473ffffffffffffffffffffffffffffffffffffffff1673ffffffffffffffffffffffffffffffffffffffff1681526020019060010190808311610923575b5050505050905090565b6005818154811061098757600080fd5b906000526020600020016000915054906101000a900473ffffffffffffffffffffffffffffffffffffffff1681565b60606003805480602002602001604051908101604052809291908181526020018280548015610a3a57602002820191906000526020600020905b8160009054906101000a900473ffffffffffffffffffffffffffffffffffffffff1673ffffffffffffffffffffffffffffffffffffffff16815260200190600101908083116109f0575b5050505050905090565b3373ffffffffffffffffffffffffffffffffffffffff16600260009054906101000a900473ffffffffffffffffffffffffffffffffffffffff1673ffffffffffffffffffffffffffffffffffffffff1614610ad4576040517f08c379a0000000000000000000000000000000000000000000000000000000008152600401610acb9061241c565b60405180910390fd5b600080815480929190610ae69061246b565b91905055506000805490506000600760008773ffffffffffffffffffffffffffffffffffffffff1673ffffffffffffffffffffffffffffffffffffffff168152602001908152602001600020905081816000018190555084816001019080519060200190610b55929190611a74565b5083816002019080519060200190610b6e929190611a74565b50858160030160006101000a81548173ffffffffffffffffffffffffffffffffffffffff021916908373ffffffffffffffffffffffffffffffffffffffff1602179055506001816004018190555060008160050160006101000a81548160ff0219169083151502179055506103e8816006018190555082816007019080519060200190610bfc929190611a74565b506006869080600181540180825580915050600190039060005260206000200160009091909190916101000a81548173ffffffffffffffffffffffffffffffffffffffff021916908373ffffffffffffffffffffffffffffffffffffffff160217905550817ff5f39971dd62d9929e3a9feaa6bb77fe7c7da0001babff8a65a7e51ad0201c1986868985600401548660050160009054906101000a900460ff1687600601548a604051610cb597969594939291906124b4565b60405180910390a2505050505050565b6004602052806000526040600020600091509050806000015490806001018054610cee90612378565b80601f0160208091040260200160405190810160405280929190818152602001828054610d1a90612378565b8015610d675780601f10610d3c57610100808354040283529160200191610d67565b820191906000526020600020905b815481529060010190602001808311610d4a57829003601f168201915b505050505090806002018054610d7c90612378565b80601f0160208091040260200160405190810160405280929190818152602001828054610da890612378565b8015610df55780601f10610dca57610100808354040283529160200191610df5565b820191906000526020600020905b815481529060010190602001808311610dd857829003601f168201915b505050505090806003018054610e0a90612378565b80601f0160208091040260200160405190810160405280929190818152602001828054610e3690612378565b8015610e835780601f10610e5857610100808354040283529160200191610e83565b820191906000526020600020905b815481529060010190602001808311610e6657829003601f168201915b5050505050908060040154908060050160009054906101000a900473ffffffffffffffffffffffffffffffffffffffff1690806006018054610ec490612378565b80601f0160208091040260200160405190810160405280929190818152602001828054610ef090612378565b8015610f3d5780601f10610f1257610100808354040283529160200191610f3d565b820191906000526020600020905b815481529060010190602001808311610f2057829003601f168201915b5050505050905087565b60606005805480602002602001604051908101604052809291908181526020018280548015610fcb57602002820191906000526020600020905b8160009054906101000a900473ffffffffffffffffffffffffffffffffffffffff1673ffffffffffffffffffffffffffffffffffffffff1681526020019060010190808311610f81575b5050505050905090565b600060608060006060600080600760008973ffffffffffffffffffffffffffffffffffffffff1673ffffffffffffffffffffffffffffffffffffffff16815260200190815260200160002060000154600760008a73ffffffffffffffffffffffffffffffffffffffff1673ffffffffffffffffffffffffffffffffffffffff168152602001908152602001600020600101600760008b73ffffffffffffffffffffffffffffffffffffffff1673ffffffffffffffffffffffffffffffffffffffff168152602001908152602001600020600201600760008c73ffffffffffffffffffffffffffffffffffffffff1673ffffffffffffffffffffffffffffffffffffffff16815260200190815260200160002060030160009054906101000a900473ffffffffffffffffffffffffffffffffffffffff16600760008d73ffffffffffffffffffffffffffffffffffffffff1673ffffffffffffffffffffffffffffffffffffffff168152602001908152602001600020600701600760008e73ffffffffffffffffffffffffffffffffffffffff1673ffffffffffffffffffffffffffffffffffffffff16815260200190815260200160002060050160009054906101000a900460ff16600760008f73ffffffffffffffffffffffffffffffffffffffff1673ffffffffffffffffffffffffffffffffffffffff168152602001908152602001600020600401548580546111ec90612378565b80601f016020809104026020016040519081016040528092919081815260200182805461121890612378565b80156112655780601f1061123a57610100808354040283529160200191611265565b820191906000526020600020905b81548152906001019060200180831161124857829003601f168201915b5050505050955084805461127890612378565b80601f01602080910402602001604051908101604052809291908181526020018280546112a490612378565b80156112f15780601f106112c6576101008083540402835291602001916112f1565b820191906000526020600020905b8154815290600101906020018083116112d457829003601f168201915b5050505050945082805461130490612378565b80601f016020809104026020016040519081016040528092919081815260200182805461133090612378565b801561137d5780601f106113525761010080835404028352916020019161137d565b820191906000526020600020905b81548152906001019060200180831161136057829003601f168201915b505050505092509650965096509650965096509650919395979092949650565b60076020528060005260406000206000915090508060000154908060010180546113c690612378565b80601f01602080910402602001604051908101604052809291908181526020018280546113f290612378565b801561143f5780601f106114145761010080835404028352916020019161143f565b820191906000526020600020905b81548152906001019060200180831161142257829003601f168201915b50505050509080600201805461145490612378565b80601f016020809104026020016040519081016040528092919081815260200182805461148090612378565b80156114cd5780601f106114a2576101008083540402835291602001916114cd565b820191906000526020600020905b8154815290600101906020018083116114b057829003601f168201915b5050505050908060030160009054906101000a900473ffffffffffffffffffffffffffffffffffffffff16908060040154908060050160009054906101000a900460ff169080600601549080600701805461152790612378565b80601f016020809104026020016040519081016040528092919081815260200182805461155390612378565b80156115a05780601f10611575576101008083540402835291602001916115a0565b820191906000526020600020905b81548152906001019060200180831161158357829003601f168201915b5050505050905088565b60015481565b6060600680548060200260200160405190810160405280929190818152602001828054801561163457602002820191906000526020600020905b8160009054906101000a900473ffffffffffffffffffffffffffffffffffffffff1673ffffffffffffffffffffffffffffffffffffffff16815260200190600101908083116115ea575b5050505050905090565b60005481565b3373ffffffffffffffffffffffffffffffffffffffff16600260009054906101000a900473ffffffffffffffffffffffffffffffffffffffff1673ffffffffffffffffffffffffffffffffffffffff16146116d4576040517f08c379a00000000000000000000000000000000000000000000000000000000081526004016116cb906125aa565b60405180910390fd5b600160008154809291906116e79061246b565b9190505550600060015490506000600460008873ffffffffffffffffffffffffffffffffffffffff1673ffffffffffffffffffffffffffffffffffffffff168152602001908152602001600020905081816000018190555085816001019080519060200190611757929190611a74565b5084816002019080519060200190611770929190611a74565b5083816003019080519060200190611789929190611a74565b5060008160040181905550868160050160006101000a81548173ffffffffffffffffffffffffffffffffffffffff021916908373ffffffffffffffffffffffffffffffffffffffff160217905550828160060190805190602001906117ef929190611a74565b506003879080600181540180825580915050600190039060005260206000200160009091909190916101000a81548173ffffffffffffffffffffffffffffffffffffffff021916908373ffffffffffffffffffffffffffffffffffffffff160217905550817fd297f12b256bb8485a6013fb5e302017018123e99a0ebb20756c09e1707b4b9087878785600401548c89604051611891969594939291906125ca565b60405180910390a250505050505050565b6000600380549050905090565b6000600760003373ffffffffffffffffffffffffffffffffffffffff1673ffffffffffffffffffffffffffffffffffffffff16815260200190815260200160002090508060050160009054906101000a900460ff1615611944576040517f08c379a000000000000000000000000000000000000000000000000000000000815260040161193b90612693565b60405180910390fd5b60008160040154141561198c576040517f08c379a0000000000000000000000000000000000000000000000000000000008152600401611983906126ff565b60405180910390fd5b60018160050160006101000a81548160ff0219169083151502179055508181600601819055506005339080600181540180825580915050600190039060005260206000200160009091909190916101000a81548173ffffffffffffffffffffffffffffffffffffffff021916908373ffffffffffffffffffffffffffffffffffffffff1602179055506001600460008573ffffffffffffffffffffffffffffffffffffffff1673ffffffffffffffffffffffffffffffffffffffff1681526020019081526020016000206004016000828254611a68919061271f565b92505081905550505050565b828054611a8090612378565b90600052602060002090601f016020900481019282611aa25760008555611ae9565b82601f10611abb57805160ff1916838001178555611ae9565b82800160010185558215611ae9579182015b82811115611ae8578251825591602001919060010190611acd565b5b509050611af69190611afa565b5090565b5b80821115611b13576000816000905550600101611afb565b5090565b6000819050919050565b611b2a81611b17565b82525050565b6000602082019050611b456000830184611b21565b92915050565b6000604051905090565b600080fd5b600080fd5b600073ffffffffffffffffffffffffffffffffffffffff82169050919050565b6000611b8a82611b5f565b9050919050565b611b9a81611b7f565b8114611ba557600080fd5b50565b600081359050611bb781611b91565b92915050565b600060208284031215611bd357611bd2611b55565b5b6000611be184828501611ba8565b91505092915050565b600081519050919050565b600082825260208201905092915050565b60005b83811015611c24578082015181840152602081019050611c09565b83811115611c33576000848401525b50505050565b6000601f19601f8301169050919050565b6000611c5582611bea565b611c5f8185611bf5565b9350611c6f818560208601611c06565b611c7881611c39565b840191505092915050565b611c8c81611b7f565b82525050565b600060e0820190508181036000830152611cac818a611c4a565b90508181036020830152611cc08189611c4a565b9050611ccf6040830188611b21565b8181036060830152611ce18187611c4a565b9050611cf06080830186611b21565b81810360a0830152611d028185611c4a565b9050611d1160c0830184611c83565b98975050505050505050565b611d2681611b17565b8114611d3157600080fd5b50565b600081359050611d4381611d1d565b92915050565b600060208284031215611d5f57611d5e611b55565b5b6000611d6d84828501611d34565b91505092915050565b6000602082019050611d8b6000830184611c83565b92915050565b600081519050919050565b600082825260208201905092915050565b6000819050602082019050919050565b611dc681611b7f565b82525050565b6000611dd88383611dbd565b60208301905092915050565b6000602082019050919050565b6000611dfc82611d91565b611e068185611d9c565b9350611e1183611dad565b8060005b83811015611e42578151611e298882611dcc565b9750611e3483611de4565b925050600181019050611e15565b5085935050505092915050565b60006020820190508181036000830152611e698184611df1565b905092915050565b600080fd5b600080fd5b7f4e487b7100000000000000000000000000000000000000000000000000000000600052604160045260246000fd5b611eb382611c39565b810181811067ffffffffffffffff82111715611ed257611ed1611e7b565b5b80604052505050565b6000611ee5611b4b565b9050611ef18282611eaa565b919050565b600067ffffffffffffffff821115611f1157611f10611e7b565b5b611f1a82611c39565b9050602081019050919050565b82818337600083830152505050565b6000611f49611f4484611ef6565b611edb565b905082815260208101848484011115611f6557611f64611e76565b5b611f70848285611f27565b509392505050565b600082601f830112611f8d57611f8c611e71565b5b8135611f9d848260208601611f36565b91505092915050565b60008060008060808587031215611fc057611fbf611b55565b5b6000611fce87828801611ba8565b945050602085013567ffffffffffffffff811115611fef57611fee611b5a565b5b611ffb87828801611f78565b935050604085013567ffffffffffffffff81111561201c5761201b611b5a565b5b61202887828801611f78565b925050606085013567ffffffffffffffff81111561204957612048611b5a565b5b61205587828801611f78565b91505092959194509250565b600060e082019050612076600083018a611b21565b81810360208301526120888189611c4a565b9050818103604083015261209c8188611c4a565b905081810360608301526120b08187611c4a565b90506120bf6080830186611b21565b6120cc60a0830185611c83565b81810360c08301526120de8184611c4a565b905098975050505050505050565b60008115159050919050565b612101816120ec565b82525050565b600060e08201905061211c600083018a611b21565b818103602083015261212e8189611c4a565b905081810360408301526121428188611c4a565b90506121516060830187611c83565b81810360808301526121638186611c4a565b905061217260a08301856120f8565b61217f60c0830184611b21565b98975050505050505050565b6000610100820190506121a1600083018b611b21565b81810360208301526121b3818a611c4a565b905081810360408301526121c78189611c4a565b90506121d66060830188611c83565b6121e36080830187611b21565b6121f060a08301866120f8565b6121fd60c0830185611b21565b81810360e083015261220f8184611c4a565b90509998505050505050505050565b600080600080600060a0868803121561223a57612239611b55565b5b600061224888828901611ba8565b955050602086013567ffffffffffffffff81111561226957612268611b5a565b5b61227588828901611f78565b945050604086013567ffffffffffffffff81111561229657612295611b5a565b5b6122a288828901611f78565b935050606086013567ffffffffffffffff8111156122c3576122c2611b5a565b5b6122cf88828901611f78565b925050608086013567ffffffffffffffff8111156122f0576122ef611b5a565b5b6122fc88828901611f78565b9150509295509295909350565b600080604083850312156123205761231f611b55565b5b600061232e85828601611ba8565b925050602061233f85828601611d34565b9150509250929050565b7f4e487b7100000000000000000000000000000000000000000000000000000000600052602260045260246000fd5b6000600282049050600182168061239057607f821691505b602082108114156123a4576123a3612349565b5b50919050565b7f4f6e6c79206f7267616e697a65722063616e20637265617465206120766f746560008201527f7200000000000000000000000000000000000000000000000000000000000000602082015250565b6000612406602183611bf5565b9150612411826123aa565b604082019050919050565b60006020820190508181036000830152612435816123f9565b9050919050565b7f4e487b7100000000000000000000000000000000000000000000000000000000600052601160045260246000fd5b600061247682611b17565b91507fffffffffffffffffffffffffffffffffffffffffffffffffffffffffffffffff8214156124a9576124a861243c565b5b600182019050919050565b600060e08201905081810360008301526124ce818a611c4a565b905081810360208301526124e28189611c4a565b90506124f16040830188611c83565b6124fe6060830187611b21565b61250b60808301866120f8565b61251860a0830185611b21565b81810360c083015261252a8184611c4a565b905098975050505050505050565b7f4f6e6c79206f7267616e697a65722063616e2063726561746520612063616e6460008201527f6964617465000000000000000000000000000000000000000000000000000000602082015250565b6000612594602583611bf5565b915061259f82612538565b604082019050919050565b600060208201905081810360008301526125c381612587565b9050919050565b600060c08201905081810360008301526125e48189611c4a565b905081810360208301526125f88188611c4a565b9050818103604083015261260c8187611c4a565b905061261b6060830186611b21565b6126286080830185611c83565b81810360a083015261263a8184611c4a565b9050979650505050505050565b7f596f75206861766520616c726561647920766f74656400000000000000000000600082015250565b600061267d601683611bf5565b915061268882612647565b602082019050919050565b600060208201905081810360008301526126ac81612670565b9050919050565b7f596f752068617665206e6f20726967687420746f20766f746500000000000000600082015250565b60006126e9601983611bf5565b91506126f4826126b3565b602082019050919050565b60006020820190508181036000830152612718816126dc565b9050919050565b600061272a82611b17565b915061273583611b17565b9250827fffffffffffffffffffffffffffffffffffffffffffffffffffffffffffffffff0382111561276a5761276961243c565b5b82820190509291505056fea2646970667358221220841d1dda1c4e5a2c9ea549c80368ee2fa17fd1350e7286884df56a7cb8dbbc0864736f6c63430008090033",
  "linkReferences": {},
  "deployedLinkReferences": {}
}