{
  "_format": "hh-sol-artifact-1",
  "contractName": "Voting",
  "sourceName": "contracts/Voting.sol",
  "abi": [
    {
      "inputs": [
        {
          "internalType": "address",
          "name": "trustedForwarder",
          "type": "address"
        }
      ],
      "stateMutability": "nonpayable",
      "type": "constructor"
    },
    {
      "anonymous": false,
      "inputs": [
        {
          "indexed": false,
          "internalType": "address",
          "name": "oldAdmin",
          "type": "address"
        },
        {
          "indexed": false,
          "internalType": "address",
          "name": "newAdmin",
          "type": "address"
        }
      ],
      "name": "AdminChanged",
      "type": "event"
    },
    {
      "anonymous": false,
      "inputs": [
        {
          "indexed": true,
          "internalType": "uint256",
          "name": "candidateId",
          "type": "uint256"
        },
        {
          "indexed": false,
          "internalType": "string",
          "name": "age",
          "type": "string"
        },
        {
          "indexed": false,
          "internalType": "string",
          "name": "name",
          "type": "string"
        },
        {
          "indexed": false,
          "internalType": "string",
          "name": "image",
          "type": "string"
        },
        {
          "indexed": false,
          "internalType": "uint256",
          "name": "voteCount",
          "type": "uint256"
        },
        {
          "indexed": false,
          "internalType": "address",
          "name": "_address",
          "type": "address"
        },
        {
          "indexed": false,
          "internalType": "string",
          "name": "ipfs",
          "type": "string"
        }
      ],
      "name": "CandidateCreate",
      "type": "event"
    },
    {
      "anonymous": false,
      "inputs": [
        {
          "indexed": false,
          "internalType": "uint256",
          "name": "candidateId",
          "type": "uint256"
        },
        {
          "indexed": false,
          "internalType": "string",
          "name": "name",
          "type": "string"
        }
      ],
      "name": "CandidateCreated",
      "type": "event"
    },
    {
      "anonymous": false,
      "inputs": [
        {
          "indexed": false,
          "internalType": "uint256",
          "name": "newVersion",
          "type": "uint256"
        }
      ],
      "name": "ElectionReset",
      "type": "event"
    },
    {
      "anonymous": false,
      "inputs": [
        {
          "indexed": false,
          "internalType": "address",
          "name": "oldRelayer",
          "type": "address"
        },
        {
          "indexed": false,
          "internalType": "address",
          "name": "newRelayer",
          "type": "address"
        }
      ],
      "name": "RelayerChanged",
      "type": "event"
    },
    {
      "anonymous": false,
      "inputs": [
        {
          "indexed": false,
          "internalType": "address",
          "name": "voter",
          "type": "address"
        },
        {
          "indexed": false,
          "internalType": "uint256",
          "name": "candidateId",
          "type": "uint256"
        }
      ],
      "name": "VoteCast",
      "type": "event"
    },
    {
      "anonymous": false,
      "inputs": [
        {
          "indexed": true,
          "internalType": "uint256",
          "name": "voter_voterId",
          "type": "uint256"
        },
        {
          "indexed": false,
          "internalType": "string",
          "name": "voter_name",
          "type": "string"
        },
        {
          "indexed": false,
          "internalType": "string",
          "name": "voter_image",
          "type": "string"
        },
        {
          "indexed": false,
          "internalType": "address",
          "name": "voter_address",
          "type": "address"
        },
        {
          "indexed": false,
          "internalType": "uint256",
          "name": "voter_allowed",
          "type": "uint256"
        },
        {
          "indexed": false,
          "internalType": "bool",
          "name": "voter_voted",
          "type": "bool"
        },
        {
          "indexed": false,
          "internalType": "uint256",
          "name": "voter_vote",
          "type": "uint256"
        },
        {
          "indexed": false,
          "internalType": "string",
          "name": "voter_ipfs",
          "type": "string"
        }
      ],
      "name": "VoterCreated",
      "type": "event"
    },
    {
      "anonymous": false,
      "inputs": [
        {
          "indexed": false,
          "internalType": "address",
          "name": "voter",
          "type": "address"
        }
      ],
      "name": "VoterRegistered",
      "type": "event"
    },
    {
      "inputs": [],
      "name": "_candidateId",
      "outputs": [
        {
          "internalType": "uint256",
          "name": "",
          "type": "uint256"
        }
      ],
      "stateMutability": "view",
      "type": "function"
    },
    {
      "inputs": [],
      "name": "_voterId",
      "outputs": [
        {
          "internalType": "uint256",
          "name": "",
          "type": "uint256"
        }
      ],
      "stateMutability": "view",
      "type": "function"
    },
    {
      "inputs": [
        {
          "internalType": "uint256",
          "name": "",
          "type": "uint256"
        }
      ],
      "name": "candidateAddress",
      "outputs": [
        {
          "internalType": "address",
          "name": "",
          "type": "address"
        }
      ],
      "stateMutability": "view",
      "type": "function"
    },
    {
      "inputs": [
        {
          "internalType": "address",
          "name": "",
          "type": "address"
        }
      ],
      "name": "candidateElectionVersion",
      "outputs": [
        {
          "internalType": "uint256",
          "name": "",
          "type": "uint256"
        }
      ],
      "stateMutability": "view",
      "type": "function"
    },
    {
      "inputs": [
        {
          "internalType": "address",
          "name": "",
          "type": "address"
        }
      ],
      "name": "candidates",
      "outputs": [
        {
          "internalType": "uint256",
          "name": "candidateId",
          "type": "uint256"
        },
        {
          "internalType": "string",
          "name": "age",
          "type": "string"
        },
        {
          "internalType": "string",
          "name": "name",
          "type": "string"
        },
        {
          "internalType": "string",
          "name": "image",
          "type": "string"
        },
        {
          "internalType": "uint256",
          "name": "voteCount",
          "type": "uint256"
        },
        {
          "internalType": "address",
          "name": "_address",
          "type": "address"
        },
        {
          "internalType": "string",
          "name": "ipfs",
          "type": "string"
        }
      ],
      "stateMutability": "view",
      "type": "function"
    },
    {
      "inputs": [
        {
          "internalType": "address",
          "name": "newRelayer",
          "type": "address"
        }
      ],
      "name": "changeRelayer",
      "outputs": [],
      "stateMutability": "nonpayable",
      "type": "function"
    },
    {
      "inputs": [],
      "name": "currentRelayer",
      "outputs": [
        {
          "internalType": "address",
          "name": "",
          "type": "address"
        }
      ],
      "stateMutability": "view",
      "type": "function"
    },
    {
      "inputs": [],
      "name": "electionVersion",
      "outputs": [
        {
          "internalType": "uint256",
          "name": "",
          "type": "uint256"
        }
      ],
      "stateMutability": "view",
      "type": "function"
    },
    {
      "inputs": [],
      "name": "getCandidate",
      "outputs": [
        {
          "internalType": "address[]",
          "name": "",
          "type": "address[]"
        }
      ],
      "stateMutability": "view",
      "type": "function"
    },
    {
      "inputs": [
        {
          "internalType": "address",
          "name": "_address",
          "type": "address"
        }
      ],
      "name": "getCandidateData",
      "outputs": [
        {
          "internalType": "string",
          "name": "",
          "type": "string"
        },
        {
          "internalType": "string",
          "name": "",
          "type": "string"
        },
        {
          "internalType": "uint256",
          "name": "",
          "type": "uint256"
        },
        {
          "internalType": "string",
          "name": "",
          "type": "string"
        },
        {
          "internalType": "uint256",
          "name": "",
          "type": "uint256"
        },
        {
          "internalType": "string",
          "name": "",
          "type": "string"
        },
        {
          "internalType": "address",
          "name": "",
          "type": "address"
        }
      ],
      "stateMutability": "view",
      "type": "function"
    },
    {
      "inputs": [],
      "name": "getCandidateLength",
      "outputs": [
        {
          "internalType": "uint256",
          "name": "",
          "type": "uint256"
        }
      ],
      "stateMutability": "view",
      "type": "function"
    },
    {
      "inputs": [],
      "name": "getKey",
      "outputs": [
        {
          "internalType": "address[]",
          "name": "",
          "type": "address[]"
        }
      ],
      "stateMutability": "view",
      "type": "function"
    },
    {
      "inputs": [],
      "name": "getVotedVoterList",
      "outputs": [
        {
          "internalType": "address[]",
          "name": "",
          "type": "address[]"
        }
      ],
      "stateMutability": "view",
      "type": "function"
    },
    {
      "inputs": [
        {
          "internalType": "address",
          "name": "_address",
          "type": "address"
        }
      ],
      "name": "getVoterData",
      "outputs": [
        {
          "internalType": "uint256",
          "name": "",
          "type": "uint256"
        },
        {
          "internalType": "string",
          "name": "",
          "type": "string"
        },
        {
          "internalType": "string",
          "name": "",
          "type": "string"
        },
        {
          "internalType": "address",
          "name": "",
          "type": "address"
        },
        {
          "internalType": "string",
          "name": "",
          "type": "string"
        },
        {
          "internalType": "bool",
          "name": "",
          "type": "bool"
        },
        {
          "internalType": "uint256",
          "name": "",
          "type": "uint256"
        }
      ],
      "stateMutability": "view",
      "type": "function"
    },
    {
      "inputs": [],
      "name": "getVoterLength",
      "outputs": [
        {
          "internalType": "uint256",
          "name": "",
          "type": "uint256"
        }
      ],
      "stateMutability": "view",
      "type": "function"
    },
    {
      "inputs": [],
      "name": "getVoterList",
      "outputs": [
        {
          "internalType": "address[]",
          "name": "",
          "type": "address[]"
        }
      ],
      "stateMutability": "view",
      "type": "function"
    },
    {
      "inputs": [
        {
          "internalType": "address",
          "name": "_candidateAddress",
          "type": "address"
        },
        {
          "internalType": "uint256",
          "name": "_candidateVoteId",
          "type": "uint256"
        }
      ],
      "name": "giveVote",
      "outputs": [],
      "stateMutability": "nonpayable",
      "type": "function"
    },
    {
      "inputs": [
        {
          "internalType": "address",
          "name": "forwarder",
          "type": "address"
        }
      ],
      "name": "isTrustedForwarder",
      "outputs": [
        {
          "internalType": "bool",
          "name": "",
          "type": "bool"
        }
      ],
      "stateMutability": "view",
      "type": "function"
    },
    {
      "inputs": [],
      "name": "resetElection",
      "outputs": [],
      "stateMutability": "nonpayable",
      "type": "function"
    },
    {
      "inputs": [
        {
          "internalType": "address",
          "name": "_address",
          "type": "address"
        },
        {
          "internalType": "string",
          "name": "_age",
          "type": "string"
        },
        {
          "internalType": "string",
          "name": "_name",
          "type": "string"
        },
        {
          "internalType": "string",
          "name": "_image",
          "type": "string"
        },
        {
          "internalType": "string",
          "name": "_ipfs",
          "type": "string"
        }
      ],
      "name": "setCandidate",
      "outputs": [],
      "stateMutability": "nonpayable",
      "type": "function"
    },
    {
      "inputs": [
        {
          "internalType": "address",
          "name": "_address",
          "type": "address"
        },
        {
          "internalType": "string",
          "name": "_name",
          "type": "string"
        },
        {
          "internalType": "string",
          "name": "_image",
          "type": "string"
        },
        {
          "internalType": "string",
          "name": "_ipfs",
          "type": "string"
        }
      ],
      "name": "setVoter",
      "outputs": [],
      "stateMutability": "nonpayable",
      "type": "function"
    },
    {
      "inputs": [
        {
          "internalType": "address",
          "name": "newAdmin",
          "type": "address"
        }
      ],
      "name": "transferAdmin",
      "outputs": [],
      "stateMutability": "nonpayable",
      "type": "function"
    },
    {
      "inputs": [],
      "name": "trustedForwarder",
      "outputs": [
        {
          "internalType": "address",
          "name": "",
          "type": "address"
        }
      ],
      "stateMutability": "view",
      "type": "function"
    },
    {
      "inputs": [
        {
          "internalType": "uint256",
          "name": "",
          "type": "uint256"
        }
      ],
      "name": "votedVoters",
      "outputs": [
        {
          "internalType": "address",
          "name": "",
          "type": "address"
        }
      ],
      "stateMutability": "view",
      "type": "function"
    },
    {
      "inputs": [
        {
          "internalType": "address",
          "name": "",
          "type": "address"
        }
      ],
      "name": "voterElectionVersion",
      "outputs": [
        {
          "internalType": "uint256",
          "name": "",
          "type": "uint256"
        }
      ],
      "stateMutability": "view",
      "type": "function"
    },
    {
      "inputs": [
        {
          "internalType": "address",
          "name": "",
          "type": "address"
        }
      ],
      "name": "voters",
      "outputs": [
        {
          "internalType": "uint256",
          "name": "voter_voterId",
          "type": "uint256"
        },
        {
          "internalType": "string",
          "name": "voter_name",
          "type": "string"
        },
        {
          "internalType": "string",
          "name": "voter_image",
          "type": "string"
        },
        {
          "internalType": "address",
          "name": "voter_address",
          "type": "address"
        },
        {
          "internalType": "uint256",
          "name": "voter_allowed",
          "type": "uint256"
        },
        {
          "internalType": "bool",
          "name": "voter_voted",
          "type": "bool"
        },
        {
          "internalType": "uint256",
          "name": "voter_vote",
          "type": "uint256"
        },
        {
          "internalType": "string",
          "name": "voter_ipfs",
          "type": "string"
        }
      ],
      "stateMutability": "view",
      "type": "function"
    },
    {
      "inputs": [
        {
          "internalType": "uint256",
          "name": "",
          "type": "uint256"
        }
      ],
      "name": "votersAddress",
      "outputs": [
        {
          "internalType": "address",
          "name": "",
          "type": "address"
        }
      ],
      "stateMutability": "view",
      "type": "function"
    },
    {
      "inputs": [],
      "name": "votingOrganizer",
      "outputs": [
        {
          "internalType": "address",
          "name": "",
          "type": "address"
        }
      ],
      "stateMutability": "view",
      "type": "function"
    }
  ],
  "bytecode": "0x60a06040523480156200001157600080fd5b5060405162003cb538038062003cb5833981810160405281019062000037919062000273565b808073ffffffffffffffffffffffffffffffffffffffff1660808173ffffffffffffffffffffffffffffffffffffffff1681525050506200007d6200011c60201b60201c565b600360006101000a81548173ffffffffffffffffffffffffffffffffffffffff021916908373ffffffffffffffffffffffffffffffffffffffff160217905550620000cd6200011c60201b60201c565b600460006101000a81548173ffffffffffffffffffffffffffffffffffffffff021916908373ffffffffffffffffffffffffffffffffffffffff1602179055506001600281905550506200039a565b60008060003690509050600062000138620001a760201b60201c565b90508082101580156200015857506200015733620001b060201b60201c565b5b156200018f576000368284039080926200017593929190620002af565b9062000182919062000334565b60601c92505050620001a4565b6200019f620001f760201b60201c565b925050505b90565b60006014905090565b6000620001c2620001ff60201b60201c565b73ffffffffffffffffffffffffffffffffffffffff168273ffffffffffffffffffffffffffffffffffffffff16149050919050565b600033905090565b6000608051905090565b600080fd5b600073ffffffffffffffffffffffffffffffffffffffff82169050919050565b60006200023b826200020e565b9050919050565b6200024d816200022e565b81146200025957600080fd5b50565b6000815190506200026d8162000242565b92915050565b6000602082840312156200028c576200028b62000209565b5b60006200029c848285016200025c565b91505092915050565b600080fd5b600080fd5b60008085851115620002c657620002c5620002a5565b5b83861115620002da57620002d9620002aa565b5b6001850283019150848603905094509492505050565b600082905092915050565b60007fffffffffffffffffffffffffffffffffffffffff00000000000000000000000082169050919050565b600082821b905092915050565b6000620003428383620002f0565b826200034f8135620002fb565b9250601482101562000392576200038d7fffffffffffffffffffffffffffffffffffffffff0000000000000000000000008360140360080262000327565b831692505b505092915050565b6080516138ff620003b66000396000610f4401526138ff6000f3fe608060405234801561001057600080fd5b50600436106101c45760003560e01c80638ab66a90116100f9578063b9be315211610097578063e8f3052311610071578063e8f305231461055e578063f7522a8314610568578063f7d0628f14610586578063fa678ae7146105a4576101c4565b8063b9be3152146104f4578063c91ec71214610512578063d6310e9a1461052e576101c4565b80639af2ae64116100d35780639af2ae6414610451578063a3ec138d14610481578063a7388967146104b8578063b28d92ae146104d6576101c4565b80638ab66a90146103c75780638e945685146103fd5780638fb4cd801461041b576101c4565b80635cc48aa7116101665780637831ffb3116101405780637831ffb31461033f5780637da0a8771461036f57806382678dd61461038d57806382aac8f3146103ab576101c4565b80635cc48aa7146102e757806370218b851461030557806375829def14610323576101c4565b806341cd0420116101a257806341cd04201461024d57806343242daa1461026b57806348d238291461029b578063572b6c05146102b7576101c4565b806305ad45a4146101c95780632a466ac7146101e75780633a88251a1461021d575b600080fd5b6101d16105c0565b6040516101de9190612509565b60405180910390f35b61020160048036038101906101fc9190612596565b6105cd565b6040516102149796959493929190612662565b60405180910390f35b61023760048036038101906102329190612719565b610a14565b6040516102449190612746565b60405180910390f35b610255610a53565b6040516102629190612746565b60405180910390f35b61028560048036038101906102809190612719565b610a79565b6040516102929190612746565b60405180910390f35b6102b560048036038101906102b09190612596565b610ab8565b005b6102d160048036038101906102cc9190612596565b610c63565b6040516102de919061277c565b60405180910390f35b6102ef610ca2565b6040516102fc9190612746565b60405180910390f35b61030d610cc8565b60405161031a9190612855565b60405180910390f35b61033d60048036038101906103389190612596565b610d56565b005b61035960048036038101906103549190612719565b610f01565b6040516103669190612746565b60405180910390f35b610377610f40565b6040516103849190612746565b60405180910390f35b610395610f68565b6040516103a29190612855565b60405180910390f35b6103c560048036038101906103c091906129ac565b610ff6565b005b6103e160048036038101906103dc9190612596565b611369565b6040516103f49796959493929190612a67565b60405180910390f35b6104056115eb565b6040516104129190612855565b60405180910390f35b61043560048036038101906104309190612596565b611679565b6040516104489796959493929190612af2565b60405180910390f35b61046b60048036038101906104669190612596565b611a41565b6040516104789190612509565b60405180910390f35b61049b60048036038101906104969190612596565b611a59565b6040516104af989796959493929190612b76565b60405180910390f35b6104c0611c66565b6040516104cd9190612509565b60405180910390f35b6104de611c6c565b6040516104eb9190612855565b60405180910390f35b6104fc611cfa565b6040516105099190612509565b60405180910390f35b61052c60048036038101906105279190612c09565b611d00565b005b61054860048036038101906105439190612596565b61204b565b6040516105559190612509565b60405180910390f35b610566612063565b005b610570612186565b60405161057d9190612509565b60405180910390f35b61058e612193565b60405161059b9190612509565b60405180910390f35b6105be60048036038101906105b99190612cf4565b612199565b005b6000600a80549050905090565b60608060006060600060606000600860008973ffffffffffffffffffffffffffffffffffffffff1673ffffffffffffffffffffffffffffffffffffffff168152602001908152602001600020600101600860008a73ffffffffffffffffffffffffffffffffffffffff1673ffffffffffffffffffffffffffffffffffffffff168152602001908152602001600020600201600860008b73ffffffffffffffffffffffffffffffffffffffff1673ffffffffffffffffffffffffffffffffffffffff16815260200190815260200160002060000154600860008c73ffffffffffffffffffffffffffffffffffffffff1673ffffffffffffffffffffffffffffffffffffffff168152602001908152602001600020600301600860008d73ffffffffffffffffffffffffffffffffffffffff1673ffffffffffffffffffffffffffffffffffffffff16815260200190815260200160002060040154600860008e73ffffffffffffffffffffffffffffffffffffffff1673ffffffffffffffffffffffffffffffffffffffff168152602001908152602001600020600601600860008f73ffffffffffffffffffffffffffffffffffffffff1673ffffffffffffffffffffffffffffffffffffffff16815260200190815260200160002060050160009054906101000a900473ffffffffffffffffffffffffffffffffffffffff168680546107d790612d63565b80601f016020809104026020016040519081016040528092919081815260200182805461080390612d63565b80156108505780601f1061082557610100808354040283529160200191610850565b820191906000526020600020905b81548152906001019060200180831161083357829003601f168201915b5050505050965085805461086390612d63565b80601f016020809104026020016040519081016040528092919081815260200182805461088f90612d63565b80156108dc5780601f106108b1576101008083540402835291602001916108dc565b820191906000526020600020905b8154815290600101906020018083116108bf57829003601f168201915b505050505095508380546108ef90612d63565b80601f016020809104026020016040519081016040528092919081815260200182805461091b90612d63565b80156109685780601f1061093d57610100808354040283529160200191610968565b820191906000526020600020905b81548152906001019060200180831161094b57829003601f168201915b5050505050935081805461097b90612d63565b80601f01602080910402602001604051908101604052809291908181526020018280546109a790612d63565b80156109f45780601f106109c9576101008083540402835291602001916109f4565b820191906000526020600020905b8154815290600101906020018083116109d757829003601f168201915b505050505091509650965096509650965096509650919395979092949650565b60078181548110610a2457600080fd5b906000526020600020016000915054906101000a900473ffffffffffffffffffffffffffffffffffffffff1681565b600460009054906101000a900473ffffffffffffffffffffffffffffffffffffffff1681565b600a8181548110610a8957600080fd5b906000526020600020016000915054906101000a900473ffffffffffffffffffffffffffffffffffffffff1681565b610ac0612435565b73ffffffffffffffffffffffffffffffffffffffff16600360009054906101000a900473ffffffffffffffffffffffffffffffffffffffff1673ffffffffffffffffffffffffffffffffffffffff1614610b4f576040517f08c379a0000000000000000000000000000000000000000000000000000000008152600401610b4690612e06565b60405180910390fd5b600073ffffffffffffffffffffffffffffffffffffffff168173ffffffffffffffffffffffffffffffffffffffff1603610bbe576040517f08c379a0000000000000000000000000000000000000000000000000000000008152600401610bb590612e72565b60405180910390fd5b6000600460009054906101000a900473ffffffffffffffffffffffffffffffffffffffff16905081600460006101000a81548173ffffffffffffffffffffffffffffffffffffffff021916908373ffffffffffffffffffffffffffffffffffffffff1602179055507f18f08848c5694a025f9966c34ff2367f32a1a8275663b282ee01f4338b0454908183604051610c57929190612e92565b60405180910390a15050565b6000610c6d610f40565b73ffffffffffffffffffffffffffffffffffffffff168273ffffffffffffffffffffffffffffffffffffffff16149050919050565b600360009054906101000a900473ffffffffffffffffffffffffffffffffffffffff1681565b60606007805480602002602001604051908101604052809291908181526020018280548015610d4c57602002820191906000526020600020905b8160009054906101000a900473ffffffffffffffffffffffffffffffffffffffff1673ffffffffffffffffffffffffffffffffffffffff1681526020019060010190808311610d02575b5050505050905090565b610d5e612435565b73ffffffffffffffffffffffffffffffffffffffff16600360009054906101000a900473ffffffffffffffffffffffffffffffffffffffff1673ffffffffffffffffffffffffffffffffffffffff1614610ded576040517f08c379a0000000000000000000000000000000000000000000000000000000008152600401610de490612e06565b60405180910390fd5b600073ffffffffffffffffffffffffffffffffffffffff168173ffffffffffffffffffffffffffffffffffffffff1603610e5c576040517f08c379a0000000000000000000000000000000000000000000000000000000008152600401610e5390612f07565b60405180910390fd5b6000600360009054906101000a900473ffffffffffffffffffffffffffffffffffffffff16905081600360006101000a81548173ffffffffffffffffffffffffffffffffffffffff021916908373ffffffffffffffffffffffffffffffffffffffff1602179055507f7e644d79422f17c01e4894b5f4f588d331ebfa28653d42ae832dc59e38c9798f8183604051610ef5929190612e92565b60405180910390a15050565b60098181548110610f1157600080fd5b906000526020600020016000915054906101000a900473ffffffffffffffffffffffffffffffffffffffff1681565b60007f0000000000000000000000000000000000000000000000000000000000000000905090565b60606007805480602002602001604051908101604052809291908181526020018280548015610fec57602002820191906000526020600020905b8160009054906101000a900473ffffffffffffffffffffffffffffffffffffffff1673ffffffffffffffffffffffffffffffffffffffff1681526020019060010190808311610fa2575b5050505050905090565b610ffe612435565b73ffffffffffffffffffffffffffffffffffffffff16600360009054906101000a900473ffffffffffffffffffffffffffffffffffffffff1673ffffffffffffffffffffffffffffffffffffffff161461108d576040517f08c379a000000000000000000000000000000000000000000000000000000000815260040161108490612f99565b60405180910390fd5b600254600560008673ffffffffffffffffffffffffffffffffffffffff1673ffffffffffffffffffffffffffffffffffffffff1681526020019081526020016000205410611110576040517f08c379a00000000000000000000000000000000000000000000000000000000081526004016111079061302b565b60405180910390fd5b6000808154809291906111229061307a565b91905055506000805490506000600b60008773ffffffffffffffffffffffffffffffffffffffff1673ffffffffffffffffffffffffffffffffffffffff16815260200190815260200160002090508181600001819055508481600101908161118a919061326e565b508381600201908161119c919061326e565b50858160030160006101000a81548173ffffffffffffffffffffffffffffffffffffffff021916908373ffffffffffffffffffffffffffffffffffffffff1602179055506001816004018190555060008160050160006101000a81548160ff0219169083151502179055506103e8816006018190555082816007019081611223919061326e565b50600a869080600181540180825580915050600190039060005260206000200160009091909190916101000a81548173ffffffffffffffffffffffffffffffffffffffff021916908373ffffffffffffffffffffffffffffffffffffffff160217905550600254600560008873ffffffffffffffffffffffffffffffffffffffff1673ffffffffffffffffffffffffffffffffffffffff16815260200190815260200160002081905550817ff5f39971dd62d9929e3a9feaa6bb77fe7c7da0001babff8a65a7e51ad0201c1986868985600401548660050160009054906101000a900460ff1687600601548a6040516113229796959493929190613340565b60405180910390a27fb6be2187d059cc2a55fe29e0e503b566e1e0f8c8780096e185429350acffd3dd866040516113599190612746565b60405180910390a1505050505050565b600860205280600052604060002060009150905080600001549080600101805461139290612d63565b80601f01602080910402602001604051908101604052809291908181526020018280546113be90612d63565b801561140b5780601f106113e05761010080835404028352916020019161140b565b820191906000526020600020905b8154815290600101906020018083116113ee57829003601f168201915b50505050509080600201805461142090612d63565b80601f016020809104026020016040519081016040528092919081815260200182805461144c90612d63565b80156114995780601f1061146e57610100808354040283529160200191611499565b820191906000526020600020905b81548152906001019060200180831161147c57829003601f168201915b5050505050908060030180546114ae90612d63565b80601f01602080910402602001604051908101604052809291908181526020018280546114da90612d63565b80156115275780601f106114fc57610100808354040283529160200191611527565b820191906000526020600020905b81548152906001019060200180831161150a57829003601f168201915b5050505050908060040154908060050160009054906101000a900473ffffffffffffffffffffffffffffffffffffffff169080600601805461156890612d63565b80601f016020809104026020016040519081016040528092919081815260200182805461159490612d63565b80156115e15780601f106115b6576101008083540402835291602001916115e1565b820191906000526020600020905b8154815290600101906020018083116115c457829003601f168201915b5050505050905087565b6060600980548060200260200160405190810160405280929190818152602001828054801561166f57602002820191906000526020600020905b8160009054906101000a900473ffffffffffffffffffffffffffffffffffffffff1673ffffffffffffffffffffffffffffffffffffffff1681526020019060010190808311611625575b5050505050905090565b600060608060006060600080600b60008973ffffffffffffffffffffffffffffffffffffffff1673ffffffffffffffffffffffffffffffffffffffff16815260200190815260200160002060000154600b60008a73ffffffffffffffffffffffffffffffffffffffff1673ffffffffffffffffffffffffffffffffffffffff168152602001908152602001600020600101600b60008b73ffffffffffffffffffffffffffffffffffffffff1673ffffffffffffffffffffffffffffffffffffffff168152602001908152602001600020600201600b60008c73ffffffffffffffffffffffffffffffffffffffff1673ffffffffffffffffffffffffffffffffffffffff16815260200190815260200160002060030160009054906101000a900473ffffffffffffffffffffffffffffffffffffffff16600b60008d73ffffffffffffffffffffffffffffffffffffffff1673ffffffffffffffffffffffffffffffffffffffff168152602001908152602001600020600701600b60008e73ffffffffffffffffffffffffffffffffffffffff1673ffffffffffffffffffffffffffffffffffffffff16815260200190815260200160002060050160009054906101000a900460ff16600b60008f73ffffffffffffffffffffffffffffffffffffffff1673ffffffffffffffffffffffffffffffffffffffff1681526020019081526020016000206004015485805461189090612d63565b80601f01602080910402602001604051908101604052809291908181526020018280546118bc90612d63565b80156119095780601f106118de57610100808354040283529160200191611909565b820191906000526020600020905b8154815290600101906020018083116118ec57829003601f168201915b5050505050955084805461191c90612d63565b80601f016020809104026020016040519081016040528092919081815260200182805461194890612d63565b80156119955780601f1061196a57610100808354040283529160200191611995565b820191906000526020600020905b81548152906001019060200180831161197857829003601f168201915b505050505094508280546119a890612d63565b80601f01602080910402602001604051908101604052809291908181526020018280546119d490612d63565b8015611a215780601f106119f657610100808354040283529160200191611a21565b820191906000526020600020905b815481529060010190602001808311611a0457829003601f168201915b505050505092509650965096509650965096509650919395979092949650565b60066020528060005260406000206000915090505481565b600b602052806000526040600020600091509050806000015490806001018054611a8290612d63565b80601f0160208091040260200160405190810160405280929190818152602001828054611aae90612d63565b8015611afb5780601f10611ad057610100808354040283529160200191611afb565b820191906000526020600020905b815481529060010190602001808311611ade57829003601f168201915b505050505090806002018054611b1090612d63565b80601f0160208091040260200160405190810160405280929190818152602001828054611b3c90612d63565b8015611b895780601f10611b5e57610100808354040283529160200191611b89565b820191906000526020600020905b815481529060010190602001808311611b6c57829003601f168201915b5050505050908060030160009054906101000a900473ffffffffffffffffffffffffffffffffffffffff16908060040154908060050160009054906101000a900460ff1690806006015490806007018054611be390612d63565b80601f0160208091040260200160405190810160405280929190818152602001828054611c0f90612d63565b8015611c5c5780601f10611c3157610100808354040283529160200191611c5c565b820191906000526020600020905b815481529060010190602001808311611c3f57829003601f168201915b5050505050905088565b60015481565b6060600a805480602002602001604051908101604052809291908181526020018280548015611cf057602002820191906000526020600020905b8160009054906101000a900473ffffffffffffffffffffffffffffffffffffffff1673ffffffffffffffffffffffffffffffffffffffff1681526020019060010190808311611ca6575b5050505050905090565b60005481565b611d08612435565b73ffffffffffffffffffffffffffffffffffffffff16600360009054906101000a900473ffffffffffffffffffffffffffffffffffffffff1673ffffffffffffffffffffffffffffffffffffffff1614611d97576040517f08c379a0000000000000000000000000000000000000000000000000000000008152600401611d8e90613436565b60405180910390fd5b600254600660008773ffffffffffffffffffffffffffffffffffffffff1673ffffffffffffffffffffffffffffffffffffffff1681526020019081526020016000205410611e1a576040517f08c379a0000000000000000000000000000000000000000000000000000000008152600401611e11906134c8565b60405180910390fd5b60016000815480929190611e2d9061307a565b9190505550600060015490506000600860008873ffffffffffffffffffffffffffffffffffffffff1673ffffffffffffffffffffffffffffffffffffffff168152602001908152602001600020905081816000018190555085816001019081611e96919061326e565b5084816002019081611ea8919061326e565b5083816003019081611eba919061326e565b5060008160040181905550868160050160006101000a81548173ffffffffffffffffffffffffffffffffffffffff021916908373ffffffffffffffffffffffffffffffffffffffff16021790555082816006019081611f19919061326e565b506007879080600181540180825580915050600190039060005260206000200160009091909190916101000a81548173ffffffffffffffffffffffffffffffffffffffff021916908373ffffffffffffffffffffffffffffffffffffffff160217905550600254600660008973ffffffffffffffffffffffffffffffffffffffff1673ffffffffffffffffffffffffffffffffffffffff16815260200190815260200160002081905550817fd297f12b256bb8485a6013fb5e302017018123e99a0ebb20756c09e1707b4b9087878785600401548c89604051612001969594939291906134e8565b60405180910390a27f78d27a3c512303f604b46bc28acc0ca45abe6420172a017c5a6dc585821eb639828660405161203a929190613565565b60405180910390a150505050505050565b60056020528060005260406000206000915090505481565b61206b612435565b73ffffffffffffffffffffffffffffffffffffffff16600360009054906101000a900473ffffffffffffffffffffffffffffffffffffffff1673ffffffffffffffffffffffffffffffffffffffff16146120fa576040517f08c379a00000000000000000000000000000000000000000000000000000000081526004016120f190613607565b60405180910390fd5b6007600061210891906124b2565b600a600061211691906124b2565b6009600061212491906124b2565b600060018190555060008081905550600260008154809291906121469061307a565b91905055507f2a0e7ca52e830898fc8ddd8f2fc8695795a5fdf74064958562691b5bea4485f560025460405161217c9190612509565b60405180910390a1565b6000600780549050905090565b60025481565b600254600560006121a8612435565b73ffffffffffffffffffffffffffffffffffffffff1673ffffffffffffffffffffffffffffffffffffffff1681526020019081526020016000205414612223576040517f08c379a000000000000000000000000000000000000000000000000000000000815260040161221a90613699565b60405180910390fd5b6000600b6000612231612435565b73ffffffffffffffffffffffffffffffffffffffff1673ffffffffffffffffffffffffffffffffffffffff16815260200190815260200160002090508060050160009054906101000a900460ff16156122bf576040517f08c379a00000000000000000000000000000000000000000000000000000000081526004016122b690613705565b60405180910390fd5b6000816004015403612306576040517f08c379a00000000000000000000000000000000000000000000000000000000081526004016122fd90613771565b60405180910390fd5b60018160050160006101000a81548160ff0219169083151502179055508181600601819055506009612336612435565b9080600181540180825580915050600190039060005260206000200160009091909190916101000a81548173ffffffffffffffffffffffffffffffffffffffff021916908373ffffffffffffffffffffffffffffffffffffffff1602179055506001600860008573ffffffffffffffffffffffffffffffffffffffff1673ffffffffffffffffffffffffffffffffffffffff16815260200190815260200160002060040160008282546123e99190613791565b925050819055507fa36cc2bebb74db33e9f88110a07ef56e1b31b24b4c4f51b54b1664266e29f45b612419612435565b836040516124289291906137c5565b60405180910390a1505050565b6000806000369050905060006124496124a1565b9050808210158015612460575061245f33610c63565b5b156124915760003682840390809261247a939291906137f8565b90612485919061386a565b60601c9250505061249e565b6124996124aa565b925050505b90565b60006014905090565b600033905090565b50805460008255906000526020600020908101906124d091906124d3565b50565b5b808211156124ec5760008160009055506001016124d4565b5090565b6000819050919050565b612503816124f0565b82525050565b600060208201905061251e60008301846124fa565b92915050565b6000604051905090565b600080fd5b600080fd5b600073ffffffffffffffffffffffffffffffffffffffff82169050919050565b600061256382612538565b9050919050565b61257381612558565b811461257e57600080fd5b50565b6000813590506125908161256a565b92915050565b6000602082840312156125ac576125ab61252e565b5b60006125ba84828501612581565b91505092915050565b600081519050919050565b600082825260208201905092915050565b60005b838110156125fd5780820151818401526020810190506125e2565b60008484015250505050565b6000601f19601f8301169050919050565b6000612625826125c3565b61262f81856125ce565b935061263f8185602086016125df565b61264881612609565b840191505092915050565b61265c81612558565b82525050565b600060e082019050818103600083015261267c818a61261a565b90508181036020830152612690818961261a565b905061269f60408301886124fa565b81810360608301526126b1818761261a565b90506126c060808301866124fa565b81810360a08301526126d2818561261a565b90506126e160c0830184612653565b98975050505050505050565b6126f6816124f0565b811461270157600080fd5b50565b600081359050612713816126ed565b92915050565b60006020828403121561272f5761272e61252e565b5b600061273d84828501612704565b91505092915050565b600060208201905061275b6000830184612653565b92915050565b60008115159050919050565b61277681612761565b82525050565b6000602082019050612791600083018461276d565b92915050565b600081519050919050565b600082825260208201905092915050565b6000819050602082019050919050565b6127cc81612558565b82525050565b60006127de83836127c3565b60208301905092915050565b6000602082019050919050565b600061280282612797565b61280c81856127a2565b9350612817836127b3565b8060005b8381101561284857815161282f88826127d2565b975061283a836127ea565b92505060018101905061281b565b5085935050505092915050565b6000602082019050818103600083015261286f81846127f7565b905092915050565b600080fd5b600080fd5b7f4e487b7100000000000000000000000000000000000000000000000000000000600052604160045260246000fd5b6128b982612609565b810181811067ffffffffffffffff821117156128d8576128d7612881565b5b80604052505050565b60006128eb612524565b90506128f782826128b0565b919050565b600067ffffffffffffffff82111561291757612916612881565b5b61292082612609565b9050602081019050919050565b82818337600083830152505050565b600061294f61294a846128fc565b6128e1565b90508281526020810184848401111561296b5761296a61287c565b5b61297684828561292d565b509392505050565b600082601f83011261299357612992612877565b5b81356129a384826020860161293c565b91505092915050565b600080600080608085870312156129c6576129c561252e565b5b60006129d487828801612581565b945050602085013567ffffffffffffffff8111156129f5576129f4612533565b5b612a018782880161297e565b935050604085013567ffffffffffffffff811115612a2257612a21612533565b5b612a2e8782880161297e565b925050606085013567ffffffffffffffff811115612a4f57612a4e612533565b5b612a5b8782880161297e565b91505092959194509250565b600060e082019050612a7c600083018a6124fa565b8181036020830152612a8e818961261a565b90508181036040830152612aa2818861261a565b90508181036060830152612ab6818761261a565b9050612ac560808301866124fa565b612ad260a0830185612653565b81810360c0830152612ae4818461261a565b905098975050505050505050565b600060e082019050612b07600083018a6124fa565b8181036020830152612b19818961261a565b90508181036040830152612b2d818861261a565b9050612b3c6060830187612653565b8181036080830152612b4e818661261a565b9050612b5d60a083018561276d565b612b6a60c08301846124fa565b98975050505050505050565b600061010082019050612b8c600083018b6124fa565b8181036020830152612b9e818a61261a565b90508181036040830152612bb2818961261a565b9050612bc16060830188612653565b612bce60808301876124fa565b612bdb60a083018661276d565b612be860c08301856124fa565b81810360e0830152612bfa818461261a565b90509998505050505050505050565b600080600080600060a08688031215612c2557612c2461252e565b5b6000612c3388828901612581565b955050602086013567ffffffffffffffff811115612c5457612c53612533565b5b612c608882890161297e565b945050604086013567ffffffffffffffff811115612c8157612c80612533565b5b612c8d8882890161297e565b935050606086013567ffffffffffffffff811115612cae57612cad612533565b5b612cba8882890161297e565b925050608086013567ffffffffffffffff811115612cdb57612cda612533565b5b612ce78882890161297e565b9150509295509295909350565b60008060408385031215612d0b57612d0a61252e565b5b6000612d1985828601612581565b9250506020612d2a85828601612704565b9150509250929050565b7f4e487b7100000000000000000000000000000000000000000000000000000000600052602260045260246000fd5b60006002820490506001821680612d7b57607f821691505b602082108103612d8e57612d8d612d34565b5b50919050565b7f4f6e6c792061646d696e2063616e2063616c6c20746869732066756e6374696f60008201527f6e00000000000000000000000000000000000000000000000000000000000000602082015250565b6000612df06021836125ce565b9150612dfb82612d94565b604082019050919050565b60006020820190508181036000830152612e1f81612de3565b9050919050565b7f496e76616c6964206e65772072656c6179657220616464726573730000000000600082015250565b6000612e5c601b836125ce565b9150612e6782612e26565b602082019050919050565b60006020820190508181036000830152612e8b81612e4f565b9050919050565b6000604082019050612ea76000830185612653565b612eb46020830184612653565b9392505050565b7f496e76616c6964206e65772061646d696e206164647265737300000000000000600082015250565b6000612ef16019836125ce565b9150612efc82612ebb565b602082019050919050565b60006020820190508181036000830152612f2081612ee4565b9050919050565b7f4f6e6c79206f7267616e697a65722063616e20637265617465206120766f746560008201527f7200000000000000000000000000000000000000000000000000000000000000602082015250565b6000612f836021836125ce565b9150612f8e82612f27565b604082019050919050565b60006020820190508181036000830152612fb281612f76565b9050919050565b7f566f74657220616c7265616479207265676973746572656420696e206375727260008201527f656e7420656c656374696f6e0000000000000000000000000000000000000000602082015250565b6000613015602c836125ce565b915061302082612fb9565b604082019050919050565b6000602082019050818103600083015261304481613008565b9050919050565b7f4e487b7100000000000000000000000000000000000000000000000000000000600052601160045260246000fd5b6000613085826124f0565b91507fffffffffffffffffffffffffffffffffffffffffffffffffffffffffffffffff82036130b7576130b661304b565b5b600182019050919050565b60008190508160005260206000209050919050565b60006020601f8301049050919050565b600082821b905092915050565b6000600883026131247fffffffffffffffffffffffffffffffffffffffffffffffffffffffffffffffff826130e7565b61312e86836130e7565b95508019841693508086168417925050509392505050565b6000819050919050565b600061316b613166613161846124f0565b613146565b6124f0565b9050919050565b6000819050919050565b61318583613150565b61319961319182613172565b8484546130f4565b825550505050565b600090565b6131ae6131a1565b6131b981848461317c565b505050565b5b818110156131dd576131d26000826131a6565b6001810190506131bf565b5050565b601f821115613222576131f3816130c2565b6131fc846130d7565b8101602085101561320b578190505b61321f613217856130d7565b8301826131be565b50505b505050565b600082821c905092915050565b600061324560001984600802613227565b1980831691505092915050565b600061325e8383613234565b9150826002028217905092915050565b613277826125c3565b67ffffffffffffffff8111156132905761328f612881565b5b61329a8254612d63565b6132a58282856131e1565b600060209050601f8311600181146132d857600084156132c6578287015190505b6132d08582613252565b865550613338565b601f1984166132e6866130c2565b60005b8281101561330e578489015182556001820191506020850194506020810190506132e9565b8683101561332b5784890151613327601f891682613234565b8355505b6001600288020188555050505b505050505050565b600060e082019050818103600083015261335a818a61261a565b9050818103602083015261336e818961261a565b905061337d6040830188612653565b61338a60608301876124fa565b613397608083018661276d565b6133a460a08301856124fa565b81810360c08301526133b6818461261a565b905098975050505050505050565b7f4f6e6c79206f7267616e697a65722063616e2063726561746520612063616e6460008201527f6964617465000000000000000000000000000000000000000000000000000000602082015250565b60006134206025836125ce565b915061342b826133c4565b604082019050919050565b6000602082019050818103600083015261344f81613413565b9050919050565b7f43616e64696461746520616c7265616479207265676973746572656420696e2060008201527f63757272656e7420656c656374696f6e00000000000000000000000000000000602082015250565b60006134b26030836125ce565b91506134bd82613456565b604082019050919050565b600060208201905081810360008301526134e1816134a5565b9050919050565b600060c0820190508181036000830152613502818961261a565b90508181036020830152613516818861261a565b9050818103604083015261352a818761261a565b905061353960608301866124fa565b6135466080830185612653565b81810360a0830152613558818461261a565b9050979650505050505050565b600060408201905061357a60008301856124fa565b818103602083015261358c818461261a565b90509392505050565b7f4f6e6c79206f7267616e697a65722063616e2072657365742074686520656c6560008201527f6374696f6e000000000000000000000000000000000000000000000000000000602082015250565b60006135f16025836125ce565b91506135fc82613595565b604082019050919050565b60006020820190508181036000830152613620816135e4565b9050919050565b7f596f7520617265206e6f74207265676973746572656420666f7220746865206360008201527f757272656e7420656c656374696f6e0000000000000000000000000000000000602082015250565b6000613683602f836125ce565b915061368e82613627565b604082019050919050565b600060208201905081810360008301526136b281613676565b9050919050565b7f596f75206861766520616c726561647920766f74656400000000000000000000600082015250565b60006136ef6016836125ce565b91506136fa826136b9565b602082019050919050565b6000602082019050818103600083015261371e816136e2565b9050919050565b7f596f752068617665206e6f20726967687420746f20766f746500000000000000600082015250565b600061375b6019836125ce565b915061376682613725565b602082019050919050565b6000602082019050818103600083015261378a8161374e565b9050919050565b600061379c826124f0565b91506137a7836124f0565b92508282019050808211156137bf576137be61304b565b5b92915050565b60006040820190506137da6000830185612653565b6137e760208301846124fa565b9392505050565b600080fd5b600080fd5b6000808585111561380c5761380b6137ee565b5b8386111561381d5761381c6137f3565b5b6001850283019150848603905094509492505050565b600082905092915050565b60007fffffffffffffffffffffffffffffffffffffffff00000000000000000000000082169050919050565b60006138768383613833565b82613881813561383e565b925060148210156138c1576138bc7fffffffffffffffffffffffffffffffffffffffff000000000000000000000000836014036008026130e7565b831692505b50509291505056fea264697066735822122011390b4cc15048aee6e7b3959b586763caa7ec2ef9849219f48ba8cbad652d7964736f6c63430008140033",
  "linkReferences": {},
  "deployedLinkReferences": {}
}