{
  "_format": "hh-sol-artifact-1",
  "contractName": "Voting",
  "sourceName": "contracts/Voting.sol",
  "abi": [
    {
      "inputs": [
        {
          "internalType": "address",
          "name": "trustedForwarder",
          "type": "address"
        }
      ],
      "stateMutability": "nonpayable",
      "type": "constructor"
    },
    {
      "anonymous": false,
      "inputs": [
        {
          "indexed": true,
          "internalType": "uint256",
          "name": "candidateId",
          "type": "uint256"
        },
        {
          "indexed": false,
          "internalType": "string",
          "name": "age",
          "type": "string"
        },
        {
          "indexed": false,
          "internalType": "string",
          "name": "name",
          "type": "string"
        },
        {
          "indexed": false,
          "internalType": "string",
          "name": "image",
          "type": "string"
        },
        {
          "indexed": false,
          "internalType": "uint256",
          "name": "voteCount",
          "type": "uint256"
        },
        {
          "indexed": false,
          "internalType": "address",
          "name": "_address",
          "type": "address"
        },
        {
          "indexed": false,
          "internalType": "string",
          "name": "ipfs",
          "type": "string"
        }
      ],
      "name": "CandidateCreate",
      "type": "event"
    },
    {
      "anonymous": false,
      "inputs": [
        {
          "indexed": false,
          "internalType": "uint256",
          "name": "candidateId",
          "type": "uint256"
        },
        {
          "indexed": false,
          "internalType": "string",
          "name": "name",
          "type": "string"
        }
      ],
      "name": "CandidateCreated",
      "type": "event"
    },
    {
      "anonymous": false,
      "inputs": [
        {
          "indexed": false,
          "internalType": "uint256",
          "name": "newVersion",
          "type": "uint256"
        }
      ],
      "name": "ElectionReset",
      "type": "event"
    },
    {
      "anonymous": false,
      "inputs": [
        {
          "indexed": false,
          "internalType": "address",
          "name": "oldRelayer",
          "type": "address"
        },
        {
          "indexed": false,
          "internalType": "address",
          "name": "newRelayer",
          "type": "address"
        }
      ],
      "name": "RelayerChanged",
      "type": "event"
    },
    {
      "anonymous": false,
      "inputs": [
        {
          "indexed": false,
          "internalType": "address",
          "name": "voter",
          "type": "address"
        },
        {
          "indexed": false,
          "internalType": "uint256",
          "name": "candidateId",
          "type": "uint256"
        }
      ],
      "name": "VoteCast",
      "type": "event"
    },
    {
      "anonymous": false,
      "inputs": [
        {
          "indexed": true,
          "internalType": "uint256",
          "name": "voter_voterId",
          "type": "uint256"
        },
        {
          "indexed": false,
          "internalType": "string",
          "name": "voter_name",
          "type": "string"
        },
        {
          "indexed": false,
          "internalType": "string",
          "name": "voter_image",
          "type": "string"
        },
        {
          "indexed": false,
          "internalType": "address",
          "name": "voter_address",
          "type": "address"
        },
        {
          "indexed": false,
          "internalType": "uint256",
          "name": "voter_allowed",
          "type": "uint256"
        },
        {
          "indexed": false,
          "internalType": "bool",
          "name": "voter_voted",
          "type": "bool"
        },
        {
          "indexed": false,
          "internalType": "uint256",
          "name": "voter_vote",
          "type": "uint256"
        },
        {
          "indexed": false,
          "internalType": "string",
          "name": "voter_ipfs",
          "type": "string"
        }
      ],
      "name": "VoterCreated",
      "type": "event"
    },
    {
      "anonymous": false,
      "inputs": [
        {
          "indexed": false,
          "internalType": "address",
          "name": "voter",
          "type": "address"
        }
      ],
      "name": "VoterRegistered",
      "type": "event"
    },
    {
      "inputs": [],
      "name": "_candidateId",
      "outputs": [
        {
          "internalType": "uint256",
          "name": "",
          "type": "uint256"
        }
      ],
      "stateMutability": "view",
      "type": "function"
    },
    {
      "inputs": [],
      "name": "_voterId",
      "outputs": [
        {
          "internalType": "uint256",
          "name": "",
          "type": "uint256"
        }
      ],
      "stateMutability": "view",
      "type": "function"
    },
    {
      "inputs": [
        {
          "internalType": "uint256",
          "name": "",
          "type": "uint256"
        }
      ],
      "name": "candidateAddress",
      "outputs": [
        {
          "internalType": "address",
          "name": "",
          "type": "address"
        }
      ],
      "stateMutability": "view",
      "type": "function"
    },
    {
      "inputs": [
        {
          "internalType": "address",
          "name": "",
          "type": "address"
        }
      ],
      "name": "candidateElectionVersion",
      "outputs": [
        {
          "internalType": "uint256",
          "name": "",
          "type": "uint256"
        }
      ],
      "stateMutability": "view",
      "type": "function"
    },
    {
      "inputs": [
        {
          "internalType": "address",
          "name": "",
          "type": "address"
        }
      ],
      "name": "candidates",
      "outputs": [
        {
          "internalType": "uint256",
          "name": "candidateId",
          "type": "uint256"
        },
        {
          "internalType": "string",
          "name": "age",
          "type": "string"
        },
        {
          "internalType": "string",
          "name": "name",
          "type": "string"
        },
        {
          "internalType": "string",
          "name": "image",
          "type": "string"
        },
        {
          "internalType": "uint256",
          "name": "voteCount",
          "type": "uint256"
        },
        {
          "internalType": "address",
          "name": "_address",
          "type": "address"
        },
        {
          "internalType": "string",
          "name": "ipfs",
          "type": "string"
        }
      ],
      "stateMutability": "view",
      "type": "function"
    },
    {
      "inputs": [
        {
          "internalType": "address",
          "name": "newRelayer",
          "type": "address"
        }
      ],
      "name": "changeRelayer",
      "outputs": [],
      "stateMutability": "nonpayable",
      "type": "function"
    },
    {
      "inputs": [],
      "name": "currentRelayer",
      "outputs": [
        {
          "internalType": "address",
          "name": "",
          "type": "address"
        }
      ],
      "stateMutability": "view",
      "type": "function"
    },
    {
      "inputs": [],
      "name": "electionVersion",
      "outputs": [
        {
          "internalType": "uint256",
          "name": "",
          "type": "uint256"
        }
      ],
      "stateMutability": "view",
      "type": "function"
    },
    {
      "inputs": [],
      "name": "getCandidate",
      "outputs": [
        {
          "internalType": "address[]",
          "name": "",
          "type": "address[]"
        }
      ],
      "stateMutability": "view",
      "type": "function"
    },
    {
      "inputs": [
        {
          "internalType": "address",
          "name": "_address",
          "type": "address"
        }
      ],
      "name": "getCandidateData",
      "outputs": [
        {
          "internalType": "string",
          "name": "",
          "type": "string"
        },
        {
          "internalType": "string",
          "name": "",
          "type": "string"
        },
        {
          "internalType": "uint256",
          "name": "",
          "type": "uint256"
        },
        {
          "internalType": "string",
          "name": "",
          "type": "string"
        },
        {
          "internalType": "uint256",
          "name": "",
          "type": "uint256"
        },
        {
          "internalType": "string",
          "name": "",
          "type": "string"
        },
        {
          "internalType": "address",
          "name": "",
          "type": "address"
        }
      ],
      "stateMutability": "view",
      "type": "function"
    },
    {
      "inputs": [],
      "name": "getCandidateLength",
      "outputs": [
        {
          "internalType": "uint256",
          "name": "",
          "type": "uint256"
        }
      ],
      "stateMutability": "view",
      "type": "function"
    },
    {
      "inputs": [],
      "name": "getKey",
      "outputs": [
        {
          "internalType": "address[]",
          "name": "",
          "type": "address[]"
        }
      ],
      "stateMutability": "view",
      "type": "function"
    },
    {
      "inputs": [],
      "name": "getVotedVoterList",
      "outputs": [
        {
          "internalType": "address[]",
          "name": "",
          "type": "address[]"
        }
      ],
      "stateMutability": "view",
      "type": "function"
    },
    {
      "inputs": [
        {
          "internalType": "address",
          "name": "_address",
          "type": "address"
        }
      ],
      "name": "getVoterData",
      "outputs": [
        {
          "internalType": "uint256",
          "name": "",
          "type": "uint256"
        },
        {
          "internalType": "string",
          "name": "",
          "type": "string"
        },
        {
          "internalType": "string",
          "name": "",
          "type": "string"
        },
        {
          "internalType": "address",
          "name": "",
          "type": "address"
        },
        {
          "internalType": "string",
          "name": "",
          "type": "string"
        },
        {
          "internalType": "bool",
          "name": "",
          "type": "bool"
        },
        {
          "internalType": "uint256",
          "name": "",
          "type": "uint256"
        }
      ],
      "stateMutability": "view",
      "type": "function"
    },
    {
      "inputs": [],
      "name": "getVoterLength",
      "outputs": [
        {
          "internalType": "uint256",
          "name": "",
          "type": "uint256"
        }
      ],
      "stateMutability": "view",
      "type": "function"
    },
    {
      "inputs": [],
      "name": "getVoterList",
      "outputs": [
        {
          "internalType": "address[]",
          "name": "",
          "type": "address[]"
        }
      ],
      "stateMutability": "view",
      "type": "function"
    },
    {
      "inputs": [
        {
          "internalType": "address",
          "name": "_candidateAddress",
          "type": "address"
        },
        {
          "internalType": "uint256",
          "name": "_candidateVoteId",
          "type": "uint256"
        }
      ],
      "name": "giveVote",
      "outputs": [],
      "stateMutability": "nonpayable",
      "type": "function"
    },
    {
      "inputs": [
        {
          "internalType": "address",
          "name": "forwarder",
          "type": "address"
        }
      ],
      "name": "isTrustedForwarder",
      "outputs": [
        {
          "internalType": "bool",
          "name": "",
          "type": "bool"
        }
      ],
      "stateMutability": "view",
      "type": "function"
    },
    {
      "inputs": [],
      "name": "resetElection",
      "outputs": [],
      "stateMutability": "nonpayable",
      "type": "function"
    },
    {
      "inputs": [
        {
          "internalType": "address",
          "name": "_address",
          "type": "address"
        },
        {
          "internalType": "string",
          "name": "_age",
          "type": "string"
        },
        {
          "internalType": "string",
          "name": "_name",
          "type": "string"
        },
        {
          "internalType": "string",
          "name": "_image",
          "type": "string"
        },
        {
          "internalType": "string",
          "name": "_ipfs",
          "type": "string"
        }
      ],
      "name": "setCandidate",
      "outputs": [],
      "stateMutability": "nonpayable",
      "type": "function"
    },
    {
      "inputs": [
        {
          "internalType": "address",
          "name": "_address",
          "type": "address"
        },
        {
          "internalType": "string",
          "name": "_name",
          "type": "string"
        },
        {
          "internalType": "string",
          "name": "_image",
          "type": "string"
        },
        {
          "internalType": "string",
          "name": "_ipfs",
          "type": "string"
        }
      ],
      "name": "setVoter",
      "outputs": [],
      "stateMutability": "nonpayable",
      "type": "function"
    },
    {
      "inputs": [],
      "name": "trustedForwarder",
      "outputs": [
        {
          "internalType": "address",
          "name": "",
          "type": "address"
        }
      ],
      "stateMutability": "view",
      "type": "function"
    },
    {
      "inputs": [
        {
          "internalType": "uint256",
          "name": "",
          "type": "uint256"
        }
      ],
      "name": "votedVoters",
      "outputs": [
        {
          "internalType": "address",
          "name": "",
          "type": "address"
        }
      ],
      "stateMutability": "view",
      "type": "function"
    },
    {
      "inputs": [
        {
          "internalType": "address",
          "name": "",
          "type": "address"
        }
      ],
      "name": "voterElectionVersion",
      "outputs": [
        {
          "internalType": "uint256",
          "name": "",
          "type": "uint256"
        }
      ],
      "stateMutability": "view",
      "type": "function"
    },
    {
      "inputs": [
        {
          "internalType": "address",
          "name": "",
          "type": "address"
        }
      ],
      "name": "voters",
      "outputs": [
        {
          "internalType": "uint256",
          "name": "voter_voterId",
          "type": "uint256"
        },
        {
          "internalType": "string",
          "name": "voter_name",
          "type": "string"
        },
        {
          "internalType": "string",
          "name": "voter_image",
          "type": "string"
        },
        {
          "internalType": "address",
          "name": "voter_address",
          "type": "address"
        },
        {
          "internalType": "uint256",
          "name": "voter_allowed",
          "type": "uint256"
        },
        {
          "internalType": "bool",
          "name": "voter_voted",
          "type": "bool"
        },
        {
          "internalType": "uint256",
          "name": "voter_vote",
          "type": "uint256"
        },
        {
          "internalType": "string",
          "name": "voter_ipfs",
          "type": "string"
        }
      ],
      "stateMutability": "view",
      "type": "function"
    },
    {
      "inputs": [
        {
          "internalType": "uint256",
          "name": "",
          "type": "uint256"
        }
      ],
      "name": "votersAddress",
      "outputs": [
        {
          "internalType": "address",
          "name": "",
          "type": "address"
        }
      ],
      "stateMutability": "view",
      "type": "function"
    },
    {
      "inputs": [],
      "name": "votingOrganizer",
      "outputs": [
        {
          "internalType": "address",
          "name": "",
          "type": "address"
        }
      ],
      "stateMutability": "view",
      "type": "function"
    }
  ],
  "bytecode": "0x60a06040523480156200001157600080fd5b5060405162003a6738038062003a67833981810160405281019062000037919062000273565b808073ffffffffffffffffffffffffffffffffffffffff1660808173ffffffffffffffffffffffffffffffffffffffff1681525050506200007d6200011c60201b60201c565b600360006101000a81548173ffffffffffffffffffffffffffffffffffffffff021916908373ffffffffffffffffffffffffffffffffffffffff160217905550620000cd6200011c60201b60201c565b600460006101000a81548173ffffffffffffffffffffffffffffffffffffffff021916908373ffffffffffffffffffffffffffffffffffffffff1602179055506001600281905550506200039a565b60008060003690509050600062000138620001a760201b60201c565b90508082101580156200015857506200015733620001b060201b60201c565b5b156200018f576000368284039080926200017593929190620002af565b9062000182919062000334565b60601c92505050620001a4565b6200019f620001f760201b60201c565b925050505b90565b60006014905090565b6000620001c2620001ff60201b60201c565b73ffffffffffffffffffffffffffffffffffffffff168273ffffffffffffffffffffffffffffffffffffffff16149050919050565b600033905090565b6000608051905090565b600080fd5b600073ffffffffffffffffffffffffffffffffffffffff82169050919050565b60006200023b826200020e565b9050919050565b6200024d816200022e565b81146200025957600080fd5b50565b6000815190506200026d8162000242565b92915050565b6000602082840312156200028c576200028b62000209565b5b60006200029c848285016200025c565b91505092915050565b600080fd5b600080fd5b60008085851115620002c657620002c5620002a5565b5b83861115620002da57620002d9620002aa565b5b6001850283019150848603905094509492505050565b600082905092915050565b60007fffffffffffffffffffffffffffffffffffffffff00000000000000000000000082169050919050565b600082821b905092915050565b6000620003428383620002f0565b826200034f8135620002fb565b9250601482101562000392576200038d7fffffffffffffffffffffffffffffffffffffffff0000000000000000000000008360140360080262000327565b831692505b505092915050565b6080516136b1620003b66000396000610d6201526136b16000f3fe608060405234801561001057600080fd5b50600436106101a95760003560e01c80638ab66a90116100f9578063b9be315211610097578063e8f3052311610071578063e8f3052314610527578063f7522a8314610531578063f7d0628f1461054f578063fa678ae71461056d576101a9565b8063b9be3152146104bd578063c91ec712146104db578063d6310e9a146104f7576101a9565b80639af2ae64116100d35780639af2ae641461041a578063a3ec138d1461044a578063a738896714610481578063b28d92ae1461049f576101a9565b80638ab66a90146103905780638e945685146103c65780638fb4cd80146103e4576101a9565b8063572b6c05116101665780637831ffb3116101405780637831ffb3146103085780637da0a8771461033857806382678dd61461035657806382aac8f314610374576101a9565b8063572b6c051461029c5780635cc48aa7146102cc57806370218b85146102ea576101a9565b806305ad45a4146101ae5780632a466ac7146101cc5780633a88251a1461020257806341cd04201461023257806343242daa1461025057806348d2382914610280575b600080fd5b6101b6610589565b6040516101c39190612327565b60405180910390f35b6101e660048036038101906101e191906123b4565b610596565b6040516101f99796959493929190612480565b60405180910390f35b61021c60048036038101906102179190612537565b6109dd565b6040516102299190612564565b60405180910390f35b61023a610a1c565b6040516102479190612564565b60405180910390f35b61026a60048036038101906102659190612537565b610a42565b6040516102779190612564565b60405180910390f35b61029a600480360381019061029591906123b4565b610a81565b005b6102b660048036038101906102b191906123b4565b610c2c565b6040516102c3919061259a565b60405180910390f35b6102d4610c6b565b6040516102e19190612564565b60405180910390f35b6102f2610c91565b6040516102ff9190612673565b60405180910390f35b610322600480360381019061031d9190612537565b610d1f565b60405161032f9190612564565b60405180910390f35b610340610d5e565b60405161034d9190612564565b60405180910390f35b61035e610d86565b60405161036b9190612673565b60405180910390f35b61038e600480360381019061038991906127ca565b610e14565b005b6103aa60048036038101906103a591906123b4565b611187565b6040516103bd9796959493929190612885565b60405180910390f35b6103ce611409565b6040516103db9190612673565b60405180910390f35b6103fe60048036038101906103f991906123b4565b611497565b6040516104119796959493929190612910565b60405180910390f35b610434600480360381019061042f91906123b4565b61185f565b6040516104419190612327565b60405180910390f35b610464600480360381019061045f91906123b4565b611877565b604051610478989796959493929190612994565b60405180910390f35b610489611a84565b6040516104969190612327565b60405180910390f35b6104a7611a8a565b6040516104b49190612673565b60405180910390f35b6104c5611b18565b6040516104d29190612327565b60405180910390f35b6104f560048036038101906104f09190612a27565b611b1e565b005b610511600480360381019061050c91906123b4565b611e69565b60405161051e9190612327565b60405180910390f35b61052f611e81565b005b610539611fa4565b6040516105469190612327565b60405180910390f35b610557611fb1565b6040516105649190612327565b60405180910390f35b61058760048036038101906105829190612b12565b611fb7565b005b6000600a80549050905090565b60608060006060600060606000600860008973ffffffffffffffffffffffffffffffffffffffff1673ffffffffffffffffffffffffffffffffffffffff168152602001908152602001600020600101600860008a73ffffffffffffffffffffffffffffffffffffffff1673ffffffffffffffffffffffffffffffffffffffff168152602001908152602001600020600201600860008b73ffffffffffffffffffffffffffffffffffffffff1673ffffffffffffffffffffffffffffffffffffffff16815260200190815260200160002060000154600860008c73ffffffffffffffffffffffffffffffffffffffff1673ffffffffffffffffffffffffffffffffffffffff168152602001908152602001600020600301600860008d73ffffffffffffffffffffffffffffffffffffffff1673ffffffffffffffffffffffffffffffffffffffff16815260200190815260200160002060040154600860008e73ffffffffffffffffffffffffffffffffffffffff1673ffffffffffffffffffffffffffffffffffffffff168152602001908152602001600020600601600860008f73ffffffffffffffffffffffffffffffffffffffff1673ffffffffffffffffffffffffffffffffffffffff16815260200190815260200160002060050160009054906101000a900473ffffffffffffffffffffffffffffffffffffffff168680546107a090612b81565b80601f01602080910402602001604051908101604052809291908181526020018280546107cc90612b81565b80156108195780601f106107ee57610100808354040283529160200191610819565b820191906000526020600020905b8154815290600101906020018083116107fc57829003601f168201915b5050505050965085805461082c90612b81565b80601f016020809104026020016040519081016040528092919081815260200182805461085890612b81565b80156108a55780601f1061087a576101008083540402835291602001916108a5565b820191906000526020600020905b81548152906001019060200180831161088857829003601f168201915b505050505095508380546108b890612b81565b80601f01602080910402602001604051908101604052809291908181526020018280546108e490612b81565b80156109315780601f1061090657610100808354040283529160200191610931565b820191906000526020600020905b81548152906001019060200180831161091457829003601f168201915b5050505050935081805461094490612b81565b80601f016020809104026020016040519081016040528092919081815260200182805461097090612b81565b80156109bd5780601f10610992576101008083540402835291602001916109bd565b820191906000526020600020905b8154815290600101906020018083116109a057829003601f168201915b505050505091509650965096509650965096509650919395979092949650565b600781815481106109ed57600080fd5b906000526020600020016000915054906101000a900473ffffffffffffffffffffffffffffffffffffffff1681565b600460009054906101000a900473ffffffffffffffffffffffffffffffffffffffff1681565b600a8181548110610a5257600080fd5b906000526020600020016000915054906101000a900473ffffffffffffffffffffffffffffffffffffffff1681565b610a89612253565b73ffffffffffffffffffffffffffffffffffffffff16600360009054906101000a900473ffffffffffffffffffffffffffffffffffffffff1673ffffffffffffffffffffffffffffffffffffffff1614610b18576040517f08c379a0000000000000000000000000000000000000000000000000000000008152600401610b0f90612c24565b60405180910390fd5b600073ffffffffffffffffffffffffffffffffffffffff168173ffffffffffffffffffffffffffffffffffffffff1603610b87576040517f08c379a0000000000000000000000000000000000000000000000000000000008152600401610b7e90612c90565b60405180910390fd5b6000600460009054906101000a900473ffffffffffffffffffffffffffffffffffffffff16905081600460006101000a81548173ffffffffffffffffffffffffffffffffffffffff021916908373ffffffffffffffffffffffffffffffffffffffff1602179055507f18f08848c5694a025f9966c34ff2367f32a1a8275663b282ee01f4338b0454908183604051610c20929190612cb0565b60405180910390a15050565b6000610c36610d5e565b73ffffffffffffffffffffffffffffffffffffffff168273ffffffffffffffffffffffffffffffffffffffff16149050919050565b600360009054906101000a900473ffffffffffffffffffffffffffffffffffffffff1681565b60606007805480602002602001604051908101604052809291908181526020018280548015610d1557602002820191906000526020600020905b8160009054906101000a900473ffffffffffffffffffffffffffffffffffffffff1673ffffffffffffffffffffffffffffffffffffffff1681526020019060010190808311610ccb575b5050505050905090565b60098181548110610d2f57600080fd5b906000526020600020016000915054906101000a900473ffffffffffffffffffffffffffffffffffffffff1681565b60007f0000000000000000000000000000000000000000000000000000000000000000905090565b60606007805480602002602001604051908101604052809291908181526020018280548015610e0a57602002820191906000526020600020905b8160009054906101000a900473ffffffffffffffffffffffffffffffffffffffff1673ffffffffffffffffffffffffffffffffffffffff1681526020019060010190808311610dc0575b5050505050905090565b610e1c612253565b73ffffffffffffffffffffffffffffffffffffffff16600360009054906101000a900473ffffffffffffffffffffffffffffffffffffffff1673ffffffffffffffffffffffffffffffffffffffff1614610eab576040517f08c379a0000000000000000000000000000000000000000000000000000000008152600401610ea290612d4b565b60405180910390fd5b600254600560008673ffffffffffffffffffffffffffffffffffffffff1673ffffffffffffffffffffffffffffffffffffffff1681526020019081526020016000205410610f2e576040517f08c379a0000000000000000000000000000000000000000000000000000000008152600401610f2590612ddd565b60405180910390fd5b600080815480929190610f4090612e2c565b91905055506000805490506000600b60008773ffffffffffffffffffffffffffffffffffffffff1673ffffffffffffffffffffffffffffffffffffffff168152602001908152602001600020905081816000018190555084816001019081610fa89190613020565b5083816002019081610fba9190613020565b50858160030160006101000a81548173ffffffffffffffffffffffffffffffffffffffff021916908373ffffffffffffffffffffffffffffffffffffffff1602179055506001816004018190555060008160050160006101000a81548160ff0219169083151502179055506103e88160060181905550828160070190816110419190613020565b50600a869080600181540180825580915050600190039060005260206000200160009091909190916101000a81548173ffffffffffffffffffffffffffffffffffffffff021916908373ffffffffffffffffffffffffffffffffffffffff160217905550600254600560008873ffffffffffffffffffffffffffffffffffffffff1673ffffffffffffffffffffffffffffffffffffffff16815260200190815260200160002081905550817ff5f39971dd62d9929e3a9feaa6bb77fe7c7da0001babff8a65a7e51ad0201c1986868985600401548660050160009054906101000a900460ff1687600601548a60405161114097969594939291906130f2565b60405180910390a27fb6be2187d059cc2a55fe29e0e503b566e1e0f8c8780096e185429350acffd3dd866040516111779190612564565b60405180910390a1505050505050565b60086020528060005260406000206000915090508060000154908060010180546111b090612b81565b80601f01602080910402602001604051908101604052809291908181526020018280546111dc90612b81565b80156112295780601f106111fe57610100808354040283529160200191611229565b820191906000526020600020905b81548152906001019060200180831161120c57829003601f168201915b50505050509080600201805461123e90612b81565b80601f016020809104026020016040519081016040528092919081815260200182805461126a90612b81565b80156112b75780601f1061128c576101008083540402835291602001916112b7565b820191906000526020600020905b81548152906001019060200180831161129a57829003601f168201915b5050505050908060030180546112cc90612b81565b80601f01602080910402602001604051908101604052809291908181526020018280546112f890612b81565b80156113455780601f1061131a57610100808354040283529160200191611345565b820191906000526020600020905b81548152906001019060200180831161132857829003601f168201915b5050505050908060040154908060050160009054906101000a900473ffffffffffffffffffffffffffffffffffffffff169080600601805461138690612b81565b80601f01602080910402602001604051908101604052809291908181526020018280546113b290612b81565b80156113ff5780601f106113d4576101008083540402835291602001916113ff565b820191906000526020600020905b8154815290600101906020018083116113e257829003601f168201915b5050505050905087565b6060600980548060200260200160405190810160405280929190818152602001828054801561148d57602002820191906000526020600020905b8160009054906101000a900473ffffffffffffffffffffffffffffffffffffffff1673ffffffffffffffffffffffffffffffffffffffff1681526020019060010190808311611443575b5050505050905090565b600060608060006060600080600b60008973ffffffffffffffffffffffffffffffffffffffff1673ffffffffffffffffffffffffffffffffffffffff16815260200190815260200160002060000154600b60008a73ffffffffffffffffffffffffffffffffffffffff1673ffffffffffffffffffffffffffffffffffffffff168152602001908152602001600020600101600b60008b73ffffffffffffffffffffffffffffffffffffffff1673ffffffffffffffffffffffffffffffffffffffff168152602001908152602001600020600201600b60008c73ffffffffffffffffffffffffffffffffffffffff1673ffffffffffffffffffffffffffffffffffffffff16815260200190815260200160002060030160009054906101000a900473ffffffffffffffffffffffffffffffffffffffff16600b60008d73ffffffffffffffffffffffffffffffffffffffff1673ffffffffffffffffffffffffffffffffffffffff168152602001908152602001600020600701600b60008e73ffffffffffffffffffffffffffffffffffffffff1673ffffffffffffffffffffffffffffffffffffffff16815260200190815260200160002060050160009054906101000a900460ff16600b60008f73ffffffffffffffffffffffffffffffffffffffff1673ffffffffffffffffffffffffffffffffffffffff168152602001908152602001600020600401548580546116ae90612b81565b80601f01602080910402602001604051908101604052809291908181526020018280546116da90612b81565b80156117275780601f106116fc57610100808354040283529160200191611727565b820191906000526020600020905b81548152906001019060200180831161170a57829003601f168201915b5050505050955084805461173a90612b81565b80601f016020809104026020016040519081016040528092919081815260200182805461176690612b81565b80156117b35780601f10611788576101008083540402835291602001916117b3565b820191906000526020600020905b81548152906001019060200180831161179657829003601f168201915b505050505094508280546117c690612b81565b80601f01602080910402602001604051908101604052809291908181526020018280546117f290612b81565b801561183f5780601f106118145761010080835404028352916020019161183f565b820191906000526020600020905b81548152906001019060200180831161182257829003601f168201915b505050505092509650965096509650965096509650919395979092949650565b60066020528060005260406000206000915090505481565b600b6020528060005260406000206000915090508060000154908060010180546118a090612b81565b80601f01602080910402602001604051908101604052809291908181526020018280546118cc90612b81565b80156119195780601f106118ee57610100808354040283529160200191611919565b820191906000526020600020905b8154815290600101906020018083116118fc57829003601f168201915b50505050509080600201805461192e90612b81565b80601f016020809104026020016040519081016040528092919081815260200182805461195a90612b81565b80156119a75780601f1061197c576101008083540402835291602001916119a7565b820191906000526020600020905b81548152906001019060200180831161198a57829003601f168201915b5050505050908060030160009054906101000a900473ffffffffffffffffffffffffffffffffffffffff16908060040154908060050160009054906101000a900460ff1690806006015490806007018054611a0190612b81565b80601f0160208091040260200160405190810160405280929190818152602001828054611a2d90612b81565b8015611a7a5780601f10611a4f57610100808354040283529160200191611a7a565b820191906000526020600020905b815481529060010190602001808311611a5d57829003601f168201915b5050505050905088565b60015481565b6060600a805480602002602001604051908101604052809291908181526020018280548015611b0e57602002820191906000526020600020905b8160009054906101000a900473ffffffffffffffffffffffffffffffffffffffff1673ffffffffffffffffffffffffffffffffffffffff1681526020019060010190808311611ac4575b5050505050905090565b60005481565b611b26612253565b73ffffffffffffffffffffffffffffffffffffffff16600360009054906101000a900473ffffffffffffffffffffffffffffffffffffffff1673ffffffffffffffffffffffffffffffffffffffff1614611bb5576040517f08c379a0000000000000000000000000000000000000000000000000000000008152600401611bac906131e8565b60405180910390fd5b600254600660008773ffffffffffffffffffffffffffffffffffffffff1673ffffffffffffffffffffffffffffffffffffffff1681526020019081526020016000205410611c38576040517f08c379a0000000000000000000000000000000000000000000000000000000008152600401611c2f9061327a565b60405180910390fd5b60016000815480929190611c4b90612e2c565b9190505550600060015490506000600860008873ffffffffffffffffffffffffffffffffffffffff1673ffffffffffffffffffffffffffffffffffffffff168152602001908152602001600020905081816000018190555085816001019081611cb49190613020565b5084816002019081611cc69190613020565b5083816003019081611cd89190613020565b5060008160040181905550868160050160006101000a81548173ffffffffffffffffffffffffffffffffffffffff021916908373ffffffffffffffffffffffffffffffffffffffff16021790555082816006019081611d379190613020565b506007879080600181540180825580915050600190039060005260206000200160009091909190916101000a81548173ffffffffffffffffffffffffffffffffffffffff021916908373ffffffffffffffffffffffffffffffffffffffff160217905550600254600660008973ffffffffffffffffffffffffffffffffffffffff1673ffffffffffffffffffffffffffffffffffffffff16815260200190815260200160002081905550817fd297f12b256bb8485a6013fb5e302017018123e99a0ebb20756c09e1707b4b9087878785600401548c89604051611e1f9695949392919061329a565b60405180910390a27f78d27a3c512303f604b46bc28acc0ca45abe6420172a017c5a6dc585821eb6398286604051611e58929190613317565b60405180910390a150505050505050565b60056020528060005260406000206000915090505481565b611e89612253565b73ffffffffffffffffffffffffffffffffffffffff16600360009054906101000a900473ffffffffffffffffffffffffffffffffffffffff1673ffffffffffffffffffffffffffffffffffffffff1614611f18576040517f08c379a0000000000000000000000000000000000000000000000000000000008152600401611f0f906133b9565b60405180910390fd5b60076000611f2691906122d0565b600a6000611f3491906122d0565b60096000611f4291906122d0565b60006001819055506000808190555060026000815480929190611f6490612e2c565b91905055507f2a0e7ca52e830898fc8ddd8f2fc8695795a5fdf74064958562691b5bea4485f5600254604051611f9a9190612327565b60405180910390a1565b6000600780549050905090565b60025481565b60025460056000611fc6612253565b73ffffffffffffffffffffffffffffffffffffffff1673ffffffffffffffffffffffffffffffffffffffff1681526020019081526020016000205414612041576040517f08c379a00000000000000000000000000000000000000000000000000000000081526004016120389061344b565b60405180910390fd5b6000600b600061204f612253565b73ffffffffffffffffffffffffffffffffffffffff1673ffffffffffffffffffffffffffffffffffffffff16815260200190815260200160002090508060050160009054906101000a900460ff16156120dd576040517f08c379a00000000000000000000000000000000000000000000000000000000081526004016120d4906134b7565b60405180910390fd5b6000816004015403612124576040517f08c379a000000000000000000000000000000000000000000000000000000000815260040161211b90613523565b60405180910390fd5b60018160050160006101000a81548160ff0219169083151502179055508181600601819055506009612154612253565b9080600181540180825580915050600190039060005260206000200160009091909190916101000a81548173ffffffffffffffffffffffffffffffffffffffff021916908373ffffffffffffffffffffffffffffffffffffffff1602179055506001600860008573ffffffffffffffffffffffffffffffffffffffff1673ffffffffffffffffffffffffffffffffffffffff16815260200190815260200160002060040160008282546122079190613543565b925050819055507fa36cc2bebb74db33e9f88110a07ef56e1b31b24b4c4f51b54b1664266e29f45b612237612253565b83604051612246929190613577565b60405180910390a1505050565b6000806000369050905060006122676122bf565b905080821015801561227e575061227d33610c2c565b5b156122af57600036828403908092612298939291906135aa565b906122a3919061361c565b60601c925050506122bc565b6122b76122c8565b925050505b90565b60006014905090565b600033905090565b50805460008255906000526020600020908101906122ee91906122f1565b50565b5b8082111561230a5760008160009055506001016122f2565b5090565b6000819050919050565b6123218161230e565b82525050565b600060208201905061233c6000830184612318565b92915050565b6000604051905090565b600080fd5b600080fd5b600073ffffffffffffffffffffffffffffffffffffffff82169050919050565b600061238182612356565b9050919050565b61239181612376565b811461239c57600080fd5b50565b6000813590506123ae81612388565b92915050565b6000602082840312156123ca576123c961234c565b5b60006123d88482850161239f565b91505092915050565b600081519050919050565b600082825260208201905092915050565b60005b8381101561241b578082015181840152602081019050612400565b60008484015250505050565b6000601f19601f8301169050919050565b6000612443826123e1565b61244d81856123ec565b935061245d8185602086016123fd565b61246681612427565b840191505092915050565b61247a81612376565b82525050565b600060e082019050818103600083015261249a818a612438565b905081810360208301526124ae8189612438565b90506124bd6040830188612318565b81810360608301526124cf8187612438565b90506124de6080830186612318565b81810360a08301526124f08185612438565b90506124ff60c0830184612471565b98975050505050505050565b6125148161230e565b811461251f57600080fd5b50565b6000813590506125318161250b565b92915050565b60006020828403121561254d5761254c61234c565b5b600061255b84828501612522565b91505092915050565b60006020820190506125796000830184612471565b92915050565b60008115159050919050565b6125948161257f565b82525050565b60006020820190506125af600083018461258b565b92915050565b600081519050919050565b600082825260208201905092915050565b6000819050602082019050919050565b6125ea81612376565b82525050565b60006125fc83836125e1565b60208301905092915050565b6000602082019050919050565b6000612620826125b5565b61262a81856125c0565b9350612635836125d1565b8060005b8381101561266657815161264d88826125f0565b975061265883612608565b925050600181019050612639565b5085935050505092915050565b6000602082019050818103600083015261268d8184612615565b905092915050565b600080fd5b600080fd5b7f4e487b7100000000000000000000000000000000000000000000000000000000600052604160045260246000fd5b6126d782612427565b810181811067ffffffffffffffff821117156126f6576126f561269f565b5b80604052505050565b6000612709612342565b905061271582826126ce565b919050565b600067ffffffffffffffff8211156127355761273461269f565b5b61273e82612427565b9050602081019050919050565b82818337600083830152505050565b600061276d6127688461271a565b6126ff565b9050828152602081018484840111156127895761278861269a565b5b61279484828561274b565b509392505050565b600082601f8301126127b1576127b0612695565b5b81356127c184826020860161275a565b91505092915050565b600080600080608085870312156127e4576127e361234c565b5b60006127f28782880161239f565b945050602085013567ffffffffffffffff81111561281357612812612351565b5b61281f8782880161279c565b935050604085013567ffffffffffffffff8111156128405761283f612351565b5b61284c8782880161279c565b925050606085013567ffffffffffffffff81111561286d5761286c612351565b5b6128798782880161279c565b91505092959194509250565b600060e08201905061289a600083018a612318565b81810360208301526128ac8189612438565b905081810360408301526128c08188612438565b905081810360608301526128d48187612438565b90506128e36080830186612318565b6128f060a0830185612471565b81810360c08301526129028184612438565b905098975050505050505050565b600060e082019050612925600083018a612318565b81810360208301526129378189612438565b9050818103604083015261294b8188612438565b905061295a6060830187612471565b818103608083015261296c8186612438565b905061297b60a083018561258b565b61298860c0830184612318565b98975050505050505050565b6000610100820190506129aa600083018b612318565b81810360208301526129bc818a612438565b905081810360408301526129d08189612438565b90506129df6060830188612471565b6129ec6080830187612318565b6129f960a083018661258b565b612a0660c0830185612318565b81810360e0830152612a188184612438565b90509998505050505050505050565b600080600080600060a08688031215612a4357612a4261234c565b5b6000612a518882890161239f565b955050602086013567ffffffffffffffff811115612a7257612a71612351565b5b612a7e8882890161279c565b945050604086013567ffffffffffffffff811115612a9f57612a9e612351565b5b612aab8882890161279c565b935050606086013567ffffffffffffffff811115612acc57612acb612351565b5b612ad88882890161279c565b925050608086013567ffffffffffffffff811115612af957612af8612351565b5b612b058882890161279c565b9150509295509295909350565b60008060408385031215612b2957612b2861234c565b5b6000612b378582860161239f565b9250506020612b4885828601612522565b9150509250929050565b7f4e487b7100000000000000000000000000000000000000000000000000000000600052602260045260246000fd5b60006002820490506001821680612b9957607f821691505b602082108103612bac57612bab612b52565b5b50919050565b7f4f6e6c792061646d696e2063616e2063616c6c20746869732066756e6374696f60008201527f6e00000000000000000000000000000000000000000000000000000000000000602082015250565b6000612c0e6021836123ec565b9150612c1982612bb2565b604082019050919050565b60006020820190508181036000830152612c3d81612c01565b9050919050565b7f496e76616c6964206e65772072656c6179657220616464726573730000000000600082015250565b6000612c7a601b836123ec565b9150612c8582612c44565b602082019050919050565b60006020820190508181036000830152612ca981612c6d565b9050919050565b6000604082019050612cc56000830185612471565b612cd26020830184612471565b9392505050565b7f4f6e6c79206f7267616e697a65722063616e20637265617465206120766f746560008201527f7200000000000000000000000000000000000000000000000000000000000000602082015250565b6000612d356021836123ec565b9150612d4082612cd9565b604082019050919050565b60006020820190508181036000830152612d6481612d28565b9050919050565b7f566f74657220616c7265616479207265676973746572656420696e206375727260008201527f656e7420656c656374696f6e0000000000000000000000000000000000000000602082015250565b6000612dc7602c836123ec565b9150612dd282612d6b565b604082019050919050565b60006020820190508181036000830152612df681612dba565b9050919050565b7f4e487b7100000000000000000000000000000000000000000000000000000000600052601160045260246000fd5b6000612e378261230e565b91507fffffffffffffffffffffffffffffffffffffffffffffffffffffffffffffffff8203612e6957612e68612dfd565b5b600182019050919050565b60008190508160005260206000209050919050565b60006020601f8301049050919050565b600082821b905092915050565b600060088302612ed67fffffffffffffffffffffffffffffffffffffffffffffffffffffffffffffffff82612e99565b612ee08683612e99565b95508019841693508086168417925050509392505050565b6000819050919050565b6000612f1d612f18612f138461230e565b612ef8565b61230e565b9050919050565b6000819050919050565b612f3783612f02565b612f4b612f4382612f24565b848454612ea6565b825550505050565b600090565b612f60612f53565b612f6b818484612f2e565b505050565b5b81811015612f8f57612f84600082612f58565b600181019050612f71565b5050565b601f821115612fd457612fa581612e74565b612fae84612e89565b81016020851015612fbd578190505b612fd1612fc985612e89565b830182612f70565b50505b505050565b600082821c905092915050565b6000612ff760001984600802612fd9565b1980831691505092915050565b60006130108383612fe6565b9150826002028217905092915050565b613029826123e1565b67ffffffffffffffff8111156130425761304161269f565b5b61304c8254612b81565b613057828285612f93565b600060209050601f83116001811461308a5760008415613078578287015190505b6130828582613004565b8655506130ea565b601f19841661309886612e74565b60005b828110156130c05784890151825560018201915060208501945060208101905061309b565b868310156130dd57848901516130d9601f891682612fe6565b8355505b6001600288020188555050505b505050505050565b600060e082019050818103600083015261310c818a612438565b905081810360208301526131208189612438565b905061312f6040830188612471565b61313c6060830187612318565b613149608083018661258b565b61315660a0830185612318565b81810360c08301526131688184612438565b905098975050505050505050565b7f4f6e6c79206f7267616e697a65722063616e2063726561746520612063616e6460008201527f6964617465000000000000000000000000000000000000000000000000000000602082015250565b60006131d26025836123ec565b91506131dd82613176565b604082019050919050565b60006020820190508181036000830152613201816131c5565b9050919050565b7f43616e64696461746520616c7265616479207265676973746572656420696e2060008201527f63757272656e7420656c656374696f6e00000000000000000000000000000000602082015250565b60006132646030836123ec565b915061326f82613208565b604082019050919050565b6000602082019050818103600083015261329381613257565b9050919050565b600060c08201905081810360008301526132b48189612438565b905081810360208301526132c88188612438565b905081810360408301526132dc8187612438565b90506132eb6060830186612318565b6132f86080830185612471565b81810360a083015261330a8184612438565b9050979650505050505050565b600060408201905061332c6000830185612318565b818103602083015261333e8184612438565b90509392505050565b7f4f6e6c79206f7267616e697a65722063616e2072657365742074686520656c6560008201527f6374696f6e000000000000000000000000000000000000000000000000000000602082015250565b60006133a36025836123ec565b91506133ae82613347565b604082019050919050565b600060208201905081810360008301526133d281613396565b9050919050565b7f596f7520617265206e6f74207265676973746572656420666f7220746865206360008201527f757272656e7420656c656374696f6e0000000000000000000000000000000000602082015250565b6000613435602f836123ec565b9150613440826133d9565b604082019050919050565b6000602082019050818103600083015261346481613428565b9050919050565b7f596f75206861766520616c726561647920766f74656400000000000000000000600082015250565b60006134a16016836123ec565b91506134ac8261346b565b602082019050919050565b600060208201905081810360008301526134d081613494565b9050919050565b7f596f752068617665206e6f20726967687420746f20766f746500000000000000600082015250565b600061350d6019836123ec565b9150613518826134d7565b602082019050919050565b6000602082019050818103600083015261353c81613500565b9050919050565b600061354e8261230e565b91506135598361230e565b925082820190508082111561357157613570612dfd565b5b92915050565b600060408201905061358c6000830185612471565b6135996020830184612318565b9392505050565b600080fd5b600080fd5b600080858511156135be576135bd6135a0565b5b838611156135cf576135ce6135a5565b5b6001850283019150848603905094509492505050565b600082905092915050565b60007fffffffffffffffffffffffffffffffffffffffff00000000000000000000000082169050919050565b600061362883836135e5565b8261363381356135f0565b925060148210156136735761366e7fffffffffffffffffffffffffffffffffffffffff00000000000000000000000083601403600802612e99565b831692505b50509291505056fea2646970667358221220355c17385c8d43882d06133624a8924faff27324b90ce63302ab6cae572cbc0264736f6c63430008140033",
  "linkReferences": {},
  "deployedLinkReferences": {}
}