{
  "_format": "hh-sol-artifact-1",
  "contractName": "Voting",
  "sourceName": "contracts/Voting.sol",
  "abi": [
    {
      "inputs": [
        {
          "internalType": "address",
          "name": "trustedForwarder",
          "type": "address"
        }
      ],
      "stateMutability": "nonpayable",
      "type": "constructor"
    },
    {
      "anonymous": false,
      "inputs": [
        {
          "indexed": true,
          "internalType": "uint256",
          "name": "candidateId",
          "type": "uint256"
        },
        {
          "indexed": false,
          "internalType": "string",
          "name": "age",
          "type": "string"
        },
        {
          "indexed": false,
          "internalType": "string",
          "name": "name",
          "type": "string"
        },
        {
          "indexed": false,
          "internalType": "string",
          "name": "image",
          "type": "string"
        },
        {
          "indexed": false,
          "internalType": "uint256",
          "name": "voteCount",
          "type": "uint256"
        },
        {
          "indexed": false,
          "internalType": "address",
          "name": "_address",
          "type": "address"
        },
        {
          "indexed": false,
          "internalType": "string",
          "name": "ipfs",
          "type": "string"
        }
      ],
      "name": "CandidateCreate",
      "type": "event"
    },
    {
      "anonymous": false,
      "inputs": [
        {
          "indexed": true,
          "internalType": "uint256",
          "name": "voter_voterId",
          "type": "uint256"
        },
        {
          "indexed": false,
          "internalType": "string",
          "name": "voter_name",
          "type": "string"
        },
        {
          "indexed": false,
          "internalType": "string",
          "name": "voter_image",
          "type": "string"
        },
        {
          "indexed": false,
          "internalType": "address",
          "name": "voter_address",
          "type": "address"
        },
        {
          "indexed": false,
          "internalType": "uint256",
          "name": "voter_allowed",
          "type": "uint256"
        },
        {
          "indexed": false,
          "internalType": "bool",
          "name": "voter_voted",
          "type": "bool"
        },
        {
          "indexed": false,
          "internalType": "uint256",
          "name": "voter_vote",
          "type": "uint256"
        },
        {
          "indexed": false,
          "internalType": "string",
          "name": "voter_ipfs",
          "type": "string"
        }
      ],
      "name": "VoterCreated",
      "type": "event"
    },
    {
      "inputs": [],
      "name": "_candidateId",
      "outputs": [
        {
          "internalType": "uint256",
          "name": "",
          "type": "uint256"
        }
      ],
      "stateMutability": "view",
      "type": "function"
    },
    {
      "inputs": [],
      "name": "_voterId",
      "outputs": [
        {
          "internalType": "uint256",
          "name": "",
          "type": "uint256"
        }
      ],
      "stateMutability": "view",
      "type": "function"
    },
    {
      "inputs": [
        {
          "internalType": "uint256",
          "name": "",
          "type": "uint256"
        }
      ],
      "name": "candidateAddress",
      "outputs": [
        {
          "internalType": "address",
          "name": "",
          "type": "address"
        }
      ],
      "stateMutability": "view",
      "type": "function"
    },
    {
      "inputs": [
        {
          "internalType": "address",
          "name": "",
          "type": "address"
        }
      ],
      "name": "candidates",
      "outputs": [
        {
          "internalType": "uint256",
          "name": "candidateId",
          "type": "uint256"
        },
        {
          "internalType": "string",
          "name": "age",
          "type": "string"
        },
        {
          "internalType": "string",
          "name": "name",
          "type": "string"
        },
        {
          "internalType": "string",
          "name": "image",
          "type": "string"
        },
        {
          "internalType": "uint256",
          "name": "voteCount",
          "type": "uint256"
        },
        {
          "internalType": "address",
          "name": "_address",
          "type": "address"
        },
        {
          "internalType": "string",
          "name": "ipfs",
          "type": "string"
        }
      ],
      "stateMutability": "view",
      "type": "function"
    },
    {
      "inputs": [],
      "name": "getCandidate",
      "outputs": [
        {
          "internalType": "address[]",
          "name": "",
          "type": "address[]"
        }
      ],
      "stateMutability": "view",
      "type": "function"
    },
    {
      "inputs": [
        {
          "internalType": "address",
          "name": "_address",
          "type": "address"
        }
      ],
      "name": "getCandidateData",
      "outputs": [
        {
          "internalType": "string",
          "name": "",
          "type": "string"
        },
        {
          "internalType": "string",
          "name": "",
          "type": "string"
        },
        {
          "internalType": "uint256",
          "name": "",
          "type": "uint256"
        },
        {
          "internalType": "string",
          "name": "",
          "type": "string"
        },
        {
          "internalType": "uint256",
          "name": "",
          "type": "uint256"
        },
        {
          "internalType": "string",
          "name": "",
          "type": "string"
        },
        {
          "internalType": "address",
          "name": "",
          "type": "address"
        }
      ],
      "stateMutability": "view",
      "type": "function"
    },
    {
      "inputs": [],
      "name": "getCandidateLength",
      "outputs": [
        {
          "internalType": "uint256",
          "name": "",
          "type": "uint256"
        }
      ],
      "stateMutability": "view",
      "type": "function"
    },
    {
      "inputs": [],
      "name": "getKey",
      "outputs": [
        {
          "internalType": "address[]",
          "name": "",
          "type": "address[]"
        }
      ],
      "stateMutability": "view",
      "type": "function"
    },
    {
      "inputs": [],
      "name": "getVotedVoterList",
      "outputs": [
        {
          "internalType": "address[]",
          "name": "",
          "type": "address[]"
        }
      ],
      "stateMutability": "view",
      "type": "function"
    },
    {
      "inputs": [
        {
          "internalType": "address",
          "name": "_address",
          "type": "address"
        }
      ],
      "name": "getVoterData",
      "outputs": [
        {
          "internalType": "uint256",
          "name": "",
          "type": "uint256"
        },
        {
          "internalType": "string",
          "name": "",
          "type": "string"
        },
        {
          "internalType": "string",
          "name": "",
          "type": "string"
        },
        {
          "internalType": "address",
          "name": "",
          "type": "address"
        },
        {
          "internalType": "string",
          "name": "",
          "type": "string"
        },
        {
          "internalType": "bool",
          "name": "",
          "type": "bool"
        },
        {
          "internalType": "uint256",
          "name": "",
          "type": "uint256"
        }
      ],
      "stateMutability": "view",
      "type": "function"
    },
    {
      "inputs": [],
      "name": "getVoterLength",
      "outputs": [
        {
          "internalType": "uint256",
          "name": "",
          "type": "uint256"
        }
      ],
      "stateMutability": "view",
      "type": "function"
    },
    {
      "inputs": [],
      "name": "getVoterList",
      "outputs": [
        {
          "internalType": "address[]",
          "name": "",
          "type": "address[]"
        }
      ],
      "stateMutability": "view",
      "type": "function"
    },
    {
      "inputs": [
        {
          "internalType": "address",
          "name": "_candidateAddress",
          "type": "address"
        },
        {
          "internalType": "uint256",
          "name": "_candidateVoteId",
          "type": "uint256"
        }
      ],
      "name": "giveVote",
      "outputs": [],
      "stateMutability": "nonpayable",
      "type": "function"
    },
    {
      "inputs": [
        {
          "internalType": "address",
          "name": "forwarder",
          "type": "address"
        }
      ],
      "name": "isTrustedForwarder",
      "outputs": [
        {
          "internalType": "bool",
          "name": "",
          "type": "bool"
        }
      ],
      "stateMutability": "view",
      "type": "function"
    },
    {
      "inputs": [],
      "name": "resetElection",
      "outputs": [],
      "stateMutability": "nonpayable",
      "type": "function"
    },
    {
      "inputs": [
        {
          "internalType": "address",
          "name": "_address",
          "type": "address"
        },
        {
          "internalType": "string",
          "name": "_age",
          "type": "string"
        },
        {
          "internalType": "string",
          "name": "_name",
          "type": "string"
        },
        {
          "internalType": "string",
          "name": "_image",
          "type": "string"
        },
        {
          "internalType": "string",
          "name": "_ipfs",
          "type": "string"
        }
      ],
      "name": "setCandidate",
      "outputs": [],
      "stateMutability": "nonpayable",
      "type": "function"
    },
    {
      "inputs": [
        {
          "internalType": "address",
          "name": "_address",
          "type": "address"
        },
        {
          "internalType": "string",
          "name": "_name",
          "type": "string"
        },
        {
          "internalType": "string",
          "name": "_image",
          "type": "string"
        },
        {
          "internalType": "string",
          "name": "_ipfs",
          "type": "string"
        }
      ],
      "name": "setVoter",
      "outputs": [],
      "stateMutability": "nonpayable",
      "type": "function"
    },
    {
      "inputs": [],
      "name": "trustedForwarder",
      "outputs": [
        {
          "internalType": "address",
          "name": "",
          "type": "address"
        }
      ],
      "stateMutability": "view",
      "type": "function"
    },
    {
      "inputs": [
        {
          "internalType": "uint256",
          "name": "",
          "type": "uint256"
        }
      ],
      "name": "votedVoters",
      "outputs": [
        {
          "internalType": "address",
          "name": "",
          "type": "address"
        }
      ],
      "stateMutability": "view",
      "type": "function"
    },
    {
      "inputs": [
        {
          "internalType": "address",
          "name": "",
          "type": "address"
        }
      ],
      "name": "voters",
      "outputs": [
        {
          "internalType": "uint256",
          "name": "voter_voterId",
          "type": "uint256"
        },
        {
          "internalType": "string",
          "name": "voter_name",
          "type": "string"
        },
        {
          "internalType": "string",
          "name": "voter_image",
          "type": "string"
        },
        {
          "internalType": "address",
          "name": "voter_address",
          "type": "address"
        },
        {
          "internalType": "uint256",
          "name": "voter_allowed",
          "type": "uint256"
        },
        {
          "internalType": "bool",
          "name": "voter_voted",
          "type": "bool"
        },
        {
          "internalType": "uint256",
          "name": "voter_vote",
          "type": "uint256"
        },
        {
          "internalType": "string",
          "name": "voter_ipfs",
          "type": "string"
        }
      ],
      "stateMutability": "view",
      "type": "function"
    },
    {
      "inputs": [
        {
          "internalType": "uint256",
          "name": "",
          "type": "uint256"
        }
      ],
      "name": "votersAddress",
      "outputs": [
        {
          "internalType": "address",
          "name": "",
          "type": "address"
        }
      ],
      "stateMutability": "view",
      "type": "function"
    },
    {
      "inputs": [],
      "name": "votingOrganizer",
      "outputs": [
        {
          "internalType": "address",
          "name": "",
          "type": "address"
        }
      ],
      "stateMutability": "view",
      "type": "function"
    }
  ],
  "bytecode": "0x60a06040523480156200001157600080fd5b50604051620030963803806200309683398181016040528101906200003791906200021b565b808073ffffffffffffffffffffffffffffffffffffffff1660808173ffffffffffffffffffffffffffffffffffffffff1681525050506200007d620000c460201b60201c565b600260006101000a81548173ffffffffffffffffffffffffffffffffffffffff021916908373ffffffffffffffffffffffffffffffffffffffff1602179055505062000342565b600080600036905090506000620000e06200014f60201b60201c565b9050808210158015620001005750620000ff336200015860201b60201c565b5b1562000137576000368284039080926200011d9392919062000257565b906200012a9190620002dc565b60601c925050506200014c565b620001476200019f60201b60201c565b925050505b90565b60006014905090565b60006200016a620001a760201b60201c565b73ffffffffffffffffffffffffffffffffffffffff168273ffffffffffffffffffffffffffffffffffffffff16149050919050565b600033905090565b6000608051905090565b600080fd5b600073ffffffffffffffffffffffffffffffffffffffff82169050919050565b6000620001e382620001b6565b9050919050565b620001f581620001d6565b81146200020157600080fd5b50565b6000815190506200021581620001ea565b92915050565b600060208284031215620002345762000233620001b1565b5b6000620002448482850162000204565b91505092915050565b600080fd5b600080fd5b600080858511156200026e576200026d6200024d565b5b8386111562000282576200028162000252565b5b6001850283019150848603905094509492505050565b600082905092915050565b60007fffffffffffffffffffffffffffffffffffffffff00000000000000000000000082169050919050565b600082821b905092915050565b6000620002ea838362000298565b82620002f78135620002a3565b925060148210156200033a57620003357fffffffffffffffffffffffffffffffffffffffff00000000000000000000000083601403600802620002cf565b831692505b505092915050565b608051612d386200035e6000396000610a720152612d386000f3fe608060405234801561001057600080fd5b50600436106101425760003560e01c80638ab66a90116100b8578063b28d92ae1161007c578063b28d92ae146103ce578063b9be3152146103ec578063c91ec7121461040a578063e8f3052314610426578063f7522a8314610430578063fa678ae71461044e57610142565b80638ab66a90146102ef5780638e945685146103255780638fb4cd8014610343578063a3ec138d14610379578063a7388967146103b057610142565b80635cc48aa71161010a5780635cc48aa71461022b57806370218b85146102495780637831ffb3146102675780637da0a8771461029757806382678dd6146102b557806382aac8f3146102d357610142565b806305ad45a4146101475780632a466ac7146101655780633a88251a1461019b57806343242daa146101cb578063572b6c05146101fb575b600080fd5b61014f61046a565b60405161015c9190611ce4565b60405180910390f35b61017f600480360381019061017a9190611d71565b610477565b6040516101929796959493929190611e3d565b60405180910390f35b6101b560048036038101906101b09190611ef4565b6108be565b6040516101c29190611f21565b60405180910390f35b6101e560048036038101906101e09190611ef4565b6108fd565b6040516101f29190611f21565b60405180910390f35b61021560048036038101906102109190611d71565b61093c565b6040516102229190611f57565b60405180910390f35b61023361097b565b6040516102409190611f21565b60405180910390f35b6102516109a1565b60405161025e9190612030565b60405180910390f35b610281600480360381019061027c9190611ef4565b610a2f565b60405161028e9190611f21565b60405180910390f35b61029f610a6e565b6040516102ac9190611f21565b60405180910390f35b6102bd610a96565b6040516102ca9190612030565b60405180910390f35b6102ed60048036038101906102e89190612187565b610b24565b005b61030960048036038101906103049190611d71565b610d97565b60405161031c9796959493929190612242565b60405180910390f35b61032d611019565b60405161033a9190612030565b60405180910390f35b61035d60048036038101906103589190611d71565b6110a7565b60405161037097969594939291906122cd565b60405180910390f35b610393600480360381019061038e9190611d71565b61146f565b6040516103a7989796959493929190612351565b60405180910390f35b6103b861167c565b6040516103c59190611ce4565b60405180910390f35b6103d6611682565b6040516103e39190612030565b60405180910390f35b6103f4611710565b6040516104019190611ce4565b60405180910390f35b610424600480360381019061041f91906123e4565b611716565b005b61042e61195f565b005b610438611a31565b6040516104459190611ce4565b60405180910390f35b610468600480360381019061046391906124cf565b611a3e565b005b6000600680549050905090565b60608060006060600060606000600460008973ffffffffffffffffffffffffffffffffffffffff1673ffffffffffffffffffffffffffffffffffffffff168152602001908152602001600020600101600460008a73ffffffffffffffffffffffffffffffffffffffff1673ffffffffffffffffffffffffffffffffffffffff168152602001908152602001600020600201600460008b73ffffffffffffffffffffffffffffffffffffffff1673ffffffffffffffffffffffffffffffffffffffff16815260200190815260200160002060000154600460008c73ffffffffffffffffffffffffffffffffffffffff1673ffffffffffffffffffffffffffffffffffffffff168152602001908152602001600020600301600460008d73ffffffffffffffffffffffffffffffffffffffff1673ffffffffffffffffffffffffffffffffffffffff16815260200190815260200160002060040154600460008e73ffffffffffffffffffffffffffffffffffffffff1673ffffffffffffffffffffffffffffffffffffffff168152602001908152602001600020600601600460008f73ffffffffffffffffffffffffffffffffffffffff1673ffffffffffffffffffffffffffffffffffffffff16815260200190815260200160002060050160009054906101000a900473ffffffffffffffffffffffffffffffffffffffff168680546106819061253e565b80601f01602080910402602001604051908101604052809291908181526020018280546106ad9061253e565b80156106fa5780601f106106cf576101008083540402835291602001916106fa565b820191906000526020600020905b8154815290600101906020018083116106dd57829003601f168201915b5050505050965085805461070d9061253e565b80601f01602080910402602001604051908101604052809291908181526020018280546107399061253e565b80156107865780601f1061075b57610100808354040283529160200191610786565b820191906000526020600020905b81548152906001019060200180831161076957829003601f168201915b505050505095508380546107999061253e565b80601f01602080910402602001604051908101604052809291908181526020018280546107c59061253e565b80156108125780601f106107e757610100808354040283529160200191610812565b820191906000526020600020905b8154815290600101906020018083116107f557829003601f168201915b505050505093508180546108259061253e565b80601f01602080910402602001604051908101604052809291908181526020018280546108519061253e565b801561089e5780601f106108735761010080835404028352916020019161089e565b820191906000526020600020905b81548152906001019060200180831161088157829003601f168201915b505050505091509650965096509650965096509650919395979092949650565b600381815481106108ce57600080fd5b906000526020600020016000915054906101000a900473ffffffffffffffffffffffffffffffffffffffff1681565b6006818154811061090d57600080fd5b906000526020600020016000915054906101000a900473ffffffffffffffffffffffffffffffffffffffff1681565b6000610946610a6e565b73ffffffffffffffffffffffffffffffffffffffff168273ffffffffffffffffffffffffffffffffffffffff16149050919050565b600260009054906101000a900473ffffffffffffffffffffffffffffffffffffffff1681565b60606003805480602002602001604051908101604052809291908181526020018280548015610a2557602002820191906000526020600020905b8160009054906101000a900473ffffffffffffffffffffffffffffffffffffffff1673ffffffffffffffffffffffffffffffffffffffff16815260200190600101908083116109db575b5050505050905090565b60058181548110610a3f57600080fd5b906000526020600020016000915054906101000a900473ffffffffffffffffffffffffffffffffffffffff1681565b60007f0000000000000000000000000000000000000000000000000000000000000000905090565b60606003805480602002602001604051908101604052809291908181526020018280548015610b1a57602002820191906000526020600020905b8160009054906101000a900473ffffffffffffffffffffffffffffffffffffffff1673ffffffffffffffffffffffffffffffffffffffff1681526020019060010190808311610ad0575b5050505050905090565b610b2c611c10565b73ffffffffffffffffffffffffffffffffffffffff16600260009054906101000a900473ffffffffffffffffffffffffffffffffffffffff1673ffffffffffffffffffffffffffffffffffffffff1614610bbb576040517f08c379a0000000000000000000000000000000000000000000000000000000008152600401610bb2906125e1565b60405180910390fd5b600080815480929190610bcd90612630565b91905055506000805490506000600760008773ffffffffffffffffffffffffffffffffffffffff1673ffffffffffffffffffffffffffffffffffffffff168152602001908152602001600020905081816000018190555084816001019081610c359190612824565b5083816002019081610c479190612824565b50858160030160006101000a81548173ffffffffffffffffffffffffffffffffffffffff021916908373ffffffffffffffffffffffffffffffffffffffff1602179055506001816004018190555060008160050160006101000a81548160ff0219169083151502179055506103e8816006018190555082816007019081610cce9190612824565b506006869080600181540180825580915050600190039060005260206000200160009091909190916101000a81548173ffffffffffffffffffffffffffffffffffffffff021916908373ffffffffffffffffffffffffffffffffffffffff160217905550817ff5f39971dd62d9929e3a9feaa6bb77fe7c7da0001babff8a65a7e51ad0201c1986868985600401548660050160009054906101000a900460ff1687600601548a604051610d8797969594939291906128f6565b60405180910390a2505050505050565b6004602052806000526040600020600091509050806000015490806001018054610dc09061253e565b80601f0160208091040260200160405190810160405280929190818152602001828054610dec9061253e565b8015610e395780601f10610e0e57610100808354040283529160200191610e39565b820191906000526020600020905b815481529060010190602001808311610e1c57829003601f168201915b505050505090806002018054610e4e9061253e565b80601f0160208091040260200160405190810160405280929190818152602001828054610e7a9061253e565b8015610ec75780601f10610e9c57610100808354040283529160200191610ec7565b820191906000526020600020905b815481529060010190602001808311610eaa57829003601f168201915b505050505090806003018054610edc9061253e565b80601f0160208091040260200160405190810160405280929190818152602001828054610f089061253e565b8015610f555780601f10610f2a57610100808354040283529160200191610f55565b820191906000526020600020905b815481529060010190602001808311610f3857829003601f168201915b5050505050908060040154908060050160009054906101000a900473ffffffffffffffffffffffffffffffffffffffff1690806006018054610f969061253e565b80601f0160208091040260200160405190810160405280929190818152602001828054610fc29061253e565b801561100f5780601f10610fe45761010080835404028352916020019161100f565b820191906000526020600020905b815481529060010190602001808311610ff257829003601f168201915b5050505050905087565b6060600580548060200260200160405190810160405280929190818152602001828054801561109d57602002820191906000526020600020905b8160009054906101000a900473ffffffffffffffffffffffffffffffffffffffff1673ffffffffffffffffffffffffffffffffffffffff1681526020019060010190808311611053575b5050505050905090565b600060608060006060600080600760008973ffffffffffffffffffffffffffffffffffffffff1673ffffffffffffffffffffffffffffffffffffffff16815260200190815260200160002060000154600760008a73ffffffffffffffffffffffffffffffffffffffff1673ffffffffffffffffffffffffffffffffffffffff168152602001908152602001600020600101600760008b73ffffffffffffffffffffffffffffffffffffffff1673ffffffffffffffffffffffffffffffffffffffff168152602001908152602001600020600201600760008c73ffffffffffffffffffffffffffffffffffffffff1673ffffffffffffffffffffffffffffffffffffffff16815260200190815260200160002060030160009054906101000a900473ffffffffffffffffffffffffffffffffffffffff16600760008d73ffffffffffffffffffffffffffffffffffffffff1673ffffffffffffffffffffffffffffffffffffffff168152602001908152602001600020600701600760008e73ffffffffffffffffffffffffffffffffffffffff1673ffffffffffffffffffffffffffffffffffffffff16815260200190815260200160002060050160009054906101000a900460ff16600760008f73ffffffffffffffffffffffffffffffffffffffff1673ffffffffffffffffffffffffffffffffffffffff168152602001908152602001600020600401548580546112be9061253e565b80601f01602080910402602001604051908101604052809291908181526020018280546112ea9061253e565b80156113375780601f1061130c57610100808354040283529160200191611337565b820191906000526020600020905b81548152906001019060200180831161131a57829003601f168201915b5050505050955084805461134a9061253e565b80601f01602080910402602001604051908101604052809291908181526020018280546113769061253e565b80156113c35780601f10611398576101008083540402835291602001916113c3565b820191906000526020600020905b8154815290600101906020018083116113a657829003601f168201915b505050505094508280546113d69061253e565b80601f01602080910402602001604051908101604052809291908181526020018280546114029061253e565b801561144f5780601f106114245761010080835404028352916020019161144f565b820191906000526020600020905b81548152906001019060200180831161143257829003601f168201915b505050505092509650965096509650965096509650919395979092949650565b60076020528060005260406000206000915090508060000154908060010180546114989061253e565b80601f01602080910402602001604051908101604052809291908181526020018280546114c49061253e565b80156115115780601f106114e657610100808354040283529160200191611511565b820191906000526020600020905b8154815290600101906020018083116114f457829003601f168201915b5050505050908060020180546115269061253e565b80601f01602080910402602001604051908101604052809291908181526020018280546115529061253e565b801561159f5780601f106115745761010080835404028352916020019161159f565b820191906000526020600020905b81548152906001019060200180831161158257829003601f168201915b5050505050908060030160009054906101000a900473ffffffffffffffffffffffffffffffffffffffff16908060040154908060050160009054906101000a900460ff16908060060154908060070180546115f99061253e565b80601f01602080910402602001604051908101604052809291908181526020018280546116259061253e565b80156116725780601f1061164757610100808354040283529160200191611672565b820191906000526020600020905b81548152906001019060200180831161165557829003601f168201915b5050505050905088565b60015481565b6060600680548060200260200160405190810160405280929190818152602001828054801561170657602002820191906000526020600020905b8160009054906101000a900473ffffffffffffffffffffffffffffffffffffffff1673ffffffffffffffffffffffffffffffffffffffff16815260200190600101908083116116bc575b5050505050905090565b60005481565b61171e611c10565b73ffffffffffffffffffffffffffffffffffffffff16600260009054906101000a900473ffffffffffffffffffffffffffffffffffffffff1673ffffffffffffffffffffffffffffffffffffffff16146117ad576040517f08c379a00000000000000000000000000000000000000000000000000000000081526004016117a4906129ec565b60405180910390fd5b600160008154809291906117c090612630565b9190505550600060015490506000600460008873ffffffffffffffffffffffffffffffffffffffff1673ffffffffffffffffffffffffffffffffffffffff1681526020019081526020016000209050818160000181905550858160010190816118299190612824565b508481600201908161183b9190612824565b508381600301908161184d9190612824565b5060008160040181905550868160050160006101000a81548173ffffffffffffffffffffffffffffffffffffffff021916908373ffffffffffffffffffffffffffffffffffffffff160217905550828160060190816118ac9190612824565b506003879080600181540180825580915050600190039060005260206000200160009091909190916101000a81548173ffffffffffffffffffffffffffffffffffffffff021916908373ffffffffffffffffffffffffffffffffffffffff160217905550817fd297f12b256bb8485a6013fb5e302017018123e99a0ebb20756c09e1707b4b9087878785600401548c8960405161194e96959493929190612a0c565b60405180910390a250505050505050565b611967611c10565b73ffffffffffffffffffffffffffffffffffffffff16600260009054906101000a900473ffffffffffffffffffffffffffffffffffffffff1673ffffffffffffffffffffffffffffffffffffffff16146119f6576040517f08c379a00000000000000000000000000000000000000000000000000000000081526004016119ed90612afb565b60405180910390fd5b60036000611a049190611c8d565b60066000611a129190611c8d565b60056000611a209190611c8d565b600060018190555060008081905550565b6000600380549050905090565b600060076000611a4c611c10565b73ffffffffffffffffffffffffffffffffffffffff1673ffffffffffffffffffffffffffffffffffffffff16815260200190815260200160002090508060050160009054906101000a900460ff1615611ada576040517f08c379a0000000000000000000000000000000000000000000000000000000008152600401611ad190612b67565b60405180910390fd5b6000816004015403611b21576040517f08c379a0000000000000000000000000000000000000000000000000000000008152600401611b1890612bd3565b60405180910390fd5b60018160050160006101000a81548160ff0219169083151502179055508181600601819055506005611b51611c10565b9080600181540180825580915050600190039060005260206000200160009091909190916101000a81548173ffffffffffffffffffffffffffffffffffffffff021916908373ffffffffffffffffffffffffffffffffffffffff1602179055506001600460008573ffffffffffffffffffffffffffffffffffffffff1673ffffffffffffffffffffffffffffffffffffffff1681526020019081526020016000206004016000828254611c049190612bf3565b92505081905550505050565b600080600036905090506000611c24611c7c565b9050808210158015611c3b5750611c3a3361093c565b5b15611c6c57600036828403908092611c5593929190612c31565b90611c609190612ca3565b60601c92505050611c79565b611c74611c85565b925050505b90565b60006014905090565b600033905090565b5080546000825590600052602060002090810190611cab9190611cae565b50565b5b80821115611cc7576000816000905550600101611caf565b5090565b6000819050919050565b611cde81611ccb565b82525050565b6000602082019050611cf96000830184611cd5565b92915050565b6000604051905090565b600080fd5b600080fd5b600073ffffffffffffffffffffffffffffffffffffffff82169050919050565b6000611d3e82611d13565b9050919050565b611d4e81611d33565b8114611d5957600080fd5b50565b600081359050611d6b81611d45565b92915050565b600060208284031215611d8757611d86611d09565b5b6000611d9584828501611d5c565b91505092915050565b600081519050919050565b600082825260208201905092915050565b60005b83811015611dd8578082015181840152602081019050611dbd565b60008484015250505050565b6000601f19601f8301169050919050565b6000611e0082611d9e565b611e0a8185611da9565b9350611e1a818560208601611dba565b611e2381611de4565b840191505092915050565b611e3781611d33565b82525050565b600060e0820190508181036000830152611e57818a611df5565b90508181036020830152611e6b8189611df5565b9050611e7a6040830188611cd5565b8181036060830152611e8c8187611df5565b9050611e9b6080830186611cd5565b81810360a0830152611ead8185611df5565b9050611ebc60c0830184611e2e565b98975050505050505050565b611ed181611ccb565b8114611edc57600080fd5b50565b600081359050611eee81611ec8565b92915050565b600060208284031215611f0a57611f09611d09565b5b6000611f1884828501611edf565b91505092915050565b6000602082019050611f366000830184611e2e565b92915050565b60008115159050919050565b611f5181611f3c565b82525050565b6000602082019050611f6c6000830184611f48565b92915050565b600081519050919050565b600082825260208201905092915050565b6000819050602082019050919050565b611fa781611d33565b82525050565b6000611fb98383611f9e565b60208301905092915050565b6000602082019050919050565b6000611fdd82611f72565b611fe78185611f7d565b9350611ff283611f8e565b8060005b8381101561202357815161200a8882611fad565b975061201583611fc5565b925050600181019050611ff6565b5085935050505092915050565b6000602082019050818103600083015261204a8184611fd2565b905092915050565b600080fd5b600080fd5b7f4e487b7100000000000000000000000000000000000000000000000000000000600052604160045260246000fd5b61209482611de4565b810181811067ffffffffffffffff821117156120b3576120b261205c565b5b80604052505050565b60006120c6611cff565b90506120d2828261208b565b919050565b600067ffffffffffffffff8211156120f2576120f161205c565b5b6120fb82611de4565b9050602081019050919050565b82818337600083830152505050565b600061212a612125846120d7565b6120bc565b90508281526020810184848401111561214657612145612057565b5b612151848285612108565b509392505050565b600082601f83011261216e5761216d612052565b5b813561217e848260208601612117565b91505092915050565b600080600080608085870312156121a1576121a0611d09565b5b60006121af87828801611d5c565b945050602085013567ffffffffffffffff8111156121d0576121cf611d0e565b5b6121dc87828801612159565b935050604085013567ffffffffffffffff8111156121fd576121fc611d0e565b5b61220987828801612159565b925050606085013567ffffffffffffffff81111561222a57612229611d0e565b5b61223687828801612159565b91505092959194509250565b600060e082019050612257600083018a611cd5565b81810360208301526122698189611df5565b9050818103604083015261227d8188611df5565b905081810360608301526122918187611df5565b90506122a06080830186611cd5565b6122ad60a0830185611e2e565b81810360c08301526122bf8184611df5565b905098975050505050505050565b600060e0820190506122e2600083018a611cd5565b81810360208301526122f48189611df5565b905081810360408301526123088188611df5565b90506123176060830187611e2e565b81810360808301526123298186611df5565b905061233860a0830185611f48565b61234560c0830184611cd5565b98975050505050505050565b600061010082019050612367600083018b611cd5565b8181036020830152612379818a611df5565b9050818103604083015261238d8189611df5565b905061239c6060830188611e2e565b6123a96080830187611cd5565b6123b660a0830186611f48565b6123c360c0830185611cd5565b81810360e08301526123d58184611df5565b90509998505050505050505050565b600080600080600060a08688031215612400576123ff611d09565b5b600061240e88828901611d5c565b955050602086013567ffffffffffffffff81111561242f5761242e611d0e565b5b61243b88828901612159565b945050604086013567ffffffffffffffff81111561245c5761245b611d0e565b5b61246888828901612159565b935050606086013567ffffffffffffffff81111561248957612488611d0e565b5b61249588828901612159565b925050608086013567ffffffffffffffff8111156124b6576124b5611d0e565b5b6124c288828901612159565b9150509295509295909350565b600080604083850312156124e6576124e5611d09565b5b60006124f485828601611d5c565b925050602061250585828601611edf565b9150509250929050565b7f4e487b7100000000000000000000000000000000000000000000000000000000600052602260045260246000fd5b6000600282049050600182168061255657607f821691505b6020821081036125695761256861250f565b5b50919050565b7f4f6e6c79206f7267616e697a65722063616e20637265617465206120766f746560008201527f7200000000000000000000000000000000000000000000000000000000000000602082015250565b60006125cb602183611da9565b91506125d68261256f565b604082019050919050565b600060208201905081810360008301526125fa816125be565b9050919050565b7f4e487b7100000000000000000000000000000000000000000000000000000000600052601160045260246000fd5b600061263b82611ccb565b91507fffffffffffffffffffffffffffffffffffffffffffffffffffffffffffffffff820361266d5761266c612601565b5b600182019050919050565b60008190508160005260206000209050919050565b60006020601f8301049050919050565b600082821b905092915050565b6000600883026126da7fffffffffffffffffffffffffffffffffffffffffffffffffffffffffffffffff8261269d565b6126e4868361269d565b95508019841693508086168417925050509392505050565b6000819050919050565b600061272161271c61271784611ccb565b6126fc565b611ccb565b9050919050565b6000819050919050565b61273b83612706565b61274f61274782612728565b8484546126aa565b825550505050565b600090565b612764612757565b61276f818484612732565b505050565b5b818110156127935761278860008261275c565b600181019050612775565b5050565b601f8211156127d8576127a981612678565b6127b28461268d565b810160208510156127c1578190505b6127d56127cd8561268d565b830182612774565b50505b505050565b600082821c905092915050565b60006127fb600019846008026127dd565b1980831691505092915050565b600061281483836127ea565b9150826002028217905092915050565b61282d82611d9e565b67ffffffffffffffff8111156128465761284561205c565b5b612850825461253e565b61285b828285612797565b600060209050601f83116001811461288e576000841561287c578287015190505b6128868582612808565b8655506128ee565b601f19841661289c86612678565b60005b828110156128c45784890151825560018201915060208501945060208101905061289f565b868310156128e157848901516128dd601f8916826127ea565b8355505b6001600288020188555050505b505050505050565b600060e0820190508181036000830152612910818a611df5565b905081810360208301526129248189611df5565b90506129336040830188611e2e565b6129406060830187611cd5565b61294d6080830186611f48565b61295a60a0830185611cd5565b81810360c083015261296c8184611df5565b905098975050505050505050565b7f4f6e6c79206f7267616e697a65722063616e2063726561746520612063616e6460008201527f6964617465000000000000000000000000000000000000000000000000000000602082015250565b60006129d6602583611da9565b91506129e18261297a565b604082019050919050565b60006020820190508181036000830152612a05816129c9565b9050919050565b600060c0820190508181036000830152612a268189611df5565b90508181036020830152612a3a8188611df5565b90508181036040830152612a4e8187611df5565b9050612a5d6060830186611cd5565b612a6a6080830185611e2e565b81810360a0830152612a7c8184611df5565b9050979650505050505050565b7f4f6e6c79206f7267616e697a65722063616e2072657365742074686520656c6560008201527f6374696f6e000000000000000000000000000000000000000000000000000000602082015250565b6000612ae5602583611da9565b9150612af082612a89565b604082019050919050565b60006020820190508181036000830152612b1481612ad8565b9050919050565b7f596f75206861766520616c726561647920766f74656400000000000000000000600082015250565b6000612b51601683611da9565b9150612b5c82612b1b565b602082019050919050565b60006020820190508181036000830152612b8081612b44565b9050919050565b7f596f752068617665206e6f20726967687420746f20766f746500000000000000600082015250565b6000612bbd601983611da9565b9150612bc882612b87565b602082019050919050565b60006020820190508181036000830152612bec81612bb0565b9050919050565b6000612bfe82611ccb565b9150612c0983611ccb565b9250828201905080821115612c2157612c20612601565b5b92915050565b600080fd5b600080fd5b60008085851115612c4557612c44612c27565b5b83861115612c5657612c55612c2c565b5b6001850283019150848603905094509492505050565b600082905092915050565b60007fffffffffffffffffffffffffffffffffffffffff00000000000000000000000082169050919050565b6000612caf8383612c6c565b82612cba8135612c77565b92506014821015612cfa57612cf57fffffffffffffffffffffffffffffffffffffffff0000000000000000000000008360140360080261269d565b831692505b50509291505056fea264697066735822122038e086dacbee0c4cee6ad24adcc78771dc107a84635eb480eb8565e7e874328b64736f6c63430008140033",
  "linkReferences": {},
  "deployedLinkReferences": {}
}